{
  "_format": "hh-sol-artifact-1",
  "contractName": "Shop",
  "sourceName": "contracts/Shop.sol",
  "abi": [
    {
      "inputs": [
        {
          "internalType": "address",
          "name": "_owner",
          "type": "address"
        },
        {
          "internalType": "string",
          "name": "_name",
          "type": "string"
        },
        {
          "internalType": "string",
          "name": "_image",
          "type": "string"
        },
        {
          "internalType": "uint256",
          "name": "_shopId",
          "type": "uint256"
        },
        {
          "internalType": "address",
          "name": "_governor",
          "type": "address"
        },
        {
          "internalType": "address",
          "name": "_nftAddress",
          "type": "address"
        }
      ],
      "stateMutability": "nonpayable",
      "type": "constructor"
    },
    {
      "anonymous": false,
      "inputs": [
        {
          "indexed": false,
          "internalType": "uint256",
          "name": "itemId",
          "type": "uint256"
        },
        {
          "indexed": false,
          "internalType": "uint256",
          "name": "price",
          "type": "uint256"
        }
      ],
      "name": "ItemCreated",
      "type": "event"
    },
    {
      "inputs": [
        {
          "internalType": "address",
          "name": "",
          "type": "address"
        }
      ],
      "name": "affiliates",
      "outputs": [
        {
          "internalType": "uint256",
          "name": "percentage",
          "type": "uint256"
        },
        {
          "internalType": "address",
          "name": "affAddr",
          "type": "address"
        },
        {
          "internalType": "uint256",
          "name": "id",
          "type": "uint256"
        }
      ],
      "stateMutability": "view",
      "type": "function"
    },
    {
      "inputs": [
        {
          "internalType": "address",
          "name": "affAddr",
          "type": "address"
        }
      ],
      "name": "approveAffiliate",
      "outputs": [],
      "stateMutability": "nonpayable",
      "type": "function"
    },
    {
      "inputs": [
        {
          "internalType": "uint256",
          "name": "",
          "type": "uint256"
        }
      ],
      "name": "approvedAffArr",
      "outputs": [
        {
          "internalType": "uint256",
          "name": "percentage",
          "type": "uint256"
        },
        {
          "internalType": "address",
          "name": "affAddr",
          "type": "address"
        },
        {
          "internalType": "uint256",
          "name": "id",
          "type": "uint256"
        }
      ],
      "stateMutability": "view",
      "type": "function"
    },
    {
      "inputs": [
        {
          "internalType": "address",
          "name": "affAddr",
          "type": "address"
        }
      ],
      "name": "cancelAffiliate",
      "outputs": [],
      "stateMutability": "nonpayable",
      "type": "function"
    },
    {
      "inputs": [
        {
          "internalType": "uint256",
          "name": "_price",
          "type": "uint256"
        },
        {
          "internalType": "string",
          "name": "_filePath",
          "type": "string"
        },
        {
          "internalType": "string",
          "name": "_tokenURI",
          "type": "string"
        }
      ],
      "name": "createItem",
      "outputs": [],
      "stateMutability": "payable",
      "type": "function"
    },
    {
      "inputs": [
        {
          "internalType": "uint256",
          "name": "_id",
          "type": "uint256"
        }
      ],
      "name": "deleteItem",
      "outputs": [],
      "stateMutability": "nonpayable",
      "type": "function"
    },
    {
      "inputs": [],
      "name": "fetchCatalogItems",
      "outputs": [
        {
          "components": [
            {
              "internalType": "uint256",
              "name": "itemId",
              "type": "uint256"
            },
            {
              "internalType": "uint256",
              "name": "price",
              "type": "uint256"
            },
            {
              "internalType": "bool",
              "name": "isDeleted",
              "type": "bool"
            }
          ],
          "internalType": "struct Item[]",
          "name": "",
          "type": "tuple[]"
        }
      ],
      "stateMutability": "view",
      "type": "function"
    },
    {
      "inputs": [
        {
          "internalType": "uint256",
          "name": "_itemId",
          "type": "uint256"
        }
      ],
      "name": "fetchItemLink",
      "outputs": [
        {
          "internalType": "string",
          "name": "",
          "type": "string"
        }
      ],
      "stateMutability": "view",
      "type": "function"
    },
    {
      "inputs": [],
      "name": "fetchTransactions",
      "outputs": [
        {
          "components": [
            {
              "internalType": "uint256",
              "name": "transId",
              "type": "uint256"
            },
            {
              "internalType": "uint256[]",
              "name": "itemIds",
              "type": "uint256[]"
            },
            {
              "internalType": "uint256[]",
              "name": "itemQty",
              "type": "uint256[]"
            },
            {
              "internalType": "uint256",
              "name": "total",
              "type": "uint256"
            },
            {
              "internalType": "bool",
              "name": "isValid",
              "type": "bool"
            },
            {
              "internalType": "address",
              "name": "client",
              "type": "address"
            },
            {
              "internalType": "uint256",
              "name": "review",
              "type": "uint256"
            },
            {
              "internalType": "bool",
              "name": "isReviewed",
              "type": "bool"
            },
            {
              "internalType": "uint256",
              "name": "affPercentage",
              "type": "uint256"
            }
          ],
          "internalType": "struct Shop.Trans[]",
          "name": "",
          "type": "tuple[]"
        }
      ],
      "stateMutability": "view",
      "type": "function"
    },
    {
      "inputs": [],
      "name": "freeTransactions",
      "outputs": [
        {
          "internalType": "uint256",
          "name": "",
          "type": "uint256"
        }
      ],
      "stateMutability": "view",
      "type": "function"
    },
    {
      "inputs": [],
      "name": "getApprovedAffiliates",
      "outputs": [
        {
          "components": [
            {
              "internalType": "uint256",
              "name": "percentage",
              "type": "uint256"
            },
            {
              "internalType": "address",
              "name": "affAddr",
              "type": "address"
            },
            {
              "internalType": "uint256",
              "name": "id",
              "type": "uint256"
            }
          ],
          "internalType": "struct Shop.Affiliate[]",
          "name": "",
          "type": "tuple[]"
        }
      ],
      "stateMutability": "view",
      "type": "function"
    },
    {
      "inputs": [],
      "name": "getProposedAffiliates",
      "outputs": [
        {
          "components": [
            {
              "internalType": "uint256",
              "name": "percentage",
              "type": "uint256"
            },
            {
              "internalType": "address",
              "name": "affAddr",
              "type": "address"
            },
            {
              "internalType": "uint256",
              "name": "id",
              "type": "uint256"
            }
          ],
          "internalType": "struct Shop.Affiliate[]",
          "name": "",
          "type": "tuple[]"
        }
      ],
      "stateMutability": "view",
      "type": "function"
    },
    {
      "inputs": [
        {
          "internalType": "uint256",
          "name": "stars",
          "type": "uint256"
        },
        {
          "internalType": "uint256",
          "name": "transId",
          "type": "uint256"
        }
      ],
      "name": "giveReview",
      "outputs": [],
      "stateMutability": "nonpayable",
      "type": "function"
    },
    {
      "inputs": [],
      "name": "governor",
      "outputs": [
        {
          "internalType": "address payable",
          "name": "",
          "type": "address"
        }
      ],
      "stateMutability": "view",
      "type": "function"
    },
    {
      "inputs": [],
      "name": "image",
      "outputs": [
        {
          "internalType": "string",
          "name": "",
          "type": "string"
        }
      ],
      "stateMutability": "view",
      "type": "function"
    },
    {
      "inputs": [
        {
          "internalType": "uint256[]",
          "name": "itemIds",
          "type": "uint256[]"
        },
        {
          "internalType": "uint256[]",
          "name": "itemQty",
          "type": "uint256[]"
        },
        {
          "internalType": "address",
          "name": "affAddr",
          "type": "address"
        }
      ],
      "name": "makeTransaction",
      "outputs": [
        {
          "internalType": "uint256",
          "name": "transactionId",
          "type": "uint256"
        }
      ],
      "stateMutability": "payable",
      "type": "function"
    },
    {
      "inputs": [],
      "name": "name",
      "outputs": [
        {
          "internalType": "string",
          "name": "",
          "type": "string"
        }
      ],
      "stateMutability": "view",
      "type": "function"
    },
    {
      "inputs": [],
      "name": "nftAddress",
      "outputs": [
        {
          "internalType": "address payable",
          "name": "",
          "type": "address"
        }
      ],
      "stateMutability": "view",
      "type": "function"
    },
    {
      "inputs": [],
      "name": "owner",
      "outputs": [
        {
          "internalType": "address payable",
          "name": "",
          "type": "address"
        }
      ],
      "stateMutability": "view",
      "type": "function"
    },
    {
      "inputs": [
        {
          "internalType": "uint256",
          "name": "percentage",
          "type": "uint256"
        }
      ],
      "name": "proposeAffiliate",
      "outputs": [],
      "stateMutability": "nonpayable",
      "type": "function"
    },
    {
      "inputs": [
        {
          "internalType": "uint256",
          "name": "",
          "type": "uint256"
        }
      ],
      "name": "proposedAffArr",
      "outputs": [
        {
          "internalType": "uint256",
          "name": "percentage",
          "type": "uint256"
        },
        {
          "internalType": "address",
          "name": "affAddr",
          "type": "address"
        },
        {
          "internalType": "uint256",
          "name": "id",
          "type": "uint256"
        }
      ],
      "stateMutability": "view",
      "type": "function"
    },
    {
      "inputs": [
        {
          "internalType": "address",
          "name": "",
          "type": "address"
        }
      ],
      "name": "proposedAffiliates",
      "outputs": [
        {
          "internalType": "uint256",
          "name": "percentage",
          "type": "uint256"
        },
        {
          "internalType": "address",
          "name": "affAddr",
          "type": "address"
        },
        {
          "internalType": "uint256",
          "name": "id",
          "type": "uint256"
        }
      ],
      "stateMutability": "view",
      "type": "function"
    },
    {
      "inputs": [],
      "name": "selfDestruct",
      "outputs": [],
      "stateMutability": "nonpayable",
      "type": "function"
    },
    {
      "inputs": [
        {
          "internalType": "uint256",
          "name": "_freeTransactions",
          "type": "uint256"
        }
      ],
      "name": "setFreeTransactions",
      "outputs": [],
      "stateMutability": "nonpayable",
      "type": "function"
    },
    {
      "inputs": [
        {
          "internalType": "uint256",
          "name": "_itemId",
          "type": "uint256"
        },
        {
          "internalType": "string",
          "name": "_fileLink",
          "type": "string"
        }
      ],
      "name": "setItemLink",
      "outputs": [],
      "stateMutability": "nonpayable",
      "type": "function"
    },
    {
      "inputs": [],
      "name": "shopId",
      "outputs": [
        {
          "internalType": "uint256",
          "name": "",
          "type": "uint256"
        }
      ],
      "stateMutability": "view",
      "type": "function"
    },
    {
      "inputs": [
        {
          "internalType": "uint256",
          "name": "",
          "type": "uint256"
        }
      ],
      "name": "transactions",
      "outputs": [
        {
          "internalType": "uint256",
          "name": "transId",
          "type": "uint256"
        },
        {
          "internalType": "uint256",
          "name": "total",
          "type": "uint256"
        },
        {
          "internalType": "bool",
          "name": "isValid",
          "type": "bool"
        },
        {
          "internalType": "address",
          "name": "client",
          "type": "address"
        },
        {
          "internalType": "uint256",
          "name": "review",
          "type": "uint256"
        },
        {
          "internalType": "bool",
          "name": "isReviewed",
          "type": "bool"
        },
        {
          "internalType": "uint256",
          "name": "affPercentage",
          "type": "uint256"
        }
      ],
      "stateMutability": "view",
      "type": "function"
    },
    {
      "inputs": [],
      "name": "transactionsCount",
      "outputs": [
        {
          "internalType": "uint256",
          "name": "_value",
          "type": "uint256"
        }
      ],
      "stateMutability": "view",
      "type": "function"
    }
  ],
  "bytecode": "0x60806040526103e86007553480156200001757600080fd5b506040516200428f3803806200428f83398181016040528101906200003d919062000295565b85600460006101000a81548173ffffffffffffffffffffffffffffffffffffffff021916908373ffffffffffffffffffffffffffffffffffffffff16021790555084600190805190602001906200009692919062000145565b508360039080519060200190620000af92919062000145565b508260028190555081600560006101000a81548173ffffffffffffffffffffffffffffffffffffffff021916908373ffffffffffffffffffffffffffffffffffffffff16021790555080600660006101000a81548173ffffffffffffffffffffffffffffffffffffffff021916908373ffffffffffffffffffffffffffffffffffffffff1602179055505050505050506200053f565b828054620001539062000430565b90600052602060002090601f016020900481019282620001775760008555620001c3565b82601f106200019257805160ff1916838001178555620001c3565b82800160010185558215620001c3579182015b82811115620001c2578251825591602001919060010190620001a5565b5b509050620001d29190620001d6565b5090565b5b80821115620001f1576000816000905550600101620001d7565b5090565b60006200020c620002068462000386565b6200035d565b9050828152602081018484840111156200022557600080fd5b62000232848285620003fa565b509392505050565b6000815190506200024b816200050b565b92915050565b600082601f8301126200026357600080fd5b815162000275848260208601620001f5565b91505092915050565b6000815190506200028f8162000525565b92915050565b60008060008060008060c08789031215620002af57600080fd5b6000620002bf89828a016200023a565b965050602087015167ffffffffffffffff811115620002dd57600080fd5b620002eb89828a0162000251565b955050604087015167ffffffffffffffff8111156200030957600080fd5b6200031789828a0162000251565b94505060606200032a89828a016200027e565b93505060806200033d89828a016200023a565b92505060a06200035089828a016200023a565b9150509295509295509295565b6000620003696200037c565b905062000377828262000466565b919050565b6000604051905090565b600067ffffffffffffffff821115620003a457620003a3620004cb565b5b620003af82620004fa565b9050602081019050919050565b6000620003c982620003d0565b9050919050565b600073ffffffffffffffffffffffffffffffffffffffff82169050919050565b6000819050919050565b60005b838110156200041a578082015181840152602081019050620003fd565b838111156200042a576000848401525b50505050565b600060028204905060018216806200044957607f821691505b6020821081141562000460576200045f6200049c565b5b50919050565b6200047182620004fa565b810181811067ffffffffffffffff82111715620004935762000492620004cb565b5b80604052505050565b7f4e487b7100000000000000000000000000000000000000000000000000000000600052602260045260246000fd5b7f4e487b7100000000000000000000000000000000000000000000000000000000600052604160045260246000fd5b6000601f19601f8301169050919050565b6200051681620003bc565b81146200052257600080fd5b50565b6200053081620003f0565b81146200053c57600080fd5b50565b613d40806200054f6000396000f3fe6080604052600436106101b75760003560e01c80638b4989af116100ec578063dc67057a1161008a578063f0547bc811610064578063f0547bc814610614578063f3ccaac01461063d578063f5b89aac14610668578063fd99a74614610693576101b7565b8063dc67057a14610592578063e447ecef146105ae578063ec4fe490146105d7576101b7565b80639ace38c2116100c65780639ace38c2146104e25780639cb8a26a14610525578063a4b78a5d1461053c578063c79c6dba14610567576101b7565b80638b4989af1461045e5780638cf27994146104875780638da5cb5b146104b7576101b7565b806330ac4234116101595780635f6ad596116101335780635f6ad596146103a4578063654fc833146103cd57806376aadd73146103f65780638013f0b61461041f576101b7565b806330ac4234146102fb5780634f51e2941461033a5780635bf8633a14610379576101b7565b80630c340a24116101955780630c340a241461024f5780630cc9dc7d1461027a5780632477eaae146102a5578063309c4e1d146102d0576101b7565b806306fdde03146101bc578063070c24b0146101e7578063090567d214610226575b600080fd5b3480156101c857600080fd5b506101d16106be565b6040516101de91906133eb565b60405180910390f35b3480156101f357600080fd5b5061020e60048036038101906102099190612b3b565b61074c565b60405161021d93929190613595565b60405180910390f35b34801561023257600080fd5b5061024d60048036038101906102489190612c24565b610796565b005b34801561025b57600080fd5b50610264610830565b6040516102719190613325565b60405180910390f35b34801561028657600080fd5b5061028f610856565b60405161029c919061357a565b60405180910390f35b3480156102b157600080fd5b506102ba61085c565b6040516102c791906133c9565b60405180910390f35b3480156102dc57600080fd5b506102e5610a20565b6040516102f29190613385565b60405180910390f35b34801561030757600080fd5b50610322600480360381019061031d9190612c24565b610ae9565b60405161033193929190613595565b60405180910390f35b34801561034657600080fd5b50610361600480360381019061035c9190612b3b565b610b43565b60405161037093929190613595565b60405180910390f35b34801561038557600080fd5b5061038e610b8d565b60405161039b9190613325565b60405180910390f35b3480156103b057600080fd5b506103cb60048036038101906103c69190612c24565b610bb3565b005b3480156103d957600080fd5b506103f460048036038101906103ef9190612c24565b610e37565b005b34801561040257600080fd5b5061041d60048036038101906104189190612b3b565b610f36565b005b34801561042b57600080fd5b5061044660048036038101906104419190612c24565b6112c4565b60405161045593929190613595565b60405180910390f35b34801561046a57600080fd5b5061048560048036038101906104809190612d20565b61131e565b005b6104a1600480360381019061049c9190612ba5565b6114af565b6040516104ae919061357a565b60405180910390f35b3480156104c357600080fd5b506104cc611b7b565b6040516104d99190613325565b60405180910390f35b3480156104ee57600080fd5b5061050960048036038101906105049190612c24565b611ba1565b60405161051c9796959493929190613625565b60405180910390f35b34801561053157600080fd5b5061053a611c2d565b005b34801561054857600080fd5b50610551611cf8565b60405161055e919061357a565b60405180910390f35b34801561057357600080fd5b5061057c611cfe565b6040516105899190613385565b60405180910390f35b6105ac60048036038101906105a79190612ca1565b611dc7565b005b3480156105ba57600080fd5b506105d560048036038101906105d09190612c4d565b611fee565b005b3480156105e357600080fd5b506105fe60048036038101906105f99190612c24565b6120aa565b60405161060b91906133eb565b60405180910390f35b34801561062057600080fd5b5061063b60048036038101906106369190612b3b565b61214f565b005b34801561064957600080fd5b50610652612636565b60405161065f91906133eb565b60405180910390f35b34801561067457600080fd5b5061067d6126c4565b60405161068a91906133a7565b60405180910390f35b34801561069f57600080fd5b506106a861275a565b6040516106b5919061357a565b60405180910390f35b600180546106cb90613a04565b80601f01602080910402602001604051908101604052809291908181526020018280546106f790613a04565b80156107445780601f1061071957610100808354040283529160200191610744565b820191906000526020600020905b81548152906001019060200180831161072757829003601f168201915b505050505081565b600c6020528060005260406000206000915090508060000154908060010160009054906101000a900473ffffffffffffffffffffffffffffffffffffffff16908060020154905083565b600560009054906101000a900473ffffffffffffffffffffffffffffffffffffffff1673ffffffffffffffffffffffffffffffffffffffff163373ffffffffffffffffffffffffffffffffffffffff1614610826576040517f08c379a000000000000000000000000000000000000000000000000000000000815260040161081d906134ed565b60405180910390fd5b8060078190555050565b600560009054906101000a900473ffffffffffffffffffffffffffffffffffffffff1681565b60075481565b60606011805480602002602001604051908101604052809291908181526020016000905b82821015610a1757838290600052602060002090600802016040518061012001604052908160008201548152602001600182018054806020026020016040519081016040528092919081815260200182805480156108fd57602002820191906000526020600020905b8154815260200190600101908083116108e9575b505050505081526020016002820180548060200260200160405190810160405280929190818152602001828054801561095557602002820191906000526020600020905b815481526020019060010190808311610941575b50505050508152602001600382015481526020016004820160009054906101000a900460ff161515151581526020016004820160019054906101000a900473ffffffffffffffffffffffffffffffffffffffff1673ffffffffffffffffffffffffffffffffffffffff1673ffffffffffffffffffffffffffffffffffffffff168152602001600582015481526020016006820160009054906101000a900460ff1615151515815260200160078201548152505081526020019060010190610880565b50505050905090565b6060600b805480602002602001604051908101604052809291908181526020016000905b82821015610ae05783829060005260206000209060030201604051806060016040529081600082015481526020016001820160009054906101000a900473ffffffffffffffffffffffffffffffffffffffff1673ffffffffffffffffffffffffffffffffffffffff1673ffffffffffffffffffffffffffffffffffffffff16815260200160028201548152505081526020019060010190610a44565b50505050905090565b600b8181548110610af957600080fd5b90600052602060002090600302016000915090508060000154908060010160009054906101000a900473ffffffffffffffffffffffffffffffffffffffff16908060020154905083565b600d6020528060005260406000206000915090508060000154908060010160009054906101000a900473ffffffffffffffffffffffffffffffffffffffff16908060020154905083565b600660009054906101000a900473ffffffffffffffffffffffffffffffffffffffff1681565b6000600d60003373ffffffffffffffffffffffffffffffffffffffff1673ffffffffffffffffffffffffffffffffffffffff1681526020019081526020016000206000015414610c38576040517f08c379a0000000000000000000000000000000000000000000000000000000008152600401610c2f9061346d565b60405180910390fd5b60008111610c7b576040517f08c379a0000000000000000000000000000000000000000000000000000000008152600401610c729061342d565b60405180910390fd5b60648110610cbe576040517f08c379a0000000000000000000000000000000000000000000000000000000008152600401610cb5906134ad565b60405180910390fd5b6000610cca6009612766565b9050600060405180606001604052808481526020013373ffffffffffffffffffffffffffffffffffffffff16815260200183815250905080600c60003373ffffffffffffffffffffffffffffffffffffffff1673ffffffffffffffffffffffffffffffffffffffff1681526020019081526020016000206000820151816000015560208201518160010160006101000a81548173ffffffffffffffffffffffffffffffffffffffff021916908373ffffffffffffffffffffffffffffffffffffffff16021790555060408201518160020155905050600a8190806001815401808255809150506001900390600052602060002090600302016000909190919091506000820151816000015560208201518160010160006101000a81548173ffffffffffffffffffffffffffffffffffffffff021916908373ffffffffffffffffffffffffffffffffffffffff160217905550604082015181600201555050610e326009612774565b505050565b600460009054906101000a900473ffffffffffffffffffffffffffffffffffffffff1673ffffffffffffffffffffffffffffffffffffffff163373ffffffffffffffffffffffffffffffffffffffff1614610ec7576040517f08c379a0000000000000000000000000000000000000000000000000000000008152600401610ebe9061340d565b60405180910390fd5b600073__$2504da76dd911be12547f2608c53b8702a$__63ef57f72c9091836040518363ffffffff1660e01b8152600401610f03929190613551565b60006040518083038186803b158015610f1b57600080fd5b505af4158015610f2f573d6000803e3d6000fd5b5050505050565b600460009054906101000a900473ffffffffffffffffffffffffffffffffffffffff1673ffffffffffffffffffffffffffffffffffffffff163373ffffffffffffffffffffffffffffffffffffffff1614610fc6576040517f08c379a0000000000000000000000000000000000000000000000000000000008152600401610fbd9061340d565b60405180910390fd5b60005b600b80549050811015611247578173ffffffffffffffffffffffffffffffffffffffff16600b8281548110611027577f4e487b7100000000000000000000000000000000000000000000000000000000600052603260045260246000fd5b906000526020600020906003020160010160009054906101000a900473ffffffffffffffffffffffffffffffffffffffff1673ffffffffffffffffffffffffffffffffffffffff16141561123457600b81815481106110af577f4e487b7100000000000000000000000000000000000000000000000000000000600052603260045260246000fd5b90600052602060002090600302016000808201600090556001820160006101000a81549073ffffffffffffffffffffffffffffffffffffffff0219169055600282016000905550506001600b805490506111099190613934565b811461122f57600b6001600b805490506111239190613934565b8154811061115a577f4e487b7100000000000000000000000000000000000000000000000000000000600052603260045260246000fd5b9060005260206000209060030201600b82815481106111a2577f4e487b7100000000000000000000000000000000000000000000000000000000600052603260045260246000fd5b9060005260206000209060030201600082015481600001556001820160009054906101000a900473ffffffffffffffffffffffffffffffffffffffff168160010160006101000a81548173ffffffffffffffffffffffffffffffffffffffff021916908373ffffffffffffffffffffffffffffffffffffffff160217905550600282015481600201559050505b611247565b808061123f90613a67565b915050610fc9565b50600d60008273ffffffffffffffffffffffffffffffffffffffff1673ffffffffffffffffffffffffffffffffffffffff1681526020019081526020016000206000808201600090556001820160006101000a81549073ffffffffffffffffffffffffffffffffffffffff02191690556002820160009055505050565b600a81815481106112d457600080fd5b90600052602060002090600302016000915090508060000154908060010160009054906101000a900473ffffffffffffffffffffffffffffffffffffffff16908060020154905083565b3373ffffffffffffffffffffffffffffffffffffffff166011828154811061136f577f4e487b7100000000000000000000000000000000000000000000000000000000600052603260045260246000fd5b906000526020600020906008020160040160019054906101000a900473ffffffffffffffffffffffffffffffffffffffff1673ffffffffffffffffffffffffffffffffffffffff16146113f7576040517f08c379a00000000000000000000000000000000000000000000000000000000081526004016113ee9061348d565b60405180910390fd5b8160118281548110611432577f4e487b7100000000000000000000000000000000000000000000000000000000600052603260045260246000fd5b906000526020600020906008020160050181905550600160118281548110611483577f4e487b7100000000000000000000000000000000000000000000000000000000600052603260045260246000fd5b906000526020600020906008020160060160006101000a81548160ff0219169083151502179055505050565b60006114b96127cc565b600073ffffffffffffffffffffffffffffffffffffffff168373ffffffffffffffffffffffffffffffffffffffff161461161857600d60008473ffffffffffffffffffffffffffffffffffffffff1673ffffffffffffffffffffffffffffffffffffffff168152602001908152602001600020604051806060016040529081600082015481526020016001820160009054906101000a900473ffffffffffffffffffffffffffffffffffffffff1673ffffffffffffffffffffffffffffffffffffffff1673ffffffffffffffffffffffffffffffffffffffff1681526020016002820154815250509050600073ffffffffffffffffffffffffffffffffffffffff16816020015173ffffffffffffffffffffffffffffffffffffffff161415611617576040517f08c379a000000000000000000000000000000000000000000000000000000000815260040161160e906134cd565b60405180910390fd5b5b6000808087519050600091505b8082101561172657868281518110611666577f4e487b7100000000000000000000000000000000000000000000000000000000600052603260045260246000fd5b6020026020010151600080018984815181106116ab577f4e487b7100000000000000000000000000000000000000000000000000000000600052603260045260246000fd5b6020026020010151815481106116ea577f4e487b7100000000000000000000000000000000000000000000000000000000600052603260045260246000fd5b90600052602060002090600302016001015461170691906138da565b836117119190613853565b9250818061171e90613a67565b925050611625565b82341015611769576040517f08c379a00000000000000000000000000000000000000000000000000000000081526004016117609061344d565b60405180910390fd5b600660009054906101000a900473ffffffffffffffffffffffffffffffffffffffff1673ffffffffffffffffffffffffffffffffffffffff16634cfc8ed7338a8a6040518463ffffffff1660e01b81526004016117c893929190613340565b600060405180830381600087803b1580156117e257600080fd5b505af11580156117f6573d6000803e3d6000fd5b505050506118046010612774565b6000806007546118146010612766565b11156118315761182e60648661278a90919063ffffffff16565b90505b600073ffffffffffffffffffffffffffffffffffffffff168873ffffffffffffffffffffffffffffffffffffffff16146118dd5761188f866000015161188160648861278a90919063ffffffff16565b6127a090919063ffffffff16565b9150856020015173ffffffffffffffffffffffffffffffffffffffff166108fc839081150290604051600060405180830381858888f193505050501580156118db573d6000803e3d6000fd5b505b600460009054906101000a900473ffffffffffffffffffffffffffffffffffffffff1673ffffffffffffffffffffffffffffffffffffffff166108fc61193e84611930858a6127b690919063ffffffff16565b6127b690919063ffffffff16565b9081150290604051600060405180830381858888f19350505050158015611969573d6000803e3d6000fd5b5060008111156119dd57600560009054906101000a900473ffffffffffffffffffffffffffffffffffffffff1673ffffffffffffffffffffffffffffffffffffffff166108fc829081150290604051600060405180830381858888f193505050501580156119db573d6000803e3d6000fd5b505b60006119e9600f612766565b905060116040518061012001604052808381526020018d81526020018c81526020018881526020016001151581526020013373ffffffffffffffffffffffffffffffffffffffff1681526020016000815260200160001515815260200160008152509080600181540180825580915050600190039060005260206000209060080201600090919091909150600082015181600001556020820151816001019080519060200190611a9a929190612803565b506040820151816002019080519060200190611ab7929190612803565b506060820151816003015560808201518160040160006101000a81548160ff02191690831515021790555060a08201518160040160016101000a81548173ffffffffffffffffffffffffffffffffffffffff021916908373ffffffffffffffffffffffffffffffffffffffff16021790555060c0820151816005015560e08201518160060160006101000a81548160ff02191690831515021790555061010082015181600701555050611b6a600f612774565b809750505050505050509392505050565b600460009054906101000a900473ffffffffffffffffffffffffffffffffffffffff1681565b60118181548110611bb157600080fd5b90600052602060002090600802016000915090508060000154908060030154908060040160009054906101000a900460ff16908060040160019054906101000a900473ffffffffffffffffffffffffffffffffffffffff16908060050154908060060160009054906101000a900460ff16908060070154905087565b600560009054906101000a900473ffffffffffffffffffffffffffffffffffffffff1673ffffffffffffffffffffffffffffffffffffffff163373ffffffffffffffffffffffffffffffffffffffff1614611cbd576040517f08c379a0000000000000000000000000000000000000000000000000000000008152600401611cb4906134ed565b60405180910390fd5b600560009054906101000a900473ffffffffffffffffffffffffffffffffffffffff1673ffffffffffffffffffffffffffffffffffffffff16ff5b60025481565b6060600a805480602002602001604051908101604052809291908181526020016000905b82821015611dbe5783829060005260206000209060030201604051806060016040529081600082015481526020016001820160009054906101000a900473ffffffffffffffffffffffffffffffffffffffff1673ffffffffffffffffffffffffffffffffffffffff1673ffffffffffffffffffffffffffffffffffffffff16815260200160028201548152505081526020019060010190611d22565b50505050905090565b600460009054906101000a900473ffffffffffffffffffffffffffffffffffffffff1673ffffffffffffffffffffffffffffffffffffffff163373ffffffffffffffffffffffffffffffffffffffff1614611e57576040517f08c379a0000000000000000000000000000000000000000000000000000000008152600401611e4e9061340d565b60405180910390fd5b6000611e636008612766565b9050600660009054906101000a900473ffffffffffffffffffffffffffffffffffffffff1673ffffffffffffffffffffffffffffffffffffffff1663ba5a941482846040518363ffffffff1660e01b8152600401611ec29291906135cc565b600060405180830381600087803b158015611edc57600080fd5b505af1158015611ef0573d6000803e3d6000fd5b50505050600073__$2504da76dd911be12547f2608c53b8702a$__63fef3c5a390916040518060600160405280858152602001888152602001600015158152506040518363ffffffff1660e01b8152600401611f4d929190613528565b60006040518083038186803b158015611f6557600080fd5b505af4158015611f79573d6000803e3d6000fd5b5050505082600e60008381526020019081526020016000209080519060200190611fa4929190612850565b50611faf6008612774565b7f591fb83da607b2c6982a1348c1689d04071f4851678881f0a7dd64331770cf5c8185604051611fe09291906135fc565b60405180910390a150505050565b600460009054906101000a900473ffffffffffffffffffffffffffffffffffffffff1673ffffffffffffffffffffffffffffffffffffffff163373ffffffffffffffffffffffffffffffffffffffff161461207e576040517f08c379a00000000000000000000000000000000000000000000000000000000081526004016120759061340d565b60405180910390fd5b80600e600084815260200190815260200160002090805190602001906120a5929190612850565b505050565b6060600e600083815260200190815260200160002080546120ca90613a04565b80601f01602080910402602001604051908101604052809291908181526020018280546120f690613a04565b80156121435780601f1061211857610100808354040283529160200191612143565b820191906000526020600020905b81548152906001019060200180831161212657829003601f168201915b50505050509050919050565b600460009054906101000a900473ffffffffffffffffffffffffffffffffffffffff1673ffffffffffffffffffffffffffffffffffffffff163373ffffffffffffffffffffffffffffffffffffffff16146121df576040517f08c379a00000000000000000000000000000000000000000000000000000000081526004016121d69061340d565b60405180910390fd5b600c60008273ffffffffffffffffffffffffffffffffffffffff1673ffffffffffffffffffffffffffffffffffffffff168152602001908152602001600020600d60008373ffffffffffffffffffffffffffffffffffffffff1673ffffffffffffffffffffffffffffffffffffffff168152602001908152602001600020600082015481600001556001820160009054906101000a900473ffffffffffffffffffffffffffffffffffffffff168160010160006101000a81548173ffffffffffffffffffffffffffffffffffffffff021916908373ffffffffffffffffffffffffffffffffffffffff160217905550600282015481600201559050506000600c60008373ffffffffffffffffffffffffffffffffffffffff1673ffffffffffffffffffffffffffffffffffffffff168152602001908152602001600020600201549050600b600d60008473ffffffffffffffffffffffffffffffffffffffff1673ffffffffffffffffffffffffffffffffffffffff1681526020019081526020016000209080600181540180825580915050600190039060005260206000209060030201600090919091909150600082015481600001556001820160009054906101000a900473ffffffffffffffffffffffffffffffffffffffff168160010160006101000a81548173ffffffffffffffffffffffffffffffffffffffff021916908373ffffffffffffffffffffffffffffffffffffffff160217905550600282015481600201555050600a8181548110612443577f4e487b7100000000000000000000000000000000000000000000000000000000600052603260045260246000fd5b90600052602060002090600302016000808201600090556001820160006101000a81549073ffffffffffffffffffffffffffffffffffffffff0219169055600282016000905550506000600a8054905011156125b957600a6001600a805490506124ad9190613934565b815481106124e4577f4e487b7100000000000000000000000000000000000000000000000000000000600052603260045260246000fd5b9060005260206000209060030201600a828154811061252c577f4e487b7100000000000000000000000000000000000000000000000000000000600052603260045260246000fd5b9060005260206000209060030201600082015481600001556001820160009054906101000a900473ffffffffffffffffffffffffffffffffffffffff168160010160006101000a81548173ffffffffffffffffffffffffffffffffffffffff021916908373ffffffffffffffffffffffffffffffffffffffff160217905550600282015481600201559050505b600c60008373ffffffffffffffffffffffffffffffffffffffff1673ffffffffffffffffffffffffffffffffffffffff1681526020019081526020016000206000808201600090556001820160006101000a81549073ffffffffffffffffffffffffffffffffffffffff0219169055600282016000905550505050565b6003805461264390613a04565b80601f016020809104026020016040519081016040528092919081815260200182805461266f90613a04565b80156126bc5780601f10612691576101008083540402835291602001916126bc565b820191906000526020600020905b81548152906001019060200180831161269f57829003601f168201915b505050505081565b6060600073__$2504da76dd911be12547f2608c53b8702a$__6334871c0390916040518263ffffffff1660e01b8152600401612700919061350d565b60006040518083038186803b15801561271857600080fd5b505af415801561272c573d6000803e3d6000fd5b505050506040513d6000823e3d601f19601f820116820180604052508101906127559190612b64565b905090565b60108060000154905081565b600081600001549050919050565b6001816000016000828254019250508190555050565b6000818361279891906138a9565b905092915050565b600081836127ae91906138da565b905092915050565b600081836127c49190613934565b905092915050565b604051806060016040528060008152602001600073ffffffffffffffffffffffffffffffffffffffff168152602001600081525090565b82805482825590600052602060002090810192821561283f579160200282015b8281111561283e578251825591602001919060010190612823565b5b50905061284c91906128d6565b5090565b82805461285c90613a04565b90600052602060002090601f01602090048101928261287e57600085556128c5565b82601f1061289757805160ff19168380011785556128c5565b828001600101855582156128c5579182015b828111156128c45782518255916020019190600101906128a9565b5b5090506128d291906128d6565b5090565b5b808211156128ef5760008160009055506001016128d7565b5090565b6000612906612901846136b9565b613694565b9050808382526020820190508285606086028201111561292557600080fd5b60005b85811015612955578161293b8882612ab1565b845260208401935060608301925050600181019050612928565b5050509392505050565b600061297261296d846136e5565b613694565b9050808382526020820190508285602086028201111561299157600080fd5b60005b858110156129c157816129a78882612b11565b845260208401935060208301925050600181019050612994565b5050509392505050565b60006129de6129d984613711565b613694565b9050828152602081018484840111156129f657600080fd5b612a018482856139c2565b509392505050565b600081359050612a1881613cc5565b92915050565b600082601f830112612a2f57600080fd5b8151612a3f8482602086016128f3565b91505092915050565b600082601f830112612a5957600080fd5b8135612a6984826020860161295f565b91505092915050565b600081519050612a8181613cdc565b92915050565b600082601f830112612a9857600080fd5b8135612aa88482602086016129cb565b91505092915050565b600060608284031215612ac357600080fd5b612acd6060613694565b90506000612add84828501612b26565b6000830152506020612af184828501612b26565b6020830152506040612b0584828501612a72565b60408301525092915050565b600081359050612b2081613cf3565b92915050565b600081519050612b3581613cf3565b92915050565b600060208284031215612b4d57600080fd5b6000612b5b84828501612a09565b91505092915050565b600060208284031215612b7657600080fd5b600082015167ffffffffffffffff811115612b9057600080fd5b612b9c84828501612a1e565b91505092915050565b600080600060608486031215612bba57600080fd5b600084013567ffffffffffffffff811115612bd457600080fd5b612be086828701612a48565b935050602084013567ffffffffffffffff811115612bfd57600080fd5b612c0986828701612a48565b9250506040612c1a86828701612a09565b9150509250925092565b600060208284031215612c3657600080fd5b6000612c4484828501612b11565b91505092915050565b60008060408385031215612c6057600080fd5b6000612c6e85828601612b11565b925050602083013567ffffffffffffffff811115612c8b57600080fd5b612c9785828601612a87565b9150509250929050565b600080600060608486031215612cb657600080fd5b6000612cc486828701612b11565b935050602084013567ffffffffffffffff811115612ce157600080fd5b612ced86828701612a87565b925050604084013567ffffffffffffffff811115612d0a57600080fd5b612d1686828701612a87565b9150509250925092565b60008060408385031215612d3357600080fd5b6000612d4185828601612b11565b9250506020612d5285828601612b11565b9150509250929050565b6000612d688383613150565b60608301905092915050565b6000612d808383613192565b60608301905092915050565b6000612d98838361321d565b905092915050565b6000612dac83836132e9565b60208301905092915050565b612dc18161397a565b82525050565b612dd081613968565b82525050565b612ddf81613968565b82525050565b6000612df082613782565b612dfa81856137ed565b9350612e0583613742565b8060005b83811015612e36578151612e1d8882612d5c565b9750612e28836137b9565b925050600181019050612e09565b5085935050505092915050565b6000612e4e8261378d565b612e5881856137fe565b9350612e6383613752565b8060005b83811015612e94578151612e7b8882612d74565b9750612e86836137c6565b925050600181019050612e67565b5085935050505092915050565b6000612eac82613798565b612eb6818561380f565b935083602082028501612ec885613762565b8060005b85811015612f045784840389528151612ee58582612d8c565b9450612ef0836137d3565b925060208a01995050600181019050612ecc565b50829750879550505050505092915050565b6000612f21826137a3565b612f2b8185613820565b9350612f3683613772565b8060005b83811015612f67578151612f4e8882612da0565b9750612f59836137e0565b925050600181019050612f3a565b5085935050505092915050565b6000612f7f826137a3565b612f898185613831565b9350612f9483613772565b8060005b83811015612fc5578151612fac8882612da0565b9750612fb7836137e0565b925050600181019050612f98565b5085935050505092915050565b612fdb8161398c565b82525050565b612fea8161398c565b82525050565b612ff98161398c565b82525050565b600061300a826137ae565b6130148185613842565b93506130248185602086016139d1565b61302d81613b6c565b840191505092915050565b6000613045600383613842565b915061305082613b7d565b602082019050919050565b6000613068600383613842565b915061307382613ba6565b602082019050919050565b600061308b600383613842565b915061309682613bcf565b602082019050919050565b60006130ae600383613842565b91506130b982613bf8565b602082019050919050565b60006130d1600383613842565b91506130dc82613c21565b602082019050919050565b60006130f4600383613842565b91506130ff82613c4a565b602082019050919050565b6000613117600383613842565b915061312282613c73565b602082019050919050565b600061313a600383613842565b915061314582613c9c565b602082019050919050565b60608201600082015161316660008501826132e9565b5060208201516131796020850182612dc7565b50604082015161318c60408501826132e9565b50505050565b6060820160008201516131a860008501826132e9565b5060208201516131bb60208501826132e9565b5060408201516131ce6040850182612fd2565b50505050565b6060820160008201516131ea6000850182613316565b5060208201516131fd6020850182613316565b5060408201516132106040850182612ff0565b50505050565b8082525050565b60006101208301600083015161323660008601826132e9565b506020830151848203602086015261324e8282612f16565b915050604083015184820360408601526132688282612f16565b915050606083015161327d60608601826132e9565b5060808301516132906080860182612fd2565b5060a08301516132a360a0860182612dc7565b5060c08301516132b660c08601826132e9565b5060e08301516132c960e0860182612fd2565b506101008301516132de6101008601826132e9565b508091505092915050565b6132f2816139b8565b82525050565b613301816139b8565b82525050565b613310816139b8565b82525050565b61331f816139b8565b82525050565b600060208201905061333a6000830184612db8565b92915050565b60006060820190506133556000830186612dd6565b81810360208301526133678185612f74565b9050818103604083015261337b8184612f74565b9050949350505050565b6000602082019050818103600083015261339f8184612de5565b905092915050565b600060208201905081810360008301526133c18184612e43565b905092915050565b600060208201905081810360008301526133e38184612ea1565b905092915050565b600060208201905081810360008301526134058184612fff565b905092915050565b6000602082019050818103600083015261342681613038565b9050919050565b600060208201905081810360008301526134468161305b565b9050919050565b600060208201905081810360008301526134668161307e565b9050919050565b60006020820190508181036000830152613486816130a1565b9050919050565b600060208201905081810360008301526134a6816130c4565b9050919050565b600060208201905081810360008301526134c6816130e7565b9050919050565b600060208201905081810360008301526134e68161310a565b9050919050565b600060208201905081810360008301526135068161312d565b9050919050565b60006020820190506135226000830184613216565b92915050565b600060808201905061353d6000830185613216565b61354a60208301846131d4565b9392505050565b60006040820190506135666000830185613216565b6135736020830184613307565b9392505050565b600060208201905061358f60008301846132f8565b92915050565b60006060820190506135aa60008301866132f8565b6135b76020830185612dd6565b6135c460408301846132f8565b949350505050565b60006040820190506135e160008301856132f8565b81810360208301526135f38184612fff565b90509392505050565b600060408201905061361160008301856132f8565b61361e60208301846132f8565b9392505050565b600060e08201905061363a600083018a6132f8565b61364760208301896132f8565b6136546040830188612fe1565b6136616060830187612dd6565b61366e60808301866132f8565b61367b60a0830185612fe1565b61368860c08301846132f8565b98975050505050505050565b600061369e6136af565b90506136aa8282613a36565b919050565b6000604051905090565b600067ffffffffffffffff8211156136d4576136d3613b3d565b5b602082029050602081019050919050565b600067ffffffffffffffff821115613700576136ff613b3d565b5b602082029050602081019050919050565b600067ffffffffffffffff82111561372c5761372b613b3d565b5b61373582613b6c565b9050602081019050919050565b6000819050602082019050919050565b6000819050602082019050919050565b6000819050602082019050919050565b6000819050602082019050919050565b600081519050919050565b600081519050919050565b600081519050919050565b600081519050919050565b600081519050919050565b6000602082019050919050565b6000602082019050919050565b6000602082019050919050565b6000602082019050919050565b600082825260208201905092915050565b600082825260208201905092915050565b600082825260208201905092915050565b600082825260208201905092915050565b600082825260208201905092915050565b600082825260208201905092915050565b600061385e826139b8565b9150613869836139b8565b9250827fffffffffffffffffffffffffffffffffffffffffffffffffffffffffffffffff0382111561389e5761389d613ab0565b5b828201905092915050565b60006138b4826139b8565b91506138bf836139b8565b9250826138cf576138ce613adf565b5b828204905092915050565b60006138e5826139b8565b91506138f0836139b8565b9250817fffffffffffffffffffffffffffffffffffffffffffffffffffffffffffffffff048311821515161561392957613928613ab0565b5b828202905092915050565b600061393f826139b8565b915061394a836139b8565b92508282101561395d5761395c613ab0565b5b828203905092915050565b600061397382613998565b9050919050565b600061398582613998565b9050919050565b60008115159050919050565b600073ffffffffffffffffffffffffffffffffffffffff82169050919050565b6000819050919050565b82818337600083830152505050565b60005b838110156139ef5780820151818401526020810190506139d4565b838111156139fe576000848401525b50505050565b60006002820490506001821680613a1c57607f821691505b60208210811415613a3057613a2f613b0e565b5b50919050565b613a3f82613b6c565b810181811067ffffffffffffffff82111715613a5e57613a5d613b3d565b5b80604052505050565b6000613a72826139b8565b91507fffffffffffffffffffffffffffffffffffffffffffffffffffffffffffffffff821415613aa557613aa4613ab0565b5b600182019050919050565b7f4e487b7100000000000000000000000000000000000000000000000000000000600052601160045260246000fd5b7f4e487b7100000000000000000000000000000000000000000000000000000000600052601260045260246000fd5b7f4e487b7100000000000000000000000000000000000000000000000000000000600052602260045260246000fd5b7f4e487b7100000000000000000000000000000000000000000000000000000000600052604160045260246000fd5b6000601f19601f8301169050919050565b7f4f4f300000000000000000000000000000000000000000000000000000000000600082015250565b7f5041310000000000000000000000000000000000000000000000000000000000600082015250565b7f4d54310000000000000000000000000000000000000000000000000000000000600082015250565b7f5041300000000000000000000000000000000000000000000000000000000000600082015250565b7f4752300000000000000000000000000000000000000000000000000000000000600082015250565b7f5041320000000000000000000000000000000000000000000000000000000000600082015250565b7f4d54300000000000000000000000000000000000000000000000000000000000600082015250565b7f4f47300000000000000000000000000000000000000000000000000000000000600082015250565b613cce81613968565b8114613cd957600080fd5b50565b613ce58161398c565b8114613cf057600080fd5b50565b613cfc816139b8565b8114613d0757600080fd5b5056fea2646970667358221220076c8063cfb7f77d83acf37f10194b82a3aa163a90d3e859b8f411b520c443d764736f6c63430008040033",
  "linkReferences": {
    "contracts/library/Catalog.sol": {
      "Catalog": [
        {
          "length": 20,
          "start": 5146
        },
        {
          "length": 20,
          "start": 9287
        },
        {
          "length": 20,
          "start": 11289
        }
      ]
    }
  },
  "deployedLinkReferences": {
    "contracts/library/Catalog.sol": {
      "Catalog": [
        {
          "length": 20,
          "start": 3787
        },
        {
          "length": 20,
          "start": 7928
        },
        {
          "length": 20,
          "start": 9930
        }
      ]
    }
  }
}