{
  "_format": "hh-sol-artifact-1",
  "contractName": "Shop",
  "sourceName": "contracts/Shop.sol",
  "abi": [
    {
      "inputs": [
        {
          "internalType": "address",
          "name": "_owner",
          "type": "address"
        },
        {
          "internalType": "string",
          "name": "_name",
          "type": "string"
        },
        {
          "internalType": "string",
          "name": "_description",
          "type": "string"
        },
        {
          "internalType": "string",
          "name": "_location",
          "type": "string"
        },
        {
          "internalType": "string",
          "name": "_phone",
          "type": "string"
        },
        {
          "internalType": "string",
          "name": "_image",
          "type": "string"
        }
      ],
      "stateMutability": "nonpayable",
      "type": "constructor"
    },
    {
      "anonymous": false,
      "inputs": [
        {
          "indexed": false,
          "internalType": "uint256",
          "name": "itemId",
          "type": "uint256"
        },
        {
          "indexed": false,
          "internalType": "string",
          "name": "name",
          "type": "string"
        },
        {
          "indexed": false,
          "internalType": "string",
          "name": "description",
          "type": "string"
        },
        {
          "indexed": false,
          "internalType": "string",
          "name": "image",
          "type": "string"
        },
        {
          "indexed": false,
          "internalType": "uint256",
          "name": "price",
          "type": "uint256"
        }
      ],
      "name": "ItemCreated",
      "type": "event"
    },
    {
      "inputs": [
        {
          "internalType": "address",
          "name": "affAddr",
          "type": "address"
        }
      ],
      "name": "approveAffiliate",
      "outputs": [],
      "stateMutability": "nonpayable",
      "type": "function"
    },
    {
      "inputs": [
        {
          "internalType": "uint256",
          "name": "",
          "type": "uint256"
        }
      ],
      "name": "approvedAffArr",
      "outputs": [
        {
          "internalType": "uint256",
          "name": "percentage",
          "type": "uint256"
        },
        {
          "internalType": "address",
          "name": "affAddr",
          "type": "address"
        },
        {
          "internalType": "uint256",
          "name": "id",
          "type": "uint256"
        }
      ],
      "stateMutability": "view",
      "type": "function"
    },
    {
      "inputs": [
        {
          "internalType": "address",
          "name": "affAddr",
          "type": "address"
        }
      ],
      "name": "cancelAffiliate",
      "outputs": [],
      "stateMutability": "nonpayable",
      "type": "function"
    },
    {
      "inputs": [
        {
          "internalType": "uint256",
          "name": "",
          "type": "uint256"
        }
      ],
      "name": "catalog",
      "outputs": [
        {
          "internalType": "uint256",
          "name": "itemId",
          "type": "uint256"
        },
        {
          "internalType": "string",
          "name": "name",
          "type": "string"
        },
        {
          "internalType": "string",
          "name": "description",
          "type": "string"
        },
        {
          "internalType": "string",
          "name": "image",
          "type": "string"
        },
        {
          "internalType": "uint256",
          "name": "price",
          "type": "uint256"
        },
        {
          "internalType": "bool",
          "name": "inStock",
          "type": "bool"
        },
        {
          "internalType": "bool",
          "name": "isDeleted",
          "type": "bool"
        }
      ],
      "stateMutability": "view",
      "type": "function"
    },
    {
      "inputs": [
        {
          "internalType": "string",
          "name": "_name",
          "type": "string"
        },
        {
          "internalType": "string",
          "name": "_description",
          "type": "string"
        },
        {
          "internalType": "string",
          "name": "_image",
          "type": "string"
        },
        {
          "internalType": "uint256",
          "name": "_price",
          "type": "uint256"
        },
        {
          "internalType": "string",
          "name": "_filePath",
          "type": "string"
        },
        {
          "internalType": "bool",
          "name": "isDigital",
          "type": "bool"
        }
      ],
      "name": "createItem",
      "outputs": [],
      "stateMutability": "payable",
      "type": "function"
    },
    {
      "inputs": [
        {
          "internalType": "uint256",
          "name": "itemId",
          "type": "uint256"
        }
      ],
      "name": "deleteItem",
      "outputs": [],
      "stateMutability": "nonpayable",
      "type": "function"
    },
    {
      "inputs": [],
      "name": "description",
      "outputs": [
        {
          "internalType": "string",
          "name": "",
          "type": "string"
        }
      ],
      "stateMutability": "view",
      "type": "function"
    },
    {
      "inputs": [],
      "name": "fetchCatalogItems",
      "outputs": [
        {
          "components": [
            {
              "internalType": "uint256",
              "name": "itemId",
              "type": "uint256"
            },
            {
              "internalType": "string",
              "name": "name",
              "type": "string"
            },
            {
              "internalType": "string",
              "name": "description",
              "type": "string"
            },
            {
              "internalType": "string",
              "name": "image",
              "type": "string"
            },
            {
              "internalType": "uint256",
              "name": "price",
              "type": "uint256"
            },
            {
              "internalType": "bool",
              "name": "inStock",
              "type": "bool"
            },
            {
              "internalType": "bool",
              "name": "isDeleted",
              "type": "bool"
            }
          ],
          "internalType": "struct Shop.Item[]",
          "name": "",
          "type": "tuple[]"
        }
      ],
      "stateMutability": "view",
      "type": "function"
    },
    {
      "inputs": [],
      "name": "fetchTransactions",
      "outputs": [
        {
          "components": [
            {
              "internalType": "uint256",
              "name": "transId",
              "type": "uint256"
            },
            {
              "internalType": "uint256[]",
              "name": "itemIds",
              "type": "uint256[]"
            },
            {
              "internalType": "uint256[]",
              "name": "itemQty",
              "type": "uint256[]"
            },
            {
              "internalType": "uint256",
              "name": "total",
              "type": "uint256"
            },
            {
              "internalType": "bool",
              "name": "isValid",
              "type": "bool"
            },
            {
              "internalType": "address",
              "name": "client",
              "type": "address"
            },
            {
              "internalType": "uint256",
              "name": "review",
              "type": "uint256"
            },
            {
              "internalType": "bool",
              "name": "isReviewed",
              "type": "bool"
            },
            {
              "internalType": "address",
              "name": "affilate",
              "type": "address"
            },
            {
              "internalType": "uint256",
              "name": "affPercentage",
              "type": "uint256"
            }
          ],
          "internalType": "struct Shop.Trans[]",
          "name": "",
          "type": "tuple[]"
        }
      ],
      "stateMutability": "view",
      "type": "function"
    },
    {
      "inputs": [],
      "name": "freeTransactions",
      "outputs": [
        {
          "internalType": "uint256",
          "name": "",
          "type": "uint256"
        }
      ],
      "stateMutability": "view",
      "type": "function"
    },
    {
      "inputs": [],
      "name": "getApprovedAffiliates",
      "outputs": [
        {
          "components": [
            {
              "internalType": "uint256",
              "name": "percentage",
              "type": "uint256"
            },
            {
              "internalType": "address",
              "name": "affAddr",
              "type": "address"
            },
            {
              "internalType": "uint256",
              "name": "id",
              "type": "uint256"
            }
          ],
          "internalType": "struct Shop.Affiliate[]",
          "name": "",
          "type": "tuple[]"
        }
      ],
      "stateMutability": "view",
      "type": "function"
    },
    {
      "inputs": [],
      "name": "getProposedAffiliates",
      "outputs": [
        {
          "components": [
            {
              "internalType": "uint256",
              "name": "percentage",
              "type": "uint256"
            },
            {
              "internalType": "address",
              "name": "affAddr",
              "type": "address"
            },
            {
              "internalType": "uint256",
              "name": "id",
              "type": "uint256"
            }
          ],
          "internalType": "struct Shop.Affiliate[]",
          "name": "",
          "type": "tuple[]"
        }
      ],
      "stateMutability": "view",
      "type": "function"
    },
    {
      "inputs": [
        {
          "internalType": "uint256",
          "name": "stars",
          "type": "uint256"
        },
        {
          "internalType": "uint256",
          "name": "transId",
          "type": "uint256"
        }
      ],
      "name": "giveReview",
      "outputs": [],
      "stateMutability": "nonpayable",
      "type": "function"
    },
    {
      "inputs": [],
      "name": "governor",
      "outputs": [
        {
          "internalType": "address payable",
          "name": "",
          "type": "address"
        }
      ],
      "stateMutability": "view",
      "type": "function"
    },
    {
      "inputs": [],
      "name": "image",
      "outputs": [
        {
          "internalType": "string",
          "name": "",
          "type": "string"
        }
      ],
      "stateMutability": "view",
      "type": "function"
    },
    {
      "inputs": [],
      "name": "location",
      "outputs": [
        {
          "internalType": "string",
          "name": "",
          "type": "string"
        }
      ],
      "stateMutability": "view",
      "type": "function"
    },
    {
      "inputs": [
        {
          "internalType": "uint256[]",
          "name": "itemIds",
          "type": "uint256[]"
        },
        {
          "internalType": "uint256[]",
          "name": "itemQty",
          "type": "uint256[]"
        },
        {
          "internalType": "address",
          "name": "affAddr",
          "type": "address"
        }
      ],
      "name": "makeTransaction",
      "outputs": [
        {
          "internalType": "uint256",
          "name": "transactionId",
          "type": "uint256"
        }
      ],
      "stateMutability": "payable",
      "type": "function"
    },
    {
      "inputs": [],
      "name": "name",
      "outputs": [
        {
          "internalType": "string",
          "name": "",
          "type": "string"
        }
      ],
      "stateMutability": "view",
      "type": "function"
    },
    {
      "inputs": [],
      "name": "owner",
      "outputs": [
        {
          "internalType": "address payable",
          "name": "",
          "type": "address"
        }
      ],
      "stateMutability": "view",
      "type": "function"
    },
    {
      "inputs": [],
      "name": "phone",
      "outputs": [
        {
          "internalType": "string",
          "name": "",
          "type": "string"
        }
      ],
      "stateMutability": "view",
      "type": "function"
    },
    {
      "inputs": [
        {
          "internalType": "uint256",
          "name": "percentage",
          "type": "uint256"
        }
      ],
      "name": "proposeAffiliate",
      "outputs": [],
      "stateMutability": "nonpayable",
      "type": "function"
    },
    {
      "inputs": [
        {
          "internalType": "uint256",
          "name": "",
          "type": "uint256"
        }
      ],
      "name": "proposedAffArr",
      "outputs": [
        {
          "internalType": "uint256",
          "name": "percentage",
          "type": "uint256"
        },
        {
          "internalType": "address",
          "name": "affAddr",
          "type": "address"
        },
        {
          "internalType": "uint256",
          "name": "id",
          "type": "uint256"
        }
      ],
      "stateMutability": "view",
      "type": "function"
    },
    {
      "inputs": [],
      "name": "selfDestruct",
      "outputs": [],
      "stateMutability": "nonpayable",
      "type": "function"
    },
    {
      "inputs": [
        {
          "internalType": "uint256",
          "name": "_freeTransactions",
          "type": "uint256"
        }
      ],
      "name": "setFreeTransactions",
      "outputs": [],
      "stateMutability": "nonpayable",
      "type": "function"
    },
    {
      "inputs": [
        {
          "internalType": "uint256",
          "name": "itemId",
          "type": "uint256"
        },
        {
          "internalType": "bool",
          "name": "_inStock",
          "type": "bool"
        }
      ],
      "name": "setInStock",
      "outputs": [],
      "stateMutability": "nonpayable",
      "type": "function"
    },
    {
      "inputs": [
        {
          "internalType": "uint256",
          "name": "",
          "type": "uint256"
        }
      ],
      "name": "transactions",
      "outputs": [
        {
          "internalType": "uint256",
          "name": "transId",
          "type": "uint256"
        },
        {
          "internalType": "uint256",
          "name": "total",
          "type": "uint256"
        },
        {
          "internalType": "bool",
          "name": "isValid",
          "type": "bool"
        },
        {
          "internalType": "address",
          "name": "client",
          "type": "address"
        },
        {
          "internalType": "uint256",
          "name": "review",
          "type": "uint256"
        },
        {
          "internalType": "bool",
          "name": "isReviewed",
          "type": "bool"
        },
        {
          "internalType": "address",
          "name": "affilate",
          "type": "address"
        },
        {
          "internalType": "uint256",
          "name": "affPercentage",
          "type": "uint256"
        }
      ],
      "stateMutability": "view",
      "type": "function"
    },
    {
      "inputs": [],
      "name": "transactionsCount",
      "outputs": [
        {
          "internalType": "uint256",
          "name": "_value",
          "type": "uint256"
        }
      ],
      "stateMutability": "view",
      "type": "function"
    }
  ],
  "bytecode": "0x60806040526103e86008553480156200001757600080fd5b50604051620049663803806200496683398181016040528101906200003d919062000281565b85600660006101000a81548173ffffffffffffffffffffffffffffffffffffffff021916908373ffffffffffffffffffffffffffffffffffffffff16021790555084600090805190602001906200009692919062000148565b508360019080519060200190620000af92919062000148565b508260029080519060200190620000c892919062000148565b508160039080519060200190620000e192919062000148565b508060049080519060200190620000fa92919062000148565b5033600760006101000a81548173ffffffffffffffffffffffffffffffffffffffff021916908373ffffffffffffffffffffffffffffffffffffffff16021790555050505050505062000552565b82805462000156906200045d565b90600052602060002090601f0160209004810192826200017a5760008555620001c6565b82601f106200019557805160ff1916838001178555620001c6565b82800160010185558215620001c6579182015b82811115620001c5578251825591602001919060010190620001a8565b5b509050620001d59190620001d9565b5090565b5b80821115620001f4576000816000905550600101620001da565b5090565b60006200020f6200020984620003bd565b62000394565b9050828152602081018484840111156200022857600080fd5b6200023584828562000427565b509392505050565b6000815190506200024e8162000538565b92915050565b600082601f8301126200026657600080fd5b815162000278848260208601620001f8565b91505092915050565b60008060008060008060c087890312156200029b57600080fd5b6000620002ab89828a016200023d565b965050602087015167ffffffffffffffff811115620002c957600080fd5b620002d789828a0162000254565b955050604087015167ffffffffffffffff811115620002f557600080fd5b6200030389828a0162000254565b945050606087015167ffffffffffffffff8111156200032157600080fd5b6200032f89828a0162000254565b935050608087015167ffffffffffffffff8111156200034d57600080fd5b6200035b89828a0162000254565b92505060a087015167ffffffffffffffff8111156200037957600080fd5b6200038789828a0162000254565b9150509295509295509295565b6000620003a0620003b3565b9050620003ae828262000493565b919050565b6000604051905090565b600067ffffffffffffffff821115620003db57620003da620004f8565b5b620003e68262000527565b9050602081019050919050565b6000620004008262000407565b9050919050565b600073ffffffffffffffffffffffffffffffffffffffff82169050919050565b60005b83811015620004475780820151818401526020810190506200042a565b8381111562000457576000848401525b50505050565b600060028204905060018216806200047657607f821691505b602082108114156200048d576200048c620004c9565b5b50919050565b6200049e8262000527565b810181811067ffffffffffffffff82111715620004c057620004bf620004f8565b5b80604052505050565b7f4e487b7100000000000000000000000000000000000000000000000000000000600052602260045260246000fd5b7f4e487b7100000000000000000000000000000000000000000000000000000000600052604160045260246000fd5b6000601f19601f8301169050919050565b6200054381620003f3565b81146200054f57600080fd5b50565b61440480620005626000396000f3fe60806040526004361061019c5760003560e01c806376aadd73116100ec5780639cb8a26a1161008a578063f0547bc811610064578063f0547bc8146105ad578063f3ccaac0146105d6578063f5b89aac14610601578063fd99a7461461062c5761019c565b80639cb8a26a14610528578063c79c6dba1461053f578063ea5de25b1461056a5761019c565b80638cf27994116100c65780638cf279941461045e5780638da5cb5b1461048e5780639284f497146104b95780639ace38c2146104e45761019c565b806376aadd73146103cd5780638013f0b6146103f65780638b4989af146104355761019c565b806330ac4234116101595780635f6ad596116101335780635f6ad596146103345780635ff2d6051461035d578063654fc833146103795780637284e416146103a25761019c565b806330ac4234146102a1578063516f279e146102e05780635606d2ec1461030b5761019c565b806306fdde03146101a1578063090567d2146101cc5780630c340a24146101f55780630cc9dc7d146102205780632477eaae1461024b578063309c4e1d14610276575b600080fd5b3480156101ad57600080fd5b506101b6610657565b6040516101c39190613a37565b60405180910390f35b3480156101d857600080fd5b506101f360048036038101906101ee9190613334565b6106e5565b005b34801561020157600080fd5b5061020a61077f565b60405161021791906139b6565b60405180910390f35b34801561022c57600080fd5b506102356107a5565b6040516102429190613b79565b60405180910390f35b34801561025757600080fd5b506102606107ab565b60405161026d9190613a15565b60405180910390f35b34801561028257600080fd5b5061028b6109c5565b60405161029891906139d1565b60405180910390f35b3480156102ad57600080fd5b506102c860048036038101906102c39190613334565b610a8e565b6040516102d793929190613b94565b60405180910390f35b3480156102ec57600080fd5b506102f5610ae8565b6040516103029190613a37565b60405180910390f35b34801561031757600080fd5b50610332600480360381019061032d919061335d565b610b76565b005b34801561034057600080fd5b5061035b60048036038101906103569190613334565b610c6d565b005b6103776004803603810190610372919061324b565b610ef1565b005b34801561038557600080fd5b506103a0600480360381019061039b9190613334565b611144565b005b3480156103ae57600080fd5b506103b76112b7565b6040516103c49190613a37565b60405180910390f35b3480156103d957600080fd5b506103f460048036038101906103ef91906131a3565b611345565b005b34801561040257600080fd5b5061041d60048036038101906104189190613334565b6116d3565b60405161042c93929190613b94565b60405180910390f35b34801561044157600080fd5b5061045c60048036038101906104579190613399565b61172d565b005b610478600480360381019061047391906131cc565b6118be565b6040516104859190613b79565b60405180910390f35b34801561049a57600080fd5b506104a36121fb565b6040516104b091906139b6565b60405180910390f35b3480156104c557600080fd5b506104ce612221565b6040516104db9190613a37565b60405180910390f35b3480156104f057600080fd5b5061050b60048036038101906105069190613334565b6122af565b60405161051f989796959493929190613cb7565b60405180910390f35b34801561053457600080fd5b5061053d612361565b005b34801561054b57600080fd5b5061055461242c565b60405161056191906139d1565b60405180910390f35b34801561057657600080fd5b50610591600480360381019061058c9190613334565b6124f5565b6040516105a49796959493929190613c33565b60405180910390f35b3480156105b957600080fd5b506105d460048036038101906105cf91906131a3565b6126f9565b005b3480156105e257600080fd5b506105eb612be0565b6040516105f89190613a37565b60405180910390f35b34801561060d57600080fd5b50610616612c6e565b60405161062391906139f3565b60405180910390f35b34801561063857600080fd5b50610641612ecd565b60405161064e9190613b79565b60405180910390f35b6000805461066490614079565b80601f016020809104026020016040519081016040528092919081815260200182805461069090614079565b80156106dd5780601f106106b2576101008083540402835291602001916106dd565b820191906000526020600020905b8154815290600101906020018083116106c057829003601f168201915b505050505081565b600760009054906101000a900473ffffffffffffffffffffffffffffffffffffffff1673ffffffffffffffffffffffffffffffffffffffff163373ffffffffffffffffffffffffffffffffffffffff1614610775576040517f08c379a000000000000000000000000000000000000000000000000000000000815260040161076c90613b19565b60405180910390fd5b8060088190555050565b600760009054906101000a900473ffffffffffffffffffffffffffffffffffffffff1681565b60085481565b6060600c805480602002602001604051908101604052809291908181526020016000905b828210156109bc578382906000526020600020906008020160405180610140016040529081600082015481526020016001820180548060200260200160405190810160405280929190818152602001828054801561084c57602002820191906000526020600020905b815481526020019060010190808311610838575b50505050508152602001600282018054806020026020016040519081016040528092919081815260200182805480156108a457602002820191906000526020600020905b815481526020019060010190808311610890575b50505050508152602001600382015481526020016004820160009054906101000a900460ff161515151581526020016004820160019054906101000a900473ffffffffffffffffffffffffffffffffffffffff1673ffffffffffffffffffffffffffffffffffffffff1673ffffffffffffffffffffffffffffffffffffffff168152602001600582015481526020016006820160009054906101000a900460ff161515151581526020016006820160019054906101000a900473ffffffffffffffffffffffffffffffffffffffff1673ffffffffffffffffffffffffffffffffffffffff1673ffffffffffffffffffffffffffffffffffffffff168152602001600782015481525050815260200190600101906107cf565b50505050905090565b6060600f805480602002602001604051908101604052809291908181526020016000905b82821015610a855783829060005260206000209060030201604051806060016040529081600082015481526020016001820160009054906101000a900473ffffffffffffffffffffffffffffffffffffffff1673ffffffffffffffffffffffffffffffffffffffff1673ffffffffffffffffffffffffffffffffffffffff168152602001600282015481525050815260200190600101906109e9565b50505050905090565b600f8181548110610a9e57600080fd5b90600052602060002090600302016000915090508060000154908060010160009054906101000a900473ffffffffffffffffffffffffffffffffffffffff16908060020154905083565b60028054610af590614079565b80601f0160208091040260200160405190810160405280929190818152602001828054610b2190614079565b8015610b6e5780601f10610b4357610100808354040283529160200191610b6e565b820191906000526020600020905b815481529060010190602001808311610b5157829003601f168201915b505050505081565b600660009054906101000a900473ffffffffffffffffffffffffffffffffffffffff1673ffffffffffffffffffffffffffffffffffffffff163373ffffffffffffffffffffffffffffffffffffffff1614610c06576040517f08c379a0000000000000000000000000000000000000000000000000000000008152600401610bfd90613af9565b60405180910390fd5b8060058381548110610c41577f4e487b7100000000000000000000000000000000000000000000000000000000600052603260045260246000fd5b906000526020600020906006020160050160006101000a81548160ff0219169083151502179055505050565b6000601160003373ffffffffffffffffffffffffffffffffffffffff1673ffffffffffffffffffffffffffffffffffffffff1681526020019081526020016000206000015414610cf2576040517f08c379a0000000000000000000000000000000000000000000000000000000008152600401610ce990613b59565b60405180910390fd5b60008111610d35576040517f08c379a0000000000000000000000000000000000000000000000000000000008152600401610d2c90613ab9565b60405180910390fd5b60648110610d78576040517f08c379a0000000000000000000000000000000000000000000000000000000008152600401610d6f90613ad9565b60405180910390fd5b6000610d84600d612ed9565b9050600060405180606001604052808481526020013373ffffffffffffffffffffffffffffffffffffffff16815260200183815250905080601060003373ffffffffffffffffffffffffffffffffffffffff1673ffffffffffffffffffffffffffffffffffffffff1681526020019081526020016000206000820151816000015560208201518160010160006101000a81548173ffffffffffffffffffffffffffffffffffffffff021916908373ffffffffffffffffffffffffffffffffffffffff16021790555060408201518160020155905050600e8190806001815401808255809150506001900390600052602060002090600302016000909190919091506000820151816000015560208201518160010160006101000a81548173ffffffffffffffffffffffffffffffffffffffff021916908373ffffffffffffffffffffffffffffffffffffffff160217905550604082015181600201555050610eec600d612ee7565b505050565b600660009054906101000a900473ffffffffffffffffffffffffffffffffffffffff1673ffffffffffffffffffffffffffffffffffffffff163373ffffffffffffffffffffffffffffffffffffffff1614610f81576040517f08c379a0000000000000000000000000000000000000000000000000000000008152600401610f7890613af9565b60405180910390fd5b6064610f8d6009612ed9565b10610fcd576040517f08c379a0000000000000000000000000000000000000000000000000000000008152600401610fc490613a99565b60405180910390fd5b6000610fd96009612ed9565b905060006040518060e001604052808381526020018981526020018881526020018781526020018681526020016001151581526020016000151581525090506110226009612ee7565b6005819080600181540180825580915050600190039060005260206000209060060201600090919091909150600082015181600001556020820151816001019080519060200190611074929190612f3f565b506040820151816002019080519060200190611091929190612f3f565b5060608201518160030190805190602001906110ae929190612f3f565b506080820151816004015560a08201518160050160006101000a81548160ff02191690831515021790555060c08201518160050160016101000a81548160ff02191690831515021790555050507f96879d8966d9359f51d0296e82bd5d835bae805b2011fc95f5e23f1d8b797b428289898989604051611132959493929190613bcb565b60405180910390a15050505050505050565b600660009054906101000a900473ffffffffffffffffffffffffffffffffffffffff1673ffffffffffffffffffffffffffffffffffffffff163373ffffffffffffffffffffffffffffffffffffffff16146111d4576040517f08c379a00000000000000000000000000000000000000000000000000000000081526004016111cb90613af9565b60405180910390fd5b60005b6005805490508110156112b357816005828154811061121f577f4e487b7100000000000000000000000000000000000000000000000000000000600052603260045260246000fd5b90600052602060002090600602016000015414156112a057600160058281548110611273577f4e487b7100000000000000000000000000000000000000000000000000000000600052603260045260246000fd5b906000526020600020906006020160050160016101000a81548160ff0219169083151502179055506112b3565b80806112ab906140dc565b9150506111d7565b5050565b600180546112c490614079565b80601f01602080910402602001604051908101604052809291908181526020018280546112f090614079565b801561133d5780601f106113125761010080835404028352916020019161133d565b820191906000526020600020905b81548152906001019060200180831161132057829003601f168201915b505050505081565b600660009054906101000a900473ffffffffffffffffffffffffffffffffffffffff1673ffffffffffffffffffffffffffffffffffffffff163373ffffffffffffffffffffffffffffffffffffffff16146113d5576040517f08c379a00000000000000000000000000000000000000000000000000000000081526004016113cc90613af9565b60405180910390fd5b60005b600f80549050811015611656578173ffffffffffffffffffffffffffffffffffffffff16600f8281548110611436577f4e487b7100000000000000000000000000000000000000000000000000000000600052603260045260246000fd5b906000526020600020906003020160010160009054906101000a900473ffffffffffffffffffffffffffffffffffffffff1673ffffffffffffffffffffffffffffffffffffffff16141561164357600f81815481106114be577f4e487b7100000000000000000000000000000000000000000000000000000000600052603260045260246000fd5b90600052602060002090600302016000808201600090556001820160006101000a81549073ffffffffffffffffffffffffffffffffffffffff0219169055600282016000905550506001600f805490506115189190613fa9565b811461163e57600f6001600f805490506115329190613fa9565b81548110611569577f4e487b7100000000000000000000000000000000000000000000000000000000600052603260045260246000fd5b9060005260206000209060030201600f82815481106115b1577f4e487b7100000000000000000000000000000000000000000000000000000000600052603260045260246000fd5b9060005260206000209060030201600082015481600001556001820160009054906101000a900473ffffffffffffffffffffffffffffffffffffffff168160010160006101000a81548173ffffffffffffffffffffffffffffffffffffffff021916908373ffffffffffffffffffffffffffffffffffffffff160217905550600282015481600201559050505b611656565b808061164e906140dc565b9150506113d8565b50601160008273ffffffffffffffffffffffffffffffffffffffff1673ffffffffffffffffffffffffffffffffffffffff1681526020019081526020016000206000808201600090556001820160006101000a81549073ffffffffffffffffffffffffffffffffffffffff02191690556002820160009055505050565b600e81815481106116e357600080fd5b90600052602060002090600302016000915090508060000154908060010160009054906101000a900473ffffffffffffffffffffffffffffffffffffffff16908060020154905083565b3373ffffffffffffffffffffffffffffffffffffffff16600c828154811061177e577f4e487b7100000000000000000000000000000000000000000000000000000000600052603260045260246000fd5b906000526020600020906008020160040160019054906101000a900473ffffffffffffffffffffffffffffffffffffffff1673ffffffffffffffffffffffffffffffffffffffff1614611806576040517f08c379a00000000000000000000000000000000000000000000000000000000081526004016117fd90613a79565b60405180910390fd5b81600c8281548110611841577f4e487b7100000000000000000000000000000000000000000000000000000000600052603260045260246000fd5b9060005260206000209060080201600501819055506001600c8281548110611892577f4e487b7100000000000000000000000000000000000000000000000000000000600052603260045260246000fd5b906000526020600020906008020160060160006101000a81548160ff0219169083151502179055505050565b60006118c8612fc5565b600073ffffffffffffffffffffffffffffffffffffffff168373ffffffffffffffffffffffffffffffffffffffff1614611a2757601160008473ffffffffffffffffffffffffffffffffffffffff1673ffffffffffffffffffffffffffffffffffffffff168152602001908152602001600020604051806060016040529081600082015481526020016001820160009054906101000a900473ffffffffffffffffffffffffffffffffffffffff1673ffffffffffffffffffffffffffffffffffffffff1673ffffffffffffffffffffffffffffffffffffffff1681526020016002820154815250509050600073ffffffffffffffffffffffffffffffffffffffff16816020015173ffffffffffffffffffffffffffffffffffffffff161415611a26576040517f08c379a0000000000000000000000000000000000000000000000000000000008152600401611a1d90613b39565b60405180910390fd5b5b6000805b8651811015611b2b57858181518110611a6d577f4e487b7100000000000000000000000000000000000000000000000000000000600052603260045260246000fd5b60200260200101516005888381518110611ab0577f4e487b7100000000000000000000000000000000000000000000000000000000600052603260045260246000fd5b602002602001015181548110611aef577f4e487b7100000000000000000000000000000000000000000000000000000000600052603260045260246000fd5b906000526020600020906006020160040154611b0b9190613f4f565b82611b169190613ec8565b91508080611b23906140dc565b915050611a2b565b5080341015611b6f576040517f08c379a0000000000000000000000000000000000000000000000000000000008152600401611b6690613a59565b60405180910390fd5b611b79600b612ee7565b600854611b86600b612ed9565b1115611e5d57600073ffffffffffffffffffffffffffffffffffffffff168473ffffffffffffffffffffffffffffffffffffffff1614611d54576000611bd6606483612efd90919063ffffffff16565b90506000611c048460000151611bf6606486612efd90919063ffffffff16565b612f1390919063ffffffff16565b90506000611c2d82611c1f8587612f2990919063ffffffff16565b612f2990919063ffffffff16565b9050600760009054906101000a900473ffffffffffffffffffffffffffffffffffffffff1673ffffffffffffffffffffffffffffffffffffffff166108fc849081150290604051600060405180830381858888f19350505050158015611c97573d6000803e3d6000fd5b50600660009054906101000a900473ffffffffffffffffffffffffffffffffffffffff1673ffffffffffffffffffffffffffffffffffffffff166108fc829081150290604051600060405180830381858888f19350505050158015611d00573d6000803e3d6000fd5b50846020015173ffffffffffffffffffffffffffffffffffffffff166108fc839081150290604051600060405180830381858888f19350505050158015611d4b573d6000803e3d6000fd5b50505050611e58565b6000611d6a606483612efd90919063ffffffff16565b90506000611d818284612f2990919063ffffffff16565b9050600760009054906101000a900473ffffffffffffffffffffffffffffffffffffffff1673ffffffffffffffffffffffffffffffffffffffff166108fc839081150290604051600060405180830381858888f19350505050158015611deb573d6000803e3d6000fd5b50600660009054906101000a900473ffffffffffffffffffffffffffffffffffffffff1673ffffffffffffffffffffffffffffffffffffffff166108fc829081150290604051600060405180830381858888f19350505050158015611e54573d6000803e3d6000fd5b5050505b611ffc565b600073ffffffffffffffffffffffffffffffffffffffff168473ffffffffffffffffffffffffffffffffffffffff1614611f91576000611ebd8360000151611eaf606485612efd90919063ffffffff16565b612f1390919063ffffffff16565b90506000611ed48284612f2990919063ffffffff16565b9050600660009054906101000a900473ffffffffffffffffffffffffffffffffffffffff1673ffffffffffffffffffffffffffffffffffffffff166108fc829081150290604051600060405180830381858888f19350505050158015611f3e573d6000803e3d6000fd5b50836020015173ffffffffffffffffffffffffffffffffffffffff166108fc839081150290604051600060405180830381858888f19350505050158015611f89573d6000803e3d6000fd5b505050611ffb565b600660009054906101000a900473ffffffffffffffffffffffffffffffffffffffff1673ffffffffffffffffffffffffffffffffffffffff166108fc829081150290604051600060405180830381858888f19350505050158015611ff9573d6000803e3d6000fd5b505b5b6000612008600a612ed9565b9050600c6040518061014001604052808381526020018981526020018881526020018481526020016001151581526020013373ffffffffffffffffffffffffffffffffffffffff16815260200160008152602001600015158152602001600073ffffffffffffffffffffffffffffffffffffffff168152602001600081525090806001815401808255809150506001900390600052602060002090600802016000909190919091506000820151816000015560208201518160010190805190602001906120d6929190612ffc565b5060408201518160020190805190602001906120f3929190612ffc565b506060820151816003015560808201518160040160006101000a81548160ff02191690831515021790555060a08201518160040160016101000a81548173ffffffffffffffffffffffffffffffffffffffff021916908373ffffffffffffffffffffffffffffffffffffffff16021790555060c0820151816005015560e08201518160060160006101000a81548160ff0219169083151502179055506101008201518160060160016101000a81548173ffffffffffffffffffffffffffffffffffffffff021916908373ffffffffffffffffffffffffffffffffffffffff160217905550610120820151816007015550506121ee600a612ee7565b8093505050509392505050565b600660009054906101000a900473ffffffffffffffffffffffffffffffffffffffff1681565b6003805461222e90614079565b80601f016020809104026020016040519081016040528092919081815260200182805461225a90614079565b80156122a75780601f1061227c576101008083540402835291602001916122a7565b820191906000526020600020905b81548152906001019060200180831161228a57829003601f168201915b505050505081565b600c81815481106122bf57600080fd5b90600052602060002090600802016000915090508060000154908060030154908060040160009054906101000a900460ff16908060040160019054906101000a900473ffffffffffffffffffffffffffffffffffffffff16908060050154908060060160009054906101000a900460ff16908060060160019054906101000a900473ffffffffffffffffffffffffffffffffffffffff16908060070154905088565b600760009054906101000a900473ffffffffffffffffffffffffffffffffffffffff1673ffffffffffffffffffffffffffffffffffffffff163373ffffffffffffffffffffffffffffffffffffffff16146123f1576040517f08c379a00000000000000000000000000000000000000000000000000000000081526004016123e890613b19565b60405180910390fd5b600760009054906101000a900473ffffffffffffffffffffffffffffffffffffffff1673ffffffffffffffffffffffffffffffffffffffff16ff5b6060600e805480602002602001604051908101604052809291908181526020016000905b828210156124ec5783829060005260206000209060030201604051806060016040529081600082015481526020016001820160009054906101000a900473ffffffffffffffffffffffffffffffffffffffff1673ffffffffffffffffffffffffffffffffffffffff1673ffffffffffffffffffffffffffffffffffffffff16815260200160028201548152505081526020019060010190612450565b50505050905090565b6005818154811061250557600080fd5b906000526020600020906006020160009150905080600001549080600101805461252e90614079565b80601f016020809104026020016040519081016040528092919081815260200182805461255a90614079565b80156125a75780601f1061257c576101008083540402835291602001916125a7565b820191906000526020600020905b81548152906001019060200180831161258a57829003601f168201915b5050505050908060020180546125bc90614079565b80601f01602080910402602001604051908101604052809291908181526020018280546125e890614079565b80156126355780601f1061260a57610100808354040283529160200191612635565b820191906000526020600020905b81548152906001019060200180831161261857829003601f168201915b50505050509080600301805461264a90614079565b80601f016020809104026020016040519081016040528092919081815260200182805461267690614079565b80156126c35780601f10612698576101008083540402835291602001916126c3565b820191906000526020600020905b8154815290600101906020018083116126a657829003601f168201915b5050505050908060040154908060050160009054906101000a900460ff16908060050160019054906101000a900460ff16905087565b600660009054906101000a900473ffffffffffffffffffffffffffffffffffffffff1673ffffffffffffffffffffffffffffffffffffffff163373ffffffffffffffffffffffffffffffffffffffff1614612789576040517f08c379a000000000000000000000000000000000000000000000000000000000815260040161278090613af9565b60405180910390fd5b601060008273ffffffffffffffffffffffffffffffffffffffff1673ffffffffffffffffffffffffffffffffffffffff168152602001908152602001600020601160008373ffffffffffffffffffffffffffffffffffffffff1673ffffffffffffffffffffffffffffffffffffffff168152602001908152602001600020600082015481600001556001820160009054906101000a900473ffffffffffffffffffffffffffffffffffffffff168160010160006101000a81548173ffffffffffffffffffffffffffffffffffffffff021916908373ffffffffffffffffffffffffffffffffffffffff160217905550600282015481600201559050506000601060008373ffffffffffffffffffffffffffffffffffffffff1673ffffffffffffffffffffffffffffffffffffffff168152602001908152602001600020600201549050600f601160008473ffffffffffffffffffffffffffffffffffffffff1673ffffffffffffffffffffffffffffffffffffffff1681526020019081526020016000209080600181540180825580915050600190039060005260206000209060030201600090919091909150600082015481600001556001820160009054906101000a900473ffffffffffffffffffffffffffffffffffffffff168160010160006101000a81548173ffffffffffffffffffffffffffffffffffffffff021916908373ffffffffffffffffffffffffffffffffffffffff160217905550600282015481600201555050600e81815481106129ed577f4e487b7100000000000000000000000000000000000000000000000000000000600052603260045260246000fd5b90600052602060002090600302016000808201600090556001820160006101000a81549073ffffffffffffffffffffffffffffffffffffffff0219169055600282016000905550506000600e805490501115612b6357600e6001600e80549050612a579190613fa9565b81548110612a8e577f4e487b7100000000000000000000000000000000000000000000000000000000600052603260045260246000fd5b9060005260206000209060030201600e8281548110612ad6577f4e487b7100000000000000000000000000000000000000000000000000000000600052603260045260246000fd5b9060005260206000209060030201600082015481600001556001820160009054906101000a900473ffffffffffffffffffffffffffffffffffffffff168160010160006101000a81548173ffffffffffffffffffffffffffffffffffffffff021916908373ffffffffffffffffffffffffffffffffffffffff160217905550600282015481600201559050505b601060008373ffffffffffffffffffffffffffffffffffffffff1673ffffffffffffffffffffffffffffffffffffffff1681526020019081526020016000206000808201600090556001820160006101000a81549073ffffffffffffffffffffffffffffffffffffffff0219169055600282016000905550505050565b60048054612bed90614079565b80601f0160208091040260200160405190810160405280929190818152602001828054612c1990614079565b8015612c665780601f10612c3b57610100808354040283529160200191612c66565b820191906000526020600020905b815481529060010190602001808311612c4957829003601f168201915b505050505081565b60606005805480602002602001604051908101604052809291908181526020016000905b82821015612ec457838290600052602060002090600602016040518060e001604052908160008201548152602001600182018054612ccf90614079565b80601f0160208091040260200160405190810160405280929190818152602001828054612cfb90614079565b8015612d485780601f10612d1d57610100808354040283529160200191612d48565b820191906000526020600020905b815481529060010190602001808311612d2b57829003601f168201915b50505050508152602001600282018054612d6190614079565b80601f0160208091040260200160405190810160405280929190818152602001828054612d8d90614079565b8015612dda5780601f10612daf57610100808354040283529160200191612dda565b820191906000526020600020905b815481529060010190602001808311612dbd57829003601f168201915b50505050508152602001600382018054612df390614079565b80601f0160208091040260200160405190810160405280929190818152602001828054612e1f90614079565b8015612e6c5780601f10612e4157610100808354040283529160200191612e6c565b820191906000526020600020905b815481529060010190602001808311612e4f57829003601f168201915b50505050508152602001600482015481526020016005820160009054906101000a900460ff161515151581526020016005820160019054906101000a900460ff16151515158152505081526020019060010190612c92565b50505050905090565b600b8060000154905081565b600081600001549050919050565b6001816000016000828254019250508190555050565b60008183612f0b9190613f1e565b905092915050565b60008183612f219190613f4f565b905092915050565b60008183612f379190613fa9565b905092915050565b828054612f4b90614079565b90600052602060002090601f016020900481019282612f6d5760008555612fb4565b82601f10612f8657805160ff1916838001178555612fb4565b82800160010185558215612fb4579182015b82811115612fb3578251825591602001919060010190612f98565b5b509050612fc19190613049565b5090565b604051806060016040528060008152602001600073ffffffffffffffffffffffffffffffffffffffff168152602001600081525090565b828054828255906000526020600020908101928215613038579160200282015b8281111561303757825182559160200191906001019061301c565b5b5090506130459190613049565b5090565b5b8082111561306257600081600090555060010161304a565b5090565b600061307961307484613d5a565b613d35565b9050808382526020820190508285602086028201111561309857600080fd5b60005b858110156130c857816130ae888261318e565b84526020840193506020830192505060018101905061309b565b5050509392505050565b60006130e56130e084613d86565b613d35565b9050828152602081018484840111156130fd57600080fd5b613108848285614037565b509392505050565b60008135905061311f81614389565b92915050565b600082601f83011261313657600080fd5b8135613146848260208601613066565b91505092915050565b60008135905061315e816143a0565b92915050565b600082601f83011261317557600080fd5b81356131858482602086016130d2565b91505092915050565b60008135905061319d816143b7565b92915050565b6000602082840312156131b557600080fd5b60006131c384828501613110565b91505092915050565b6000806000606084860312156131e157600080fd5b600084013567ffffffffffffffff8111156131fb57600080fd5b61320786828701613125565b935050602084013567ffffffffffffffff81111561322457600080fd5b61323086828701613125565b925050604061324186828701613110565b9150509250925092565b60008060008060008060c0878903121561326457600080fd5b600087013567ffffffffffffffff81111561327e57600080fd5b61328a89828a01613164565b965050602087013567ffffffffffffffff8111156132a757600080fd5b6132b389828a01613164565b955050604087013567ffffffffffffffff8111156132d057600080fd5b6132dc89828a01613164565b94505060606132ed89828a0161318e565b935050608087013567ffffffffffffffff81111561330a57600080fd5b61331689828a01613164565b92505060a061332789828a0161314f565b9150509295509295509295565b60006020828403121561334657600080fd5b60006133548482850161318e565b91505092915050565b6000806040838503121561337057600080fd5b600061337e8582860161318e565b925050602061338f8582860161314f565b9150509250929050565b600080604083850312156133ac57600080fd5b60006133ba8582860161318e565b92505060206133cb8582860161318e565b9150509250929050565b60006133e183836137cb565b60608301905092915050565b60006133f9838361380d565b905092915050565b600061340d83836138b7565b905092915050565b60006134218383613998565b60208301905092915050565b61343681613fef565b82525050565b61344581613fdd565b82525050565b61345481613fdd565b82525050565b600061346582613df7565b61346f8185613e62565b935061347a83613db7565b8060005b838110156134ab57815161349288826133d5565b975061349d83613e2e565b92505060018101905061347e565b5085935050505092915050565b60006134c382613e02565b6134cd8185613e73565b9350836020820285016134df85613dc7565b8060005b8581101561351b57848403895281516134fc85826133ed565b945061350783613e3b565b925060208a019950506001810190506134e3565b50829750879550505050505092915050565b600061353882613e0d565b6135428185613e84565b93508360208202850161355485613dd7565b8060005b8581101561359057848403895281516135718582613401565b945061357c83613e48565b925060208a01995050600181019050613558565b50829750879550505050505092915050565b60006135ad82613e18565b6135b78185613e95565b93506135c283613de7565b8060005b838110156135f35781516135da8882613415565b97506135e583613e55565b9250506001810190506135c6565b5085935050505092915050565b61360981614001565b82525050565b61361881614001565b82525050565b600061362982613e23565b6136338185613ea6565b9350613643818560208601614046565b61364c816141e1565b840191505092915050565b600061366282613e23565b61366c8185613eb7565b935061367c818560208601614046565b613685816141e1565b840191505092915050565b600061369d601683613eb7565b91506136a8826141f2565b602082019050919050565b60006136c0601483613eb7565b91506136cb8261421b565b602082019050919050565b60006136e3601c83613eb7565b91506136ee82614244565b602082019050919050565b6000613706602483613eb7565b91506137118261426d565b604082019050919050565b6000613729602083613eb7565b9150613734826142bc565b602082019050919050565b600061374c601383613eb7565b9150613757826142e5565b602082019050919050565b600061376f601683613eb7565b915061377a8261430e565b602082019050919050565b6000613792601a83613eb7565b915061379d82614337565b602082019050919050565b60006137b5601e83613eb7565b91506137c082614360565b602082019050919050565b6060820160008201516137e16000850182613998565b5060208201516137f4602085018261343c565b5060408201516138076040850182613998565b50505050565b600060e0830160008301516138256000860182613998565b506020830151848203602086015261383d828261361e565b91505060408301518482036040860152613857828261361e565b91505060608301518482036060860152613871828261361e565b91505060808301516138866080860182613998565b5060a083015161389960a0860182613600565b5060c08301516138ac60c0860182613600565b508091505092915050565b6000610140830160008301516138d06000860182613998565b50602083015184820360208601526138e882826135a2565b9150506040830151848203604086015261390282826135a2565b91505060608301516139176060860182613998565b50608083015161392a6080860182613600565b5060a083015161393d60a086018261343c565b5060c083015161395060c0860182613998565b5060e083015161396360e0860182613600565b5061010083015161397861010086018261343c565b5061012083015161398d610120860182613998565b508091505092915050565b6139a18161402d565b82525050565b6139b08161402d565b82525050565b60006020820190506139cb600083018461342d565b92915050565b600060208201905081810360008301526139eb818461345a565b905092915050565b60006020820190508181036000830152613a0d81846134b8565b905092915050565b60006020820190508181036000830152613a2f818461352d565b905092915050565b60006020820190508181036000830152613a518184613657565b905092915050565b60006020820190508181036000830152613a7281613690565b9050919050565b60006020820190508181036000830152613a92816136b3565b9050919050565b60006020820190508181036000830152613ab2816136d6565b9050919050565b60006020820190508181036000830152613ad2816136f9565b9050919050565b60006020820190508181036000830152613af28161371c565b9050919050565b60006020820190508181036000830152613b128161373f565b9050919050565b60006020820190508181036000830152613b3281613762565b9050919050565b60006020820190508181036000830152613b5281613785565b9050919050565b60006020820190508181036000830152613b72816137a8565b9050919050565b6000602082019050613b8e60008301846139a7565b92915050565b6000606082019050613ba960008301866139a7565b613bb6602083018561344b565b613bc360408301846139a7565b949350505050565b600060a082019050613be060008301886139a7565b8181036020830152613bf28187613657565b90508181036040830152613c068186613657565b90508181036060830152613c1a8185613657565b9050613c2960808301846139a7565b9695505050505050565b600060e082019050613c48600083018a6139a7565b8181036020830152613c5a8189613657565b90508181036040830152613c6e8188613657565b90508181036060830152613c828187613657565b9050613c9160808301866139a7565b613c9e60a083018561360f565b613cab60c083018461360f565b98975050505050505050565b600061010082019050613ccd600083018b6139a7565b613cda602083018a6139a7565b613ce7604083018961360f565b613cf4606083018861344b565b613d0160808301876139a7565b613d0e60a083018661360f565b613d1b60c083018561344b565b613d2860e08301846139a7565b9998505050505050505050565b6000613d3f613d50565b9050613d4b82826140ab565b919050565b6000604051905090565b600067ffffffffffffffff821115613d7557613d746141b2565b5b602082029050602081019050919050565b600067ffffffffffffffff821115613da157613da06141b2565b5b613daa826141e1565b9050602081019050919050565b6000819050602082019050919050565b6000819050602082019050919050565b6000819050602082019050919050565b6000819050602082019050919050565b600081519050919050565b600081519050919050565b600081519050919050565b600081519050919050565b600081519050919050565b6000602082019050919050565b6000602082019050919050565b6000602082019050919050565b6000602082019050919050565b600082825260208201905092915050565b600082825260208201905092915050565b600082825260208201905092915050565b600082825260208201905092915050565b600082825260208201905092915050565b600082825260208201905092915050565b6000613ed38261402d565b9150613ede8361402d565b9250827fffffffffffffffffffffffffffffffffffffffffffffffffffffffffffffffff03821115613f1357613f12614125565b5b828201905092915050565b6000613f298261402d565b9150613f348361402d565b925082613f4457613f43614154565b5b828204905092915050565b6000613f5a8261402d565b9150613f658361402d565b9250817fffffffffffffffffffffffffffffffffffffffffffffffffffffffffffffffff0483118215151615613f9e57613f9d614125565b5b828202905092915050565b6000613fb48261402d565b9150613fbf8361402d565b925082821015613fd257613fd1614125565b5b828203905092915050565b6000613fe88261400d565b9050919050565b6000613ffa8261400d565b9050919050565b60008115159050919050565b600073ffffffffffffffffffffffffffffffffffffffff82169050919050565b6000819050919050565b82818337600083830152505050565b60005b83811015614064578082015181840152602081019050614049565b83811115614073576000848401525b50505050565b6000600282049050600182168061409157607f821691505b602082108114156140a5576140a4614183565b5b50919050565b6140b4826141e1565b810181811067ffffffffffffffff821117156140d3576140d26141b2565b5b80604052505050565b60006140e78261402d565b91507fffffffffffffffffffffffffffffffffffffffffffffffffffffffffffffffff82141561411a57614119614125565b5b600182019050919050565b7f4e487b7100000000000000000000000000000000000000000000000000000000600052601160045260246000fd5b7f4e487b7100000000000000000000000000000000000000000000000000000000600052601260045260246000fd5b7f4e487b7100000000000000000000000000000000000000000000000000000000600052602260045260246000fd5b7f4e487b7100000000000000000000000000000000000000000000000000000000600052604160045260246000fd5b6000601f19601f8301169050919050565b7f52657175697265642076616c7565206e6f74206d657400000000000000000000600082015250565b7f53656e646572206973206e6f7420636c69656e74000000000000000000000000600082015250565b7f4d757374206265206665776572207468616e20313030206974656d7300000000600082015250565b7f50657263656e74616765206d7573742062652067726561746572207468616e2060008201527f7a65726f00000000000000000000000000000000000000000000000000000000602082015250565b7f50657263656e74616765206d757374206265206c657373207468616e20313030600082015250565b7f4f6e6c79206f776e65722066756e6374696f6e00000000000000000000000000600082015250565b7f4f6e6c7920676f7665726e6f722066756e6374696f6e00000000000000000000600082015250565b7f416666696c69617465206d75737420626520617070726f766564000000000000600082015250565b7f53656e64657220697320616e20616666696c6961746520616c72656164790000600082015250565b61439281613fdd565b811461439d57600080fd5b50565b6143a981614001565b81146143b457600080fd5b50565b6143c08161402d565b81146143cb57600080fd5b5056fea264697066735822122045142bcdc27cd5f1333176157540a68ff2c710c00e31b0788bee7f3a7be3b85a64736f6c63430008040033",
  "linkReferences": {},
  "deployedLinkReferences": {}
}