{
  "_format": "hh-sol-artifact-1",
  "contractName": "Shop",
  "sourceName": "contracts/Shop.sol",
  "abi": [
    {
      "anonymous": false,
      "inputs": [
        {
          "indexed": false,
          "internalType": "uint256",
          "name": "itemId",
          "type": "uint256"
        },
        {
          "indexed": false,
          "internalType": "address",
          "name": "itemAddress",
          "type": "address"
        },
        {
          "indexed": false,
          "internalType": "uint256",
          "name": "price",
          "type": "uint256"
        }
      ],
      "name": "ItemCreated",
      "type": "event"
    },
    {
      "inputs": [],
      "name": "_transactionsCount",
      "outputs": [
        {
          "internalType": "uint256",
          "name": "_value",
          "type": "uint256"
        }
      ],
      "stateMutability": "view",
      "type": "function"
    },
    {
      "inputs": [
        {
          "internalType": "address",
          "name": "",
          "type": "address"
        }
      ],
      "name": "affiliates",
      "outputs": [
        {
          "internalType": "uint256",
          "name": "percentage",
          "type": "uint256"
        },
        {
          "internalType": "address",
          "name": "affAddr",
          "type": "address"
        },
        {
          "internalType": "uint256",
          "name": "id",
          "type": "uint256"
        }
      ],
      "stateMutability": "view",
      "type": "function"
    },
    {
      "inputs": [
        {
          "internalType": "address",
          "name": "affAddr",
          "type": "address"
        }
      ],
      "name": "approveAffiliate",
      "outputs": [],
      "stateMutability": "nonpayable",
      "type": "function"
    },
    {
      "inputs": [
        {
          "internalType": "uint256",
          "name": "",
          "type": "uint256"
        }
      ],
      "name": "approvedAffArr",
      "outputs": [
        {
          "internalType": "uint256",
          "name": "percentage",
          "type": "uint256"
        },
        {
          "internalType": "address",
          "name": "affAddr",
          "type": "address"
        },
        {
          "internalType": "uint256",
          "name": "id",
          "type": "uint256"
        }
      ],
      "stateMutability": "view",
      "type": "function"
    },
    {
      "inputs": [
        {
          "internalType": "address",
          "name": "affAddr",
          "type": "address"
        }
      ],
      "name": "cancelAffiliate",
      "outputs": [],
      "stateMutability": "nonpayable",
      "type": "function"
    },
    {
      "inputs": [
        {
          "internalType": "string",
          "name": "_name",
          "type": "string"
        },
        {
          "internalType": "string",
          "name": "_nftSymbol",
          "type": "string"
        },
        {
          "internalType": "uint256",
          "name": "_price",
          "type": "uint256"
        },
        {
          "internalType": "string",
          "name": "_tokenURI",
          "type": "string"
        }
      ],
      "name": "createItem",
      "outputs": [],
      "stateMutability": "payable",
      "type": "function"
    },
    {
      "inputs": [
        {
          "internalType": "uint256",
          "name": "_id",
          "type": "uint256"
        }
      ],
      "name": "deleteItem",
      "outputs": [],
      "stateMutability": "nonpayable",
      "type": "function"
    },
    {
      "inputs": [],
      "name": "fetchCatalogItems",
      "outputs": [
        {
          "components": [
            {
              "internalType": "uint256",
              "name": "itemId",
              "type": "uint256"
            },
            {
              "internalType": "uint256",
              "name": "price",
              "type": "uint256"
            },
            {
              "internalType": "bool",
              "name": "isDeleted",
              "type": "bool"
            },
            {
              "internalType": "address",
              "name": "itemAddress",
              "type": "address"
            }
          ],
          "internalType": "struct Item[]",
          "name": "",
          "type": "tuple[]"
        }
      ],
      "stateMutability": "view",
      "type": "function"
    },
    {
      "inputs": [],
      "name": "fetchTransactions",
      "outputs": [
        {
          "components": [
            {
              "internalType": "uint256",
              "name": "transId",
              "type": "uint256"
            },
            {
              "internalType": "uint256[]",
              "name": "itemIds",
              "type": "uint256[]"
            },
            {
              "internalType": "uint256[]",
              "name": "itemQty",
              "type": "uint256[]"
            },
            {
              "internalType": "uint256",
              "name": "total",
              "type": "uint256"
            },
            {
              "internalType": "bool",
              "name": "isValid",
              "type": "bool"
            },
            {
              "internalType": "address",
              "name": "client",
              "type": "address"
            },
            {
              "internalType": "uint256",
              "name": "review",
              "type": "uint256"
            },
            {
              "internalType": "bool",
              "name": "isReviewed",
              "type": "bool"
            }
          ],
          "internalType": "struct Shop.Trans[]",
          "name": "",
          "type": "tuple[]"
        }
      ],
      "stateMutability": "view",
      "type": "function"
    },
    {
      "inputs": [],
      "name": "freeTransactions",
      "outputs": [
        {
          "internalType": "uint256",
          "name": "",
          "type": "uint256"
        }
      ],
      "stateMutability": "view",
      "type": "function"
    },
    {
      "inputs": [],
      "name": "getApprovedAffiliates",
      "outputs": [
        {
          "components": [
            {
              "internalType": "uint256",
              "name": "percentage",
              "type": "uint256"
            },
            {
              "internalType": "address",
              "name": "affAddr",
              "type": "address"
            },
            {
              "internalType": "uint256",
              "name": "id",
              "type": "uint256"
            }
          ],
          "internalType": "struct Shop.Affiliate[]",
          "name": "",
          "type": "tuple[]"
        }
      ],
      "stateMutability": "view",
      "type": "function"
    },
    {
      "inputs": [],
      "name": "getItemAddresses",
      "outputs": [
        {
          "internalType": "address[]",
          "name": "",
          "type": "address[]"
        }
      ],
      "stateMutability": "view",
      "type": "function"
    },
    {
      "inputs": [],
      "name": "getProposedAffiliates",
      "outputs": [
        {
          "components": [
            {
              "internalType": "uint256",
              "name": "percentage",
              "type": "uint256"
            },
            {
              "internalType": "address",
              "name": "affAddr",
              "type": "address"
            },
            {
              "internalType": "uint256",
              "name": "id",
              "type": "uint256"
            }
          ],
          "internalType": "struct Shop.Affiliate[]",
          "name": "",
          "type": "tuple[]"
        }
      ],
      "stateMutability": "view",
      "type": "function"
    },
    {
      "inputs": [
        {
          "internalType": "uint256",
          "name": "stars",
          "type": "uint256"
        },
        {
          "internalType": "uint256",
          "name": "transId",
          "type": "uint256"
        }
      ],
      "name": "giveReview",
      "outputs": [],
      "stateMutability": "nonpayable",
      "type": "function"
    },
    {
      "inputs": [],
      "name": "governor",
      "outputs": [
        {
          "internalType": "address payable",
          "name": "",
          "type": "address"
        }
      ],
      "stateMutability": "view",
      "type": "function"
    },
    {
      "inputs": [],
      "name": "image",
      "outputs": [
        {
          "internalType": "string",
          "name": "",
          "type": "string"
        }
      ],
      "stateMutability": "view",
      "type": "function"
    },
    {
      "inputs": [
        {
          "internalType": "address",
          "name": "_owner",
          "type": "address"
        },
        {
          "internalType": "string",
          "name": "_name",
          "type": "string"
        },
        {
          "internalType": "string",
          "name": "_image",
          "type": "string"
        },
        {
          "internalType": "string",
          "name": "_tags",
          "type": "string"
        },
        {
          "internalType": "uint256",
          "name": "_shopId",
          "type": "uint256"
        },
        {
          "internalType": "address",
          "name": "_governor",
          "type": "address"
        },
        {
          "internalType": "address",
          "name": "_nftTemplate",
          "type": "address"
        }
      ],
      "name": "initialize",
      "outputs": [],
      "stateMutability": "nonpayable",
      "type": "function"
    },
    {
      "inputs": [
        {
          "internalType": "uint256",
          "name": "",
          "type": "uint256"
        }
      ],
      "name": "itemAddresses",
      "outputs": [
        {
          "internalType": "address",
          "name": "",
          "type": "address"
        }
      ],
      "stateMutability": "view",
      "type": "function"
    },
    {
      "inputs": [
        {
          "internalType": "uint256[]",
          "name": "itemIds",
          "type": "uint256[]"
        },
        {
          "internalType": "uint256[]",
          "name": "itemQty",
          "type": "uint256[]"
        },
        {
          "internalType": "address",
          "name": "affAddr",
          "type": "address"
        }
      ],
      "name": "makeTransaction",
      "outputs": [
        {
          "internalType": "uint256",
          "name": "transactionId",
          "type": "uint256"
        }
      ],
      "stateMutability": "payable",
      "type": "function"
    },
    {
      "inputs": [],
      "name": "name",
      "outputs": [
        {
          "internalType": "string",
          "name": "",
          "type": "string"
        }
      ],
      "stateMutability": "view",
      "type": "function"
    },
    {
      "inputs": [],
      "name": "nftTemplate",
      "outputs": [
        {
          "internalType": "address payable",
          "name": "",
          "type": "address"
        }
      ],
      "stateMutability": "view",
      "type": "function"
    },
    {
      "inputs": [],
      "name": "owner",
      "outputs": [
        {
          "internalType": "address payable",
          "name": "",
          "type": "address"
        }
      ],
      "stateMutability": "view",
      "type": "function"
    },
    {
      "inputs": [
        {
          "internalType": "uint256",
          "name": "percentage",
          "type": "uint256"
        }
      ],
      "name": "proposeAffiliate",
      "outputs": [],
      "stateMutability": "nonpayable",
      "type": "function"
    },
    {
      "inputs": [
        {
          "internalType": "uint256",
          "name": "",
          "type": "uint256"
        }
      ],
      "name": "proposedAffArr",
      "outputs": [
        {
          "internalType": "uint256",
          "name": "percentage",
          "type": "uint256"
        },
        {
          "internalType": "address",
          "name": "affAddr",
          "type": "address"
        },
        {
          "internalType": "uint256",
          "name": "id",
          "type": "uint256"
        }
      ],
      "stateMutability": "view",
      "type": "function"
    },
    {
      "inputs": [
        {
          "internalType": "address",
          "name": "",
          "type": "address"
        }
      ],
      "name": "proposedAffiliates",
      "outputs": [
        {
          "internalType": "uint256",
          "name": "percentage",
          "type": "uint256"
        },
        {
          "internalType": "address",
          "name": "affAddr",
          "type": "address"
        },
        {
          "internalType": "uint256",
          "name": "id",
          "type": "uint256"
        }
      ],
      "stateMutability": "view",
      "type": "function"
    },
    {
      "inputs": [],
      "name": "selfDestruct",
      "outputs": [],
      "stateMutability": "nonpayable",
      "type": "function"
    },
    {
      "inputs": [
        {
          "internalType": "uint256",
          "name": "_freeTransactions",
          "type": "uint256"
        }
      ],
      "name": "setFreeTransactions",
      "outputs": [],
      "stateMutability": "nonpayable",
      "type": "function"
    },
    {
      "inputs": [
        {
          "internalType": "string",
          "name": "_tags",
          "type": "string"
        }
      ],
      "name": "setTags",
      "outputs": [],
      "stateMutability": "nonpayable",
      "type": "function"
    },
    {
      "inputs": [],
      "name": "shopId",
      "outputs": [
        {
          "internalType": "uint256",
          "name": "",
          "type": "uint256"
        }
      ],
      "stateMutability": "view",
      "type": "function"
    },
    {
      "inputs": [],
      "name": "tags",
      "outputs": [
        {
          "internalType": "string",
          "name": "",
          "type": "string"
        }
      ],
      "stateMutability": "view",
      "type": "function"
    },
    {
      "inputs": [
        {
          "internalType": "uint256",
          "name": "",
          "type": "uint256"
        }
      ],
      "name": "transactions",
      "outputs": [
        {
          "internalType": "uint256",
          "name": "transId",
          "type": "uint256"
        },
        {
          "internalType": "uint256",
          "name": "total",
          "type": "uint256"
        },
        {
          "internalType": "bool",
          "name": "isValid",
          "type": "bool"
        },
        {
          "internalType": "address",
          "name": "client",
          "type": "address"
        },
        {
          "internalType": "uint256",
          "name": "review",
          "type": "uint256"
        },
        {
          "internalType": "bool",
          "name": "isReviewed",
          "type": "bool"
        }
      ],
      "stateMutability": "view",
      "type": "function"
    }
  ],
  "bytecode": "0x60806040526103e86007556000600860006101000a81548160ff02191690831515021790555034801561003157600080fd5b50614755806100416000396000f3fe6080604052600436106101d85760003560e01c80638b4989af11610102578063cdd57a3a11610095578063f3ccaac011610064578063f3ccaac0146106b3578063f519865f146106de578063f5b89aac14610709578063fa4fee9814610734576101d8565b8063cdd57a3a146105f7578063de6b7e0914610622578063f0547bc81461064d578063f0f1b02e14610676576101d8565b80639c675667116100d15780639c6756671461055f5780639cb8a26a1461058a578063a4b78a5d146105a1578063c79c6dba146105cc576101d8565b80638b4989af146104995780638cf27994146104c25780638da5cb5b146104f25780639ace38c21461051d576101d8565b8063309c4e1d1161017a578063654fc83311610149578063654fc833146103ec57806376aadd73146104155780638013f0b61461043e57806383e4604f1461047d576101d8565b8063309c4e1d1461031a57806330ac4234146103455780634f51e294146103845780635f6ad596146103c3576101d8565b80630c340a24116101b65780630c340a24146102705780630cc9dc7d1461029b57806319f112e2146102c65780632477eaae146102ef576101d8565b806306fdde03146101dd578063070c24b014610208578063090567d214610247575b600080fd5b3480156101e957600080fd5b506101f261075d565b6040516101ff9190613d76565b60405180910390f35b34801561021457600080fd5b5061022f600480360381019061022a9190613270565b6107eb565b60405161023e93929190613f60565b60405180910390f35b34801561025357600080fd5b5061026e6004803603810190610269919061352b565b610835565b005b34801561027c57600080fd5b506102856108cf565b6040516102929190613c50565b60405180910390f35b3480156102a757600080fd5b506102b06108f5565b6040516102bd9190613f45565b60405180910390f35b3480156102d257600080fd5b506102ed60048036038101906102e8919061343f565b6108fb565b005b3480156102fb57600080fd5b506103046109f1565b6040516103119190613d54565b60405180910390f35b34801561032657600080fd5b5061032f610bab565b60405161033c9190613d10565b60405180910390f35b34801561035157600080fd5b5061036c6004803603810190610367919061352b565b610c74565b60405161037b93929190613f60565b60405180910390f35b34801561039057600080fd5b506103ab60048036038101906103a69190613270565b610cce565b6040516103ba93929190613f60565b60405180910390f35b3480156103cf57600080fd5b506103ea60048036038101906103e5919061352b565b610d18565b005b3480156103f857600080fd5b50610413600480360381019061040e919061352b565b610f9c565b005b34801561042157600080fd5b5061043c60048036038101906104379190613270565b61109b565b005b34801561044a57600080fd5b506104656004803603810190610460919061352b565b611429565b60405161047493929190613f60565b60405180910390f35b61049760048036038101906104929190613480565b611483565b005b3480156104a557600080fd5b506104c060048036038101906104bb9190613554565b611784565b005b6104dc60048036038101906104d791906133c0565b611915565b6040516104e99190613f45565b60405180910390f35b3480156104fe57600080fd5b5061050761207a565b6040516105149190613c50565b60405180910390f35b34801561052957600080fd5b50610544600480360381019061053f919061352b565b6120a0565b60405161055696959493929190613f97565b60405180910390f35b34801561056b57600080fd5b50610574612126565b6040516105819190613c50565b60405180910390f35b34801561059657600080fd5b5061059f61214c565b005b3480156105ad57600080fd5b506105b6612217565b6040516105c39190613f45565b60405180910390f35b3480156105d857600080fd5b506105e161221d565b6040516105ee9190613d10565b60405180910390f35b34801561060357600080fd5b5061060c6122e6565b6040516106199190613f45565b60405180910390f35b34801561062e57600080fd5b506106376122f2565b6040516106449190613d76565b60405180910390f35b34801561065957600080fd5b50610674600480360381019061066f9190613270565b612380565b005b34801561068257600080fd5b5061069d6004803603810190610698919061352b565b612867565b6040516106aa9190613c35565b60405180910390f35b3480156106bf57600080fd5b506106c86128a6565b6040516106d59190613d76565b60405180910390f35b3480156106ea57600080fd5b506106f3612934565b6040516107009190613cee565b60405180910390f35b34801561071557600080fd5b5061071e6129c2565b60405161072b9190613d32565b60405180910390f35b34801561074057600080fd5b5061075b60048036038101906107569190613299565b612a58565b005b6000805461076a906143a1565b80601f0160208091040260200160405190810160405280929190818152602001828054610796906143a1565b80156107e35780601f106107b8576101008083540402835291602001916107e3565b820191906000526020600020905b8154815290600101906020018083116107c657829003601f168201915b505050505081565b60116020528060005260406000206000915090508060000154908060010160009054906101000a900473ffffffffffffffffffffffffffffffffffffffff16908060020154905083565b600560009054906101000a900473ffffffffffffffffffffffffffffffffffffffff1673ffffffffffffffffffffffffffffffffffffffff163373ffffffffffffffffffffffffffffffffffffffff16146108c5576040517f08c379a00000000000000000000000000000000000000000000000000000000081526004016108bc90613db8565b60405180910390fd5b8060078190555050565b600560009054906101000a900473ffffffffffffffffffffffffffffffffffffffff1681565b60075481565b600460009054906101000a900473ffffffffffffffffffffffffffffffffffffffff1673ffffffffffffffffffffffffffffffffffffffff163373ffffffffffffffffffffffffffffffffffffffff161461098b576040517f08c379a000000000000000000000000000000000000000000000000000000000815260040161098290613e78565b60405180910390fd5b61011861099782612c2d565b106109d7576040517f08c379a00000000000000000000000000000000000000000000000000000000081526004016109ce90613d98565b60405180910390fd5b80600390805190602001906109ed929190612ed8565b5050565b60606013805480602002602001604051908101604052809291908181526020016000905b82821015610ba25783829060005260206000209060070201604051806101000160405290816000820154815260200160018201805480602002602001604051908101604052809291908181526020018280548015610a9257602002820191906000526020600020905b815481526020019060010190808311610a7e575b5050505050815260200160028201805480602002602001604051908101604052809291908181526020018280548015610aea57602002820191906000526020600020905b815481526020019060010190808311610ad6575b50505050508152602001600382015481526020016004820160009054906101000a900460ff161515151581526020016004820160019054906101000a900473ffffffffffffffffffffffffffffffffffffffff1673ffffffffffffffffffffffffffffffffffffffff1673ffffffffffffffffffffffffffffffffffffffff168152602001600582015481526020016006820160009054906101000a900460ff16151515158152505081526020019060010190610a15565b50505050905090565b60606010805480602002602001604051908101604052809291908181526020016000905b82821015610c6b5783829060005260206000209060030201604051806060016040529081600082015481526020016001820160009054906101000a900473ffffffffffffffffffffffffffffffffffffffff1673ffffffffffffffffffffffffffffffffffffffff1673ffffffffffffffffffffffffffffffffffffffff16815260200160028201548152505081526020019060010190610bcf565b50505050905090565b60108181548110610c8457600080fd5b90600052602060002090600302016000915090508060000154908060010160009054906101000a900473ffffffffffffffffffffffffffffffffffffffff16908060020154905083565b60126020528060005260406000206000915090508060000154908060010160009054906101000a900473ffffffffffffffffffffffffffffffffffffffff16908060020154905083565b6000601260003373ffffffffffffffffffffffffffffffffffffffff1673ffffffffffffffffffffffffffffffffffffffff1681526020019081526020016000206000015414610d9d576040517f08c379a0000000000000000000000000000000000000000000000000000000008152600401610d9490613e18565b60405180910390fd5b60008111610de0576040517f08c379a0000000000000000000000000000000000000000000000000000000008152600401610dd790613dd8565b60405180910390fd5b60648110610e23576040517f08c379a0000000000000000000000000000000000000000000000000000000008152600401610e1a90613e58565b60405180910390fd5b6000610e2f600b612e08565b9050600060405180606001604052808481526020013373ffffffffffffffffffffffffffffffffffffffff16815260200183815250905080601160003373ffffffffffffffffffffffffffffffffffffffff1673ffffffffffffffffffffffffffffffffffffffff1681526020019081526020016000206000820151816000015560208201518160010160006101000a81548173ffffffffffffffffffffffffffffffffffffffff021916908373ffffffffffffffffffffffffffffffffffffffff16021790555060408201518160020155905050600f8190806001815401808255809150506001900390600052602060002090600302016000909190919091506000820151816000015560208201518160010160006101000a81548173ffffffffffffffffffffffffffffffffffffffff021916908373ffffffffffffffffffffffffffffffffffffffff160217905550604082015181600201555050610f97600b612e16565b505050565b600460009054906101000a900473ffffffffffffffffffffffffffffffffffffffff1673ffffffffffffffffffffffffffffffffffffffff163373ffffffffffffffffffffffffffffffffffffffff161461102c576040517f08c379a000000000000000000000000000000000000000000000000000000000815260040161102390613e78565b60405180910390fd5b600973__$2504da76dd911be12547f2608c53b8702a$__63ef57f72c9091836040518363ffffffff1660e01b8152600401611068929190613f1c565b60006040518083038186803b15801561108057600080fd5b505af4158015611094573d6000803e3d6000fd5b5050505050565b600460009054906101000a900473ffffffffffffffffffffffffffffffffffffffff1673ffffffffffffffffffffffffffffffffffffffff163373ffffffffffffffffffffffffffffffffffffffff161461112b576040517f08c379a000000000000000000000000000000000000000000000000000000000815260040161112290613e78565b60405180910390fd5b60005b6010805490508110156113ac578173ffffffffffffffffffffffffffffffffffffffff166010828154811061118c577f4e487b7100000000000000000000000000000000000000000000000000000000600052603260045260246000fd5b906000526020600020906003020160010160009054906101000a900473ffffffffffffffffffffffffffffffffffffffff1673ffffffffffffffffffffffffffffffffffffffff1614156113995760108181548110611214577f4e487b7100000000000000000000000000000000000000000000000000000000600052603260045260246000fd5b90600052602060002090600302016000808201600090556001820160006101000a81549073ffffffffffffffffffffffffffffffffffffffff021916905560028201600090555050600160108054905061126e91906142d1565b8114611394576010600160108054905061128891906142d1565b815481106112bf577f4e487b7100000000000000000000000000000000000000000000000000000000600052603260045260246000fd5b906000526020600020906003020160108281548110611307577f4e487b7100000000000000000000000000000000000000000000000000000000600052603260045260246000fd5b9060005260206000209060030201600082015481600001556001820160009054906101000a900473ffffffffffffffffffffffffffffffffffffffff168160010160006101000a81548173ffffffffffffffffffffffffffffffffffffffff021916908373ffffffffffffffffffffffffffffffffffffffff160217905550600282015481600201559050505b6113ac565b80806113a490614404565b91505061112e565b50601260008273ffffffffffffffffffffffffffffffffffffffff1673ffffffffffffffffffffffffffffffffffffffff1681526020019081526020016000206000808201600090556001820160006101000a81549073ffffffffffffffffffffffffffffffffffffffff02191690556002820160009055505050565b600f818154811061143957600080fd5b90600052602060002090600302016000915090508060000154908060010160009054906101000a900473ffffffffffffffffffffffffffffffffffffffff16908060020154905083565b600460009054906101000a900473ffffffffffffffffffffffffffffffffffffffff1673ffffffffffffffffffffffffffffffffffffffff163373ffffffffffffffffffffffffffffffffffffffff1614611513576040517f08c379a000000000000000000000000000000000000000000000000000000000815260040161150a90613e78565b60405180910390fd5b61151d600a612e16565b600061154a600660009054906101000a900473ffffffffffffffffffffffffffffffffffffffff16612e2c565b90508073ffffffffffffffffffffffffffffffffffffffff16632016a0d2333088886040518563ffffffff1660e01b815260040161158b9493929190613c6b565b600060405180830381600087803b1580156115a557600080fd5b505af11580156115b9573d6000803e3d6000fd5b505050508073ffffffffffffffffffffffffffffffffffffffff16633d54eebb836040518263ffffffff1660e01b81526004016115f69190613d76565b600060405180830381600087803b15801561161057600080fd5b505af1158015611624573d6000803e3d6000fd5b50505050600e819080600181540180825580915050600190039060005260206000200160009091909190916101000a81548173ffffffffffffffffffffffffffffffffffffffff021916908373ffffffffffffffffffffffffffffffffffffffff160217905550600973__$2504da76dd911be12547f2608c53b8702a$__63fef3c5a3909160405180608001604052806116be600a612e08565b81526020018781526020016000151581526020018573ffffffffffffffffffffffffffffffffffffffff168152506040518363ffffffff1660e01b8152600401611709929190613ef3565b60006040518083038186803b15801561172157600080fd5b505af4158015611735573d6000803e3d6000fd5b505050507f9b8c4b5bf2f39369bee0a581bf2e28b1c1df1982925a012ff839ee598d142cdd611764600a612e08565b828560405161177593929190613f60565b60405180910390a15050505050565b3373ffffffffffffffffffffffffffffffffffffffff16601382815481106117d5577f4e487b7100000000000000000000000000000000000000000000000000000000600052603260045260246000fd5b906000526020600020906007020160040160019054906101000a900473ffffffffffffffffffffffffffffffffffffffff1673ffffffffffffffffffffffffffffffffffffffff161461185d576040517f08c379a000000000000000000000000000000000000000000000000000000000815260040161185490613e38565b60405180910390fd5b8160138281548110611898577f4e487b7100000000000000000000000000000000000000000000000000000000600052603260045260246000fd5b9060005260206000209060070201600501819055506001601382815481106118e9577f4e487b7100000000000000000000000000000000000000000000000000000000600052603260045260246000fd5b906000526020600020906007020160060160006101000a81548160ff0219169083151502179055505050565b600061191f612f5e565b600073ffffffffffffffffffffffffffffffffffffffff168373ffffffffffffffffffffffffffffffffffffffff1614611a7e57601260008473ffffffffffffffffffffffffffffffffffffffff1673ffffffffffffffffffffffffffffffffffffffff168152602001908152602001600020604051806060016040529081600082015481526020016001820160009054906101000a900473ffffffffffffffffffffffffffffffffffffffff1673ffffffffffffffffffffffffffffffffffffffff1673ffffffffffffffffffffffffffffffffffffffff1681526020016002820154815250509050600073ffffffffffffffffffffffffffffffffffffffff16816020015173ffffffffffffffffffffffffffffffffffffffff161415611a7d576040517f08c379a0000000000000000000000000000000000000000000000000000000008152600401611a7490613e98565b60405180910390fd5b5b6000808087519050600091505b80821015611b8d57868281518110611acc577f4e487b7100000000000000000000000000000000000000000000000000000000600052603260045260246000fd5b60200260200101516009600001898481518110611b12577f4e487b7100000000000000000000000000000000000000000000000000000000600052603260045260246000fd5b602002602001015181548110611b51577f4e487b7100000000000000000000000000000000000000000000000000000000600052603260045260246000fd5b906000526020600020906003020160010154611b6d9190614277565b83611b7891906141f0565b92508180611b8590614404565b925050611a8b565b82341015611bd0576040517f08c379a0000000000000000000000000000000000000000000000000000000008152600401611bc790613df8565b60405180910390fd5b600091505b80821015611d0b576009600001888381518110611c1b577f4e487b7100000000000000000000000000000000000000000000000000000000600052603260045260246000fd5b602002602001015181548110611c5a577f4e487b7100000000000000000000000000000000000000000000000000000000600052603260045260246000fd5b906000526020600020906003020160020160019054906101000a900473ffffffffffffffffffffffffffffffffffffffff1673ffffffffffffffffffffffffffffffffffffffff1663d2d9dfe833896040518363ffffffff1660e01b8152600401611cc6929190613cbe565b600060405180830381600087803b158015611ce057600080fd5b505af1158015611cf4573d6000803e3d6000fd5b505050508180611d0390614404565b925050611bd5565b611d15600d612e16565b600080600754611d25600d612e08565b1115611d4257611d3f606486612e9690919063ffffffff16565b90505b600073ffffffffffffffffffffffffffffffffffffffff168873ffffffffffffffffffffffffffffffffffffffff1614611dee57611da08660000151611d92606488612e9690919063ffffffff16565b612eac90919063ffffffff16565b9150856020015173ffffffffffffffffffffffffffffffffffffffff166108fc839081150290604051600060405180830381858888f19350505050158015611dec573d6000803e3d6000fd5b505b600460009054906101000a900473ffffffffffffffffffffffffffffffffffffffff1673ffffffffffffffffffffffffffffffffffffffff166108fc611e4f84611e41858a612ec290919063ffffffff16565b612ec290919063ffffffff16565b9081150290604051600060405180830381858888f19350505050158015611e7a573d6000803e3d6000fd5b506000811115611eee57600560009054906101000a900473ffffffffffffffffffffffffffffffffffffffff1673ffffffffffffffffffffffffffffffffffffffff166108fc829081150290604051600060405180830381858888f19350505050158015611eec573d6000803e3d6000fd5b505b6000611efa600c612e08565b905060136040518061010001604052808381526020018d81526020018c81526020018881526020016001151581526020013373ffffffffffffffffffffffffffffffffffffffff16815260200160008152602001600015158152509080600181540180825580915050600190039060005260206000209060070201600090919091909150600082015181600001556020820151816001019080519060200190611fa4929190612f95565b506040820151816002019080519060200190611fc1929190612f95565b506060820151816003015560808201518160040160006101000a81548160ff02191690831515021790555060a08201518160040160016101000a81548173ffffffffffffffffffffffffffffffffffffffff021916908373ffffffffffffffffffffffffffffffffffffffff16021790555060c0820151816005015560e08201518160060160006101000a81548160ff0219169083151502179055505050612069600c612e16565b809750505050505050509392505050565b600460009054906101000a900473ffffffffffffffffffffffffffffffffffffffff1681565b601381815481106120b057600080fd5b90600052602060002090600702016000915090508060000154908060030154908060040160009054906101000a900460ff16908060040160019054906101000a900473ffffffffffffffffffffffffffffffffffffffff16908060050154908060060160009054906101000a900460ff16905086565b600660009054906101000a900473ffffffffffffffffffffffffffffffffffffffff1681565b600560009054906101000a900473ffffffffffffffffffffffffffffffffffffffff1673ffffffffffffffffffffffffffffffffffffffff163373ffffffffffffffffffffffffffffffffffffffff16146121dc576040517f08c379a00000000000000000000000000000000000000000000000000000000081526004016121d390613db8565b60405180910390fd5b600560009054906101000a900473ffffffffffffffffffffffffffffffffffffffff1673ffffffffffffffffffffffffffffffffffffffff16ff5b60015481565b6060600f805480602002602001604051908101604052809291908181526020016000905b828210156122dd5783829060005260206000209060030201604051806060016040529081600082015481526020016001820160009054906101000a900473ffffffffffffffffffffffffffffffffffffffff1673ffffffffffffffffffffffffffffffffffffffff1673ffffffffffffffffffffffffffffffffffffffff16815260200160028201548152505081526020019060010190612241565b50505050905090565b600d8060000154905081565b600380546122ff906143a1565b80601f016020809104026020016040519081016040528092919081815260200182805461232b906143a1565b80156123785780601f1061234d57610100808354040283529160200191612378565b820191906000526020600020905b81548152906001019060200180831161235b57829003601f168201915b505050505081565b600460009054906101000a900473ffffffffffffffffffffffffffffffffffffffff1673ffffffffffffffffffffffffffffffffffffffff163373ffffffffffffffffffffffffffffffffffffffff1614612410576040517f08c379a000000000000000000000000000000000000000000000000000000000815260040161240790613e78565b60405180910390fd5b601160008273ffffffffffffffffffffffffffffffffffffffff1673ffffffffffffffffffffffffffffffffffffffff168152602001908152602001600020601260008373ffffffffffffffffffffffffffffffffffffffff1673ffffffffffffffffffffffffffffffffffffffff168152602001908152602001600020600082015481600001556001820160009054906101000a900473ffffffffffffffffffffffffffffffffffffffff168160010160006101000a81548173ffffffffffffffffffffffffffffffffffffffff021916908373ffffffffffffffffffffffffffffffffffffffff160217905550600282015481600201559050506000601160008373ffffffffffffffffffffffffffffffffffffffff1673ffffffffffffffffffffffffffffffffffffffff1681526020019081526020016000206002015490506010601260008473ffffffffffffffffffffffffffffffffffffffff1673ffffffffffffffffffffffffffffffffffffffff1681526020019081526020016000209080600181540180825580915050600190039060005260206000209060030201600090919091909150600082015481600001556001820160009054906101000a900473ffffffffffffffffffffffffffffffffffffffff168160010160006101000a81548173ffffffffffffffffffffffffffffffffffffffff021916908373ffffffffffffffffffffffffffffffffffffffff160217905550600282015481600201555050600f8181548110612674577f4e487b7100000000000000000000000000000000000000000000000000000000600052603260045260246000fd5b90600052602060002090600302016000808201600090556001820160006101000a81549073ffffffffffffffffffffffffffffffffffffffff0219169055600282016000905550506000600f8054905011156127ea57600f6001600f805490506126de91906142d1565b81548110612715577f4e487b7100000000000000000000000000000000000000000000000000000000600052603260045260246000fd5b9060005260206000209060030201600f828154811061275d577f4e487b7100000000000000000000000000000000000000000000000000000000600052603260045260246000fd5b9060005260206000209060030201600082015481600001556001820160009054906101000a900473ffffffffffffffffffffffffffffffffffffffff168160010160006101000a81548173ffffffffffffffffffffffffffffffffffffffff021916908373ffffffffffffffffffffffffffffffffffffffff160217905550600282015481600201559050505b601160008373ffffffffffffffffffffffffffffffffffffffff1673ffffffffffffffffffffffffffffffffffffffff1681526020019081526020016000206000808201600090556001820160006101000a81549073ffffffffffffffffffffffffffffffffffffffff0219169055600282016000905550505050565b600e818154811061287757600080fd5b906000526020600020016000915054906101000a900473ffffffffffffffffffffffffffffffffffffffff1681565b600280546128b3906143a1565b80601f01602080910402602001604051908101604052809291908181526020018280546128df906143a1565b801561292c5780601f106129015761010080835404028352916020019161292c565b820191906000526020600020905b81548152906001019060200180831161290f57829003601f168201915b505050505081565b6060600e8054806020026020016040519081016040528092919081815260200182805480156129b857602002820191906000526020600020905b8160009054906101000a900473ffffffffffffffffffffffffffffffffffffffff1673ffffffffffffffffffffffffffffffffffffffff168152602001906001019080831161296e575b5050505050905090565b6060600973__$2504da76dd911be12547f2608c53b8702a$__6334871c0390916040518263ffffffff1660e01b81526004016129fe9190613ed8565b60006040518083038186803b158015612a1657600080fd5b505af4158015612a2a573d6000803e3d6000fd5b505050506040513d6000823e3d601f19601f82011682018060405250810190612a53919061337f565b905090565b60001515600860009054906101000a900460ff16151514612aae576040517f08c379a0000000000000000000000000000000000000000000000000000000008152600401612aa590613eb8565b60405180910390fd5b610118612aba85612c2d565b10612afa576040517f08c379a0000000000000000000000000000000000000000000000000000000008152600401612af190613d98565b60405180910390fd5b6001600860006101000a81548160ff02191690831515021790555086600460006101000a81548173ffffffffffffffffffffffffffffffffffffffff021916908373ffffffffffffffffffffffffffffffffffffffff1602179055508560009080519060200190612b6c929190612ed8565b508460029080519060200190612b83929190612ed8565b508360039080519060200190612b9a929190612ed8565b508260018190555081600560006101000a81548173ffffffffffffffffffffffffffffffffffffffff021916908373ffffffffffffffffffffffffffffffffffffffff16021790555080600660006101000a81548173ffffffffffffffffffffffffffffffffffffffff021916908373ffffffffffffffffffffffffffffffffffffffff16021790555050505050505050565b60008060008084519050600092505b80821015612dfd576000858381518110612c7f577f4e487b7100000000000000000000000000000000000000000000000000000000600052603260045260246000fd5b602001015160f81c60f81b9050608060f81b817effffffffffffffffffffffffffffffffffffffffffffffffffffffffffffff19161015612cce57600183612cc791906141f0565b9250612de9565b60e060f81b817effffffffffffffffffffffffffffffffffffffffffffffffffffffffffffff19161015612d1057600283612d0991906141f0565b9250612de8565b60f060f81b817effffffffffffffffffffffffffffffffffffffffffffffffffffffffffffff19161015612d5257600383612d4b91906141f0565b9250612de7565b60f8801b817effffffffffffffffffffffffffffffffffffffffffffffffffffffffffffff19161015612d9357600483612d8c91906141f0565b9250612de6565b60fc60f81b817effffffffffffffffffffffffffffffffffffffffffffffffffffffffffffff19161015612dd557600583612dce91906141f0565b9250612de5565b600683612de291906141f0565b92505b5b5b5b5b508280612df590614404565b935050612c3c565b829350505050919050565b600081600001549050919050565b6001816000016000828254019250508190555050565b6000808260601b90506040517f3d602d80600a3d3981f3363d3d373d3d3d363d7300000000000000000000000081528160148201527f5af43d82803e903d91602b57fd5bf3000000000000000000000000000000000060288201526037816000f092505050919050565b60008183612ea49190614246565b905092915050565b60008183612eba9190614277565b905092915050565b60008183612ed091906142d1565b905092915050565b828054612ee4906143a1565b90600052602060002090601f016020900481019282612f065760008555612f4d565b82601f10612f1f57805160ff1916838001178555612f4d565b82800160010185558215612f4d579182015b82811115612f4c578251825591602001919060010190612f31565b5b509050612f5a9190612fe2565b5090565b604051806060016040528060008152602001600073ffffffffffffffffffffffffffffffffffffffff168152602001600081525090565b828054828255906000526020600020908101928215612fd1579160200282015b82811115612fd0578251825591602001919060010190612fb5565b5b509050612fde9190612fe2565b5090565b5b80821115612ffb576000816000905550600101612fe3565b5090565b600061301261300d8461401d565b613ff8565b9050808382526020820190508285608086028201111561303157600080fd5b60005b85811015613061578161304788826131d2565b845260208401935060808301925050600181019050613034565b5050509392505050565b600061307e61307984614049565b613ff8565b9050808382526020820190508285602086028201111561309d57600080fd5b60005b858110156130cd57816130b38882613246565b8452602084019350602083019250506001810190506130a0565b5050509392505050565b60006130ea6130e584614075565b613ff8565b90508281526020810184848401111561310257600080fd5b61310d84828561435f565b509392505050565b600081359050613124816146da565b92915050565b600081519050613139816146da565b92915050565b600082601f83011261315057600080fd5b8151613160848260208601612fff565b91505092915050565b600082601f83011261317a57600080fd5b813561318a84826020860161306b565b91505092915050565b6000815190506131a2816146f1565b92915050565b600082601f8301126131b957600080fd5b81356131c98482602086016130d7565b91505092915050565b6000608082840312156131e457600080fd5b6131ee6080613ff8565b905060006131fe8482850161325b565b60008301525060206132128482850161325b565b602083015250604061322684828501613193565b604083015250606061323a8482850161312a565b60608301525092915050565b60008135905061325581614708565b92915050565b60008151905061326a81614708565b92915050565b60006020828403121561328257600080fd5b600061329084828501613115565b91505092915050565b600080600080600080600060e0888a0312156132b457600080fd5b60006132c28a828b01613115565b975050602088013567ffffffffffffffff8111156132df57600080fd5b6132eb8a828b016131a8565b965050604088013567ffffffffffffffff81111561330857600080fd5b6133148a828b016131a8565b955050606088013567ffffffffffffffff81111561333157600080fd5b61333d8a828b016131a8565b945050608061334e8a828b01613246565b93505060a061335f8a828b01613115565b92505060c06133708a828b01613115565b91505092959891949750929550565b60006020828403121561339157600080fd5b600082015167ffffffffffffffff8111156133ab57600080fd5b6133b78482850161313f565b91505092915050565b6000806000606084860312156133d557600080fd5b600084013567ffffffffffffffff8111156133ef57600080fd5b6133fb86828701613169565b935050602084013567ffffffffffffffff81111561341857600080fd5b61342486828701613169565b925050604061343586828701613115565b9150509250925092565b60006020828403121561345157600080fd5b600082013567ffffffffffffffff81111561346b57600080fd5b613477848285016131a8565b91505092915050565b6000806000806080858703121561349657600080fd5b600085013567ffffffffffffffff8111156134b057600080fd5b6134bc878288016131a8565b945050602085013567ffffffffffffffff8111156134d957600080fd5b6134e5878288016131a8565b93505060406134f687828801613246565b925050606085013567ffffffffffffffff81111561351357600080fd5b61351f878288016131a8565b91505092959194509250565b60006020828403121561353d57600080fd5b600061354b84828501613246565b91505092915050565b6000806040838503121561356757600080fd5b600061357585828601613246565b925050602061358685828601613246565b9150509250929050565b600061359c8383613613565b60208301905092915050565b60006135b48383613a4f565b60608301905092915050565b60006135cc8383613a91565b60808301905092915050565b60006135e48383613b42565b905092915050565b60006135f88383613bf9565b60208301905092915050565b61360d81614317565b82525050565b61361c81614305565b82525050565b61362b81614305565b82525050565b61363a81614305565b82525050565b600061364b826140f6565b6136558185614179565b9350613660836140a6565b8060005b838110156136915781516136788882613590565b975061368383614138565b925050600181019050613664565b5085935050505092915050565b60006136a982614101565b6136b3818561418a565b93506136be836140b6565b8060005b838110156136ef5781516136d688826135a8565b97506136e183614145565b9250506001810190506136c2565b5085935050505092915050565b60006137078261410c565b613711818561419b565b935061371c836140c6565b8060005b8381101561374d57815161373488826135c0565b975061373f83614152565b925050600181019050613720565b5085935050505092915050565b600061376582614117565b61376f81856141ac565b935083602082028501613781856140d6565b8060005b858110156137bd578484038952815161379e85826135d8565b94506137a98361415f565b925060208a01995050600181019050613785565b50829750879550505050505092915050565b60006137da82614122565b6137e481856141bd565b93506137ef836140e6565b8060005b8381101561382057815161380788826135ec565b97506138128361416c565b9250506001810190506137f3565b5085935050505092915050565b600061383882614122565b61384281856141ce565b935061384d836140e6565b8060005b8381101561387e57815161386588826135ec565b97506138708361416c565b925050600181019050613851565b5085935050505092915050565b61389481614329565b82525050565b6138a381614329565b82525050565b6138b281614329565b82525050565b60006138c38261412d565b6138cd81856141df565b93506138dd81856020860161436e565b6138e681614509565b840191505092915050565b60006138fe602a836141df565b91506139098261451a565b604082019050919050565b60006139216004836141df565b915061392c82614569565b602082019050919050565b60006139446003836141df565b915061394f82614592565b602082019050919050565b60006139676003836141df565b9150613972826145bb565b602082019050919050565b600061398a6003836141df565b9150613995826145e4565b602082019050919050565b60006139ad6003836141df565b91506139b88261460d565b602082019050919050565b60006139d06003836141df565b91506139db82614636565b602082019050919050565b60006139f36004836141df565b91506139fe8261465f565b602082019050919050565b6000613a166003836141df565b9150613a2182614688565b602082019050919050565b6000613a396004836141df565b9150613a44826146b1565b602082019050919050565b606082016000820151613a656000850182613bf9565b506020820151613a786020850182613613565b506040820151613a8b6040850182613bf9565b50505050565b608082016000820151613aa76000850182613bf9565b506020820151613aba6020850182613bf9565b506040820151613acd604085018261388b565b506060820151613ae06060850182613613565b50505050565b608082016000820151613afc6000850182613c26565b506020820151613b0f6020850182613c26565b506040820151613b2260408501826138a9565b506060820151613b356060850182613631565b50505050565b8082525050565b600061010083016000830151613b5b6000860182613bf9565b5060208301518482036020860152613b7382826137cf565b91505060408301518482036040860152613b8d82826137cf565b9150506060830151613ba26060860182613bf9565b506080830151613bb5608086018261388b565b5060a0830151613bc860a0860182613613565b5060c0830151613bdb60c0860182613bf9565b5060e0830151613bee60e086018261388b565b508091505092915050565b613c0281614355565b82525050565b613c1181614355565b82525050565b613c2081614355565b82525050565b613c2f81614355565b82525050565b6000602082019050613c4a6000830184613622565b92915050565b6000602082019050613c656000830184613604565b92915050565b6000608082019050613c806000830187613622565b613c8d6020830186613622565b8181036040830152613c9f81856138b8565b90508181036060830152613cb381846138b8565b905095945050505050565b6000604082019050613cd36000830185613622565b8181036020830152613ce5818461382d565b90509392505050565b60006020820190508181036000830152613d088184613640565b905092915050565b60006020820190508181036000830152613d2a818461369e565b905092915050565b60006020820190508181036000830152613d4c81846136fc565b905092915050565b60006020820190508181036000830152613d6e818461375a565b905092915050565b60006020820190508181036000830152613d9081846138b8565b905092915050565b60006020820190508181036000830152613db1816138f1565b9050919050565b60006020820190508181036000830152613dd181613914565b9050919050565b60006020820190508181036000830152613df181613937565b9050919050565b60006020820190508181036000830152613e118161395a565b9050919050565b60006020820190508181036000830152613e318161397d565b9050919050565b60006020820190508181036000830152613e51816139a0565b9050919050565b60006020820190508181036000830152613e71816139c3565b9050919050565b60006020820190508181036000830152613e91816139e6565b9050919050565b60006020820190508181036000830152613eb181613a09565b9050919050565b60006020820190508181036000830152613ed181613a2c565b9050919050565b6000602082019050613eed6000830184613b3b565b92915050565b600060a082019050613f086000830185613b3b565b613f156020830184613ae6565b9392505050565b6000604082019050613f316000830185613b3b565b613f3e6020830184613c17565b9392505050565b6000602082019050613f5a6000830184613c08565b92915050565b6000606082019050613f756000830186613c08565b613f826020830185613622565b613f8f6040830184613c08565b949350505050565b600060c082019050613fac6000830189613c08565b613fb96020830188613c08565b613fc6604083018761389a565b613fd36060830186613622565b613fe06080830185613c08565b613fed60a083018461389a565b979650505050505050565b6000614002614013565b905061400e82826143d3565b919050565b6000604051905090565b600067ffffffffffffffff821115614038576140376144da565b5b602082029050602081019050919050565b600067ffffffffffffffff821115614064576140636144da565b5b602082029050602081019050919050565b600067ffffffffffffffff8211156140905761408f6144da565b5b61409982614509565b9050602081019050919050565b6000819050602082019050919050565b6000819050602082019050919050565b6000819050602082019050919050565b6000819050602082019050919050565b6000819050602082019050919050565b600081519050919050565b600081519050919050565b600081519050919050565b600081519050919050565b600081519050919050565b600081519050919050565b6000602082019050919050565b6000602082019050919050565b6000602082019050919050565b6000602082019050919050565b6000602082019050919050565b600082825260208201905092915050565b600082825260208201905092915050565b600082825260208201905092915050565b600082825260208201905092915050565b600082825260208201905092915050565b600082825260208201905092915050565b600082825260208201905092915050565b60006141fb82614355565b915061420683614355565b9250827fffffffffffffffffffffffffffffffffffffffffffffffffffffffffffffffff0382111561423b5761423a61444d565b5b828201905092915050565b600061425182614355565b915061425c83614355565b92508261426c5761426b61447c565b5b828204905092915050565b600061428282614355565b915061428d83614355565b9250817fffffffffffffffffffffffffffffffffffffffffffffffffffffffffffffffff04831182151516156142c6576142c561444d565b5b828202905092915050565b60006142dc82614355565b91506142e783614355565b9250828210156142fa576142f961444d565b5b828203905092915050565b600061431082614335565b9050919050565b600061432282614335565b9050919050565b60008115159050919050565b600073ffffffffffffffffffffffffffffffffffffffff82169050919050565b6000819050919050565b82818337600083830152505050565b60005b8381101561438c578082015181840152602081019050614371565b8381111561439b576000848401525b50505050565b600060028204905060018216806143b957607f821691505b602082108114156143cd576143cc6144ab565b5b50919050565b6143dc82614509565b810181811067ffffffffffffffff821117156143fb576143fa6144da565b5b80604052505050565b600061440f82614355565b91507fffffffffffffffffffffffffffffffffffffffffffffffffffffffffffffffff8214156144425761444161444d565b5b600182019050919050565b7f4e487b7100000000000000000000000000000000000000000000000000000000600052601160045260246000fd5b7f4e487b7100000000000000000000000000000000000000000000000000000000600052601260045260246000fd5b7f4e487b7100000000000000000000000000000000000000000000000000000000600052602260045260246000fd5b7f4e487b7100000000000000000000000000000000000000000000000000000000600052604160045260246000fd5b6000601f19601f8301169050919050565b7f533a30312054616773206d757374206265206c657373207468616e203238302060008201527f6368617261637465727300000000000000000000000000000000000000000000602082015250565b7f533a303300000000000000000000000000000000000000000000000000000000600082015250565b7f5041310000000000000000000000000000000000000000000000000000000000600082015250565b7f4d54310000000000000000000000000000000000000000000000000000000000600082015250565b7f5041300000000000000000000000000000000000000000000000000000000000600082015250565b7f4752300000000000000000000000000000000000000000000000000000000000600082015250565b7f5041320000000000000000000000000000000000000000000000000000000000600082015250565b7f533a303100000000000000000000000000000000000000000000000000000000600082015250565b7f4d54300000000000000000000000000000000000000000000000000000000000600082015250565b7f533a303000000000000000000000000000000000000000000000000000000000600082015250565b6146e381614305565b81146146ee57600080fd5b50565b6146fa81614329565b811461470557600080fd5b50565b61471181614355565b811461471c57600080fd5b5056fea26469706673582212207b092845bf53b9f3a374ae5feb6ecc08cf2f85365b4101ea95f1d684bfc13adf64736f6c63430008040033",
  "linkReferences": {
    "contracts/library/Catalog.sol": {
      "Catalog": [
        {
          "length": 20,
          "start": 4209
        },
        {
          "length": 20,
          "start": 5840
        },
        {
          "length": 20,
          "start": 10761
        }
      ]
    }
  },
  "deployedLinkReferences": {
    "contracts/library/Catalog.sol": {
      "Catalog": [
        {
          "length": 20,
          "start": 4144
        },
        {
          "length": 20,
          "start": 5775
        },
        {
          "length": 20,
          "start": 10696
        }
      ]
    }
  }
}