{
  "_format": "hh-sol-artifact-1",
  "contractName": "Shop",
  "sourceName": "contracts/Shop.sol",
  "abi": [
    {
      "inputs": [
        {
          "internalType": "address",
          "name": "_owner",
          "type": "address"
        },
        {
          "internalType": "string",
          "name": "_name",
          "type": "string"
        },
        {
          "internalType": "string",
          "name": "_description",
          "type": "string"
        },
        {
          "internalType": "string",
          "name": "_location",
          "type": "string"
        },
        {
          "internalType": "string",
          "name": "_phone",
          "type": "string"
        },
        {
          "internalType": "string",
          "name": "_image",
          "type": "string"
        }
      ],
      "stateMutability": "nonpayable",
      "type": "constructor"
    },
    {
      "anonymous": false,
      "inputs": [
        {
          "indexed": false,
          "internalType": "uint256",
          "name": "itemId",
          "type": "uint256"
        },
        {
          "indexed": false,
          "internalType": "string",
          "name": "name",
          "type": "string"
        },
        {
          "indexed": false,
          "internalType": "string",
          "name": "description",
          "type": "string"
        },
        {
          "indexed": false,
          "internalType": "string",
          "name": "image",
          "type": "string"
        },
        {
          "indexed": false,
          "internalType": "uint256",
          "name": "price",
          "type": "uint256"
        }
      ],
      "name": "ItemCreated",
      "type": "event"
    },
    {
      "inputs": [
        {
          "internalType": "address",
          "name": "affAddr",
          "type": "address"
        }
      ],
      "name": "approveAffiliate",
      "outputs": [],
      "stateMutability": "nonpayable",
      "type": "function"
    },
    {
      "inputs": [
        {
          "internalType": "uint256",
          "name": "",
          "type": "uint256"
        }
      ],
      "name": "approvedAffArr",
      "outputs": [
        {
          "internalType": "uint256",
          "name": "percentage",
          "type": "uint256"
        },
        {
          "internalType": "address",
          "name": "affAddr",
          "type": "address"
        },
        {
          "internalType": "uint256",
          "name": "id",
          "type": "uint256"
        }
      ],
      "stateMutability": "view",
      "type": "function"
    },
    {
      "inputs": [
        {
          "internalType": "address",
          "name": "affAddr",
          "type": "address"
        }
      ],
      "name": "cancelAffiliate",
      "outputs": [],
      "stateMutability": "nonpayable",
      "type": "function"
    },
    {
      "inputs": [
        {
          "internalType": "uint256",
          "name": "",
          "type": "uint256"
        }
      ],
      "name": "catalog",
      "outputs": [
        {
          "internalType": "uint256",
          "name": "itemId",
          "type": "uint256"
        },
        {
          "internalType": "string",
          "name": "name",
          "type": "string"
        },
        {
          "internalType": "string",
          "name": "description",
          "type": "string"
        },
        {
          "internalType": "string",
          "name": "image",
          "type": "string"
        },
        {
          "internalType": "uint256",
          "name": "price",
          "type": "uint256"
        },
        {
          "internalType": "bool",
          "name": "inStock",
          "type": "bool"
        },
        {
          "internalType": "bool",
          "name": "isDeleted",
          "type": "bool"
        }
      ],
      "stateMutability": "view",
      "type": "function"
    },
    {
      "inputs": [
        {
          "internalType": "string",
          "name": "_name",
          "type": "string"
        },
        {
          "internalType": "string",
          "name": "_description",
          "type": "string"
        },
        {
          "internalType": "string",
          "name": "_image",
          "type": "string"
        },
        {
          "internalType": "uint256",
          "name": "_price",
          "type": "uint256"
        }
      ],
      "name": "createItem",
      "outputs": [],
      "stateMutability": "payable",
      "type": "function"
    },
    {
      "inputs": [
        {
          "internalType": "uint256",
          "name": "itemId",
          "type": "uint256"
        }
      ],
      "name": "deleteItem",
      "outputs": [],
      "stateMutability": "nonpayable",
      "type": "function"
    },
    {
      "inputs": [],
      "name": "description",
      "outputs": [
        {
          "internalType": "string",
          "name": "",
          "type": "string"
        }
      ],
      "stateMutability": "view",
      "type": "function"
    },
    {
      "inputs": [],
      "name": "fetchCatalogItems",
      "outputs": [
        {
          "components": [
            {
              "internalType": "uint256",
              "name": "itemId",
              "type": "uint256"
            },
            {
              "internalType": "string",
              "name": "name",
              "type": "string"
            },
            {
              "internalType": "string",
              "name": "description",
              "type": "string"
            },
            {
              "internalType": "string",
              "name": "image",
              "type": "string"
            },
            {
              "internalType": "uint256",
              "name": "price",
              "type": "uint256"
            },
            {
              "internalType": "bool",
              "name": "inStock",
              "type": "bool"
            },
            {
              "internalType": "bool",
              "name": "isDeleted",
              "type": "bool"
            }
          ],
          "internalType": "struct Shop.Item[]",
          "name": "",
          "type": "tuple[]"
        }
      ],
      "stateMutability": "view",
      "type": "function"
    },
    {
      "inputs": [],
      "name": "fetchTransactions",
      "outputs": [
        {
          "components": [
            {
              "internalType": "uint256",
              "name": "transId",
              "type": "uint256"
            },
            {
              "internalType": "uint256[]",
              "name": "itemIds",
              "type": "uint256[]"
            },
            {
              "internalType": "uint256[]",
              "name": "itemQty",
              "type": "uint256[]"
            },
            {
              "internalType": "uint256",
              "name": "total",
              "type": "uint256"
            },
            {
              "internalType": "bool",
              "name": "isValid",
              "type": "bool"
            },
            {
              "internalType": "address",
              "name": "client",
              "type": "address"
            },
            {
              "internalType": "uint256",
              "name": "review",
              "type": "uint256"
            },
            {
              "internalType": "bool",
              "name": "isReviewed",
              "type": "bool"
            },
            {
              "internalType": "address",
              "name": "affilate",
              "type": "address"
            },
            {
              "internalType": "uint256",
              "name": "affPercentage",
              "type": "uint256"
            }
          ],
          "internalType": "struct Shop.Trans[]",
          "name": "",
          "type": "tuple[]"
        }
      ],
      "stateMutability": "view",
      "type": "function"
    },
    {
      "inputs": [],
      "name": "freeTransactions",
      "outputs": [
        {
          "internalType": "uint256",
          "name": "",
          "type": "uint256"
        }
      ],
      "stateMutability": "view",
      "type": "function"
    },
    {
      "inputs": [],
      "name": "getApprovedAffiliates",
      "outputs": [
        {
          "components": [
            {
              "internalType": "uint256",
              "name": "percentage",
              "type": "uint256"
            },
            {
              "internalType": "address",
              "name": "affAddr",
              "type": "address"
            },
            {
              "internalType": "uint256",
              "name": "id",
              "type": "uint256"
            }
          ],
          "internalType": "struct Shop.Affiliate[]",
          "name": "",
          "type": "tuple[]"
        }
      ],
      "stateMutability": "view",
      "type": "function"
    },
    {
      "inputs": [],
      "name": "getProposedAffiliates",
      "outputs": [
        {
          "components": [
            {
              "internalType": "uint256",
              "name": "percentage",
              "type": "uint256"
            },
            {
              "internalType": "address",
              "name": "affAddr",
              "type": "address"
            },
            {
              "internalType": "uint256",
              "name": "id",
              "type": "uint256"
            }
          ],
          "internalType": "struct Shop.Affiliate[]",
          "name": "",
          "type": "tuple[]"
        }
      ],
      "stateMutability": "view",
      "type": "function"
    },
    {
      "inputs": [
        {
          "internalType": "uint256",
          "name": "stars",
          "type": "uint256"
        },
        {
          "internalType": "uint256",
          "name": "transId",
          "type": "uint256"
        }
      ],
      "name": "giveReview",
      "outputs": [],
      "stateMutability": "nonpayable",
      "type": "function"
    },
    {
      "inputs": [],
      "name": "governor",
      "outputs": [
        {
          "internalType": "address payable",
          "name": "",
          "type": "address"
        }
      ],
      "stateMutability": "view",
      "type": "function"
    },
    {
      "inputs": [],
      "name": "image",
      "outputs": [
        {
          "internalType": "string",
          "name": "",
          "type": "string"
        }
      ],
      "stateMutability": "view",
      "type": "function"
    },
    {
      "inputs": [],
      "name": "location",
      "outputs": [
        {
          "internalType": "string",
          "name": "",
          "type": "string"
        }
      ],
      "stateMutability": "view",
      "type": "function"
    },
    {
      "inputs": [
        {
          "internalType": "uint256[]",
          "name": "itemIds",
          "type": "uint256[]"
        },
        {
          "internalType": "uint256[]",
          "name": "itemQty",
          "type": "uint256[]"
        },
        {
          "internalType": "address",
          "name": "affAddr",
          "type": "address"
        }
      ],
      "name": "makeTransaction",
      "outputs": [
        {
          "internalType": "uint256",
          "name": "transactionId",
          "type": "uint256"
        }
      ],
      "stateMutability": "payable",
      "type": "function"
    },
    {
      "inputs": [],
      "name": "name",
      "outputs": [
        {
          "internalType": "string",
          "name": "",
          "type": "string"
        }
      ],
      "stateMutability": "view",
      "type": "function"
    },
    {
      "inputs": [],
      "name": "owner",
      "outputs": [
        {
          "internalType": "address payable",
          "name": "",
          "type": "address"
        }
      ],
      "stateMutability": "view",
      "type": "function"
    },
    {
      "inputs": [],
      "name": "phone",
      "outputs": [
        {
          "internalType": "string",
          "name": "",
          "type": "string"
        }
      ],
      "stateMutability": "view",
      "type": "function"
    },
    {
      "inputs": [
        {
          "internalType": "uint256",
          "name": "percentage",
          "type": "uint256"
        }
      ],
      "name": "proposeAffiliate",
      "outputs": [],
      "stateMutability": "nonpayable",
      "type": "function"
    },
    {
      "inputs": [
        {
          "internalType": "uint256",
          "name": "",
          "type": "uint256"
        }
      ],
      "name": "proposedAffArr",
      "outputs": [
        {
          "internalType": "uint256",
          "name": "percentage",
          "type": "uint256"
        },
        {
          "internalType": "address",
          "name": "affAddr",
          "type": "address"
        },
        {
          "internalType": "uint256",
          "name": "id",
          "type": "uint256"
        }
      ],
      "stateMutability": "view",
      "type": "function"
    },
    {
      "inputs": [],
      "name": "selfDestruct",
      "outputs": [],
      "stateMutability": "nonpayable",
      "type": "function"
    },
    {
      "inputs": [
        {
          "internalType": "uint256",
          "name": "_freeTransactions",
          "type": "uint256"
        }
      ],
      "name": "setFreeTransactions",
      "outputs": [],
      "stateMutability": "nonpayable",
      "type": "function"
    },
    {
      "inputs": [
        {
          "internalType": "uint256",
          "name": "itemId",
          "type": "uint256"
        },
        {
          "internalType": "bool",
          "name": "_inStock",
          "type": "bool"
        }
      ],
      "name": "setInStock",
      "outputs": [],
      "stateMutability": "nonpayable",
      "type": "function"
    },
    {
      "inputs": [
        {
          "internalType": "uint256",
          "name": "",
          "type": "uint256"
        }
      ],
      "name": "transactions",
      "outputs": [
        {
          "internalType": "uint256",
          "name": "transId",
          "type": "uint256"
        },
        {
          "internalType": "uint256",
          "name": "total",
          "type": "uint256"
        },
        {
          "internalType": "bool",
          "name": "isValid",
          "type": "bool"
        },
        {
          "internalType": "address",
          "name": "client",
          "type": "address"
        },
        {
          "internalType": "uint256",
          "name": "review",
          "type": "uint256"
        },
        {
          "internalType": "bool",
          "name": "isReviewed",
          "type": "bool"
        },
        {
          "internalType": "address",
          "name": "affilate",
          "type": "address"
        },
        {
          "internalType": "uint256",
          "name": "affPercentage",
          "type": "uint256"
        }
      ],
      "stateMutability": "view",
      "type": "function"
    },
    {
      "inputs": [],
      "name": "transactionsCount",
      "outputs": [
        {
          "internalType": "uint256",
          "name": "_value",
          "type": "uint256"
        }
      ],
      "stateMutability": "view",
      "type": "function"
    }
  ],
  "bytecode": "0x60806040526103e86008553480156200001757600080fd5b50604051620049263803806200492683398181016040528101906200003d919062000281565b85600660006101000a81548173ffffffffffffffffffffffffffffffffffffffff021916908373ffffffffffffffffffffffffffffffffffffffff16021790555084600090805190602001906200009692919062000148565b508360019080519060200190620000af92919062000148565b508260029080519060200190620000c892919062000148565b508160039080519060200190620000e192919062000148565b508060049080519060200190620000fa92919062000148565b5033600760006101000a81548173ffffffffffffffffffffffffffffffffffffffff021916908373ffffffffffffffffffffffffffffffffffffffff16021790555050505050505062000552565b82805462000156906200045d565b90600052602060002090601f0160209004810192826200017a5760008555620001c6565b82601f106200019557805160ff1916838001178555620001c6565b82800160010185558215620001c6579182015b82811115620001c5578251825591602001919060010190620001a8565b5b509050620001d59190620001d9565b5090565b5b80821115620001f4576000816000905550600101620001da565b5090565b60006200020f6200020984620003bd565b62000394565b9050828152602081018484840111156200022857600080fd5b6200023584828562000427565b509392505050565b6000815190506200024e8162000538565b92915050565b600082601f8301126200026657600080fd5b815162000278848260208601620001f8565b91505092915050565b60008060008060008060c087890312156200029b57600080fd5b6000620002ab89828a016200023d565b965050602087015167ffffffffffffffff811115620002c957600080fd5b620002d789828a0162000254565b955050604087015167ffffffffffffffff811115620002f557600080fd5b6200030389828a0162000254565b945050606087015167ffffffffffffffff8111156200032157600080fd5b6200032f89828a0162000254565b935050608087015167ffffffffffffffff8111156200034d57600080fd5b6200035b89828a0162000254565b92505060a087015167ffffffffffffffff8111156200037957600080fd5b6200038789828a0162000254565b9150509295509295509295565b6000620003a0620003b3565b9050620003ae828262000493565b919050565b6000604051905090565b600067ffffffffffffffff821115620003db57620003da620004f8565b5b620003e68262000527565b9050602081019050919050565b6000620004008262000407565b9050919050565b600073ffffffffffffffffffffffffffffffffffffffff82169050919050565b60005b83811015620004475780820151818401526020810190506200042a565b8381111562000457576000848401525b50505050565b600060028204905060018216806200047657607f821691505b602082108114156200048d576200048c620004c9565b5b50919050565b6200049e8262000527565b810181811067ffffffffffffffff82111715620004c057620004bf620004f8565b5b80604052505050565b7f4e487b7100000000000000000000000000000000000000000000000000000000600052602260045260246000fd5b7f4e487b7100000000000000000000000000000000000000000000000000000000600052604160045260246000fd5b6000601f19601f8301169050919050565b6200054381620003f3565b81146200054f57600080fd5b50565b6143c480620005626000396000f3fe60806040526004361061019c5760003560e01c80637ac1bc00116100ec5780639cb8a26a1161008a578063f0547bc811610064578063f0547bc8146105ad578063f3ccaac0146105d6578063f5b89aac14610601578063fd99a7461461062c5761019c565b80639cb8a26a14610528578063c79c6dba1461053f578063ea5de25b1461056a5761019c565b80638cf27994116100c65780638cf279941461045e5780638da5cb5b1461048e5780639284f497146104b95780639ace38c2146104e45761019c565b80637ac1bc00146103da5780638013f0b6146103f65780638b4989af146104355761019c565b806330ac4234116101595780635f6ad596116101335780635f6ad59614610334578063654fc8331461035d5780637284e4161461038657806376aadd73146103b15761019c565b806330ac4234146102a1578063516f279e146102e05780635606d2ec1461030b5761019c565b806306fdde03146101a1578063090567d2146101cc5780630c340a24146101f55780630cc9dc7d146102205780632477eaae1461024b578063309c4e1d14610276575b600080fd5b3480156101ad57600080fd5b506101b6610657565b6040516101c391906139f7565b60405180910390f35b3480156101d857600080fd5b506101f360048036038101906101ee91906132f4565b6106e5565b005b34801561020157600080fd5b5061020a61077f565b6040516102179190613976565b60405180910390f35b34801561022c57600080fd5b506102356107a5565b6040516102429190613b39565b60405180910390f35b34801561025757600080fd5b506102606107ab565b60405161026d91906139d5565b60405180910390f35b34801561028257600080fd5b5061028b6109c5565b6040516102989190613991565b60405180910390f35b3480156102ad57600080fd5b506102c860048036038101906102c391906132f4565b610a8e565b6040516102d793929190613b54565b60405180910390f35b3480156102ec57600080fd5b506102f5610ae8565b60405161030291906139f7565b60405180910390f35b34801561031757600080fd5b50610332600480360381019061032d919061331d565b610b76565b005b34801561034057600080fd5b5061035b600480360381019061035691906132f4565b610c6d565b005b34801561036957600080fd5b50610384600480360381019061037f91906132f4565b610ef1565b005b34801561039257600080fd5b5061039b611064565b6040516103a891906139f7565b60405180910390f35b3480156103bd57600080fd5b506103d860048036038101906103d391906131a1565b6110f2565b005b6103f460048036038101906103ef9190613249565b611480565b005b34801561040257600080fd5b5061041d600480360381019061041891906132f4565b6116d1565b60405161042c93929190613b54565b60405180910390f35b34801561044157600080fd5b5061045c60048036038101906104579190613359565b61172b565b005b610478600480360381019061047391906131ca565b6118bc565b6040516104859190613b39565b60405180910390f35b34801561049a57600080fd5b506104a36121f9565b6040516104b09190613976565b60405180910390f35b3480156104c557600080fd5b506104ce61221f565b6040516104db91906139f7565b60405180910390f35b3480156104f057600080fd5b5061050b600480360381019061050691906132f4565b6122ad565b60405161051f989796959493929190613c77565b60405180910390f35b34801561053457600080fd5b5061053d61235f565b005b34801561054b57600080fd5b5061055461242a565b6040516105619190613991565b60405180910390f35b34801561057657600080fd5b50610591600480360381019061058c91906132f4565b6124f3565b6040516105a49796959493929190613bf3565b60405180910390f35b3480156105b957600080fd5b506105d460048036038101906105cf91906131a1565b6126f7565b005b3480156105e257600080fd5b506105eb612bde565b6040516105f891906139f7565b60405180910390f35b34801561060d57600080fd5b50610616612c6c565b60405161062391906139b3565b60405180910390f35b34801561063857600080fd5b50610641612ecb565b60405161064e9190613b39565b60405180910390f35b6000805461066490614039565b80601f016020809104026020016040519081016040528092919081815260200182805461069090614039565b80156106dd5780601f106106b2576101008083540402835291602001916106dd565b820191906000526020600020905b8154815290600101906020018083116106c057829003601f168201915b505050505081565b600760009054906101000a900473ffffffffffffffffffffffffffffffffffffffff1673ffffffffffffffffffffffffffffffffffffffff163373ffffffffffffffffffffffffffffffffffffffff1614610775576040517f08c379a000000000000000000000000000000000000000000000000000000000815260040161076c90613ad9565b60405180910390fd5b8060088190555050565b600760009054906101000a900473ffffffffffffffffffffffffffffffffffffffff1681565b60085481565b6060600c805480602002602001604051908101604052809291908181526020016000905b828210156109bc578382906000526020600020906008020160405180610140016040529081600082015481526020016001820180548060200260200160405190810160405280929190818152602001828054801561084c57602002820191906000526020600020905b815481526020019060010190808311610838575b50505050508152602001600282018054806020026020016040519081016040528092919081815260200182805480156108a457602002820191906000526020600020905b815481526020019060010190808311610890575b50505050508152602001600382015481526020016004820160009054906101000a900460ff161515151581526020016004820160019054906101000a900473ffffffffffffffffffffffffffffffffffffffff1673ffffffffffffffffffffffffffffffffffffffff1673ffffffffffffffffffffffffffffffffffffffff168152602001600582015481526020016006820160009054906101000a900460ff161515151581526020016006820160019054906101000a900473ffffffffffffffffffffffffffffffffffffffff1673ffffffffffffffffffffffffffffffffffffffff1673ffffffffffffffffffffffffffffffffffffffff168152602001600782015481525050815260200190600101906107cf565b50505050905090565b6060600f805480602002602001604051908101604052809291908181526020016000905b82821015610a855783829060005260206000209060030201604051806060016040529081600082015481526020016001820160009054906101000a900473ffffffffffffffffffffffffffffffffffffffff1673ffffffffffffffffffffffffffffffffffffffff1673ffffffffffffffffffffffffffffffffffffffff168152602001600282015481525050815260200190600101906109e9565b50505050905090565b600f8181548110610a9e57600080fd5b90600052602060002090600302016000915090508060000154908060010160009054906101000a900473ffffffffffffffffffffffffffffffffffffffff16908060020154905083565b60028054610af590614039565b80601f0160208091040260200160405190810160405280929190818152602001828054610b2190614039565b8015610b6e5780601f10610b4357610100808354040283529160200191610b6e565b820191906000526020600020905b815481529060010190602001808311610b5157829003601f168201915b505050505081565b600660009054906101000a900473ffffffffffffffffffffffffffffffffffffffff1673ffffffffffffffffffffffffffffffffffffffff163373ffffffffffffffffffffffffffffffffffffffff1614610c06576040517f08c379a0000000000000000000000000000000000000000000000000000000008152600401610bfd90613ab9565b60405180910390fd5b8060058381548110610c41577f4e487b7100000000000000000000000000000000000000000000000000000000600052603260045260246000fd5b906000526020600020906006020160050160006101000a81548160ff0219169083151502179055505050565b6000601160003373ffffffffffffffffffffffffffffffffffffffff1673ffffffffffffffffffffffffffffffffffffffff1681526020019081526020016000206000015414610cf2576040517f08c379a0000000000000000000000000000000000000000000000000000000008152600401610ce990613b19565b60405180910390fd5b60008111610d35576040517f08c379a0000000000000000000000000000000000000000000000000000000008152600401610d2c90613a79565b60405180910390fd5b60648110610d78576040517f08c379a0000000000000000000000000000000000000000000000000000000008152600401610d6f90613a99565b60405180910390fd5b6000610d84600d612ed7565b9050600060405180606001604052808481526020013373ffffffffffffffffffffffffffffffffffffffff16815260200183815250905080601060003373ffffffffffffffffffffffffffffffffffffffff1673ffffffffffffffffffffffffffffffffffffffff1681526020019081526020016000206000820151816000015560208201518160010160006101000a81548173ffffffffffffffffffffffffffffffffffffffff021916908373ffffffffffffffffffffffffffffffffffffffff16021790555060408201518160020155905050600e8190806001815401808255809150506001900390600052602060002090600302016000909190919091506000820151816000015560208201518160010160006101000a81548173ffffffffffffffffffffffffffffffffffffffff021916908373ffffffffffffffffffffffffffffffffffffffff160217905550604082015181600201555050610eec600d612ee5565b505050565b600660009054906101000a900473ffffffffffffffffffffffffffffffffffffffff1673ffffffffffffffffffffffffffffffffffffffff163373ffffffffffffffffffffffffffffffffffffffff1614610f81576040517f08c379a0000000000000000000000000000000000000000000000000000000008152600401610f7890613ab9565b60405180910390fd5b60005b600580549050811015611060578160058281548110610fcc577f4e487b7100000000000000000000000000000000000000000000000000000000600052603260045260246000fd5b906000526020600020906006020160000154141561104d57600160058281548110611020577f4e487b7100000000000000000000000000000000000000000000000000000000600052603260045260246000fd5b906000526020600020906006020160050160016101000a81548160ff021916908315150217905550611060565b80806110589061409c565b915050610f84565b5050565b6001805461107190614039565b80601f016020809104026020016040519081016040528092919081815260200182805461109d90614039565b80156110ea5780601f106110bf576101008083540402835291602001916110ea565b820191906000526020600020905b8154815290600101906020018083116110cd57829003601f168201915b505050505081565b600660009054906101000a900473ffffffffffffffffffffffffffffffffffffffff1673ffffffffffffffffffffffffffffffffffffffff163373ffffffffffffffffffffffffffffffffffffffff1614611182576040517f08c379a000000000000000000000000000000000000000000000000000000000815260040161117990613ab9565b60405180910390fd5b60005b600f80549050811015611403578173ffffffffffffffffffffffffffffffffffffffff16600f82815481106111e3577f4e487b7100000000000000000000000000000000000000000000000000000000600052603260045260246000fd5b906000526020600020906003020160010160009054906101000a900473ffffffffffffffffffffffffffffffffffffffff1673ffffffffffffffffffffffffffffffffffffffff1614156113f057600f818154811061126b577f4e487b7100000000000000000000000000000000000000000000000000000000600052603260045260246000fd5b90600052602060002090600302016000808201600090556001820160006101000a81549073ffffffffffffffffffffffffffffffffffffffff0219169055600282016000905550506001600f805490506112c59190613f69565b81146113eb57600f6001600f805490506112df9190613f69565b81548110611316577f4e487b7100000000000000000000000000000000000000000000000000000000600052603260045260246000fd5b9060005260206000209060030201600f828154811061135e577f4e487b7100000000000000000000000000000000000000000000000000000000600052603260045260246000fd5b9060005260206000209060030201600082015481600001556001820160009054906101000a900473ffffffffffffffffffffffffffffffffffffffff168160010160006101000a81548173ffffffffffffffffffffffffffffffffffffffff021916908373ffffffffffffffffffffffffffffffffffffffff160217905550600282015481600201559050505b611403565b80806113fb9061409c565b915050611185565b50601160008273ffffffffffffffffffffffffffffffffffffffff1673ffffffffffffffffffffffffffffffffffffffff1681526020019081526020016000206000808201600090556001820160006101000a81549073ffffffffffffffffffffffffffffffffffffffff02191690556002820160009055505050565b600660009054906101000a900473ffffffffffffffffffffffffffffffffffffffff1673ffffffffffffffffffffffffffffffffffffffff163373ffffffffffffffffffffffffffffffffffffffff1614611510576040517f08c379a000000000000000000000000000000000000000000000000000000000815260040161150790613ab9565b60405180910390fd5b606461151c6009612ed7565b1061155c576040517f08c379a000000000000000000000000000000000000000000000000000000000815260040161155390613a59565b60405180910390fd5b60006115686009612ed7565b905060006040518060e001604052808381526020018781526020018681526020018581526020018481526020016001151581526020016000151581525090506115b16009612ee5565b6005819080600181540180825580915050600190039060005260206000209060060201600090919091909150600082015181600001556020820151816001019080519060200190611603929190612f3d565b506040820151816002019080519060200190611620929190612f3d565b50606082015181600301908051906020019061163d929190612f3d565b506080820151816004015560a08201518160050160006101000a81548160ff02191690831515021790555060c08201518160050160016101000a81548160ff02191690831515021790555050507f96879d8966d9359f51d0296e82bd5d835bae805b2011fc95f5e23f1d8b797b4282878787876040516116c1959493929190613b8b565b60405180910390a1505050505050565b600e81815481106116e157600080fd5b90600052602060002090600302016000915090508060000154908060010160009054906101000a900473ffffffffffffffffffffffffffffffffffffffff16908060020154905083565b3373ffffffffffffffffffffffffffffffffffffffff16600c828154811061177c577f4e487b7100000000000000000000000000000000000000000000000000000000600052603260045260246000fd5b906000526020600020906008020160040160019054906101000a900473ffffffffffffffffffffffffffffffffffffffff1673ffffffffffffffffffffffffffffffffffffffff1614611804576040517f08c379a00000000000000000000000000000000000000000000000000000000081526004016117fb90613a39565b60405180910390fd5b81600c828154811061183f577f4e487b7100000000000000000000000000000000000000000000000000000000600052603260045260246000fd5b9060005260206000209060080201600501819055506001600c8281548110611890577f4e487b7100000000000000000000000000000000000000000000000000000000600052603260045260246000fd5b906000526020600020906008020160060160006101000a81548160ff0219169083151502179055505050565b60006118c6612fc3565b600073ffffffffffffffffffffffffffffffffffffffff168373ffffffffffffffffffffffffffffffffffffffff1614611a2557601160008473ffffffffffffffffffffffffffffffffffffffff1673ffffffffffffffffffffffffffffffffffffffff168152602001908152602001600020604051806060016040529081600082015481526020016001820160009054906101000a900473ffffffffffffffffffffffffffffffffffffffff1673ffffffffffffffffffffffffffffffffffffffff1673ffffffffffffffffffffffffffffffffffffffff1681526020016002820154815250509050600073ffffffffffffffffffffffffffffffffffffffff16816020015173ffffffffffffffffffffffffffffffffffffffff161415611a24576040517f08c379a0000000000000000000000000000000000000000000000000000000008152600401611a1b90613af9565b60405180910390fd5b5b6000805b8651811015611b2957858181518110611a6b577f4e487b7100000000000000000000000000000000000000000000000000000000600052603260045260246000fd5b60200260200101516005888381518110611aae577f4e487b7100000000000000000000000000000000000000000000000000000000600052603260045260246000fd5b602002602001015181548110611aed577f4e487b7100000000000000000000000000000000000000000000000000000000600052603260045260246000fd5b906000526020600020906006020160040154611b099190613f0f565b82611b149190613e88565b91508080611b219061409c565b915050611a29565b5080341015611b6d576040517f08c379a0000000000000000000000000000000000000000000000000000000008152600401611b6490613a19565b60405180910390fd5b611b77600b612ee5565b600854611b84600b612ed7565b1115611e5b57600073ffffffffffffffffffffffffffffffffffffffff168473ffffffffffffffffffffffffffffffffffffffff1614611d52576000611bd4606483612efb90919063ffffffff16565b90506000611c028460000151611bf4606486612efb90919063ffffffff16565b612f1190919063ffffffff16565b90506000611c2b82611c1d8587612f2790919063ffffffff16565b612f2790919063ffffffff16565b9050600760009054906101000a900473ffffffffffffffffffffffffffffffffffffffff1673ffffffffffffffffffffffffffffffffffffffff166108fc849081150290604051600060405180830381858888f19350505050158015611c95573d6000803e3d6000fd5b50600660009054906101000a900473ffffffffffffffffffffffffffffffffffffffff1673ffffffffffffffffffffffffffffffffffffffff166108fc829081150290604051600060405180830381858888f19350505050158015611cfe573d6000803e3d6000fd5b50846020015173ffffffffffffffffffffffffffffffffffffffff166108fc839081150290604051600060405180830381858888f19350505050158015611d49573d6000803e3d6000fd5b50505050611e56565b6000611d68606483612efb90919063ffffffff16565b90506000611d7f8284612f2790919063ffffffff16565b9050600760009054906101000a900473ffffffffffffffffffffffffffffffffffffffff1673ffffffffffffffffffffffffffffffffffffffff166108fc839081150290604051600060405180830381858888f19350505050158015611de9573d6000803e3d6000fd5b50600660009054906101000a900473ffffffffffffffffffffffffffffffffffffffff1673ffffffffffffffffffffffffffffffffffffffff166108fc829081150290604051600060405180830381858888f19350505050158015611e52573d6000803e3d6000fd5b5050505b611ffa565b600073ffffffffffffffffffffffffffffffffffffffff168473ffffffffffffffffffffffffffffffffffffffff1614611f8f576000611ebb8360000151611ead606485612efb90919063ffffffff16565b612f1190919063ffffffff16565b90506000611ed28284612f2790919063ffffffff16565b9050600660009054906101000a900473ffffffffffffffffffffffffffffffffffffffff1673ffffffffffffffffffffffffffffffffffffffff166108fc829081150290604051600060405180830381858888f19350505050158015611f3c573d6000803e3d6000fd5b50836020015173ffffffffffffffffffffffffffffffffffffffff166108fc839081150290604051600060405180830381858888f19350505050158015611f87573d6000803e3d6000fd5b505050611ff9565b600660009054906101000a900473ffffffffffffffffffffffffffffffffffffffff1673ffffffffffffffffffffffffffffffffffffffff166108fc829081150290604051600060405180830381858888f19350505050158015611ff7573d6000803e3d6000fd5b505b5b6000612006600a612ed7565b9050600c6040518061014001604052808381526020018981526020018881526020018481526020016001151581526020013373ffffffffffffffffffffffffffffffffffffffff16815260200160008152602001600015158152602001600073ffffffffffffffffffffffffffffffffffffffff168152602001600081525090806001815401808255809150506001900390600052602060002090600802016000909190919091506000820151816000015560208201518160010190805190602001906120d4929190612ffa565b5060408201518160020190805190602001906120f1929190612ffa565b506060820151816003015560808201518160040160006101000a81548160ff02191690831515021790555060a08201518160040160016101000a81548173ffffffffffffffffffffffffffffffffffffffff021916908373ffffffffffffffffffffffffffffffffffffffff16021790555060c0820151816005015560e08201518160060160006101000a81548160ff0219169083151502179055506101008201518160060160016101000a81548173ffffffffffffffffffffffffffffffffffffffff021916908373ffffffffffffffffffffffffffffffffffffffff160217905550610120820151816007015550506121ec600a612ee5565b8093505050509392505050565b600660009054906101000a900473ffffffffffffffffffffffffffffffffffffffff1681565b6003805461222c90614039565b80601f016020809104026020016040519081016040528092919081815260200182805461225890614039565b80156122a55780601f1061227a576101008083540402835291602001916122a5565b820191906000526020600020905b81548152906001019060200180831161228857829003601f168201915b505050505081565b600c81815481106122bd57600080fd5b90600052602060002090600802016000915090508060000154908060030154908060040160009054906101000a900460ff16908060040160019054906101000a900473ffffffffffffffffffffffffffffffffffffffff16908060050154908060060160009054906101000a900460ff16908060060160019054906101000a900473ffffffffffffffffffffffffffffffffffffffff16908060070154905088565b600760009054906101000a900473ffffffffffffffffffffffffffffffffffffffff1673ffffffffffffffffffffffffffffffffffffffff163373ffffffffffffffffffffffffffffffffffffffff16146123ef576040517f08c379a00000000000000000000000000000000000000000000000000000000081526004016123e690613ad9565b60405180910390fd5b600760009054906101000a900473ffffffffffffffffffffffffffffffffffffffff1673ffffffffffffffffffffffffffffffffffffffff16ff5b6060600e805480602002602001604051908101604052809291908181526020016000905b828210156124ea5783829060005260206000209060030201604051806060016040529081600082015481526020016001820160009054906101000a900473ffffffffffffffffffffffffffffffffffffffff1673ffffffffffffffffffffffffffffffffffffffff1673ffffffffffffffffffffffffffffffffffffffff1681526020016002820154815250508152602001906001019061244e565b50505050905090565b6005818154811061250357600080fd5b906000526020600020906006020160009150905080600001549080600101805461252c90614039565b80601f016020809104026020016040519081016040528092919081815260200182805461255890614039565b80156125a55780601f1061257a576101008083540402835291602001916125a5565b820191906000526020600020905b81548152906001019060200180831161258857829003601f168201915b5050505050908060020180546125ba90614039565b80601f01602080910402602001604051908101604052809291908181526020018280546125e690614039565b80156126335780601f1061260857610100808354040283529160200191612633565b820191906000526020600020905b81548152906001019060200180831161261657829003601f168201915b50505050509080600301805461264890614039565b80601f016020809104026020016040519081016040528092919081815260200182805461267490614039565b80156126c15780601f10612696576101008083540402835291602001916126c1565b820191906000526020600020905b8154815290600101906020018083116126a457829003601f168201915b5050505050908060040154908060050160009054906101000a900460ff16908060050160019054906101000a900460ff16905087565b600660009054906101000a900473ffffffffffffffffffffffffffffffffffffffff1673ffffffffffffffffffffffffffffffffffffffff163373ffffffffffffffffffffffffffffffffffffffff1614612787576040517f08c379a000000000000000000000000000000000000000000000000000000000815260040161277e90613ab9565b60405180910390fd5b601060008273ffffffffffffffffffffffffffffffffffffffff1673ffffffffffffffffffffffffffffffffffffffff168152602001908152602001600020601160008373ffffffffffffffffffffffffffffffffffffffff1673ffffffffffffffffffffffffffffffffffffffff168152602001908152602001600020600082015481600001556001820160009054906101000a900473ffffffffffffffffffffffffffffffffffffffff168160010160006101000a81548173ffffffffffffffffffffffffffffffffffffffff021916908373ffffffffffffffffffffffffffffffffffffffff160217905550600282015481600201559050506000601060008373ffffffffffffffffffffffffffffffffffffffff1673ffffffffffffffffffffffffffffffffffffffff168152602001908152602001600020600201549050600f601160008473ffffffffffffffffffffffffffffffffffffffff1673ffffffffffffffffffffffffffffffffffffffff1681526020019081526020016000209080600181540180825580915050600190039060005260206000209060030201600090919091909150600082015481600001556001820160009054906101000a900473ffffffffffffffffffffffffffffffffffffffff168160010160006101000a81548173ffffffffffffffffffffffffffffffffffffffff021916908373ffffffffffffffffffffffffffffffffffffffff160217905550600282015481600201555050600e81815481106129eb577f4e487b7100000000000000000000000000000000000000000000000000000000600052603260045260246000fd5b90600052602060002090600302016000808201600090556001820160006101000a81549073ffffffffffffffffffffffffffffffffffffffff0219169055600282016000905550506000600e805490501115612b6157600e6001600e80549050612a559190613f69565b81548110612a8c577f4e487b7100000000000000000000000000000000000000000000000000000000600052603260045260246000fd5b9060005260206000209060030201600e8281548110612ad4577f4e487b7100000000000000000000000000000000000000000000000000000000600052603260045260246000fd5b9060005260206000209060030201600082015481600001556001820160009054906101000a900473ffffffffffffffffffffffffffffffffffffffff168160010160006101000a81548173ffffffffffffffffffffffffffffffffffffffff021916908373ffffffffffffffffffffffffffffffffffffffff160217905550600282015481600201559050505b601060008373ffffffffffffffffffffffffffffffffffffffff1673ffffffffffffffffffffffffffffffffffffffff1681526020019081526020016000206000808201600090556001820160006101000a81549073ffffffffffffffffffffffffffffffffffffffff0219169055600282016000905550505050565b60048054612beb90614039565b80601f0160208091040260200160405190810160405280929190818152602001828054612c1790614039565b8015612c645780601f10612c3957610100808354040283529160200191612c64565b820191906000526020600020905b815481529060010190602001808311612c4757829003601f168201915b505050505081565b60606005805480602002602001604051908101604052809291908181526020016000905b82821015612ec257838290600052602060002090600602016040518060e001604052908160008201548152602001600182018054612ccd90614039565b80601f0160208091040260200160405190810160405280929190818152602001828054612cf990614039565b8015612d465780601f10612d1b57610100808354040283529160200191612d46565b820191906000526020600020905b815481529060010190602001808311612d2957829003601f168201915b50505050508152602001600282018054612d5f90614039565b80601f0160208091040260200160405190810160405280929190818152602001828054612d8b90614039565b8015612dd85780601f10612dad57610100808354040283529160200191612dd8565b820191906000526020600020905b815481529060010190602001808311612dbb57829003601f168201915b50505050508152602001600382018054612df190614039565b80601f0160208091040260200160405190810160405280929190818152602001828054612e1d90614039565b8015612e6a5780601f10612e3f57610100808354040283529160200191612e6a565b820191906000526020600020905b815481529060010190602001808311612e4d57829003601f168201915b50505050508152602001600482015481526020016005820160009054906101000a900460ff161515151581526020016005820160019054906101000a900460ff16151515158152505081526020019060010190612c90565b50505050905090565b600b8060000154905081565b600081600001549050919050565b6001816000016000828254019250508190555050565b60008183612f099190613ede565b905092915050565b60008183612f1f9190613f0f565b905092915050565b60008183612f359190613f69565b905092915050565b828054612f4990614039565b90600052602060002090601f016020900481019282612f6b5760008555612fb2565b82601f10612f8457805160ff1916838001178555612fb2565b82800160010185558215612fb2579182015b82811115612fb1578251825591602001919060010190612f96565b5b509050612fbf9190613047565b5090565b604051806060016040528060008152602001600073ffffffffffffffffffffffffffffffffffffffff168152602001600081525090565b828054828255906000526020600020908101928215613036579160200282015b8281111561303557825182559160200191906001019061301a565b5b5090506130439190613047565b5090565b5b80821115613060576000816000905550600101613048565b5090565b600061307761307284613d1a565b613cf5565b9050808382526020820190508285602086028201111561309657600080fd5b60005b858110156130c657816130ac888261318c565b845260208401935060208301925050600181019050613099565b5050509392505050565b60006130e36130de84613d46565b613cf5565b9050828152602081018484840111156130fb57600080fd5b613106848285613ff7565b509392505050565b60008135905061311d81614349565b92915050565b600082601f83011261313457600080fd5b8135613144848260208601613064565b91505092915050565b60008135905061315c81614360565b92915050565b600082601f83011261317357600080fd5b81356131838482602086016130d0565b91505092915050565b60008135905061319b81614377565b92915050565b6000602082840312156131b357600080fd5b60006131c18482850161310e565b91505092915050565b6000806000606084860312156131df57600080fd5b600084013567ffffffffffffffff8111156131f957600080fd5b61320586828701613123565b935050602084013567ffffffffffffffff81111561322257600080fd5b61322e86828701613123565b925050604061323f8682870161310e565b9150509250925092565b6000806000806080858703121561325f57600080fd5b600085013567ffffffffffffffff81111561327957600080fd5b61328587828801613162565b945050602085013567ffffffffffffffff8111156132a257600080fd5b6132ae87828801613162565b935050604085013567ffffffffffffffff8111156132cb57600080fd5b6132d787828801613162565b92505060606132e88782880161318c565b91505092959194509250565b60006020828403121561330657600080fd5b60006133148482850161318c565b91505092915050565b6000806040838503121561333057600080fd5b600061333e8582860161318c565b925050602061334f8582860161314d565b9150509250929050565b6000806040838503121561336c57600080fd5b600061337a8582860161318c565b925050602061338b8582860161318c565b9150509250929050565b60006133a1838361378b565b60608301905092915050565b60006133b983836137cd565b905092915050565b60006133cd8383613877565b905092915050565b60006133e18383613958565b60208301905092915050565b6133f681613faf565b82525050565b61340581613f9d565b82525050565b61341481613f9d565b82525050565b600061342582613db7565b61342f8185613e22565b935061343a83613d77565b8060005b8381101561346b5781516134528882613395565b975061345d83613dee565b92505060018101905061343e565b5085935050505092915050565b600061348382613dc2565b61348d8185613e33565b93508360208202850161349f85613d87565b8060005b858110156134db57848403895281516134bc85826133ad565b94506134c783613dfb565b925060208a019950506001810190506134a3565b50829750879550505050505092915050565b60006134f882613dcd565b6135028185613e44565b93508360208202850161351485613d97565b8060005b85811015613550578484038952815161353185826133c1565b945061353c83613e08565b925060208a01995050600181019050613518565b50829750879550505050505092915050565b600061356d82613dd8565b6135778185613e55565b935061358283613da7565b8060005b838110156135b357815161359a88826133d5565b97506135a583613e15565b925050600181019050613586565b5085935050505092915050565b6135c981613fc1565b82525050565b6135d881613fc1565b82525050565b60006135e982613de3565b6135f38185613e66565b9350613603818560208601614006565b61360c816141a1565b840191505092915050565b600061362282613de3565b61362c8185613e77565b935061363c818560208601614006565b613645816141a1565b840191505092915050565b600061365d601683613e77565b9150613668826141b2565b602082019050919050565b6000613680601483613e77565b915061368b826141db565b602082019050919050565b60006136a3601c83613e77565b91506136ae82614204565b602082019050919050565b60006136c6602483613e77565b91506136d18261422d565b604082019050919050565b60006136e9602083613e77565b91506136f48261427c565b602082019050919050565b600061370c601383613e77565b9150613717826142a5565b602082019050919050565b600061372f601683613e77565b915061373a826142ce565b602082019050919050565b6000613752601a83613e77565b915061375d826142f7565b602082019050919050565b6000613775601e83613e77565b915061378082614320565b602082019050919050565b6060820160008201516137a16000850182613958565b5060208201516137b460208501826133fc565b5060408201516137c76040850182613958565b50505050565b600060e0830160008301516137e56000860182613958565b50602083015184820360208601526137fd82826135de565b9150506040830151848203604086015261381782826135de565b9150506060830151848203606086015261383182826135de565b91505060808301516138466080860182613958565b5060a083015161385960a08601826135c0565b5060c083015161386c60c08601826135c0565b508091505092915050565b6000610140830160008301516138906000860182613958565b50602083015184820360208601526138a88282613562565b915050604083015184820360408601526138c28282613562565b91505060608301516138d76060860182613958565b5060808301516138ea60808601826135c0565b5060a08301516138fd60a08601826133fc565b5060c083015161391060c0860182613958565b5060e083015161392360e08601826135c0565b506101008301516139386101008601826133fc565b5061012083015161394d610120860182613958565b508091505092915050565b61396181613fed565b82525050565b61397081613fed565b82525050565b600060208201905061398b60008301846133ed565b92915050565b600060208201905081810360008301526139ab818461341a565b905092915050565b600060208201905081810360008301526139cd8184613478565b905092915050565b600060208201905081810360008301526139ef81846134ed565b905092915050565b60006020820190508181036000830152613a118184613617565b905092915050565b60006020820190508181036000830152613a3281613650565b9050919050565b60006020820190508181036000830152613a5281613673565b9050919050565b60006020820190508181036000830152613a7281613696565b9050919050565b60006020820190508181036000830152613a92816136b9565b9050919050565b60006020820190508181036000830152613ab2816136dc565b9050919050565b60006020820190508181036000830152613ad2816136ff565b9050919050565b60006020820190508181036000830152613af281613722565b9050919050565b60006020820190508181036000830152613b1281613745565b9050919050565b60006020820190508181036000830152613b3281613768565b9050919050565b6000602082019050613b4e6000830184613967565b92915050565b6000606082019050613b696000830186613967565b613b76602083018561340b565b613b836040830184613967565b949350505050565b600060a082019050613ba06000830188613967565b8181036020830152613bb28187613617565b90508181036040830152613bc68186613617565b90508181036060830152613bda8185613617565b9050613be96080830184613967565b9695505050505050565b600060e082019050613c08600083018a613967565b8181036020830152613c1a8189613617565b90508181036040830152613c2e8188613617565b90508181036060830152613c428187613617565b9050613c516080830186613967565b613c5e60a08301856135cf565b613c6b60c08301846135cf565b98975050505050505050565b600061010082019050613c8d600083018b613967565b613c9a602083018a613967565b613ca760408301896135cf565b613cb4606083018861340b565b613cc16080830187613967565b613cce60a08301866135cf565b613cdb60c083018561340b565b613ce860e0830184613967565b9998505050505050505050565b6000613cff613d10565b9050613d0b828261406b565b919050565b6000604051905090565b600067ffffffffffffffff821115613d3557613d34614172565b5b602082029050602081019050919050565b600067ffffffffffffffff821115613d6157613d60614172565b5b613d6a826141a1565b9050602081019050919050565b6000819050602082019050919050565b6000819050602082019050919050565b6000819050602082019050919050565b6000819050602082019050919050565b600081519050919050565b600081519050919050565b600081519050919050565b600081519050919050565b600081519050919050565b6000602082019050919050565b6000602082019050919050565b6000602082019050919050565b6000602082019050919050565b600082825260208201905092915050565b600082825260208201905092915050565b600082825260208201905092915050565b600082825260208201905092915050565b600082825260208201905092915050565b600082825260208201905092915050565b6000613e9382613fed565b9150613e9e83613fed565b9250827fffffffffffffffffffffffffffffffffffffffffffffffffffffffffffffffff03821115613ed357613ed26140e5565b5b828201905092915050565b6000613ee982613fed565b9150613ef483613fed565b925082613f0457613f03614114565b5b828204905092915050565b6000613f1a82613fed565b9150613f2583613fed565b9250817fffffffffffffffffffffffffffffffffffffffffffffffffffffffffffffffff0483118215151615613f5e57613f5d6140e5565b5b828202905092915050565b6000613f7482613fed565b9150613f7f83613fed565b925082821015613f9257613f916140e5565b5b828203905092915050565b6000613fa882613fcd565b9050919050565b6000613fba82613fcd565b9050919050565b60008115159050919050565b600073ffffffffffffffffffffffffffffffffffffffff82169050919050565b6000819050919050565b82818337600083830152505050565b60005b83811015614024578082015181840152602081019050614009565b83811115614033576000848401525b50505050565b6000600282049050600182168061405157607f821691505b6020821081141561406557614064614143565b5b50919050565b614074826141a1565b810181811067ffffffffffffffff8211171561409357614092614172565b5b80604052505050565b60006140a782613fed565b91507fffffffffffffffffffffffffffffffffffffffffffffffffffffffffffffffff8214156140da576140d96140e5565b5b600182019050919050565b7f4e487b7100000000000000000000000000000000000000000000000000000000600052601160045260246000fd5b7f4e487b7100000000000000000000000000000000000000000000000000000000600052601260045260246000fd5b7f4e487b7100000000000000000000000000000000000000000000000000000000600052602260045260246000fd5b7f4e487b7100000000000000000000000000000000000000000000000000000000600052604160045260246000fd5b6000601f19601f8301169050919050565b7f52657175697265642076616c7565206e6f74206d657400000000000000000000600082015250565b7f53656e646572206973206e6f7420636c69656e74000000000000000000000000600082015250565b7f4d757374206265206665776572207468616e20313030206974656d7300000000600082015250565b7f50657263656e74616765206d7573742062652067726561746572207468616e2060008201527f7a65726f00000000000000000000000000000000000000000000000000000000602082015250565b7f50657263656e74616765206d757374206265206c657373207468616e20313030600082015250565b7f4f6e6c79206f776e65722066756e6374696f6e00000000000000000000000000600082015250565b7f4f6e6c7920676f7665726e6f722066756e6374696f6e00000000000000000000600082015250565b7f416666696c69617465206d75737420626520617070726f766564000000000000600082015250565b7f53656e64657220697320616e20616666696c6961746520616c72656164790000600082015250565b61435281613f9d565b811461435d57600080fd5b50565b61436981613fc1565b811461437457600080fd5b50565b61438081613fed565b811461438b57600080fd5b5056fea26469706673582212203abba59dcbb04bddd73ef8d6b52fd1f6c43f1976d71393fbc93eb359521c969a64736f6c63430008040033",
  "linkReferences": {},
  "deployedLinkReferences": {}
}