{
  "_format": "hh-sol-artifact-1",
  "contractName": "Shop",
  "sourceName": "contracts/Shop.sol",
  "abi": [
    {
      "inputs": [
        {
          "internalType": "address",
          "name": "_owner",
          "type": "address"
        },
        {
          "internalType": "string",
          "name": "_name",
          "type": "string"
        },
        {
          "internalType": "string",
          "name": "_description",
          "type": "string"
        },
        {
          "internalType": "string",
          "name": "_location",
          "type": "string"
        },
        {
          "internalType": "string",
          "name": "_phone",
          "type": "string"
        },
        {
          "internalType": "string",
          "name": "_image",
          "type": "string"
        }
      ],
      "stateMutability": "nonpayable",
      "type": "constructor"
    },
    {
      "anonymous": false,
      "inputs": [
        {
          "indexed": false,
          "internalType": "uint256",
          "name": "itemId",
          "type": "uint256"
        },
        {
          "indexed": false,
          "internalType": "string",
          "name": "name",
          "type": "string"
        },
        {
          "indexed": false,
          "internalType": "string",
          "name": "description",
          "type": "string"
        },
        {
          "indexed": false,
          "internalType": "string",
          "name": "image",
          "type": "string"
        },
        {
          "indexed": false,
          "internalType": "uint256",
          "name": "price",
          "type": "uint256"
        }
      ],
      "name": "ItemCreated",
      "type": "event"
    },
    {
      "inputs": [
        {
          "internalType": "uint256",
          "name": "",
          "type": "uint256"
        }
      ],
      "name": "catalog",
      "outputs": [
        {
          "internalType": "uint256",
          "name": "itemId",
          "type": "uint256"
        },
        {
          "internalType": "string",
          "name": "name",
          "type": "string"
        },
        {
          "internalType": "string",
          "name": "description",
          "type": "string"
        },
        {
          "internalType": "string",
          "name": "image",
          "type": "string"
        },
        {
          "internalType": "uint256",
          "name": "price",
          "type": "uint256"
        },
        {
          "internalType": "bool",
          "name": "inStock",
          "type": "bool"
        },
        {
          "internalType": "bool",
          "name": "isDeleted",
          "type": "bool"
        }
      ],
      "stateMutability": "view",
      "type": "function"
    },
    {
      "inputs": [
        {
          "internalType": "string",
          "name": "_name",
          "type": "string"
        },
        {
          "internalType": "string",
          "name": "_description",
          "type": "string"
        },
        {
          "internalType": "string",
          "name": "_image",
          "type": "string"
        },
        {
          "internalType": "uint256",
          "name": "_price",
          "type": "uint256"
        }
      ],
      "name": "createItem",
      "outputs": [],
      "stateMutability": "payable",
      "type": "function"
    },
    {
      "inputs": [
        {
          "internalType": "uint256",
          "name": "itemId",
          "type": "uint256"
        }
      ],
      "name": "deleteItem",
      "outputs": [],
      "stateMutability": "nonpayable",
      "type": "function"
    },
    {
      "inputs": [],
      "name": "description",
      "outputs": [
        {
          "internalType": "string",
          "name": "",
          "type": "string"
        }
      ],
      "stateMutability": "view",
      "type": "function"
    },
    {
      "inputs": [],
      "name": "fetchCatalogItems",
      "outputs": [
        {
          "components": [
            {
              "internalType": "uint256",
              "name": "itemId",
              "type": "uint256"
            },
            {
              "internalType": "string",
              "name": "name",
              "type": "string"
            },
            {
              "internalType": "string",
              "name": "description",
              "type": "string"
            },
            {
              "internalType": "string",
              "name": "image",
              "type": "string"
            },
            {
              "internalType": "uint256",
              "name": "price",
              "type": "uint256"
            },
            {
              "internalType": "bool",
              "name": "inStock",
              "type": "bool"
            },
            {
              "internalType": "bool",
              "name": "isDeleted",
              "type": "bool"
            }
          ],
          "internalType": "struct Shop.Item[]",
          "name": "",
          "type": "tuple[]"
        }
      ],
      "stateMutability": "view",
      "type": "function"
    },
    {
      "inputs": [],
      "name": "fetchTransactions",
      "outputs": [
        {
          "components": [
            {
              "internalType": "uint256",
              "name": "transId",
              "type": "uint256"
            },
            {
              "internalType": "uint256[]",
              "name": "itemIds",
              "type": "uint256[]"
            },
            {
              "internalType": "uint256[]",
              "name": "itemQty",
              "type": "uint256[]"
            },
            {
              "internalType": "uint256",
              "name": "total",
              "type": "uint256"
            },
            {
              "internalType": "bool",
              "name": "isValid",
              "type": "bool"
            }
          ],
          "internalType": "struct Shop.Trans[]",
          "name": "",
          "type": "tuple[]"
        }
      ],
      "stateMutability": "view",
      "type": "function"
    },
    {
      "inputs": [],
      "name": "freeTransactions",
      "outputs": [
        {
          "internalType": "uint256",
          "name": "",
          "type": "uint256"
        }
      ],
      "stateMutability": "view",
      "type": "function"
    },
    {
      "inputs": [],
      "name": "governor",
      "outputs": [
        {
          "internalType": "address payable",
          "name": "",
          "type": "address"
        }
      ],
      "stateMutability": "view",
      "type": "function"
    },
    {
      "inputs": [],
      "name": "image",
      "outputs": [
        {
          "internalType": "string",
          "name": "",
          "type": "string"
        }
      ],
      "stateMutability": "view",
      "type": "function"
    },
    {
      "inputs": [],
      "name": "location",
      "outputs": [
        {
          "internalType": "string",
          "name": "",
          "type": "string"
        }
      ],
      "stateMutability": "view",
      "type": "function"
    },
    {
      "inputs": [
        {
          "internalType": "uint256[]",
          "name": "itemIds",
          "type": "uint256[]"
        },
        {
          "internalType": "uint256[]",
          "name": "itemQty",
          "type": "uint256[]"
        }
      ],
      "name": "makeTransaction",
      "outputs": [
        {
          "internalType": "uint256",
          "name": "transactionId",
          "type": "uint256"
        }
      ],
      "stateMutability": "payable",
      "type": "function"
    },
    {
      "inputs": [],
      "name": "name",
      "outputs": [
        {
          "internalType": "string",
          "name": "",
          "type": "string"
        }
      ],
      "stateMutability": "view",
      "type": "function"
    },
    {
      "inputs": [],
      "name": "owner",
      "outputs": [
        {
          "internalType": "address payable",
          "name": "",
          "type": "address"
        }
      ],
      "stateMutability": "view",
      "type": "function"
    },
    {
      "inputs": [],
      "name": "phone",
      "outputs": [
        {
          "internalType": "string",
          "name": "",
          "type": "string"
        }
      ],
      "stateMutability": "view",
      "type": "function"
    },
    {
      "inputs": [],
      "name": "selfDestruct",
      "outputs": [],
      "stateMutability": "nonpayable",
      "type": "function"
    },
    {
      "inputs": [
        {
          "internalType": "uint256",
          "name": "_freeTransactions",
          "type": "uint256"
        }
      ],
      "name": "setFreeTransactions",
      "outputs": [],
      "stateMutability": "nonpayable",
      "type": "function"
    },
    {
      "inputs": [
        {
          "internalType": "uint256",
          "name": "itemId",
          "type": "uint256"
        },
        {
          "internalType": "bool",
          "name": "_inStock",
          "type": "bool"
        }
      ],
      "name": "setInStock",
      "outputs": [],
      "stateMutability": "nonpayable",
      "type": "function"
    },
    {
      "inputs": [
        {
          "internalType": "uint256",
          "name": "",
          "type": "uint256"
        }
      ],
      "name": "transactions",
      "outputs": [
        {
          "internalType": "uint256",
          "name": "transId",
          "type": "uint256"
        },
        {
          "internalType": "uint256",
          "name": "total",
          "type": "uint256"
        },
        {
          "internalType": "bool",
          "name": "isValid",
          "type": "bool"
        }
      ],
      "stateMutability": "view",
      "type": "function"
    },
    {
      "inputs": [],
      "name": "transactionsCount",
      "outputs": [
        {
          "internalType": "uint256",
          "name": "_value",
          "type": "uint256"
        }
      ],
      "stateMutability": "view",
      "type": "function"
    }
  ],
  "bytecode": "0x60806040526103e86008553480156200001757600080fd5b5060405162002c3a38038062002c3a83398181016040528101906200003d919062000281565b85600660006101000a81548173ffffffffffffffffffffffffffffffffffffffff021916908373ffffffffffffffffffffffffffffffffffffffff16021790555084600090805190602001906200009692919062000148565b508360019080519060200190620000af92919062000148565b508260029080519060200190620000c892919062000148565b508160039080519060200190620000e192919062000148565b508060049080519060200190620000fa92919062000148565b5033600760006101000a81548173ffffffffffffffffffffffffffffffffffffffff021916908373ffffffffffffffffffffffffffffffffffffffff16021790555050505050505062000552565b82805462000156906200045d565b90600052602060002090601f0160209004810192826200017a5760008555620001c6565b82601f106200019557805160ff1916838001178555620001c6565b82800160010185558215620001c6579182015b82811115620001c5578251825591602001919060010190620001a8565b5b509050620001d59190620001d9565b5090565b5b80821115620001f4576000816000905550600101620001da565b5090565b60006200020f6200020984620003bd565b62000394565b9050828152602081018484840111156200022857600080fd5b6200023584828562000427565b509392505050565b6000815190506200024e8162000538565b92915050565b600082601f8301126200026657600080fd5b815162000278848260208601620001f8565b91505092915050565b60008060008060008060c087890312156200029b57600080fd5b6000620002ab89828a016200023d565b965050602087015167ffffffffffffffff811115620002c957600080fd5b620002d789828a0162000254565b955050604087015167ffffffffffffffff811115620002f557600080fd5b6200030389828a0162000254565b945050606087015167ffffffffffffffff8111156200032157600080fd5b6200032f89828a0162000254565b935050608087015167ffffffffffffffff8111156200034d57600080fd5b6200035b89828a0162000254565b92505060a087015167ffffffffffffffff8111156200037957600080fd5b6200038789828a0162000254565b9150509295509295509295565b6000620003a0620003b3565b9050620003ae828262000493565b919050565b6000604051905090565b600067ffffffffffffffff821115620003db57620003da620004f8565b5b620003e68262000527565b9050602081019050919050565b6000620004008262000407565b9050919050565b600073ffffffffffffffffffffffffffffffffffffffff82169050919050565b60005b83811015620004475780820151818401526020810190506200042a565b8381111562000457576000848401525b50505050565b600060028204905060018216806200047657607f821691505b602082108114156200048d576200048c620004c9565b5b50919050565b6200049e8262000527565b810181811067ffffffffffffffff82111715620004c057620004bf620004f8565b5b80604052505050565b7f4e487b7100000000000000000000000000000000000000000000000000000000600052602260045260246000fd5b7f4e487b7100000000000000000000000000000000000000000000000000000000600052604160045260246000fd5b6000601f19601f8301169050919050565b6200054381620003f3565b81146200054f57600080fd5b50565b6126d880620005626000396000f3fe6080604052600436106101145760003560e01c80637284e416116100a05780639cb8a26a116100645780639cb8a26a14610377578063ea5de25b1461038e578063f3ccaac0146103d1578063f5b89aac146103fc578063fd99a7461461042757610114565b80637284e4161461029b5780637ac1bc00146102c65780638da5cb5b146102e25780639284f4971461030d5780639ace38c21461033857610114565b80632477eaae116100e75780632477eaae146101c35780634118afad146101ee578063516f279e1461021e5780635606d2ec14610249578063654fc8331461027257610114565b806306fdde0314610119578063090567d2146101445780630c340a241461016d5780630cc9dc7d14610198575b600080fd5b34801561012557600080fd5b5061012e610452565b60405161013b9190611f7e565b60405180910390f35b34801561015057600080fd5b5061016b60048036038101906101669190611ac2565b6104e0565b005b34801561017957600080fd5b5061018261057a565b60405161018f9190611f1f565b60405180910390f35b3480156101a457600080fd5b506101ad6105a0565b6040516101ba9190612020565b60405180910390f35b3480156101cf57600080fd5b506101d86105a6565b6040516101e59190611f5c565b60405180910390f35b610208600480360381019061020391906119ab565b6106e4565b6040516102159190612020565b60405180910390f35b34801561022a57600080fd5b50610233610aa9565b6040516102409190611f7e565b60405180910390f35b34801561025557600080fd5b50610270600480360381019061026b9190611aeb565b610b37565b005b34801561027e57600080fd5b5061029960048036038101906102949190611ac2565b610c2e565b005b3480156102a757600080fd5b506102b0610da1565b6040516102bd9190611f7e565b60405180910390f35b6102e060048036038101906102db9190611a17565b610e2f565b005b3480156102ee57600080fd5b506102f7611080565b6040516103049190611f1f565b60405180910390f35b34801561031957600080fd5b506103226110a6565b60405161032f9190611f7e565b60405180910390f35b34801561034457600080fd5b5061035f600480360381019061035a9190611ac2565b611134565b60405161036e93929190612127565b60405180910390f35b34801561038357600080fd5b5061038c61117b565b005b34801561039a57600080fd5b506103b560048036038101906103b09190611ac2565b611246565b6040516103c897969594939291906120a3565b60405180910390f35b3480156103dd57600080fd5b506103e661144a565b6040516103f39190611f7e565b60405180910390f35b34801561040857600080fd5b506104116114d8565b60405161041e9190611f3a565b60405180910390f35b34801561043357600080fd5b5061043c611737565b6040516104499190612020565b60405180910390f35b6000805461045f90612457565b80601f016020809104026020016040519081016040528092919081815260200182805461048b90612457565b80156104d85780601f106104ad576101008083540402835291602001916104d8565b820191906000526020600020905b8154815290600101906020018083116104bb57829003601f168201915b505050505081565b600760009054906101000a900473ffffffffffffffffffffffffffffffffffffffff1673ffffffffffffffffffffffffffffffffffffffff163373ffffffffffffffffffffffffffffffffffffffff1614610570576040517f08c379a000000000000000000000000000000000000000000000000000000000815260040161056790612000565b60405180910390fd5b8060088190555050565b600760009054906101000a900473ffffffffffffffffffffffffffffffffffffffff1681565b60085481565b6060600c805480602002602001604051908101604052809291908181526020016000905b828210156106db57838290600052602060002090600502016040518060a0016040529081600082015481526020016001820180548060200260200160405190810160405280929190818152602001828054801561064657602002820191906000526020600020905b815481526020019060010190808311610632575b505050505081526020016002820180548060200260200160405190810160405280929190818152602001828054801561069e57602002820191906000526020600020905b81548152602001906001019080831161068a575b50505050508152602001600382015481526020016004820160009054906101000a900460ff161515151581525050815260200190600101906105ca565b50505050905090565b6000806000905060005b84518110156107ee57838181518110610730577f4e487b7100000000000000000000000000000000000000000000000000000000600052603260045260246000fd5b60200260200101516005868381518110610773577f4e487b7100000000000000000000000000000000000000000000000000000000600052603260045260246000fd5b6020026020010151815481106107b2577f4e487b7100000000000000000000000000000000000000000000000000000000600052603260045260246000fd5b9060005260206000209060060201600401546107ce919061233f565b826107d991906122b8565b915080806107e6906124ba565b9150506106ee565b5080341015610832576040517f08c379a000000000000000000000000000000000000000000000000000000000815260040161082990611fa0565b60405180910390fd5b61083c600b611743565b600854610849600b611759565b111561095757600061086560648361176790919063ffffffff16565b9050600061087c828461177d90919063ffffffff16565b9050600760009054906101000a900473ffffffffffffffffffffffffffffffffffffffff1673ffffffffffffffffffffffffffffffffffffffff166108fc839081150290604051600060405180830381858888f193505050501580156108e6573d6000803e3d6000fd5b50600660009054906101000a900473ffffffffffffffffffffffffffffffffffffffff1673ffffffffffffffffffffffffffffffffffffffff166108fc829081150290604051600060405180830381858888f1935050505015801561094f573d6000803e3d6000fd5b5050506109c1565b600660009054906101000a900473ffffffffffffffffffffffffffffffffffffffff1673ffffffffffffffffffffffffffffffffffffffff166108fc829081150290604051600060405180830381858888f193505050501580156109bf573d6000803e3d6000fd5b505b60006109cd600a611759565b9050600c6040518060a00160405280838152602001878152602001868152602001848152602001600115158152509080600181540180825580915050600190039060005260206000209060050201600090919091909150600082015181600001556020820151816001019080519060200190610a4a929190611793565b506040820151816002019080519060200190610a67929190611793565b506060820151816003015560808201518160040160006101000a81548160ff0219169083151502179055505050610a9e600a611743565b809250505092915050565b60028054610ab690612457565b80601f0160208091040260200160405190810160405280929190818152602001828054610ae290612457565b8015610b2f5780601f10610b0457610100808354040283529160200191610b2f565b820191906000526020600020905b815481529060010190602001808311610b1257829003601f168201915b505050505081565b600660009054906101000a900473ffffffffffffffffffffffffffffffffffffffff1673ffffffffffffffffffffffffffffffffffffffff163373ffffffffffffffffffffffffffffffffffffffff1614610bc7576040517f08c379a0000000000000000000000000000000000000000000000000000000008152600401610bbe90611fe0565b60405180910390fd5b8060058381548110610c02577f4e487b7100000000000000000000000000000000000000000000000000000000600052603260045260246000fd5b906000526020600020906006020160050160006101000a81548160ff0219169083151502179055505050565b600660009054906101000a900473ffffffffffffffffffffffffffffffffffffffff1673ffffffffffffffffffffffffffffffffffffffff163373ffffffffffffffffffffffffffffffffffffffff1614610cbe576040517f08c379a0000000000000000000000000000000000000000000000000000000008152600401610cb590611fe0565b60405180910390fd5b60005b600580549050811015610d9d578160058281548110610d09577f4e487b7100000000000000000000000000000000000000000000000000000000600052603260045260246000fd5b9060005260206000209060060201600001541415610d8a57600160058281548110610d5d577f4e487b7100000000000000000000000000000000000000000000000000000000600052603260045260246000fd5b906000526020600020906006020160050160016101000a81548160ff021916908315150217905550610d9d565b8080610d95906124ba565b915050610cc1565b5050565b60018054610dae90612457565b80601f0160208091040260200160405190810160405280929190818152602001828054610dda90612457565b8015610e275780601f10610dfc57610100808354040283529160200191610e27565b820191906000526020600020905b815481529060010190602001808311610e0a57829003601f168201915b505050505081565b600660009054906101000a900473ffffffffffffffffffffffffffffffffffffffff1673ffffffffffffffffffffffffffffffffffffffff163373ffffffffffffffffffffffffffffffffffffffff1614610ebf576040517f08c379a0000000000000000000000000000000000000000000000000000000008152600401610eb690611fe0565b60405180910390fd5b6064610ecb6009611759565b10610f0b576040517f08c379a0000000000000000000000000000000000000000000000000000000008152600401610f0290611fc0565b60405180910390fd5b6000610f176009611759565b905060006040518060e00160405280838152602001878152602001868152602001858152602001848152602001600115158152602001600015158152509050610f606009611743565b6005819080600181540180825580915050600190039060005260206000209060060201600090919091909150600082015181600001556020820151816001019080519060200190610fb29291906117e0565b506040820151816002019080519060200190610fcf9291906117e0565b506060820151816003019080519060200190610fec9291906117e0565b506080820151816004015560a08201518160050160006101000a81548160ff02191690831515021790555060c08201518160050160016101000a81548160ff02191690831515021790555050507f96879d8966d9359f51d0296e82bd5d835bae805b2011fc95f5e23f1d8b797b42828787878760405161107095949392919061203b565b60405180910390a1505050505050565b600660009054906101000a900473ffffffffffffffffffffffffffffffffffffffff1681565b600380546110b390612457565b80601f01602080910402602001604051908101604052809291908181526020018280546110df90612457565b801561112c5780601f106111015761010080835404028352916020019161112c565b820191906000526020600020905b81548152906001019060200180831161110f57829003601f168201915b505050505081565b600c818154811061114457600080fd5b90600052602060002090600502016000915090508060000154908060030154908060040160009054906101000a900460ff16905083565b600760009054906101000a900473ffffffffffffffffffffffffffffffffffffffff1673ffffffffffffffffffffffffffffffffffffffff163373ffffffffffffffffffffffffffffffffffffffff161461120b576040517f08c379a000000000000000000000000000000000000000000000000000000000815260040161120290612000565b60405180910390fd5b600760009054906101000a900473ffffffffffffffffffffffffffffffffffffffff1673ffffffffffffffffffffffffffffffffffffffff16ff5b6005818154811061125657600080fd5b906000526020600020906006020160009150905080600001549080600101805461127f90612457565b80601f01602080910402602001604051908101604052809291908181526020018280546112ab90612457565b80156112f85780601f106112cd576101008083540402835291602001916112f8565b820191906000526020600020905b8154815290600101906020018083116112db57829003601f168201915b50505050509080600201805461130d90612457565b80601f016020809104026020016040519081016040528092919081815260200182805461133990612457565b80156113865780601f1061135b57610100808354040283529160200191611386565b820191906000526020600020905b81548152906001019060200180831161136957829003601f168201915b50505050509080600301805461139b90612457565b80601f01602080910402602001604051908101604052809291908181526020018280546113c790612457565b80156114145780601f106113e957610100808354040283529160200191611414565b820191906000526020600020905b8154815290600101906020018083116113f757829003601f168201915b5050505050908060040154908060050160009054906101000a900460ff16908060050160019054906101000a900460ff16905087565b6004805461145790612457565b80601f016020809104026020016040519081016040528092919081815260200182805461148390612457565b80156114d05780601f106114a5576101008083540402835291602001916114d0565b820191906000526020600020905b8154815290600101906020018083116114b357829003601f168201915b505050505081565b60606005805480602002602001604051908101604052809291908181526020016000905b8282101561172e57838290600052602060002090600602016040518060e00160405290816000820154815260200160018201805461153990612457565b80601f016020809104026020016040519081016040528092919081815260200182805461156590612457565b80156115b25780601f10611587576101008083540402835291602001916115b2565b820191906000526020600020905b81548152906001019060200180831161159557829003601f168201915b505050505081526020016002820180546115cb90612457565b80601f01602080910402602001604051908101604052809291908181526020018280546115f790612457565b80156116445780601f1061161957610100808354040283529160200191611644565b820191906000526020600020905b81548152906001019060200180831161162757829003601f168201915b5050505050815260200160038201805461165d90612457565b80601f016020809104026020016040519081016040528092919081815260200182805461168990612457565b80156116d65780601f106116ab576101008083540402835291602001916116d6565b820191906000526020600020905b8154815290600101906020018083116116b957829003601f168201915b50505050508152602001600482015481526020016005820160009054906101000a900460ff161515151581526020016005820160019054906101000a900460ff161515151581525050815260200190600101906114fc565b50505050905090565b600b8060000154905081565b6001816000016000828254019250508190555050565b600081600001549050919050565b60008183611775919061230e565b905092915050565b6000818361178b9190612399565b905092915050565b8280548282559060005260206000209081019282156117cf579160200282015b828111156117ce5782518255916020019190600101906117b3565b5b5090506117dc9190611866565b5090565b8280546117ec90612457565b90600052602060002090601f01602090048101928261180e5760008555611855565b82601f1061182757805160ff1916838001178555611855565b82800160010185558215611855579182015b82811115611854578251825591602001919060010190611839565b5b5090506118629190611866565b5090565b5b8082111561187f576000816000905550600101611867565b5090565b600061189661189184612183565b61215e565b905080838252602082019050828560208602820111156118b557600080fd5b60005b858110156118e557816118cb8882611996565b8452602084019350602083019250506001810190506118b8565b5050509392505050565b60006119026118fd846121af565b61215e565b90508281526020810184848401111561191a57600080fd5b611925848285612415565b509392505050565b600082601f83011261193e57600080fd5b813561194e848260208601611883565b91505092915050565b60008135905061196681612674565b92915050565b600082601f83011261197d57600080fd5b813561198d8482602086016118ef565b91505092915050565b6000813590506119a58161268b565b92915050565b600080604083850312156119be57600080fd5b600083013567ffffffffffffffff8111156119d857600080fd5b6119e48582860161192d565b925050602083013567ffffffffffffffff811115611a0157600080fd5b611a0d8582860161192d565b9150509250929050565b60008060008060808587031215611a2d57600080fd5b600085013567ffffffffffffffff811115611a4757600080fd5b611a538782880161196c565b945050602085013567ffffffffffffffff811115611a7057600080fd5b611a7c8782880161196c565b935050604085013567ffffffffffffffff811115611a9957600080fd5b611aa58782880161196c565b9250506060611ab687828801611996565b91505092959194509250565b600060208284031215611ad457600080fd5b6000611ae284828501611996565b91505092915050565b60008060408385031215611afe57600080fd5b6000611b0c85828601611996565b9250506020611b1d85828601611957565b9150509250929050565b6000611b338383611dda565b905092915050565b6000611b478383611e84565b905092915050565b6000611b5b8383611f01565b60208301905092915050565b611b70816123cd565b82525050565b6000611b8182612210565b611b8b8185612263565b935083602082028501611b9d856121e0565b8060005b85811015611bd95784840389528151611bba8582611b27565b9450611bc58361223c565b925060208a01995050600181019050611ba1565b50829750879550505050505092915050565b6000611bf68261221b565b611c008185612274565b935083602082028501611c12856121f0565b8060005b85811015611c4e5784840389528151611c2f8582611b3b565b9450611c3a83612249565b925060208a01995050600181019050611c16565b50829750879550505050505092915050565b6000611c6b82612226565b611c758185612285565b9350611c8083612200565b8060005b83811015611cb1578151611c988882611b4f565b9750611ca383612256565b925050600181019050611c84565b5085935050505092915050565b611cc7816123df565b82525050565b611cd6816123df565b82525050565b6000611ce782612231565b611cf18185612296565b9350611d01818560208601612424565b611d0a816125bf565b840191505092915050565b6000611d2082612231565b611d2a81856122a7565b9350611d3a818560208601612424565b611d43816125bf565b840191505092915050565b6000611d5b6016836122a7565b9150611d66826125d0565b602082019050919050565b6000611d7e601c836122a7565b9150611d89826125f9565b602082019050919050565b6000611da16013836122a7565b9150611dac82612622565b602082019050919050565b6000611dc46016836122a7565b9150611dcf8261264b565b602082019050919050565b600060e083016000830151611df26000860182611f01565b5060208301518482036020860152611e0a8282611cdc565b91505060408301518482036040860152611e248282611cdc565b91505060608301518482036060860152611e3e8282611cdc565b9150506080830151611e536080860182611f01565b5060a0830151611e6660a0860182611cbe565b5060c0830151611e7960c0860182611cbe565b508091505092915050565b600060a083016000830151611e9c6000860182611f01565b5060208301518482036020860152611eb48282611c60565b91505060408301518482036040860152611ece8282611c60565b9150506060830151611ee36060860182611f01565b506080830151611ef66080860182611cbe565b508091505092915050565b611f0a8161240b565b82525050565b611f198161240b565b82525050565b6000602082019050611f346000830184611b67565b92915050565b60006020820190508181036000830152611f548184611b76565b905092915050565b60006020820190508181036000830152611f768184611beb565b905092915050565b60006020820190508181036000830152611f988184611d15565b905092915050565b60006020820190508181036000830152611fb981611d4e565b9050919050565b60006020820190508181036000830152611fd981611d71565b9050919050565b60006020820190508181036000830152611ff981611d94565b9050919050565b6000602082019050818103600083015261201981611db7565b9050919050565b60006020820190506120356000830184611f10565b92915050565b600060a0820190506120506000830188611f10565b81810360208301526120628187611d15565b905081810360408301526120768186611d15565b9050818103606083015261208a8185611d15565b90506120996080830184611f10565b9695505050505050565b600060e0820190506120b8600083018a611f10565b81810360208301526120ca8189611d15565b905081810360408301526120de8188611d15565b905081810360608301526120f28187611d15565b90506121016080830186611f10565b61210e60a0830185611ccd565b61211b60c0830184611ccd565b98975050505050505050565b600060608201905061213c6000830186611f10565b6121496020830185611f10565b6121566040830184611ccd565b949350505050565b6000612168612179565b90506121748282612489565b919050565b6000604051905090565b600067ffffffffffffffff82111561219e5761219d612590565b5b602082029050602081019050919050565b600067ffffffffffffffff8211156121ca576121c9612590565b5b6121d3826125bf565b9050602081019050919050565b6000819050602082019050919050565b6000819050602082019050919050565b6000819050602082019050919050565b600081519050919050565b600081519050919050565b600081519050919050565b600081519050919050565b6000602082019050919050565b6000602082019050919050565b6000602082019050919050565b600082825260208201905092915050565b600082825260208201905092915050565b600082825260208201905092915050565b600082825260208201905092915050565b600082825260208201905092915050565b60006122c38261240b565b91506122ce8361240b565b9250827fffffffffffffffffffffffffffffffffffffffffffffffffffffffffffffffff0382111561230357612302612503565b5b828201905092915050565b60006123198261240b565b91506123248361240b565b92508261233457612333612532565b5b828204905092915050565b600061234a8261240b565b91506123558361240b565b9250817fffffffffffffffffffffffffffffffffffffffffffffffffffffffffffffffff048311821515161561238e5761238d612503565b5b828202905092915050565b60006123a48261240b565b91506123af8361240b565b9250828210156123c2576123c1612503565b5b828203905092915050565b60006123d8826123eb565b9050919050565b60008115159050919050565b600073ffffffffffffffffffffffffffffffffffffffff82169050919050565b6000819050919050565b82818337600083830152505050565b60005b83811015612442578082015181840152602081019050612427565b83811115612451576000848401525b50505050565b6000600282049050600182168061246f57607f821691505b6020821081141561248357612482612561565b5b50919050565b612492826125bf565b810181811067ffffffffffffffff821117156124b1576124b0612590565b5b80604052505050565b60006124c58261240b565b91507fffffffffffffffffffffffffffffffffffffffffffffffffffffffffffffffff8214156124f8576124f7612503565b5b600182019050919050565b7f4e487b7100000000000000000000000000000000000000000000000000000000600052601160045260246000fd5b7f4e487b7100000000000000000000000000000000000000000000000000000000600052601260045260246000fd5b7f4e487b7100000000000000000000000000000000000000000000000000000000600052602260045260246000fd5b7f4e487b7100000000000000000000000000000000000000000000000000000000600052604160045260246000fd5b6000601f19601f8301169050919050565b7f52657175697265642076616c7565206e6f74206d657400000000000000000000600082015250565b7f4d757374206265206665776572207468616e20313030206974656d7300000000600082015250565b7f4f6e6c79206f776e65722066756e6374696f6e00000000000000000000000000600082015250565b7f4f6e6c7920676f7665726e6f722066756e6374696f6e00000000000000000000600082015250565b61267d816123df565b811461268857600080fd5b50565b6126948161240b565b811461269f57600080fd5b5056fea264697066735822122072f9c02b39385a025e3e2c6e6e613e1fb055629448fc4cd4977059c97b7423ad64736f6c63430008040033",
  "linkReferences": {},
  "deployedLinkReferences": {}
}