{
  "_format": "hh-sol-artifact-1",
  "contractName": "Shop",
  "sourceName": "contracts/Shop.sol",
  "abi": [
    {
      "inputs": [
        {
          "internalType": "address",
          "name": "_owner",
          "type": "address"
        },
        {
          "internalType": "string",
          "name": "_name",
          "type": "string"
        },
        {
          "internalType": "string",
          "name": "_description",
          "type": "string"
        },
        {
          "internalType": "string",
          "name": "_location",
          "type": "string"
        },
        {
          "internalType": "string",
          "name": "_phone",
          "type": "string"
        },
        {
          "internalType": "string",
          "name": "_image",
          "type": "string"
        },
        {
          "internalType": "address",
          "name": "_governor",
          "type": "address"
        }
      ],
      "stateMutability": "nonpayable",
      "type": "constructor"
    },
    {
      "anonymous": false,
      "inputs": [
        {
          "indexed": false,
          "internalType": "uint256",
          "name": "itemId",
          "type": "uint256"
        },
        {
          "indexed": false,
          "internalType": "string",
          "name": "name",
          "type": "string"
        },
        {
          "indexed": false,
          "internalType": "string",
          "name": "description",
          "type": "string"
        },
        {
          "indexed": false,
          "internalType": "string",
          "name": "image",
          "type": "string"
        },
        {
          "indexed": false,
          "internalType": "uint256",
          "name": "price",
          "type": "uint256"
        }
      ],
      "name": "ItemCreated",
      "type": "event"
    },
    {
      "inputs": [
        {
          "internalType": "address",
          "name": "",
          "type": "address"
        }
      ],
      "name": "affiliates",
      "outputs": [
        {
          "internalType": "uint256",
          "name": "percentage",
          "type": "uint256"
        },
        {
          "internalType": "address",
          "name": "affAddr",
          "type": "address"
        },
        {
          "internalType": "uint256",
          "name": "id",
          "type": "uint256"
        }
      ],
      "stateMutability": "view",
      "type": "function"
    },
    {
      "inputs": [
        {
          "internalType": "address",
          "name": "affAddr",
          "type": "address"
        }
      ],
      "name": "approveAffiliate",
      "outputs": [],
      "stateMutability": "nonpayable",
      "type": "function"
    },
    {
      "inputs": [
        {
          "internalType": "uint256",
          "name": "",
          "type": "uint256"
        }
      ],
      "name": "approvedAffArr",
      "outputs": [
        {
          "internalType": "uint256",
          "name": "percentage",
          "type": "uint256"
        },
        {
          "internalType": "address",
          "name": "affAddr",
          "type": "address"
        },
        {
          "internalType": "uint256",
          "name": "id",
          "type": "uint256"
        }
      ],
      "stateMutability": "view",
      "type": "function"
    },
    {
      "inputs": [
        {
          "internalType": "address",
          "name": "affAddr",
          "type": "address"
        }
      ],
      "name": "cancelAffiliate",
      "outputs": [],
      "stateMutability": "nonpayable",
      "type": "function"
    },
    {
      "inputs": [
        {
          "internalType": "string",
          "name": "_name",
          "type": "string"
        },
        {
          "internalType": "string",
          "name": "_description",
          "type": "string"
        },
        {
          "internalType": "string",
          "name": "_image",
          "type": "string"
        },
        {
          "internalType": "uint256",
          "name": "_price",
          "type": "uint256"
        },
        {
          "internalType": "string",
          "name": "_filePath",
          "type": "string"
        },
        {
          "internalType": "bool",
          "name": "_isDigital",
          "type": "bool"
        }
      ],
      "name": "createItem",
      "outputs": [],
      "stateMutability": "payable",
      "type": "function"
    },
    {
      "inputs": [
        {
          "internalType": "uint256",
          "name": "_id",
          "type": "uint256"
        }
      ],
      "name": "deleteItem",
      "outputs": [],
      "stateMutability": "nonpayable",
      "type": "function"
    },
    {
      "inputs": [],
      "name": "description",
      "outputs": [
        {
          "internalType": "string",
          "name": "",
          "type": "string"
        }
      ],
      "stateMutability": "view",
      "type": "function"
    },
    {
      "inputs": [],
      "name": "fetchCatalogItems",
      "outputs": [
        {
          "components": [
            {
              "internalType": "uint256",
              "name": "itemId",
              "type": "uint256"
            },
            {
              "internalType": "string",
              "name": "name",
              "type": "string"
            },
            {
              "internalType": "string",
              "name": "description",
              "type": "string"
            },
            {
              "internalType": "string",
              "name": "image",
              "type": "string"
            },
            {
              "internalType": "uint256",
              "name": "price",
              "type": "uint256"
            },
            {
              "internalType": "bool",
              "name": "inStock",
              "type": "bool"
            },
            {
              "internalType": "bool",
              "name": "isDeleted",
              "type": "bool"
            },
            {
              "internalType": "bool",
              "name": "isDigital",
              "type": "bool"
            }
          ],
          "internalType": "struct Item[]",
          "name": "",
          "type": "tuple[]"
        }
      ],
      "stateMutability": "view",
      "type": "function"
    },
    {
      "inputs": [
        {
          "internalType": "string",
          "name": "itemId",
          "type": "string"
        },
        {
          "internalType": "uint256",
          "name": "transId",
          "type": "uint256"
        }
      ],
      "name": "fetchItemLink",
      "outputs": [
        {
          "internalType": "string",
          "name": "",
          "type": "string"
        }
      ],
      "stateMutability": "view",
      "type": "function"
    },
    {
      "inputs": [],
      "name": "fetchTransactions",
      "outputs": [
        {
          "components": [
            {
              "internalType": "uint256",
              "name": "transId",
              "type": "uint256"
            },
            {
              "internalType": "uint256[]",
              "name": "itemIds",
              "type": "uint256[]"
            },
            {
              "internalType": "uint256[]",
              "name": "itemQty",
              "type": "uint256[]"
            },
            {
              "internalType": "uint256",
              "name": "total",
              "type": "uint256"
            },
            {
              "internalType": "bool",
              "name": "isValid",
              "type": "bool"
            },
            {
              "internalType": "address",
              "name": "client",
              "type": "address"
            },
            {
              "internalType": "uint256",
              "name": "review",
              "type": "uint256"
            },
            {
              "internalType": "bool",
              "name": "isReviewed",
              "type": "bool"
            },
            {
              "internalType": "address",
              "name": "affilate",
              "type": "address"
            },
            {
              "internalType": "uint256",
              "name": "affPercentage",
              "type": "uint256"
            }
          ],
          "internalType": "struct Shop.Trans[]",
          "name": "",
          "type": "tuple[]"
        }
      ],
      "stateMutability": "view",
      "type": "function"
    },
    {
      "inputs": [],
      "name": "freeTransactions",
      "outputs": [
        {
          "internalType": "uint256",
          "name": "",
          "type": "uint256"
        }
      ],
      "stateMutability": "view",
      "type": "function"
    },
    {
      "inputs": [],
      "name": "getApprovedAffiliates",
      "outputs": [
        {
          "components": [
            {
              "internalType": "uint256",
              "name": "percentage",
              "type": "uint256"
            },
            {
              "internalType": "address",
              "name": "affAddr",
              "type": "address"
            },
            {
              "internalType": "uint256",
              "name": "id",
              "type": "uint256"
            }
          ],
          "internalType": "struct Shop.Affiliate[]",
          "name": "",
          "type": "tuple[]"
        }
      ],
      "stateMutability": "view",
      "type": "function"
    },
    {
      "inputs": [],
      "name": "getProposedAffiliates",
      "outputs": [
        {
          "components": [
            {
              "internalType": "uint256",
              "name": "percentage",
              "type": "uint256"
            },
            {
              "internalType": "address",
              "name": "affAddr",
              "type": "address"
            },
            {
              "internalType": "uint256",
              "name": "id",
              "type": "uint256"
            }
          ],
          "internalType": "struct Shop.Affiliate[]",
          "name": "",
          "type": "tuple[]"
        }
      ],
      "stateMutability": "view",
      "type": "function"
    },
    {
      "inputs": [
        {
          "internalType": "uint256",
          "name": "stars",
          "type": "uint256"
        },
        {
          "internalType": "uint256",
          "name": "transId",
          "type": "uint256"
        }
      ],
      "name": "giveReview",
      "outputs": [],
      "stateMutability": "nonpayable",
      "type": "function"
    },
    {
      "inputs": [],
      "name": "governor",
      "outputs": [
        {
          "internalType": "address payable",
          "name": "",
          "type": "address"
        }
      ],
      "stateMutability": "view",
      "type": "function"
    },
    {
      "inputs": [],
      "name": "image",
      "outputs": [
        {
          "internalType": "string",
          "name": "",
          "type": "string"
        }
      ],
      "stateMutability": "view",
      "type": "function"
    },
    {
      "inputs": [],
      "name": "location",
      "outputs": [
        {
          "internalType": "string",
          "name": "",
          "type": "string"
        }
      ],
      "stateMutability": "view",
      "type": "function"
    },
    {
      "inputs": [
        {
          "internalType": "uint256[]",
          "name": "itemIds",
          "type": "uint256[]"
        },
        {
          "internalType": "uint256[]",
          "name": "itemQty",
          "type": "uint256[]"
        },
        {
          "internalType": "address",
          "name": "affAddr",
          "type": "address"
        }
      ],
      "name": "makeTransaction",
      "outputs": [
        {
          "internalType": "uint256",
          "name": "transactionId",
          "type": "uint256"
        }
      ],
      "stateMutability": "payable",
      "type": "function"
    },
    {
      "inputs": [],
      "name": "name",
      "outputs": [
        {
          "internalType": "string",
          "name": "",
          "type": "string"
        }
      ],
      "stateMutability": "view",
      "type": "function"
    },
    {
      "inputs": [],
      "name": "owner",
      "outputs": [
        {
          "internalType": "address payable",
          "name": "",
          "type": "address"
        }
      ],
      "stateMutability": "view",
      "type": "function"
    },
    {
      "inputs": [],
      "name": "phone",
      "outputs": [
        {
          "internalType": "string",
          "name": "",
          "type": "string"
        }
      ],
      "stateMutability": "view",
      "type": "function"
    },
    {
      "inputs": [
        {
          "internalType": "uint256",
          "name": "percentage",
          "type": "uint256"
        }
      ],
      "name": "proposeAffiliate",
      "outputs": [],
      "stateMutability": "nonpayable",
      "type": "function"
    },
    {
      "inputs": [
        {
          "internalType": "uint256",
          "name": "",
          "type": "uint256"
        }
      ],
      "name": "proposedAffArr",
      "outputs": [
        {
          "internalType": "uint256",
          "name": "percentage",
          "type": "uint256"
        },
        {
          "internalType": "address",
          "name": "affAddr",
          "type": "address"
        },
        {
          "internalType": "uint256",
          "name": "id",
          "type": "uint256"
        }
      ],
      "stateMutability": "view",
      "type": "function"
    },
    {
      "inputs": [
        {
          "internalType": "address",
          "name": "",
          "type": "address"
        }
      ],
      "name": "proposedAffiliates",
      "outputs": [
        {
          "internalType": "uint256",
          "name": "percentage",
          "type": "uint256"
        },
        {
          "internalType": "address",
          "name": "affAddr",
          "type": "address"
        },
        {
          "internalType": "uint256",
          "name": "id",
          "type": "uint256"
        }
      ],
      "stateMutability": "view",
      "type": "function"
    },
    {
      "inputs": [],
      "name": "selfDestruct",
      "outputs": [],
      "stateMutability": "nonpayable",
      "type": "function"
    },
    {
      "inputs": [
        {
          "internalType": "uint256",
          "name": "_freeTransactions",
          "type": "uint256"
        }
      ],
      "name": "setFreeTransactions",
      "outputs": [],
      "stateMutability": "nonpayable",
      "type": "function"
    },
    {
      "inputs": [
        {
          "internalType": "uint256",
          "name": "_itemId",
          "type": "uint256"
        },
        {
          "internalType": "bool",
          "name": "_inStock",
          "type": "bool"
        }
      ],
      "name": "setInStock",
      "outputs": [],
      "stateMutability": "nonpayable",
      "type": "function"
    },
    {
      "inputs": [
        {
          "internalType": "uint256",
          "name": "",
          "type": "uint256"
        }
      ],
      "name": "transactions",
      "outputs": [
        {
          "internalType": "uint256",
          "name": "transId",
          "type": "uint256"
        },
        {
          "internalType": "uint256",
          "name": "total",
          "type": "uint256"
        },
        {
          "internalType": "bool",
          "name": "isValid",
          "type": "bool"
        },
        {
          "internalType": "address",
          "name": "client",
          "type": "address"
        },
        {
          "internalType": "uint256",
          "name": "review",
          "type": "uint256"
        },
        {
          "internalType": "bool",
          "name": "isReviewed",
          "type": "bool"
        },
        {
          "internalType": "address",
          "name": "affilate",
          "type": "address"
        },
        {
          "internalType": "uint256",
          "name": "affPercentage",
          "type": "uint256"
        }
      ],
      "stateMutability": "view",
      "type": "function"
    },
    {
      "inputs": [],
      "name": "transactionsCount",
      "outputs": [
        {
          "internalType": "uint256",
          "name": "_value",
          "type": "uint256"
        }
      ],
      "stateMutability": "view",
      "type": "function"
    }
  ],
  "bytecode": "0x60806040526103e86008553480156200001757600080fd5b5060405162004d3f38038062004d3f83398181016040528101906200003d919062000282565b86600660006101000a81548173ffffffffffffffffffffffffffffffffffffffff021916908373ffffffffffffffffffffffffffffffffffffffff16021790555085600190805190602001906200009692919062000149565b508460029080519060200190620000af92919062000149565b508360039080519060200190620000c892919062000149565b508260049080519060200190620000e192919062000149565b508160059080519060200190620000fa92919062000149565b5080600760006101000a81548173ffffffffffffffffffffffffffffffffffffffff021916908373ffffffffffffffffffffffffffffffffffffffff160217905550505050505050506200056a565b828054620001579062000475565b90600052602060002090601f0160209004810192826200017b5760008555620001c7565b82601f106200019657805160ff1916838001178555620001c7565b82800160010185558215620001c7579182015b82811115620001c6578251825591602001919060010190620001a9565b5b509050620001d69190620001da565b5090565b5b80821115620001f5576000816000905550600101620001db565b5090565b6000620002106200020a84620003d5565b620003ac565b9050828152602081018484840111156200022957600080fd5b620002368482856200043f565b509392505050565b6000815190506200024f8162000550565b92915050565b600082601f8301126200026757600080fd5b815162000279848260208601620001f9565b91505092915050565b600080600080600080600060e0888a0312156200029e57600080fd5b6000620002ae8a828b016200023e565b975050602088015167ffffffffffffffff811115620002cc57600080fd5b620002da8a828b0162000255565b965050604088015167ffffffffffffffff811115620002f857600080fd5b620003068a828b0162000255565b955050606088015167ffffffffffffffff8111156200032457600080fd5b620003328a828b0162000255565b945050608088015167ffffffffffffffff8111156200035057600080fd5b6200035e8a828b0162000255565b93505060a088015167ffffffffffffffff8111156200037c57600080fd5b6200038a8a828b0162000255565b92505060c06200039d8a828b016200023e565b91505092959891949750929550565b6000620003b8620003cb565b9050620003c68282620004ab565b919050565b6000604051905090565b600067ffffffffffffffff821115620003f357620003f262000510565b5b620003fe826200053f565b9050602081019050919050565b600062000418826200041f565b9050919050565b600073ffffffffffffffffffffffffffffffffffffffff82169050919050565b60005b838110156200045f57808201518184015260208101905062000442565b838111156200046f576000848401525b50505050565b600060028204905060018216806200048e57607f821691505b60208210811415620004a557620004a4620004e1565b5b50919050565b620004b6826200053f565b810181811067ffffffffffffffff82111715620004d857620004d762000510565b5b80604052505050565b7f4e487b7100000000000000000000000000000000000000000000000000000000600052602260045260246000fd5b7f4e487b7100000000000000000000000000000000000000000000000000000000600052604160045260246000fd5b6000601f19601f8301169050919050565b6200055b816200040b565b81146200056757600080fd5b50565b6147c5806200057a6000396000f3fe6080604052600436106101c25760003560e01c8063654fc833116100f75780639284f49711610095578063f0547bc811610064578063f0547bc81461064b578063f3ccaac014610674578063f5b89aac1461069f578063fd99a746146106ca576101c2565b80639284f4971461059a5780639ace38c2146105c55780639cb8a26a14610609578063c79c6dba14610620576101c2565b80638013f0b6116100d15780638013f0b6146104d75780638b4989af146105165780638cf279941461053f5780638da5cb5b1461056f576101c2565b8063654fc8331461045a5780637284e4161461048357806376aadd73146104ae576101c2565b8063309c4e1d11610164578063516f279e1161013e578063516f279e146103c15780635606d2ec146103ec5780635f6ad596146104155780635ff2d6051461043e576101c2565b8063309c4e1d1461031857806330ac4234146103435780634f51e29414610382576101c2565b8063090567d2116101a0578063090567d21461026e5780630c340a24146102975780630cc9dc7d146102c25780632477eaae146102ed576101c2565b806304cca07d146101c757806306fdde0314610204578063070c24b01461022f575b600080fd5b3480156101d357600080fd5b506101ee60048036038101906101e99190613491565b6106f5565b6040516101fb9190613d7e565b60405180910390f35b34801561021057600080fd5b5061021961087f565b6040516102269190613d7e565b60405180910390f35b34801561023b57600080fd5b50610256600480360381019061025191906132bf565b61090d565b60405161026593929190613f86565b60405180910390f35b34801561027a57600080fd5b50610295600480360381019061029091906134e5565b610957565b005b3480156102a357600080fd5b506102ac6109f1565b6040516102b99190613cfd565b60405180910390f35b3480156102ce57600080fd5b506102d7610a17565b6040516102e49190613f6b565b60405180910390f35b3480156102f957600080fd5b50610302610a1d565b60405161030f9190613d5c565b60405180910390f35b34801561032457600080fd5b5061032d610c37565b60405161033a9190613d18565b60405180910390f35b34801561034f57600080fd5b5061036a600480360381019061036591906134e5565b610d00565b60405161037993929190613f86565b60405180910390f35b34801561038e57600080fd5b506103a960048036038101906103a491906132bf565b610d5a565b6040516103b893929190613f86565b60405180910390f35b3480156103cd57600080fd5b506103d6610da4565b6040516103e39190613d7e565b60405180910390f35b3480156103f857600080fd5b50610413600480360381019061040e919061350e565b610e32565b005b34801561042157600080fd5b5061043c600480360381019061043791906134e5565b610f34565b005b610458600480360381019061045391906133a8565b6111b8565b005b34801561046657600080fd5b50610481600480360381019061047c91906134e5565b611397565b005b34801561048f57600080fd5b50610498611496565b6040516104a59190613d7e565b60405180910390f35b3480156104ba57600080fd5b506104d560048036038101906104d091906132bf565b611524565b005b3480156104e357600080fd5b506104fe60048036038101906104f991906134e5565b6118b2565b60405161050d93929190613f86565b60405180910390f35b34801561052257600080fd5b5061053d6004803603810190610538919061354a565b61190c565b005b61055960048036038101906105549190613329565b611a9d565b6040516105669190613f6b565b60405180910390f35b34801561057b57600080fd5b506105846122e7565b6040516105919190613cfd565b60405180910390f35b3480156105a657600080fd5b506105af61230d565b6040516105bc9190613d7e565b60405180910390f35b3480156105d157600080fd5b506105ec60048036038101906105e791906134e5565b61239b565b604051610600989796959493929190614025565b60405180910390f35b34801561061557600080fd5b5061061e61244d565b005b34801561062c57600080fd5b50610635612518565b6040516106429190613d18565b60405180910390f35b34801561065757600080fd5b50610672600480360381019061066d91906132bf565b6125e1565b005b34801561068057600080fd5b50610689612ac8565b6040516106969190613d7e565b60405180910390f35b3480156106ab57600080fd5b506106b4612b56565b6040516106c19190613d3a565b60405180910390f35b3480156106d657600080fd5b506106df612bec565b6040516106ec9190613f6b565b60405180910390f35b60603373ffffffffffffffffffffffffffffffffffffffff1660128381548110610748577f4e487b7100000000000000000000000000000000000000000000000000000000600052603260045260246000fd5b906000526020600020906008020160040160019054906101000a900473ffffffffffffffffffffffffffffffffffffffff1673ffffffffffffffffffffffffffffffffffffffff16146107d0576040517f08c379a00000000000000000000000000000000000000000000000000000000081526004016107c790613e60565b60405180910390fd5b600f836040516107e09190613ce6565b908152602001604051809103902080546107f99061442f565b80601f01602080910402602001604051908101604052809291908181526020018280546108259061442f565b80156108725780601f1061084757610100808354040283529160200191610872565b820191906000526020600020905b81548152906001019060200180831161085557829003601f168201915b5050505050905092915050565b6001805461088c9061442f565b80601f01602080910402602001604051908101604052809291908181526020018280546108b89061442f565b80156109055780601f106108da57610100808354040283529160200191610905565b820191906000526020600020905b8154815290600101906020018083116108e857829003601f168201915b505050505081565b600d6020528060005260406000206000915090508060000154908060010160009054906101000a900473ffffffffffffffffffffffffffffffffffffffff16908060020154905083565b600760009054906101000a900473ffffffffffffffffffffffffffffffffffffffff1673ffffffffffffffffffffffffffffffffffffffff163373ffffffffffffffffffffffffffffffffffffffff16146109e7576040517f08c379a00000000000000000000000000000000000000000000000000000000081526004016109de90613ea0565b60405180910390fd5b8060088190555050565b600760009054906101000a900473ffffffffffffffffffffffffffffffffffffffff1681565b60085481565b60606012805480602002602001604051908101604052809291908181526020016000905b82821015610c2e5783829060005260206000209060080201604051806101400160405290816000820154815260200160018201805480602002602001604051908101604052809291908181526020018280548015610abe57602002820191906000526020600020905b815481526020019060010190808311610aaa575b5050505050815260200160028201805480602002602001604051908101604052809291908181526020018280548015610b1657602002820191906000526020600020905b815481526020019060010190808311610b02575b50505050508152602001600382015481526020016004820160009054906101000a900460ff161515151581526020016004820160019054906101000a900473ffffffffffffffffffffffffffffffffffffffff1673ffffffffffffffffffffffffffffffffffffffff1673ffffffffffffffffffffffffffffffffffffffff168152602001600582015481526020016006820160009054906101000a900460ff161515151581526020016006820160019054906101000a900473ffffffffffffffffffffffffffffffffffffffff1673ffffffffffffffffffffffffffffffffffffffff1673ffffffffffffffffffffffffffffffffffffffff16815260200160078201548152505081526020019060010190610a41565b50505050905090565b6060600c805480602002602001604051908101604052809291908181526020016000905b82821015610cf75783829060005260206000209060030201604051806060016040529081600082015481526020016001820160009054906101000a900473ffffffffffffffffffffffffffffffffffffffff1673ffffffffffffffffffffffffffffffffffffffff1673ffffffffffffffffffffffffffffffffffffffff16815260200160028201548152505081526020019060010190610c5b565b50505050905090565b600c8181548110610d1057600080fd5b90600052602060002090600302016000915090508060000154908060010160009054906101000a900473ffffffffffffffffffffffffffffffffffffffff16908060020154905083565b600e6020528060005260406000206000915090508060000154908060010160009054906101000a900473ffffffffffffffffffffffffffffffffffffffff16908060020154905083565b60038054610db19061442f565b80601f0160208091040260200160405190810160405280929190818152602001828054610ddd9061442f565b8015610e2a5780601f10610dff57610100808354040283529160200191610e2a565b820191906000526020600020905b815481529060010190602001808311610e0d57829003601f168201915b505050505081565b600660009054906101000a900473ffffffffffffffffffffffffffffffffffffffff1673ffffffffffffffffffffffffffffffffffffffff163373ffffffffffffffffffffffffffffffffffffffff1614610ec2576040517f08c379a0000000000000000000000000000000000000000000000000000000008152600401610eb990613da0565b60405180910390fd5b600073__$2504da76dd911be12547f2608c53b8702a$__6331dfe65b909184846040518463ffffffff1660e01b8152600401610f0093929190613f34565b60006040518083038186803b158015610f1857600080fd5b505af4158015610f2c573d6000803e3d6000fd5b505050505050565b6000600e60003373ffffffffffffffffffffffffffffffffffffffff1673ffffffffffffffffffffffffffffffffffffffff1681526020019081526020016000206000015414610fb9576040517f08c379a0000000000000000000000000000000000000000000000000000000008152600401610fb090613e00565b60405180910390fd5b60008111610ffc576040517f08c379a0000000000000000000000000000000000000000000000000000000008152600401610ff390613dc0565b60405180910390fd5b6064811061103f576040517f08c379a000000000000000000000000000000000000000000000000000000000815260040161103690613e40565b60405180910390fd5b600061104b600a612bf8565b9050600060405180606001604052808481526020013373ffffffffffffffffffffffffffffffffffffffff16815260200183815250905080600d60003373ffffffffffffffffffffffffffffffffffffffff1673ffffffffffffffffffffffffffffffffffffffff1681526020019081526020016000206000820151816000015560208201518160010160006101000a81548173ffffffffffffffffffffffffffffffffffffffff021916908373ffffffffffffffffffffffffffffffffffffffff16021790555060408201518160020155905050600b8190806001815401808255809150506001900390600052602060002090600302016000909190919091506000820151816000015560208201518160010160006101000a81548173ffffffffffffffffffffffffffffffffffffffff021916908373ffffffffffffffffffffffffffffffffffffffff1602179055506040820151816002015550506111b3600a612c06565b505050565b600660009054906101000a900473ffffffffffffffffffffffffffffffffffffffff1673ffffffffffffffffffffffffffffffffffffffff163373ffffffffffffffffffffffffffffffffffffffff1614611248576040517f08c379a000000000000000000000000000000000000000000000000000000000815260040161123f90613da0565b60405180910390fd5b60006112546009612bf8565b9050600073__$2504da76dd911be12547f2608c53b8702a$__63fef3c5a390916040518061010001604052808581526020018b81526020018a81526020018981526020018881526020016001151581526020016000151581526020018615158152506040518363ffffffff1660e01b81526004016112d3929190613edb565b60006040518083038186803b1580156112eb57600080fd5b505af41580156112ff573d6000803e3d6000fd5b5050505081156113455782600f61131583612c1c565b6040516113229190613ce6565b90815260200160405180910390209080519060200190611343929190612e0b565b505b61134f6009612c06565b7f96879d8966d9359f51d0296e82bd5d835bae805b2011fc95f5e23f1d8b797b428188888888604051611386959493929190613fbd565b60405180910390a150505050505050565b600660009054906101000a900473ffffffffffffffffffffffffffffffffffffffff1673ffffffffffffffffffffffffffffffffffffffff163373ffffffffffffffffffffffffffffffffffffffff1614611427576040517f08c379a000000000000000000000000000000000000000000000000000000000815260040161141e90613da0565b60405180910390fd5b600073__$2504da76dd911be12547f2608c53b8702a$__63ef57f72c9091836040518363ffffffff1660e01b8152600401611463929190613f0b565b60006040518083038186803b15801561147b57600080fd5b505af415801561148f573d6000803e3d6000fd5b5050505050565b600280546114a39061442f565b80601f01602080910402602001604051908101604052809291908181526020018280546114cf9061442f565b801561151c5780601f106114f15761010080835404028352916020019161151c565b820191906000526020600020905b8154815290600101906020018083116114ff57829003601f168201915b505050505081565b600660009054906101000a900473ffffffffffffffffffffffffffffffffffffffff1673ffffffffffffffffffffffffffffffffffffffff163373ffffffffffffffffffffffffffffffffffffffff16146115b4576040517f08c379a00000000000000000000000000000000000000000000000000000000081526004016115ab90613da0565b60405180910390fd5b60005b600c80549050811015611835578173ffffffffffffffffffffffffffffffffffffffff16600c8281548110611615577f4e487b7100000000000000000000000000000000000000000000000000000000600052603260045260246000fd5b906000526020600020906003020160010160009054906101000a900473ffffffffffffffffffffffffffffffffffffffff1673ffffffffffffffffffffffffffffffffffffffff16141561182257600c818154811061169d577f4e487b7100000000000000000000000000000000000000000000000000000000600052603260045260246000fd5b90600052602060002090600302016000808201600090556001820160006101000a81549073ffffffffffffffffffffffffffffffffffffffff0219169055600282016000905550506001600c805490506116f7919061435f565b811461181d57600c6001600c80549050611711919061435f565b81548110611748577f4e487b7100000000000000000000000000000000000000000000000000000000600052603260045260246000fd5b9060005260206000209060030201600c8281548110611790577f4e487b7100000000000000000000000000000000000000000000000000000000600052603260045260246000fd5b9060005260206000209060030201600082015481600001556001820160009054906101000a900473ffffffffffffffffffffffffffffffffffffffff168160010160006101000a81548173ffffffffffffffffffffffffffffffffffffffff021916908373ffffffffffffffffffffffffffffffffffffffff160217905550600282015481600201559050505b611835565b808061182d90614492565b9150506115b7565b50600e60008273ffffffffffffffffffffffffffffffffffffffff1673ffffffffffffffffffffffffffffffffffffffff1681526020019081526020016000206000808201600090556001820160006101000a81549073ffffffffffffffffffffffffffffffffffffffff02191690556002820160009055505050565b600b81815481106118c257600080fd5b90600052602060002090600302016000915090508060000154908060010160009054906101000a900473ffffffffffffffffffffffffffffffffffffffff16908060020154905083565b3373ffffffffffffffffffffffffffffffffffffffff166012828154811061195d577f4e487b7100000000000000000000000000000000000000000000000000000000600052603260045260246000fd5b906000526020600020906008020160040160019054906101000a900473ffffffffffffffffffffffffffffffffffffffff1673ffffffffffffffffffffffffffffffffffffffff16146119e5576040517f08c379a00000000000000000000000000000000000000000000000000000000081526004016119dc90613e20565b60405180910390fd5b8160128281548110611a20577f4e487b7100000000000000000000000000000000000000000000000000000000600052603260045260246000fd5b906000526020600020906008020160050181905550600160128281548110611a71577f4e487b7100000000000000000000000000000000000000000000000000000000600052603260045260246000fd5b906000526020600020906008020160060160006101000a81548160ff0219169083151502179055505050565b6000611aa7612e91565b600073ffffffffffffffffffffffffffffffffffffffff168373ffffffffffffffffffffffffffffffffffffffff1614611c0657600e60008473ffffffffffffffffffffffffffffffffffffffff1673ffffffffffffffffffffffffffffffffffffffff168152602001908152602001600020604051806060016040529081600082015481526020016001820160009054906101000a900473ffffffffffffffffffffffffffffffffffffffff1673ffffffffffffffffffffffffffffffffffffffff1673ffffffffffffffffffffffffffffffffffffffff1681526020016002820154815250509050600073ffffffffffffffffffffffffffffffffffffffff16816020015173ffffffffffffffffffffffffffffffffffffffff161415611c05576040517f08c379a0000000000000000000000000000000000000000000000000000000008152600401611bfc90613e80565b60405180910390fd5b5b6000805b8651811015611d0c57858181518110611c4c577f4e487b7100000000000000000000000000000000000000000000000000000000600052603260045260246000fd5b602002602001015160008001888381518110611c91577f4e487b7100000000000000000000000000000000000000000000000000000000600052603260045260246000fd5b602002602001015181548110611cd0577f4e487b7100000000000000000000000000000000000000000000000000000000600052603260045260246000fd5b906000526020600020906006020160040154611cec9190614305565b82611cf7919061427e565b91508080611d0490614492565b915050611c0a565b5080341015611d50576040517f08c379a0000000000000000000000000000000000000000000000000000000008152600401611d4790613de0565b60405180910390fd5b611d5a6011612c06565b600080600854611d6a6011612bf8565b1115611f4d576000611d86606485612dc990919063ffffffff16565b9050600073ffffffffffffffffffffffffffffffffffffffff168773ffffffffffffffffffffffffffffffffffffffff1614611e5f57611de68560000151611dd8606487612dc990919063ffffffff16565b612ddf90919063ffffffff16565b9150611e0d82611dff8387612df590919063ffffffff16565b612df590919063ffffffff16565b9250846020015173ffffffffffffffffffffffffffffffffffffffff166108fc839081150290604051600060405180830381858888f19350505050158015611e59573d6000803e3d6000fd5b50611e75565b611e728185612df590919063ffffffff16565b92505b600660009054906101000a900473ffffffffffffffffffffffffffffffffffffffff1673ffffffffffffffffffffffffffffffffffffffff166108fc849081150290604051600060405180830381858888f19350505050158015611edd573d6000803e3d6000fd5b50600760009054906101000a900473ffffffffffffffffffffffffffffffffffffffff1673ffffffffffffffffffffffffffffffffffffffff166108fc829081150290604051600060405180830381858888f19350505050158015611f46573d6000803e3d6000fd5b50506120e6565b600073ffffffffffffffffffffffffffffffffffffffff168673ffffffffffffffffffffffffffffffffffffffff161461207b57611fab8460000151611f9d606486612dc990919063ffffffff16565b612ddf90919063ffffffff16565b9050611fc08184612df590919063ffffffff16565b9150600660009054906101000a900473ffffffffffffffffffffffffffffffffffffffff1673ffffffffffffffffffffffffffffffffffffffff166108fc839081150290604051600060405180830381858888f1935050505015801561202a573d6000803e3d6000fd5b50836020015173ffffffffffffffffffffffffffffffffffffffff166108fc829081150290604051600060405180830381858888f19350505050158015612075573d6000803e3d6000fd5b506120e5565b600660009054906101000a900473ffffffffffffffffffffffffffffffffffffffff1673ffffffffffffffffffffffffffffffffffffffff166108fc849081150290604051600060405180830381858888f193505050501580156120e3573d6000803e3d6000fd5b505b5b60006120f26010612bf8565b905060126040518061014001604052808381526020018b81526020018a81526020018681526020016001151581526020013373ffffffffffffffffffffffffffffffffffffffff16815260200160008152602001600015158152602001600073ffffffffffffffffffffffffffffffffffffffff168152602001600081525090806001815401808255809150506001900390600052602060002090600802016000909190919091506000820151816000015560208201518160010190805190602001906121c0929190612ec8565b5060408201518160020190805190602001906121dd929190612ec8565b506060820151816003015560808201518160040160006101000a81548160ff02191690831515021790555060a08201518160040160016101000a81548173ffffffffffffffffffffffffffffffffffffffff021916908373ffffffffffffffffffffffffffffffffffffffff16021790555060c0820151816005015560e08201518160060160006101000a81548160ff0219169083151502179055506101008201518160060160016101000a81548173ffffffffffffffffffffffffffffffffffffffff021916908373ffffffffffffffffffffffffffffffffffffffff160217905550610120820151816007015550506122d86010612c06565b80955050505050509392505050565b600660009054906101000a900473ffffffffffffffffffffffffffffffffffffffff1681565b6004805461231a9061442f565b80601f01602080910402602001604051908101604052809291908181526020018280546123469061442f565b80156123935780601f1061236857610100808354040283529160200191612393565b820191906000526020600020905b81548152906001019060200180831161237657829003601f168201915b505050505081565b601281815481106123ab57600080fd5b90600052602060002090600802016000915090508060000154908060030154908060040160009054906101000a900460ff16908060040160019054906101000a900473ffffffffffffffffffffffffffffffffffffffff16908060050154908060060160009054906101000a900460ff16908060060160019054906101000a900473ffffffffffffffffffffffffffffffffffffffff16908060070154905088565b600760009054906101000a900473ffffffffffffffffffffffffffffffffffffffff1673ffffffffffffffffffffffffffffffffffffffff163373ffffffffffffffffffffffffffffffffffffffff16146124dd576040517f08c379a00000000000000000000000000000000000000000000000000000000081526004016124d490613ea0565b60405180910390fd5b600760009054906101000a900473ffffffffffffffffffffffffffffffffffffffff1673ffffffffffffffffffffffffffffffffffffffff16ff5b6060600b805480602002602001604051908101604052809291908181526020016000905b828210156125d85783829060005260206000209060030201604051806060016040529081600082015481526020016001820160009054906101000a900473ffffffffffffffffffffffffffffffffffffffff1673ffffffffffffffffffffffffffffffffffffffff1673ffffffffffffffffffffffffffffffffffffffff1681526020016002820154815250508152602001906001019061253c565b50505050905090565b600660009054906101000a900473ffffffffffffffffffffffffffffffffffffffff1673ffffffffffffffffffffffffffffffffffffffff163373ffffffffffffffffffffffffffffffffffffffff1614612671576040517f08c379a000000000000000000000000000000000000000000000000000000000815260040161266890613da0565b60405180910390fd5b600d60008273ffffffffffffffffffffffffffffffffffffffff1673ffffffffffffffffffffffffffffffffffffffff168152602001908152602001600020600e60008373ffffffffffffffffffffffffffffffffffffffff1673ffffffffffffffffffffffffffffffffffffffff168152602001908152602001600020600082015481600001556001820160009054906101000a900473ffffffffffffffffffffffffffffffffffffffff168160010160006101000a81548173ffffffffffffffffffffffffffffffffffffffff021916908373ffffffffffffffffffffffffffffffffffffffff160217905550600282015481600201559050506000600d60008373ffffffffffffffffffffffffffffffffffffffff1673ffffffffffffffffffffffffffffffffffffffff168152602001908152602001600020600201549050600c600e60008473ffffffffffffffffffffffffffffffffffffffff1673ffffffffffffffffffffffffffffffffffffffff1681526020019081526020016000209080600181540180825580915050600190039060005260206000209060030201600090919091909150600082015481600001556001820160009054906101000a900473ffffffffffffffffffffffffffffffffffffffff168160010160006101000a81548173ffffffffffffffffffffffffffffffffffffffff021916908373ffffffffffffffffffffffffffffffffffffffff160217905550600282015481600201555050600b81815481106128d5577f4e487b7100000000000000000000000000000000000000000000000000000000600052603260045260246000fd5b90600052602060002090600302016000808201600090556001820160006101000a81549073ffffffffffffffffffffffffffffffffffffffff0219169055600282016000905550506000600b805490501115612a4b57600b6001600b8054905061293f919061435f565b81548110612976577f4e487b7100000000000000000000000000000000000000000000000000000000600052603260045260246000fd5b9060005260206000209060030201600b82815481106129be577f4e487b7100000000000000000000000000000000000000000000000000000000600052603260045260246000fd5b9060005260206000209060030201600082015481600001556001820160009054906101000a900473ffffffffffffffffffffffffffffffffffffffff168160010160006101000a81548173ffffffffffffffffffffffffffffffffffffffff021916908373ffffffffffffffffffffffffffffffffffffffff160217905550600282015481600201559050505b600d60008373ffffffffffffffffffffffffffffffffffffffff1673ffffffffffffffffffffffffffffffffffffffff1681526020019081526020016000206000808201600090556001820160006101000a81549073ffffffffffffffffffffffffffffffffffffffff0219169055600282016000905550505050565b60058054612ad59061442f565b80601f0160208091040260200160405190810160405280929190818152602001828054612b019061442f565b8015612b4e5780601f10612b2357610100808354040283529160200191612b4e565b820191906000526020600020905b815481529060010190602001808311612b3157829003601f168201915b505050505081565b6060600073__$2504da76dd911be12547f2608c53b8702a$__6334871c0390916040518263ffffffff1660e01b8152600401612b929190613ec0565b60006040518083038186803b158015612baa57600080fd5b505af4158015612bbe573d6000803e3d6000fd5b505050506040513d6000823e3d601f19601f82011682018060405250810190612be791906132e8565b905090565b60118060000154905081565b600081600001549050919050565b6001816000016000828254019250508190555050565b60606000821415612c64576040518060400160405280600181526020017f30000000000000000000000000000000000000000000000000000000000000008152509050612dc4565b600082905060005b60008214612c96578080612c7f90614492565b915050600a82612c8f91906142d4565b9150612c6c565b60008167ffffffffffffffff811115612cd8577f4e487b7100000000000000000000000000000000000000000000000000000000600052604160045260246000fd5b6040519080825280601f01601f191660200182016040528015612d0a5781602001600182028036833780820191505090505b5090505b60008514612dbd57600182612d23919061435f565b9150600a85612d3291906144db565b6030612d3e919061427e565b60f81b818381518110612d7a577f4e487b7100000000000000000000000000000000000000000000000000000000600052603260045260246000fd5b60200101907effffffffffffffffffffffffffffffffffffffffffffffffffffffffffffff1916908160001a905350600a85612db691906142d4565b9450612d0e565b8093505050505b919050565b60008183612dd791906142d4565b905092915050565b60008183612ded9190614305565b905092915050565b60008183612e03919061435f565b905092915050565b828054612e179061442f565b90600052602060002090601f016020900481019282612e395760008555612e80565b82601f10612e5257805160ff1916838001178555612e80565b82800160010185558215612e80579182015b82811115612e7f578251825591602001919060010190612e64565b5b509050612e8d9190612f15565b5090565b604051806060016040528060008152602001600073ffffffffffffffffffffffffffffffffffffffff168152602001600081525090565b828054828255906000526020600020908101928215612f04579160200282015b82811115612f03578251825591602001919060010190612ee8565b5b509050612f119190612f15565b5090565b5b80821115612f2e576000816000905550600101612f16565b5090565b6000612f45612f40846140c8565b6140a3565b90508083825260208201905082856020860282011115612f6457600080fd5b60005b85811015612fae57815167ffffffffffffffff811115612f8657600080fd5b808601612f938982613187565b85526020850194506020840193505050600181019050612f67565b5050509392505050565b6000612fcb612fc6846140f4565b6140a3565b90508083825260208201905082856020860282011115612fea57600080fd5b60005b8581101561301a57816130008882613295565b845260208401935060208301925050600181019050612fed565b5050509392505050565b600061303761303284614120565b6140a3565b90508281526020810184848401111561304f57600080fd5b61305a8482856143ed565b509392505050565b600061307561307084614120565b6140a3565b90508281526020810184848401111561308d57600080fd5b6130988482856143fc565b509392505050565b6000813590506130af8161474a565b92915050565b600082601f8301126130c657600080fd5b81516130d6848260208601612f32565b91505092915050565b600082601f8301126130f057600080fd5b8135613100848260208601612fb8565b91505092915050565b60008135905061311881614761565b92915050565b60008151905061312d81614761565b92915050565b600082601f83011261314457600080fd5b8135613154848260208601613024565b91505092915050565b600082601f83011261316e57600080fd5b815161317e848260208601613062565b91505092915050565b6000610100828403121561319a57600080fd5b6131a56101006140a3565b905060006131b5848285016132aa565b600083015250602082015167ffffffffffffffff8111156131d557600080fd5b6131e18482850161315d565b602083015250604082015167ffffffffffffffff81111561320157600080fd5b61320d8482850161315d565b604083015250606082015167ffffffffffffffff81111561322d57600080fd5b6132398482850161315d565b606083015250608061324d848285016132aa565b60808301525060a06132618482850161311e565b60a08301525060c06132758482850161311e565b60c08301525060e06132898482850161311e565b60e08301525092915050565b6000813590506132a481614778565b92915050565b6000815190506132b981614778565b92915050565b6000602082840312156132d157600080fd5b60006132df848285016130a0565b91505092915050565b6000602082840312156132fa57600080fd5b600082015167ffffffffffffffff81111561331457600080fd5b613320848285016130b5565b91505092915050565b60008060006060848603121561333e57600080fd5b600084013567ffffffffffffffff81111561335857600080fd5b613364868287016130df565b935050602084013567ffffffffffffffff81111561338157600080fd5b61338d868287016130df565b925050604061339e868287016130a0565b9150509250925092565b60008060008060008060c087890312156133c157600080fd5b600087013567ffffffffffffffff8111156133db57600080fd5b6133e789828a01613133565b965050602087013567ffffffffffffffff81111561340457600080fd5b61341089828a01613133565b955050604087013567ffffffffffffffff81111561342d57600080fd5b61343989828a01613133565b945050606061344a89828a01613295565b935050608087013567ffffffffffffffff81111561346757600080fd5b61347389828a01613133565b92505060a061348489828a01613109565b9150509295509295509295565b600080604083850312156134a457600080fd5b600083013567ffffffffffffffff8111156134be57600080fd5b6134ca85828601613133565b92505060206134db85828601613295565b9150509250929050565b6000602082840312156134f757600080fd5b600061350584828501613295565b91505092915050565b6000806040838503121561352157600080fd5b600061352f85828601613295565b925050602061354085828601613109565b9150509250929050565b6000806040838503121561355d57600080fd5b600061356b85828601613295565b925050602061357c85828601613295565b9150509250929050565b60006135928383613a04565b60608301905092915050565b60006135aa8383613a46565b905092915050565b60006135be8383613bc9565b905092915050565b60006135d28383613caa565b60208301905092915050565b6135e7816143a5565b82525050565b6135f681614393565b82525050565b61360581614393565b82525050565b600061361682614191565b61362081856141fc565b935061362b83614151565b8060005b8381101561365c5781516136438882613586565b975061364e836141c8565b92505060018101905061362f565b5085935050505092915050565b60006136748261419c565b61367e818561420d565b93508360208202850161369085614161565b8060005b858110156136cc57848403895281516136ad858261359e565b94506136b8836141d5565b925060208a01995050600181019050613694565b50829750879550505050505092915050565b60006136e9826141a7565b6136f3818561421e565b93508360208202850161370585614171565b8060005b85811015613741578484038952815161372285826135b2565b945061372d836141e2565b925060208a01995050600181019050613709565b50829750879550505050505092915050565b600061375e826141b2565b613768818561422f565b935061377383614181565b8060005b838110156137a457815161378b88826135c6565b9750613796836141ef565b925050600181019050613777565b5085935050505092915050565b6137ba816143b7565b82525050565b6137c9816143b7565b82525050565b6137d8816143b7565b82525050565b6137e7816143b7565b82525050565b60006137f8826141bd565b6138028185614240565b93506138128185602086016143fc565b61381b816145c8565b840191505092915050565b6000613831826141bd565b61383b8185614251565b935061384b8185602086016143fc565b613854816145c8565b840191505092915050565b600061386a826141bd565b6138748185614262565b93506138848185602086016143fc565b61388d816145c8565b840191505092915050565b60006138a3826141bd565b6138ad8185614273565b93506138bd8185602086016143fc565b80840191505092915050565b60006138d6600383614251565b91506138e1826145d9565b602082019050919050565b60006138f9600383614251565b915061390482614602565b602082019050919050565b600061391c600383614251565b91506139278261462b565b602082019050919050565b600061393f600383614251565b915061394a82614654565b602082019050919050565b6000613962600383614251565b915061396d8261467d565b602082019050919050565b6000613985600383614251565b9150613990826146a6565b602082019050919050565b60006139a8601583614251565b91506139b3826146cf565b602082019050919050565b60006139cb600383614251565b91506139d6826146f8565b602082019050919050565b60006139ee600383614251565b91506139f982614721565b602082019050919050565b606082016000820151613a1a6000850182613caa565b506020820151613a2d60208501826135ed565b506040820151613a406040850182613caa565b50505050565b600061010083016000830151613a5f6000860182613caa565b5060208301518482036020860152613a7782826137ed565b91505060408301518482036040860152613a9182826137ed565b91505060608301518482036060860152613aab82826137ed565b9150506080830151613ac06080860182613caa565b5060a0830151613ad360a08601826137b1565b5060c0830151613ae660c08601826137b1565b5060e0830151613af960e08601826137b1565b508091505092915050565b600061010083016000830151613b1d6000860182613cd7565b5060208301518482036020860152613b35828261385f565b91505060408301518482036040860152613b4f828261385f565b91505060608301518482036060860152613b69828261385f565b9150506080830151613b7e6080860182613cd7565b5060a0830151613b9160a08601826137de565b5060c0830151613ba460c08601826137de565b5060e0830151613bb760e08601826137de565b508091505092915050565b8082525050565b600061014083016000830151613be26000860182613caa565b5060208301518482036020860152613bfa8282613753565b91505060408301518482036040860152613c148282613753565b9150506060830151613c296060860182613caa565b506080830151613c3c60808601826137b1565b5060a0830151613c4f60a08601826135ed565b5060c0830151613c6260c0860182613caa565b5060e0830151613c7560e08601826137b1565b50610100830151613c8a6101008601826135ed565b50610120830151613c9f610120860182613caa565b508091505092915050565b613cb3816143e3565b82525050565b613cc2816143e3565b82525050565b613cd1816143e3565b82525050565b613ce0816143e3565b82525050565b6000613cf28284613898565b915081905092915050565b6000602082019050613d1260008301846135de565b92915050565b60006020820190508181036000830152613d32818461360b565b905092915050565b60006020820190508181036000830152613d548184613669565b905092915050565b60006020820190508181036000830152613d7681846136de565b905092915050565b60006020820190508181036000830152613d988184613826565b905092915050565b60006020820190508181036000830152613db9816138c9565b9050919050565b60006020820190508181036000830152613dd9816138ec565b9050919050565b60006020820190508181036000830152613df98161390f565b9050919050565b60006020820190508181036000830152613e1981613932565b9050919050565b60006020820190508181036000830152613e3981613955565b9050919050565b60006020820190508181036000830152613e5981613978565b9050919050565b60006020820190508181036000830152613e798161399b565b9050919050565b60006020820190508181036000830152613e99816139be565b9050919050565b60006020820190508181036000830152613eb9816139e1565b9050919050565b6000602082019050613ed56000830184613bc2565b92915050565b6000604082019050613ef06000830185613bc2565b8181036020830152613f028184613b04565b90509392505050565b6000604082019050613f206000830185613bc2565b613f2d6020830184613cc8565b9392505050565b6000606082019050613f496000830186613bc2565b613f566020830185613cc8565b613f6360408301846137cf565b949350505050565b6000602082019050613f806000830184613cb9565b92915050565b6000606082019050613f9b6000830186613cb9565b613fa860208301856135fc565b613fb56040830184613cb9565b949350505050565b600060a082019050613fd26000830188613cb9565b8181036020830152613fe48187613826565b90508181036040830152613ff88186613826565b9050818103606083015261400c8185613826565b905061401b6080830184613cb9565b9695505050505050565b60006101008201905061403b600083018b613cb9565b614048602083018a613cb9565b61405560408301896137c0565b61406260608301886135fc565b61406f6080830187613cb9565b61407c60a08301866137c0565b61408960c08301856135fc565b61409660e0830184613cb9565b9998505050505050505050565b60006140ad6140be565b90506140b98282614461565b919050565b6000604051905090565b600067ffffffffffffffff8211156140e3576140e2614599565b5b602082029050602081019050919050565b600067ffffffffffffffff82111561410f5761410e614599565b5b602082029050602081019050919050565b600067ffffffffffffffff82111561413b5761413a614599565b5b614144826145c8565b9050602081019050919050565b6000819050602082019050919050565b6000819050602082019050919050565b6000819050602082019050919050565b6000819050602082019050919050565b600081519050919050565b600081519050919050565b600081519050919050565b600081519050919050565b600081519050919050565b6000602082019050919050565b6000602082019050919050565b6000602082019050919050565b6000602082019050919050565b600082825260208201905092915050565b600082825260208201905092915050565b600082825260208201905092915050565b600082825260208201905092915050565b600082825260208201905092915050565b600082825260208201905092915050565b600082825260208201905092915050565b600081905092915050565b6000614289826143e3565b9150614294836143e3565b9250827fffffffffffffffffffffffffffffffffffffffffffffffffffffffffffffffff038211156142c9576142c861450c565b5b828201905092915050565b60006142df826143e3565b91506142ea836143e3565b9250826142fa576142f961453b565b5b828204905092915050565b6000614310826143e3565b915061431b836143e3565b9250817fffffffffffffffffffffffffffffffffffffffffffffffffffffffffffffffff04831182151516156143545761435361450c565b5b828202905092915050565b600061436a826143e3565b9150614375836143e3565b9250828210156143885761438761450c565b5b828203905092915050565b600061439e826143c3565b9050919050565b60006143b0826143c3565b9050919050565b60008115159050919050565b600073ffffffffffffffffffffffffffffffffffffffff82169050919050565b6000819050919050565b82818337600083830152505050565b60005b8381101561441a5780820151818401526020810190506143ff565b83811115614429576000848401525b50505050565b6000600282049050600182168061444757607f821691505b6020821081141561445b5761445a61456a565b5b50919050565b61446a826145c8565b810181811067ffffffffffffffff8211171561448957614488614599565b5b80604052505050565b600061449d826143e3565b91507fffffffffffffffffffffffffffffffffffffffffffffffffffffffffffffffff8214156144d0576144cf61450c565b5b600182019050919050565b60006144e6826143e3565b91506144f1836143e3565b9250826145015761450061453b565b5b828206905092915050565b7f4e487b7100000000000000000000000000000000000000000000000000000000600052601160045260246000fd5b7f4e487b7100000000000000000000000000000000000000000000000000000000600052601260045260246000fd5b7f4e487b7100000000000000000000000000000000000000000000000000000000600052602260045260246000fd5b7f4e487b7100000000000000000000000000000000000000000000000000000000600052604160045260246000fd5b6000601f19601f8301169050919050565b7f4f4f300000000000000000000000000000000000000000000000000000000000600082015250565b7f5041310000000000000000000000000000000000000000000000000000000000600082015250565b7f4d54310000000000000000000000000000000000000000000000000000000000600082015250565b7f5041300000000000000000000000000000000000000000000000000000000000600082015250565b7f4752300000000000000000000000000000000000000000000000000000000000600082015250565b7f5041320000000000000000000000000000000000000000000000000000000000600082015250565b7f53656e646572206d75737420626520636c69656e740000000000000000000000600082015250565b7f4d54300000000000000000000000000000000000000000000000000000000000600082015250565b7f4f47300000000000000000000000000000000000000000000000000000000000600082015250565b61475381614393565b811461475e57600080fd5b50565b61476a816143b7565b811461477557600080fd5b50565b614781816143e3565b811461478c57600080fd5b5056fea2646970667358221220e67bbd3e17e0c2a53cefc12937a3bc39805affd1921ebbdd48e90bdc754b56ba64736f6c63430008040033",
  "linkReferences": {
    "contracts/library/Catalog.sol": {
      "Catalog": [
        {
          "length": 20,
          "start": 5184
        },
        {
          "length": 20,
          "start": 6100
        },
        {
          "length": 20,
          "start": 6565
        },
        {
          "length": 20,
          "start": 12502
        }
      ]
    }
  },
  "deployedLinkReferences": {
    "contracts/library/Catalog.sol": {
      "Catalog": [
        {
          "length": 20,
          "start": 3782
        },
        {
          "length": 20,
          "start": 4698
        },
        {
          "length": 20,
          "start": 5163
        },
        {
          "length": 20,
          "start": 11100
        }
      ]
    }
  }
}