{
  "_format": "hh-sol-artifact-1",
  "contractName": "Shop",
  "sourceName": "contracts/Shop.sol",
  "abi": [
    {
      "anonymous": false,
      "inputs": [
        {
          "indexed": false,
          "internalType": "uint256",
          "name": "itemId",
          "type": "uint256"
        },
        {
          "indexed": false,
          "internalType": "uint256",
          "name": "price",
          "type": "uint256"
        }
      ],
      "name": "ItemCreated",
      "type": "event"
    },
    {
      "inputs": [],
      "name": "_transactionsCount",
      "outputs": [
        {
          "internalType": "uint256",
          "name": "_value",
          "type": "uint256"
        }
      ],
      "stateMutability": "view",
      "type": "function"
    },
    {
      "inputs": [
        {
          "internalType": "address",
          "name": "",
          "type": "address"
        }
      ],
      "name": "affiliates",
      "outputs": [
        {
          "internalType": "uint256",
          "name": "percentage",
          "type": "uint256"
        },
        {
          "internalType": "address",
          "name": "affAddr",
          "type": "address"
        },
        {
          "internalType": "uint256",
          "name": "id",
          "type": "uint256"
        }
      ],
      "stateMutability": "view",
      "type": "function"
    },
    {
      "inputs": [
        {
          "internalType": "address",
          "name": "affAddr",
          "type": "address"
        }
      ],
      "name": "approveAffiliate",
      "outputs": [],
      "stateMutability": "nonpayable",
      "type": "function"
    },
    {
      "inputs": [
        {
          "internalType": "uint256",
          "name": "",
          "type": "uint256"
        }
      ],
      "name": "approvedAffArr",
      "outputs": [
        {
          "internalType": "uint256",
          "name": "percentage",
          "type": "uint256"
        },
        {
          "internalType": "address",
          "name": "affAddr",
          "type": "address"
        },
        {
          "internalType": "uint256",
          "name": "id",
          "type": "uint256"
        }
      ],
      "stateMutability": "view",
      "type": "function"
    },
    {
      "inputs": [
        {
          "internalType": "address",
          "name": "affAddr",
          "type": "address"
        }
      ],
      "name": "cancelAffiliate",
      "outputs": [],
      "stateMutability": "nonpayable",
      "type": "function"
    },
    {
      "inputs": [
        {
          "internalType": "uint256",
          "name": "_price",
          "type": "uint256"
        },
        {
          "internalType": "string",
          "name": "_filePath",
          "type": "string"
        },
        {
          "internalType": "string",
          "name": "_tokenURI",
          "type": "string"
        }
      ],
      "name": "createItem",
      "outputs": [],
      "stateMutability": "payable",
      "type": "function"
    },
    {
      "inputs": [
        {
          "internalType": "uint256",
          "name": "_id",
          "type": "uint256"
        }
      ],
      "name": "deleteItem",
      "outputs": [],
      "stateMutability": "nonpayable",
      "type": "function"
    },
    {
      "inputs": [],
      "name": "fetchCatalogItems",
      "outputs": [
        {
          "components": [
            {
              "internalType": "uint256",
              "name": "itemId",
              "type": "uint256"
            },
            {
              "internalType": "uint256",
              "name": "price",
              "type": "uint256"
            },
            {
              "internalType": "bool",
              "name": "isDeleted",
              "type": "bool"
            }
          ],
          "internalType": "struct Item[]",
          "name": "",
          "type": "tuple[]"
        }
      ],
      "stateMutability": "view",
      "type": "function"
    },
    {
      "inputs": [
        {
          "internalType": "uint256",
          "name": "_itemId",
          "type": "uint256"
        }
      ],
      "name": "fetchItemLink",
      "outputs": [
        {
          "internalType": "string",
          "name": "",
          "type": "string"
        }
      ],
      "stateMutability": "view",
      "type": "function"
    },
    {
      "inputs": [],
      "name": "fetchTransactions",
      "outputs": [
        {
          "components": [
            {
              "internalType": "uint256",
              "name": "transId",
              "type": "uint256"
            },
            {
              "internalType": "uint256[]",
              "name": "itemIds",
              "type": "uint256[]"
            },
            {
              "internalType": "uint256[]",
              "name": "itemQty",
              "type": "uint256[]"
            },
            {
              "internalType": "uint256",
              "name": "total",
              "type": "uint256"
            },
            {
              "internalType": "bool",
              "name": "isValid",
              "type": "bool"
            },
            {
              "internalType": "address",
              "name": "client",
              "type": "address"
            },
            {
              "internalType": "uint256",
              "name": "review",
              "type": "uint256"
            },
            {
              "internalType": "bool",
              "name": "isReviewed",
              "type": "bool"
            }
          ],
          "internalType": "struct Shop.Trans[]",
          "name": "",
          "type": "tuple[]"
        }
      ],
      "stateMutability": "view",
      "type": "function"
    },
    {
      "inputs": [],
      "name": "freeTransactions",
      "outputs": [
        {
          "internalType": "uint256",
          "name": "",
          "type": "uint256"
        }
      ],
      "stateMutability": "view",
      "type": "function"
    },
    {
      "inputs": [],
      "name": "getApprovedAffiliates",
      "outputs": [
        {
          "components": [
            {
              "internalType": "uint256",
              "name": "percentage",
              "type": "uint256"
            },
            {
              "internalType": "address",
              "name": "affAddr",
              "type": "address"
            },
            {
              "internalType": "uint256",
              "name": "id",
              "type": "uint256"
            }
          ],
          "internalType": "struct Shop.Affiliate[]",
          "name": "",
          "type": "tuple[]"
        }
      ],
      "stateMutability": "view",
      "type": "function"
    },
    {
      "inputs": [],
      "name": "getProposedAffiliates",
      "outputs": [
        {
          "components": [
            {
              "internalType": "uint256",
              "name": "percentage",
              "type": "uint256"
            },
            {
              "internalType": "address",
              "name": "affAddr",
              "type": "address"
            },
            {
              "internalType": "uint256",
              "name": "id",
              "type": "uint256"
            }
          ],
          "internalType": "struct Shop.Affiliate[]",
          "name": "",
          "type": "tuple[]"
        }
      ],
      "stateMutability": "view",
      "type": "function"
    },
    {
      "inputs": [
        {
          "internalType": "uint256",
          "name": "stars",
          "type": "uint256"
        },
        {
          "internalType": "uint256",
          "name": "transId",
          "type": "uint256"
        }
      ],
      "name": "giveReview",
      "outputs": [],
      "stateMutability": "nonpayable",
      "type": "function"
    },
    {
      "inputs": [],
      "name": "governor",
      "outputs": [
        {
          "internalType": "address payable",
          "name": "",
          "type": "address"
        }
      ],
      "stateMutability": "view",
      "type": "function"
    },
    {
      "inputs": [],
      "name": "image",
      "outputs": [
        {
          "internalType": "string",
          "name": "",
          "type": "string"
        }
      ],
      "stateMutability": "view",
      "type": "function"
    },
    {
      "inputs": [
        {
          "internalType": "address",
          "name": "_owner",
          "type": "address"
        },
        {
          "internalType": "string",
          "name": "_name",
          "type": "string"
        },
        {
          "internalType": "string",
          "name": "_image",
          "type": "string"
        },
        {
          "internalType": "string",
          "name": "_tags",
          "type": "string"
        },
        {
          "internalType": "uint256",
          "name": "_shopId",
          "type": "uint256"
        },
        {
          "internalType": "address",
          "name": "_governor",
          "type": "address"
        },
        {
          "internalType": "address",
          "name": "_nftAddress",
          "type": "address"
        }
      ],
      "name": "initialize",
      "outputs": [],
      "stateMutability": "nonpayable",
      "type": "function"
    },
    {
      "inputs": [
        {
          "internalType": "uint256[]",
          "name": "itemIds",
          "type": "uint256[]"
        },
        {
          "internalType": "uint256[]",
          "name": "itemQty",
          "type": "uint256[]"
        },
        {
          "internalType": "address",
          "name": "affAddr",
          "type": "address"
        }
      ],
      "name": "makeTransaction",
      "outputs": [
        {
          "internalType": "uint256",
          "name": "transactionId",
          "type": "uint256"
        }
      ],
      "stateMutability": "payable",
      "type": "function"
    },
    {
      "inputs": [],
      "name": "name",
      "outputs": [
        {
          "internalType": "string",
          "name": "",
          "type": "string"
        }
      ],
      "stateMutability": "view",
      "type": "function"
    },
    {
      "inputs": [],
      "name": "nftAddress",
      "outputs": [
        {
          "internalType": "address payable",
          "name": "",
          "type": "address"
        }
      ],
      "stateMutability": "view",
      "type": "function"
    },
    {
      "inputs": [],
      "name": "owner",
      "outputs": [
        {
          "internalType": "address payable",
          "name": "",
          "type": "address"
        }
      ],
      "stateMutability": "view",
      "type": "function"
    },
    {
      "inputs": [
        {
          "internalType": "uint256",
          "name": "percentage",
          "type": "uint256"
        }
      ],
      "name": "proposeAffiliate",
      "outputs": [],
      "stateMutability": "nonpayable",
      "type": "function"
    },
    {
      "inputs": [
        {
          "internalType": "uint256",
          "name": "",
          "type": "uint256"
        }
      ],
      "name": "proposedAffArr",
      "outputs": [
        {
          "internalType": "uint256",
          "name": "percentage",
          "type": "uint256"
        },
        {
          "internalType": "address",
          "name": "affAddr",
          "type": "address"
        },
        {
          "internalType": "uint256",
          "name": "id",
          "type": "uint256"
        }
      ],
      "stateMutability": "view",
      "type": "function"
    },
    {
      "inputs": [
        {
          "internalType": "address",
          "name": "",
          "type": "address"
        }
      ],
      "name": "proposedAffiliates",
      "outputs": [
        {
          "internalType": "uint256",
          "name": "percentage",
          "type": "uint256"
        },
        {
          "internalType": "address",
          "name": "affAddr",
          "type": "address"
        },
        {
          "internalType": "uint256",
          "name": "id",
          "type": "uint256"
        }
      ],
      "stateMutability": "view",
      "type": "function"
    },
    {
      "inputs": [],
      "name": "selfDestruct",
      "outputs": [],
      "stateMutability": "nonpayable",
      "type": "function"
    },
    {
      "inputs": [
        {
          "internalType": "uint256",
          "name": "_freeTransactions",
          "type": "uint256"
        }
      ],
      "name": "setFreeTransactions",
      "outputs": [],
      "stateMutability": "nonpayable",
      "type": "function"
    },
    {
      "inputs": [
        {
          "internalType": "uint256",
          "name": "_itemId",
          "type": "uint256"
        },
        {
          "internalType": "string",
          "name": "_fileLink",
          "type": "string"
        }
      ],
      "name": "setItemLink",
      "outputs": [],
      "stateMutability": "nonpayable",
      "type": "function"
    },
    {
      "inputs": [
        {
          "internalType": "string",
          "name": "_tags",
          "type": "string"
        }
      ],
      "name": "setTags",
      "outputs": [],
      "stateMutability": "nonpayable",
      "type": "function"
    },
    {
      "inputs": [],
      "name": "shopId",
      "outputs": [
        {
          "internalType": "uint256",
          "name": "",
          "type": "uint256"
        }
      ],
      "stateMutability": "view",
      "type": "function"
    },
    {
      "inputs": [],
      "name": "tags",
      "outputs": [
        {
          "internalType": "string",
          "name": "",
          "type": "string"
        }
      ],
      "stateMutability": "view",
      "type": "function"
    },
    {
      "inputs": [
        {
          "internalType": "uint256",
          "name": "",
          "type": "uint256"
        }
      ],
      "name": "transactions",
      "outputs": [
        {
          "internalType": "uint256",
          "name": "transId",
          "type": "uint256"
        },
        {
          "internalType": "uint256",
          "name": "total",
          "type": "uint256"
        },
        {
          "internalType": "bool",
          "name": "isValid",
          "type": "bool"
        },
        {
          "internalType": "address",
          "name": "client",
          "type": "address"
        },
        {
          "internalType": "uint256",
          "name": "review",
          "type": "uint256"
        },
        {
          "internalType": "bool",
          "name": "isReviewed",
          "type": "bool"
        }
      ],
      "stateMutability": "view",
      "type": "function"
    }
  ],
  "bytecode": "0x60806040526103e86007556000600860006101000a81548160ff02191690831515021790555034801561003157600080fd5b50614632806100416000396000f3fe6080604052600436106101d85760003560e01c80638b4989af11610102578063dc67057a11610095578063f0547bc811610064578063f0547bc8146106b3578063f3ccaac0146106dc578063f5b89aac14610707578063fa4fee9814610732576101d8565b8063dc67057a14610606578063de6b7e0914610622578063e447ecef1461064d578063ec4fe49014610676576101d8565b80639cb8a26a116100d15780639cb8a26a1461056e578063a4b78a5d14610585578063c79c6dba146105b0578063cdd57a3a146105db576101d8565b80638b4989af146104a85780638cf27994146104d15780638da5cb5b146105015780639ace38c21461052c576101d8565b8063309c4e1d1161017a5780635f6ad596116101495780635f6ad596146103ee578063654fc8331461041757806376aadd73146104405780638013f0b614610469576101d8565b8063309c4e1d1461031a57806330ac4234146103455780634f51e294146103845780635bf8633a146103c3576101d8565b80630c340a24116101b65780630c340a24146102705780630cc9dc7d1461029b57806319f112e2146102c65780632477eaae146102ef576101d8565b806306fdde03146101dd578063070c24b014610208578063090567d214610247575b600080fd5b3480156101e957600080fd5b506101f261075b565b6040516101ff9190613c33565b60405180910390f35b34801561021457600080fd5b5061022f600480360381019061022a91906131d9565b6107e9565b60405161023e93929190613e1d565b60405180910390f35b34801561025357600080fd5b5061026e600480360381019061026991906133e9565b610833565b005b34801561027c57600080fd5b506102856108cd565b6040516102929190613b44565b60405180910390f35b3480156102a757600080fd5b506102b06108f3565b6040516102bd9190613e02565b60405180910390f35b3480156102d257600080fd5b506102ed60048036038101906102e891906133a8565b6108f9565b005b3480156102fb57600080fd5b506103046109ef565b6040516103119190613c11565b60405180910390f35b34801561032657600080fd5b5061032f610ba9565b60405161033c9190613bcd565b60405180910390f35b34801561035157600080fd5b5061036c600480360381019061036791906133e9565b610c72565b60405161037b93929190613e1d565b60405180910390f35b34801561039057600080fd5b506103ab60048036038101906103a691906131d9565b610ccc565b6040516103ba93929190613e1d565b60405180910390f35b3480156103cf57600080fd5b506103d8610d16565b6040516103e59190613b44565b60405180910390f35b3480156103fa57600080fd5b50610415600480360381019061041091906133e9565b610d3c565b005b34801561042357600080fd5b5061043e600480360381019061043991906133e9565b610fc0565b005b34801561044c57600080fd5b50610467600480360381019061046291906131d9565b6110bf565b005b34801561047557600080fd5b50610490600480360381019061048b91906133e9565b61144d565b60405161049f93929190613e1d565b60405180910390f35b3480156104b457600080fd5b506104cf60048036038101906104ca919061350e565b6114a7565b005b6104eb60048036038101906104e69190613329565b611638565b6040516104f89190613e02565b60405180910390f35b34801561050d57600080fd5b50610516611cf3565b6040516105239190613b44565b60405180910390f35b34801561053857600080fd5b50610553600480360381019061054e91906133e9565b611d19565b60405161056596959493929190613ead565b60405180910390f35b34801561057a57600080fd5b50610583611d9f565b005b34801561059157600080fd5b5061059a611e6a565b6040516105a79190613e02565b60405180910390f35b3480156105bc57600080fd5b506105c5611e70565b6040516105d29190613bcd565b60405180910390f35b3480156105e757600080fd5b506105f0611f39565b6040516105fd9190613e02565b60405180910390f35b610620600480360381019061061b919061348f565b611f45565b005b34801561062e57600080fd5b5061063761216c565b6040516106449190613c33565b60405180910390f35b34801561065957600080fd5b50610674600480360381019061066f919061343b565b6121fa565b005b34801561068257600080fd5b5061069d600480360381019061069891906133e9565b6122b6565b6040516106aa9190613c33565b60405180910390f35b3480156106bf57600080fd5b506106da60048036038101906106d591906131d9565b612449565b005b3480156106e857600080fd5b506106f1612930565b6040516106fe9190613c33565b60405180910390f35b34801561071357600080fd5b5061071c6129be565b6040516107299190613bef565b60405180910390f35b34801561073e57600080fd5b5061075960048036038101906107549190613202565b612a54565b005b600080546107689061427e565b80601f01602080910402602001604051908101604052809291908181526020018280546107949061427e565b80156107e15780601f106107b6576101008083540402835291602001916107e1565b820191906000526020600020905b8154815290600101906020018083116107c457829003601f168201915b505050505081565b60106020528060005260406000206000915090508060000154908060010160009054906101000a900473ffffffffffffffffffffffffffffffffffffffff16908060020154905083565b600560009054906101000a900473ffffffffffffffffffffffffffffffffffffffff1673ffffffffffffffffffffffffffffffffffffffff163373ffffffffffffffffffffffffffffffffffffffff16146108c3576040517f08c379a00000000000000000000000000000000000000000000000000000000081526004016108ba90613d55565b60405180910390fd5b8060078190555050565b600560009054906101000a900473ffffffffffffffffffffffffffffffffffffffff1681565b60075481565b600460009054906101000a900473ffffffffffffffffffffffffffffffffffffffff1673ffffffffffffffffffffffffffffffffffffffff163373ffffffffffffffffffffffffffffffffffffffff1614610989576040517f08c379a000000000000000000000000000000000000000000000000000000000815260040161098090613c75565b60405180910390fd5b61011861099582612c29565b106109d5576040517f08c379a00000000000000000000000000000000000000000000000000000000081526004016109cc90613c55565b60405180910390fd5b80600390805190602001906109eb929190612e6a565b5050565b60606013805480602002602001604051908101604052809291908181526020016000905b82821015610ba05783829060005260206000209060070201604051806101000160405290816000820154815260200160018201805480602002602001604051908101604052809291908181526020018280548015610a9057602002820191906000526020600020905b815481526020019060010190808311610a7c575b5050505050815260200160028201805480602002602001604051908101604052809291908181526020018280548015610ae857602002820191906000526020600020905b815481526020019060010190808311610ad4575b50505050508152602001600382015481526020016004820160009054906101000a900460ff161515151581526020016004820160019054906101000a900473ffffffffffffffffffffffffffffffffffffffff1673ffffffffffffffffffffffffffffffffffffffff1673ffffffffffffffffffffffffffffffffffffffff168152602001600582015481526020016006820160009054906101000a900460ff16151515158152505081526020019060010190610a13565b50505050905090565b6060600f805480602002602001604051908101604052809291908181526020016000905b82821015610c695783829060005260206000209060030201604051806060016040529081600082015481526020016001820160009054906101000a900473ffffffffffffffffffffffffffffffffffffffff1673ffffffffffffffffffffffffffffffffffffffff1673ffffffffffffffffffffffffffffffffffffffff16815260200160028201548152505081526020019060010190610bcd565b50505050905090565b600f8181548110610c8257600080fd5b90600052602060002090600302016000915090508060000154908060010160009054906101000a900473ffffffffffffffffffffffffffffffffffffffff16908060020154905083565b60116020528060005260406000206000915090508060000154908060010160009054906101000a900473ffffffffffffffffffffffffffffffffffffffff16908060020154905083565b600660009054906101000a900473ffffffffffffffffffffffffffffffffffffffff1681565b6000601160003373ffffffffffffffffffffffffffffffffffffffff1673ffffffffffffffffffffffffffffffffffffffff1681526020019081526020016000206000015414610dc1576040517f08c379a0000000000000000000000000000000000000000000000000000000008152600401610db890613cd5565b60405180910390fd5b60008111610e04576040517f08c379a0000000000000000000000000000000000000000000000000000000008152600401610dfb90613c95565b60405180910390fd5b60648110610e47576040517f08c379a0000000000000000000000000000000000000000000000000000000008152600401610e3e90613d15565b60405180910390fd5b6000610e53600b612e04565b9050600060405180606001604052808481526020013373ffffffffffffffffffffffffffffffffffffffff16815260200183815250905080601060003373ffffffffffffffffffffffffffffffffffffffff1673ffffffffffffffffffffffffffffffffffffffff1681526020019081526020016000206000820151816000015560208201518160010160006101000a81548173ffffffffffffffffffffffffffffffffffffffff021916908373ffffffffffffffffffffffffffffffffffffffff16021790555060408201518160020155905050600e8190806001815401808255809150506001900390600052602060002090600302016000909190919091506000820151816000015560208201518160010160006101000a81548173ffffffffffffffffffffffffffffffffffffffff021916908373ffffffffffffffffffffffffffffffffffffffff160217905550604082015181600201555050610fbb600b612e12565b505050565b600460009054906101000a900473ffffffffffffffffffffffffffffffffffffffff1673ffffffffffffffffffffffffffffffffffffffff163373ffffffffffffffffffffffffffffffffffffffff1614611050576040517f08c379a000000000000000000000000000000000000000000000000000000000815260040161104790613c75565b60405180910390fd5b600973__$2504da76dd911be12547f2608c53b8702a$__63ef57f72c9091836040518363ffffffff1660e01b815260040161108c929190613dd9565b60006040518083038186803b1580156110a457600080fd5b505af41580156110b8573d6000803e3d6000fd5b5050505050565b600460009054906101000a900473ffffffffffffffffffffffffffffffffffffffff1673ffffffffffffffffffffffffffffffffffffffff163373ffffffffffffffffffffffffffffffffffffffff161461114f576040517f08c379a000000000000000000000000000000000000000000000000000000000815260040161114690613c75565b60405180910390fd5b60005b600f805490508110156113d0578173ffffffffffffffffffffffffffffffffffffffff16600f82815481106111b0577f4e487b7100000000000000000000000000000000000000000000000000000000600052603260045260246000fd5b906000526020600020906003020160010160009054906101000a900473ffffffffffffffffffffffffffffffffffffffff1673ffffffffffffffffffffffffffffffffffffffff1614156113bd57600f8181548110611238577f4e487b7100000000000000000000000000000000000000000000000000000000600052603260045260246000fd5b90600052602060002090600302016000808201600090556001820160006101000a81549073ffffffffffffffffffffffffffffffffffffffff0219169055600282016000905550506001600f8054905061129291906141ae565b81146113b857600f6001600f805490506112ac91906141ae565b815481106112e3577f4e487b7100000000000000000000000000000000000000000000000000000000600052603260045260246000fd5b9060005260206000209060030201600f828154811061132b577f4e487b7100000000000000000000000000000000000000000000000000000000600052603260045260246000fd5b9060005260206000209060030201600082015481600001556001820160009054906101000a900473ffffffffffffffffffffffffffffffffffffffff168160010160006101000a81548173ffffffffffffffffffffffffffffffffffffffff021916908373ffffffffffffffffffffffffffffffffffffffff160217905550600282015481600201559050505b6113d0565b80806113c8906142e1565b915050611152565b50601160008273ffffffffffffffffffffffffffffffffffffffff1673ffffffffffffffffffffffffffffffffffffffff1681526020019081526020016000206000808201600090556001820160006101000a81549073ffffffffffffffffffffffffffffffffffffffff02191690556002820160009055505050565b600e818154811061145d57600080fd5b90600052602060002090600302016000915090508060000154908060010160009054906101000a900473ffffffffffffffffffffffffffffffffffffffff16908060020154905083565b3373ffffffffffffffffffffffffffffffffffffffff16601382815481106114f8577f4e487b7100000000000000000000000000000000000000000000000000000000600052603260045260246000fd5b906000526020600020906007020160040160019054906101000a900473ffffffffffffffffffffffffffffffffffffffff1673ffffffffffffffffffffffffffffffffffffffff1614611580576040517f08c379a000000000000000000000000000000000000000000000000000000000815260040161157790613cf5565b60405180910390fd5b81601382815481106115bb577f4e487b7100000000000000000000000000000000000000000000000000000000600052603260045260246000fd5b90600052602060002090600702016005018190555060016013828154811061160c577f4e487b7100000000000000000000000000000000000000000000000000000000600052603260045260246000fd5b906000526020600020906007020160060160006101000a81548160ff0219169083151502179055505050565b6000611642612ef0565b600073ffffffffffffffffffffffffffffffffffffffff168373ffffffffffffffffffffffffffffffffffffffff16146117a157601160008473ffffffffffffffffffffffffffffffffffffffff1673ffffffffffffffffffffffffffffffffffffffff168152602001908152602001600020604051806060016040529081600082015481526020016001820160009054906101000a900473ffffffffffffffffffffffffffffffffffffffff1673ffffffffffffffffffffffffffffffffffffffff1673ffffffffffffffffffffffffffffffffffffffff1681526020016002820154815250509050600073ffffffffffffffffffffffffffffffffffffffff16816020015173ffffffffffffffffffffffffffffffffffffffff1614156117a0576040517f08c379a000000000000000000000000000000000000000000000000000000000815260040161179790613d35565b60405180910390fd5b5b6000808087519050600091505b808210156118b0578682815181106117ef577f4e487b7100000000000000000000000000000000000000000000000000000000600052603260045260246000fd5b60200260200101516009600001898481518110611835577f4e487b7100000000000000000000000000000000000000000000000000000000600052603260045260246000fd5b602002602001015181548110611874577f4e487b7100000000000000000000000000000000000000000000000000000000600052603260045260246000fd5b9060005260206000209060030201600101546118909190614154565b8361189b91906140cd565b925081806118a8906142e1565b9250506117ae565b823410156118f3576040517f08c379a00000000000000000000000000000000000000000000000000000000081526004016118ea90613cb5565b60405180910390fd5b600660009054906101000a900473ffffffffffffffffffffffffffffffffffffffff1673ffffffffffffffffffffffffffffffffffffffff16634cfc8ed7338a8a6040518463ffffffff1660e01b815260040161195293929190613b5f565b600060405180830381600087803b15801561196c57600080fd5b505af1158015611980573d6000803e3d6000fd5b5050505061198e600d612e12565b60008060075461199e600d612e04565b11156119bb576119b8606486612e2890919063ffffffff16565b90505b600073ffffffffffffffffffffffffffffffffffffffff168873ffffffffffffffffffffffffffffffffffffffff1614611a6757611a198660000151611a0b606488612e2890919063ffffffff16565b612e3e90919063ffffffff16565b9150856020015173ffffffffffffffffffffffffffffffffffffffff166108fc839081150290604051600060405180830381858888f19350505050158015611a65573d6000803e3d6000fd5b505b600460009054906101000a900473ffffffffffffffffffffffffffffffffffffffff1673ffffffffffffffffffffffffffffffffffffffff166108fc611ac884611aba858a612e5490919063ffffffff16565b612e5490919063ffffffff16565b9081150290604051600060405180830381858888f19350505050158015611af3573d6000803e3d6000fd5b506000811115611b6757600560009054906101000a900473ffffffffffffffffffffffffffffffffffffffff1673ffffffffffffffffffffffffffffffffffffffff166108fc829081150290604051600060405180830381858888f19350505050158015611b65573d6000803e3d6000fd5b505b6000611b73600c612e04565b905060136040518061010001604052808381526020018d81526020018c81526020018881526020016001151581526020013373ffffffffffffffffffffffffffffffffffffffff16815260200160008152602001600015158152509080600181540180825580915050600190039060005260206000209060070201600090919091909150600082015181600001556020820151816001019080519060200190611c1d929190612f27565b506040820151816002019080519060200190611c3a929190612f27565b506060820151816003015560808201518160040160006101000a81548160ff02191690831515021790555060a08201518160040160016101000a81548173ffffffffffffffffffffffffffffffffffffffff021916908373ffffffffffffffffffffffffffffffffffffffff16021790555060c0820151816005015560e08201518160060160006101000a81548160ff0219169083151502179055505050611ce2600c612e12565b809750505050505050509392505050565b600460009054906101000a900473ffffffffffffffffffffffffffffffffffffffff1681565b60138181548110611d2957600080fd5b90600052602060002090600702016000915090508060000154908060030154908060040160009054906101000a900460ff16908060040160019054906101000a900473ffffffffffffffffffffffffffffffffffffffff16908060050154908060060160009054906101000a900460ff16905086565b600560009054906101000a900473ffffffffffffffffffffffffffffffffffffffff1673ffffffffffffffffffffffffffffffffffffffff163373ffffffffffffffffffffffffffffffffffffffff1614611e2f576040517f08c379a0000000000000000000000000000000000000000000000000000000008152600401611e2690613d55565b60405180910390fd5b600560009054906101000a900473ffffffffffffffffffffffffffffffffffffffff1673ffffffffffffffffffffffffffffffffffffffff16ff5b60015481565b6060600e805480602002602001604051908101604052809291908181526020016000905b82821015611f305783829060005260206000209060030201604051806060016040529081600082015481526020016001820160009054906101000a900473ffffffffffffffffffffffffffffffffffffffff1673ffffffffffffffffffffffffffffffffffffffff1673ffffffffffffffffffffffffffffffffffffffff16815260200160028201548152505081526020019060010190611e94565b50505050905090565b600d8060000154905081565b600460009054906101000a900473ffffffffffffffffffffffffffffffffffffffff1673ffffffffffffffffffffffffffffffffffffffff163373ffffffffffffffffffffffffffffffffffffffff1614611fd5576040517f08c379a0000000000000000000000000000000000000000000000000000000008152600401611fcc90613c75565b60405180910390fd5b6000611fe1600a612e04565b9050600660009054906101000a900473ffffffffffffffffffffffffffffffffffffffff1673ffffffffffffffffffffffffffffffffffffffff1663ba5a941482846040518363ffffffff1660e01b8152600401612040929190613e54565b600060405180830381600087803b15801561205a57600080fd5b505af115801561206e573d6000803e3d6000fd5b50505050600973__$2504da76dd911be12547f2608c53b8702a$__63fef3c5a390916040518060600160405280858152602001888152602001600015158152506040518363ffffffff1660e01b81526004016120cb929190613db0565b60006040518083038186803b1580156120e357600080fd5b505af41580156120f7573d6000803e3d6000fd5b5050505082601260008381526020019081526020016000209080519060200190612122929190612e6a565b5061212d600a612e12565b7f591fb83da607b2c6982a1348c1689d04071f4851678881f0a7dd64331770cf5c818560405161215e929190613e84565b60405180910390a150505050565b600380546121799061427e565b80601f01602080910402602001604051908101604052809291908181526020018280546121a59061427e565b80156121f25780601f106121c7576101008083540402835291602001916121f2565b820191906000526020600020905b8154815290600101906020018083116121d557829003601f168201915b505050505081565b600460009054906101000a900473ffffffffffffffffffffffffffffffffffffffff1673ffffffffffffffffffffffffffffffffffffffff163373ffffffffffffffffffffffffffffffffffffffff161461228a576040517f08c379a000000000000000000000000000000000000000000000000000000000815260040161228190613c75565b60405180910390fd5b806012600084815260200190815260200160002090805190602001906122b1929190612e6a565b505050565b60606000600660009054906101000a900473ffffffffffffffffffffffffffffffffffffffff1673ffffffffffffffffffffffffffffffffffffffff1662fdd58e33856040518363ffffffff1660e01b8152600401612316929190613ba4565b60206040518083038186803b15801561232e57600080fd5b505afa158015612342573d6000803e3d6000fd5b505050506040513d601f19601f820116820180604052508101906123669190613412565b116123a6576040517f08c379a000000000000000000000000000000000000000000000000000000000815260040161239d90613d55565b60405180910390fd5b6012600083815260200190815260200160002080546123c49061427e565b80601f01602080910402602001604051908101604052809291908181526020018280546123f09061427e565b801561243d5780601f106124125761010080835404028352916020019161243d565b820191906000526020600020905b81548152906001019060200180831161242057829003601f168201915b50505050509050919050565b600460009054906101000a900473ffffffffffffffffffffffffffffffffffffffff1673ffffffffffffffffffffffffffffffffffffffff163373ffffffffffffffffffffffffffffffffffffffff16146124d9576040517f08c379a00000000000000000000000000000000000000000000000000000000081526004016124d090613c75565b60405180910390fd5b601060008273ffffffffffffffffffffffffffffffffffffffff1673ffffffffffffffffffffffffffffffffffffffff168152602001908152602001600020601160008373ffffffffffffffffffffffffffffffffffffffff1673ffffffffffffffffffffffffffffffffffffffff168152602001908152602001600020600082015481600001556001820160009054906101000a900473ffffffffffffffffffffffffffffffffffffffff168160010160006101000a81548173ffffffffffffffffffffffffffffffffffffffff021916908373ffffffffffffffffffffffffffffffffffffffff160217905550600282015481600201559050506000601060008373ffffffffffffffffffffffffffffffffffffffff1673ffffffffffffffffffffffffffffffffffffffff168152602001908152602001600020600201549050600f601160008473ffffffffffffffffffffffffffffffffffffffff1673ffffffffffffffffffffffffffffffffffffffff1681526020019081526020016000209080600181540180825580915050600190039060005260206000209060030201600090919091909150600082015481600001556001820160009054906101000a900473ffffffffffffffffffffffffffffffffffffffff168160010160006101000a81548173ffffffffffffffffffffffffffffffffffffffff021916908373ffffffffffffffffffffffffffffffffffffffff160217905550600282015481600201555050600e818154811061273d577f4e487b7100000000000000000000000000000000000000000000000000000000600052603260045260246000fd5b90600052602060002090600302016000808201600090556001820160006101000a81549073ffffffffffffffffffffffffffffffffffffffff0219169055600282016000905550506000600e8054905011156128b357600e6001600e805490506127a791906141ae565b815481106127de577f4e487b7100000000000000000000000000000000000000000000000000000000600052603260045260246000fd5b9060005260206000209060030201600e8281548110612826577f4e487b7100000000000000000000000000000000000000000000000000000000600052603260045260246000fd5b9060005260206000209060030201600082015481600001556001820160009054906101000a900473ffffffffffffffffffffffffffffffffffffffff168160010160006101000a81548173ffffffffffffffffffffffffffffffffffffffff021916908373ffffffffffffffffffffffffffffffffffffffff160217905550600282015481600201559050505b601060008373ffffffffffffffffffffffffffffffffffffffff1673ffffffffffffffffffffffffffffffffffffffff1681526020019081526020016000206000808201600090556001820160006101000a81549073ffffffffffffffffffffffffffffffffffffffff0219169055600282016000905550505050565b6002805461293d9061427e565b80601f01602080910402602001604051908101604052809291908181526020018280546129699061427e565b80156129b65780601f1061298b576101008083540402835291602001916129b6565b820191906000526020600020905b81548152906001019060200180831161299957829003601f168201915b505050505081565b6060600973__$2504da76dd911be12547f2608c53b8702a$__6334871c0390916040518263ffffffff1660e01b81526004016129fa9190613d95565b60006040518083038186803b158015612a1257600080fd5b505af4158015612a26573d6000803e3d6000fd5b505050506040513d6000823e3d601f19601f82011682018060405250810190612a4f91906132e8565b905090565b60001515600860009054906101000a900460ff16151514612aaa576040517f08c379a0000000000000000000000000000000000000000000000000000000008152600401612aa190613d75565b60405180910390fd5b610118612ab685612c29565b10612af6576040517f08c379a0000000000000000000000000000000000000000000000000000000008152600401612aed90613c55565b60405180910390fd5b6001600860006101000a81548160ff02191690831515021790555086600460006101000a81548173ffffffffffffffffffffffffffffffffffffffff021916908373ffffffffffffffffffffffffffffffffffffffff1602179055508560009080519060200190612b68929190612e6a565b508460029080519060200190612b7f929190612e6a565b508360039080519060200190612b96929190612e6a565b508260018190555081600560006101000a81548173ffffffffffffffffffffffffffffffffffffffff021916908373ffffffffffffffffffffffffffffffffffffffff16021790555080600660006101000a81548173ffffffffffffffffffffffffffffffffffffffff021916908373ffffffffffffffffffffffffffffffffffffffff16021790555050505050505050565b60008060008084519050600092505b80821015612df9576000858381518110612c7b577f4e487b7100000000000000000000000000000000000000000000000000000000600052603260045260246000fd5b602001015160f81c60f81b9050608060f81b817effffffffffffffffffffffffffffffffffffffffffffffffffffffffffffff19161015612cca57600183612cc391906140cd565b9250612de5565b60e060f81b817effffffffffffffffffffffffffffffffffffffffffffffffffffffffffffff19161015612d0c57600283612d0591906140cd565b9250612de4565b60f060f81b817effffffffffffffffffffffffffffffffffffffffffffffffffffffffffffff19161015612d4e57600383612d4791906140cd565b9250612de3565b60f8801b817effffffffffffffffffffffffffffffffffffffffffffffffffffffffffffff19161015612d8f57600483612d8891906140cd565b9250612de2565b60fc60f81b817effffffffffffffffffffffffffffffffffffffffffffffffffffffffffffff19161015612dd157600583612dca91906140cd565b9250612de1565b600683612dde91906140cd565b92505b5b5b5b5b508280612df1906142e1565b935050612c38565b829350505050919050565b600081600001549050919050565b6001816000016000828254019250508190555050565b60008183612e369190614123565b905092915050565b60008183612e4c9190614154565b905092915050565b60008183612e6291906141ae565b905092915050565b828054612e769061427e565b90600052602060002090601f016020900481019282612e985760008555612edf565b82601f10612eb157805160ff1916838001178555612edf565b82800160010185558215612edf579182015b82811115612ede578251825591602001919060010190612ec3565b5b509050612eec9190612f74565b5090565b604051806060016040528060008152602001600073ffffffffffffffffffffffffffffffffffffffff168152602001600081525090565b828054828255906000526020600020908101928215612f63579160200282015b82811115612f62578251825591602001919060010190612f47565b5b509050612f709190612f74565b5090565b5b80821115612f8d576000816000905550600101612f75565b5090565b6000612fa4612f9f84613f33565b613f0e565b90508083825260208201905082856060860282011115612fc357600080fd5b60005b85811015612ff35781612fd9888261314f565b845260208401935060608301925050600181019050612fc6565b5050509392505050565b600061301061300b84613f5f565b613f0e565b9050808382526020820190508285602086028201111561302f57600080fd5b60005b8581101561305f578161304588826131af565b845260208401935060208301925050600181019050613032565b5050509392505050565b600061307c61307784613f8b565b613f0e565b90508281526020810184848401111561309457600080fd5b61309f84828561423c565b509392505050565b6000813590506130b6816145b7565b92915050565b600082601f8301126130cd57600080fd5b81516130dd848260208601612f91565b91505092915050565b600082601f8301126130f757600080fd5b8135613107848260208601612ffd565b91505092915050565b60008151905061311f816145ce565b92915050565b600082601f83011261313657600080fd5b8135613146848260208601613069565b91505092915050565b60006060828403121561316157600080fd5b61316b6060613f0e565b9050600061317b848285016131c4565b600083015250602061318f848285016131c4565b60208301525060406131a384828501613110565b60408301525092915050565b6000813590506131be816145e5565b92915050565b6000815190506131d3816145e5565b92915050565b6000602082840312156131eb57600080fd5b60006131f9848285016130a7565b91505092915050565b600080600080600080600060e0888a03121561321d57600080fd5b600061322b8a828b016130a7565b975050602088013567ffffffffffffffff81111561324857600080fd5b6132548a828b01613125565b965050604088013567ffffffffffffffff81111561327157600080fd5b61327d8a828b01613125565b955050606088013567ffffffffffffffff81111561329a57600080fd5b6132a68a828b01613125565b94505060806132b78a828b016131af565b93505060a06132c88a828b016130a7565b92505060c06132d98a828b016130a7565b91505092959891949750929550565b6000602082840312156132fa57600080fd5b600082015167ffffffffffffffff81111561331457600080fd5b613320848285016130bc565b91505092915050565b60008060006060848603121561333e57600080fd5b600084013567ffffffffffffffff81111561335857600080fd5b613364868287016130e6565b935050602084013567ffffffffffffffff81111561338157600080fd5b61338d868287016130e6565b925050604061339e868287016130a7565b9150509250925092565b6000602082840312156133ba57600080fd5b600082013567ffffffffffffffff8111156133d457600080fd5b6133e084828501613125565b91505092915050565b6000602082840312156133fb57600080fd5b6000613409848285016131af565b91505092915050565b60006020828403121561342457600080fd5b6000613432848285016131c4565b91505092915050565b6000806040838503121561344e57600080fd5b600061345c858286016131af565b925050602083013567ffffffffffffffff81111561347957600080fd5b61348585828601613125565b9150509250929050565b6000806000606084860312156134a457600080fd5b60006134b2868287016131af565b935050602084013567ffffffffffffffff8111156134cf57600080fd5b6134db86828701613125565b925050604084013567ffffffffffffffff8111156134f857600080fd5b61350486828701613125565b9150509250925092565b6000806040838503121561352157600080fd5b600061352f858286016131af565b9250506020613540858286016131af565b9150509250929050565b60006135568383613984565b60608301905092915050565b600061356e83836139c6565b60608301905092915050565b60006135868383613a51565b905092915050565b600061359a8383613b08565b60208301905092915050565b6135af816141f4565b82525050565b6135be816141e2565b82525050565b6135cd816141e2565b82525050565b60006135de82613ffc565b6135e88185614067565b93506135f383613fbc565b8060005b8381101561362457815161360b888261354a565b975061361683614033565b9250506001810190506135f7565b5085935050505092915050565b600061363c82614007565b6136468185614078565b935061365183613fcc565b8060005b838110156136825781516136698882613562565b975061367483614040565b925050600181019050613655565b5085935050505092915050565b600061369a82614012565b6136a48185614089565b9350836020820285016136b685613fdc565b8060005b858110156136f257848403895281516136d3858261357a565b94506136de8361404d565b925060208a019950506001810190506136ba565b50829750879550505050505092915050565b600061370f8261401d565b613719818561409a565b935061372483613fec565b8060005b8381101561375557815161373c888261358e565b97506137478361405a565b925050600181019050613728565b5085935050505092915050565b600061376d8261401d565b61377781856140ab565b935061378283613fec565b8060005b838110156137b357815161379a888261358e565b97506137a58361405a565b925050600181019050613786565b5085935050505092915050565b6137c981614206565b82525050565b6137d881614206565b82525050565b6137e781614206565b82525050565b60006137f882614028565b61380281856140bc565b935061381281856020860161424b565b61381b816143e6565b840191505092915050565b6000613833602a836140bc565b915061383e826143f7565b604082019050919050565b60006138566006836140bc565b915061386182614446565b602082019050919050565b60006138796003836140bc565b91506138848261446f565b602082019050919050565b600061389c6003836140bc565b91506138a782614498565b602082019050919050565b60006138bf6003836140bc565b91506138ca826144c1565b602082019050919050565b60006138e26003836140bc565b91506138ed826144ea565b602082019050919050565b60006139056003836140bc565b915061391082614513565b602082019050919050565b60006139286003836140bc565b91506139338261453c565b602082019050919050565b600061394b6006836140bc565b915061395682614565565b602082019050919050565b600061396e6004836140bc565b91506139798261458e565b602082019050919050565b60608201600082015161399a6000850182613b08565b5060208201516139ad60208501826135b5565b5060408201516139c06040850182613b08565b50505050565b6060820160008201516139dc6000850182613b08565b5060208201516139ef6020850182613b08565b506040820151613a0260408501826137c0565b50505050565b606082016000820151613a1e6000850182613b35565b506020820151613a316020850182613b35565b506040820151613a4460408501826137de565b50505050565b8082525050565b600061010083016000830151613a6a6000860182613b08565b5060208301518482036020860152613a828282613704565b91505060408301518482036040860152613a9c8282613704565b9150506060830151613ab16060860182613b08565b506080830151613ac460808601826137c0565b5060a0830151613ad760a08601826135b5565b5060c0830151613aea60c0860182613b08565b5060e0830151613afd60e08601826137c0565b508091505092915050565b613b1181614232565b82525050565b613b2081614232565b82525050565b613b2f81614232565b82525050565b613b3e81614232565b82525050565b6000602082019050613b5960008301846135a6565b92915050565b6000606082019050613b7460008301866135c4565b8181036020830152613b868185613762565b90508181036040830152613b9a8184613762565b9050949350505050565b6000604082019050613bb960008301856135c4565b613bc66020830184613b17565b9392505050565b60006020820190508181036000830152613be781846135d3565b905092915050565b60006020820190508181036000830152613c098184613631565b905092915050565b60006020820190508181036000830152613c2b818461368f565b905092915050565b60006020820190508181036000830152613c4d81846137ed565b905092915050565b60006020820190508181036000830152613c6e81613826565b9050919050565b60006020820190508181036000830152613c8e81613849565b9050919050565b60006020820190508181036000830152613cae8161386c565b9050919050565b60006020820190508181036000830152613cce8161388f565b9050919050565b60006020820190508181036000830152613cee816138b2565b9050919050565b60006020820190508181036000830152613d0e816138d5565b9050919050565b60006020820190508181036000830152613d2e816138f8565b9050919050565b60006020820190508181036000830152613d4e8161391b565b9050919050565b60006020820190508181036000830152613d6e8161393e565b9050919050565b60006020820190508181036000830152613d8e81613961565b9050919050565b6000602082019050613daa6000830184613a4a565b92915050565b6000608082019050613dc56000830185613a4a565b613dd26020830184613a08565b9392505050565b6000604082019050613dee6000830185613a4a565b613dfb6020830184613b26565b9392505050565b6000602082019050613e176000830184613b17565b92915050565b6000606082019050613e326000830186613b17565b613e3f60208301856135c4565b613e4c6040830184613b17565b949350505050565b6000604082019050613e696000830185613b17565b8181036020830152613e7b81846137ed565b90509392505050565b6000604082019050613e996000830185613b17565b613ea66020830184613b17565b9392505050565b600060c082019050613ec26000830189613b17565b613ecf6020830188613b17565b613edc60408301876137cf565b613ee960608301866135c4565b613ef66080830185613b17565b613f0360a08301846137cf565b979650505050505050565b6000613f18613f29565b9050613f2482826142b0565b919050565b6000604051905090565b600067ffffffffffffffff821115613f4e57613f4d6143b7565b5b602082029050602081019050919050565b600067ffffffffffffffff821115613f7a57613f796143b7565b5b602082029050602081019050919050565b600067ffffffffffffffff821115613fa657613fa56143b7565b5b613faf826143e6565b9050602081019050919050565b6000819050602082019050919050565b6000819050602082019050919050565b6000819050602082019050919050565b6000819050602082019050919050565b600081519050919050565b600081519050919050565b600081519050919050565b600081519050919050565b600081519050919050565b6000602082019050919050565b6000602082019050919050565b6000602082019050919050565b6000602082019050919050565b600082825260208201905092915050565b600082825260208201905092915050565b600082825260208201905092915050565b600082825260208201905092915050565b600082825260208201905092915050565b600082825260208201905092915050565b60006140d882614232565b91506140e383614232565b9250827fffffffffffffffffffffffffffffffffffffffffffffffffffffffffffffffff038211156141185761411761432a565b5b828201905092915050565b600061412e82614232565b915061413983614232565b92508261414957614148614359565b5b828204905092915050565b600061415f82614232565b915061416a83614232565b9250817fffffffffffffffffffffffffffffffffffffffffffffffffffffffffffffffff04831182151516156141a3576141a261432a565b5b828202905092915050565b60006141b982614232565b91506141c483614232565b9250828210156141d7576141d661432a565b5b828203905092915050565b60006141ed82614212565b9050919050565b60006141ff82614212565b9050919050565b60008115159050919050565b600073ffffffffffffffffffffffffffffffffffffffff82169050919050565b6000819050919050565b82818337600083830152505050565b60005b8381101561426957808201518184015260208101905061424e565b83811115614278576000848401525b50505050565b6000600282049050600182168061429657607f821691505b602082108114156142aa576142a9614388565b5b50919050565b6142b9826143e6565b810181811067ffffffffffffffff821117156142d8576142d76143b7565b5b80604052505050565b60006142ec82614232565b91507fffffffffffffffffffffffffffffffffffffffffffffffffffffffffffffffff82141561431f5761431e61432a565b5b600182019050919050565b7f4e487b7100000000000000000000000000000000000000000000000000000000600052601160045260246000fd5b7f4e487b7100000000000000000000000000000000000000000000000000000000600052601260045260246000fd5b7f4e487b7100000000000000000000000000000000000000000000000000000000600052602260045260246000fd5b7f4e487b7100000000000000000000000000000000000000000000000000000000600052604160045260246000fd5b6000601f19601f8301169050919050565b7f533a30312054616773206d757374206265206c657373207468616e203238302060008201527f6368617261637465727300000000000000000000000000000000000000000000602082015250565b7f53686f7030310000000000000000000000000000000000000000000000000000600082015250565b7f5041310000000000000000000000000000000000000000000000000000000000600082015250565b7f4d54310000000000000000000000000000000000000000000000000000000000600082015250565b7f5041300000000000000000000000000000000000000000000000000000000000600082015250565b7f4752300000000000000000000000000000000000000000000000000000000000600082015250565b7f5041320000000000000000000000000000000000000000000000000000000000600082015250565b7f4d54300000000000000000000000000000000000000000000000000000000000600082015250565b7f53686f7030330000000000000000000000000000000000000000000000000000600082015250565b7f533a303000000000000000000000000000000000000000000000000000000000600082015250565b6145c0816141e2565b81146145cb57600080fd5b50565b6145d781614206565b81146145e257600080fd5b50565b6145ee81614232565b81146145f957600080fd5b5056fea26469706673582212208ab6d6c68b6e14745f30d12bbd014c456abad3b10e337e25efef1ed00cf0f54264736f6c63430008040033",
  "linkReferences": {
    "contracts/library/Catalog.sol": {
      "Catalog": [
        {
          "length": 20,
          "start": 4245
        },
        {
          "length": 20,
          "start": 8375
        },
        {
          "length": 20,
          "start": 10757
        }
      ]
    }
  },
  "deployedLinkReferences": {
    "contracts/library/Catalog.sol": {
      "Catalog": [
        {
          "length": 20,
          "start": 4180
        },
        {
          "length": 20,
          "start": 8310
        },
        {
          "length": 20,
          "start": 10692
        }
      ]
    }
  }
}