{
  "_format": "hh-sol-artifact-1",
  "contractName": "Shop",
  "sourceName": "contracts/Shop.sol",
  "abi": [
    {
      "anonymous": false,
      "inputs": [
        {
          "indexed": false,
          "internalType": "uint256",
          "name": "itemId",
          "type": "uint256"
        },
        {
          "indexed": false,
          "internalType": "uint256",
          "name": "price",
          "type": "uint256"
        }
      ],
      "name": "ItemCreated",
      "type": "event"
    },
    {
      "inputs": [
        {
          "internalType": "uint256",
          "name": "",
          "type": "uint256"
        }
      ],
      "name": "_templateItemIds",
      "outputs": [
        {
          "internalType": "uint256",
          "name": "",
          "type": "uint256"
        }
      ],
      "stateMutability": "view",
      "type": "function"
    },
    {
      "inputs": [],
      "name": "_transactionsCount",
      "outputs": [
        {
          "internalType": "uint256",
          "name": "_value",
          "type": "uint256"
        }
      ],
      "stateMutability": "view",
      "type": "function"
    },
    {
      "inputs": [
        {
          "internalType": "address",
          "name": "",
          "type": "address"
        }
      ],
      "name": "affiliates",
      "outputs": [
        {
          "internalType": "uint256",
          "name": "percentage",
          "type": "uint256"
        },
        {
          "internalType": "address",
          "name": "affAddr",
          "type": "address"
        },
        {
          "internalType": "uint256",
          "name": "id",
          "type": "uint256"
        }
      ],
      "stateMutability": "view",
      "type": "function"
    },
    {
      "inputs": [
        {
          "internalType": "address",
          "name": "affAddr",
          "type": "address"
        }
      ],
      "name": "approveAffiliate",
      "outputs": [],
      "stateMutability": "nonpayable",
      "type": "function"
    },
    {
      "inputs": [
        {
          "internalType": "uint256",
          "name": "",
          "type": "uint256"
        }
      ],
      "name": "approvedAffArr",
      "outputs": [
        {
          "internalType": "uint256",
          "name": "percentage",
          "type": "uint256"
        },
        {
          "internalType": "address",
          "name": "affAddr",
          "type": "address"
        },
        {
          "internalType": "uint256",
          "name": "id",
          "type": "uint256"
        }
      ],
      "stateMutability": "view",
      "type": "function"
    },
    {
      "inputs": [
        {
          "internalType": "address",
          "name": "affAddr",
          "type": "address"
        }
      ],
      "name": "cancelAffiliate",
      "outputs": [],
      "stateMutability": "nonpayable",
      "type": "function"
    },
    {
      "inputs": [
        {
          "internalType": "uint256",
          "name": "_price",
          "type": "uint256"
        },
        {
          "internalType": "string",
          "name": "_tokenURI",
          "type": "string"
        }
      ],
      "name": "createItem",
      "outputs": [],
      "stateMutability": "payable",
      "type": "function"
    },
    {
      "inputs": [
        {
          "internalType": "uint256",
          "name": "_id",
          "type": "uint256"
        }
      ],
      "name": "deleteItem",
      "outputs": [],
      "stateMutability": "nonpayable",
      "type": "function"
    },
    {
      "inputs": [],
      "name": "fetchCatalogItems",
      "outputs": [
        {
          "components": [
            {
              "internalType": "uint256",
              "name": "itemId",
              "type": "uint256"
            },
            {
              "internalType": "uint256",
              "name": "price",
              "type": "uint256"
            },
            {
              "internalType": "bool",
              "name": "isDeleted",
              "type": "bool"
            }
          ],
          "internalType": "struct Item[]",
          "name": "",
          "type": "tuple[]"
        }
      ],
      "stateMutability": "view",
      "type": "function"
    },
    {
      "inputs": [],
      "name": "fetchTransactions",
      "outputs": [
        {
          "components": [
            {
              "internalType": "uint256",
              "name": "transId",
              "type": "uint256"
            },
            {
              "internalType": "uint256[]",
              "name": "itemIds",
              "type": "uint256[]"
            },
            {
              "internalType": "uint256[]",
              "name": "itemQty",
              "type": "uint256[]"
            },
            {
              "internalType": "uint256",
              "name": "total",
              "type": "uint256"
            },
            {
              "internalType": "bool",
              "name": "isValid",
              "type": "bool"
            },
            {
              "internalType": "address",
              "name": "client",
              "type": "address"
            },
            {
              "internalType": "uint256",
              "name": "review",
              "type": "uint256"
            },
            {
              "internalType": "bool",
              "name": "isReviewed",
              "type": "bool"
            }
          ],
          "internalType": "struct Shop.Trans[]",
          "name": "",
          "type": "tuple[]"
        }
      ],
      "stateMutability": "view",
      "type": "function"
    },
    {
      "inputs": [],
      "name": "freeTransactions",
      "outputs": [
        {
          "internalType": "uint256",
          "name": "",
          "type": "uint256"
        }
      ],
      "stateMutability": "view",
      "type": "function"
    },
    {
      "inputs": [],
      "name": "getApprovedAffiliates",
      "outputs": [
        {
          "components": [
            {
              "internalType": "uint256",
              "name": "percentage",
              "type": "uint256"
            },
            {
              "internalType": "address",
              "name": "affAddr",
              "type": "address"
            },
            {
              "internalType": "uint256",
              "name": "id",
              "type": "uint256"
            }
          ],
          "internalType": "struct Shop.Affiliate[]",
          "name": "",
          "type": "tuple[]"
        }
      ],
      "stateMutability": "view",
      "type": "function"
    },
    {
      "inputs": [],
      "name": "getProposedAffiliates",
      "outputs": [
        {
          "components": [
            {
              "internalType": "uint256",
              "name": "percentage",
              "type": "uint256"
            },
            {
              "internalType": "address",
              "name": "affAddr",
              "type": "address"
            },
            {
              "internalType": "uint256",
              "name": "id",
              "type": "uint256"
            }
          ],
          "internalType": "struct Shop.Affiliate[]",
          "name": "",
          "type": "tuple[]"
        }
      ],
      "stateMutability": "view",
      "type": "function"
    },
    {
      "inputs": [
        {
          "internalType": "uint256",
          "name": "stars",
          "type": "uint256"
        },
        {
          "internalType": "uint256",
          "name": "transId",
          "type": "uint256"
        }
      ],
      "name": "giveReview",
      "outputs": [],
      "stateMutability": "nonpayable",
      "type": "function"
    },
    {
      "inputs": [],
      "name": "governor",
      "outputs": [
        {
          "internalType": "address payable",
          "name": "",
          "type": "address"
        }
      ],
      "stateMutability": "view",
      "type": "function"
    },
    {
      "inputs": [],
      "name": "image",
      "outputs": [
        {
          "internalType": "string",
          "name": "",
          "type": "string"
        }
      ],
      "stateMutability": "view",
      "type": "function"
    },
    {
      "inputs": [
        {
          "internalType": "address",
          "name": "_owner",
          "type": "address"
        },
        {
          "internalType": "string",
          "name": "_name",
          "type": "string"
        },
        {
          "internalType": "string",
          "name": "_image",
          "type": "string"
        },
        {
          "internalType": "string",
          "name": "_tags",
          "type": "string"
        },
        {
          "internalType": "uint256",
          "name": "_shopId",
          "type": "uint256"
        },
        {
          "internalType": "address",
          "name": "_governor",
          "type": "address"
        },
        {
          "internalType": "address",
          "name": "_nftAddress",
          "type": "address"
        }
      ],
      "name": "initialize",
      "outputs": [],
      "stateMutability": "nonpayable",
      "type": "function"
    },
    {
      "inputs": [
        {
          "internalType": "uint256[]",
          "name": "itemIds",
          "type": "uint256[]"
        },
        {
          "internalType": "uint256[]",
          "name": "itemQty",
          "type": "uint256[]"
        },
        {
          "internalType": "address",
          "name": "affAddr",
          "type": "address"
        }
      ],
      "name": "makeTransaction",
      "outputs": [
        {
          "internalType": "uint256",
          "name": "transactionId",
          "type": "uint256"
        }
      ],
      "stateMutability": "payable",
      "type": "function"
    },
    {
      "inputs": [],
      "name": "name",
      "outputs": [
        {
          "internalType": "string",
          "name": "",
          "type": "string"
        }
      ],
      "stateMutability": "view",
      "type": "function"
    },
    {
      "inputs": [],
      "name": "nftAddress",
      "outputs": [
        {
          "internalType": "address payable",
          "name": "",
          "type": "address"
        }
      ],
      "stateMutability": "view",
      "type": "function"
    },
    {
      "inputs": [],
      "name": "owner",
      "outputs": [
        {
          "internalType": "address payable",
          "name": "",
          "type": "address"
        }
      ],
      "stateMutability": "view",
      "type": "function"
    },
    {
      "inputs": [
        {
          "internalType": "uint256",
          "name": "percentage",
          "type": "uint256"
        }
      ],
      "name": "proposeAffiliate",
      "outputs": [],
      "stateMutability": "nonpayable",
      "type": "function"
    },
    {
      "inputs": [
        {
          "internalType": "uint256",
          "name": "",
          "type": "uint256"
        }
      ],
      "name": "proposedAffArr",
      "outputs": [
        {
          "internalType": "uint256",
          "name": "percentage",
          "type": "uint256"
        },
        {
          "internalType": "address",
          "name": "affAddr",
          "type": "address"
        },
        {
          "internalType": "uint256",
          "name": "id",
          "type": "uint256"
        }
      ],
      "stateMutability": "view",
      "type": "function"
    },
    {
      "inputs": [
        {
          "internalType": "address",
          "name": "",
          "type": "address"
        }
      ],
      "name": "proposedAffiliates",
      "outputs": [
        {
          "internalType": "uint256",
          "name": "percentage",
          "type": "uint256"
        },
        {
          "internalType": "address",
          "name": "affAddr",
          "type": "address"
        },
        {
          "internalType": "uint256",
          "name": "id",
          "type": "uint256"
        }
      ],
      "stateMutability": "view",
      "type": "function"
    },
    {
      "inputs": [],
      "name": "selfDestruct",
      "outputs": [],
      "stateMutability": "nonpayable",
      "type": "function"
    },
    {
      "inputs": [
        {
          "internalType": "uint256",
          "name": "_freeTransactions",
          "type": "uint256"
        }
      ],
      "name": "setFreeTransactions",
      "outputs": [],
      "stateMutability": "nonpayable",
      "type": "function"
    },
    {
      "inputs": [
        {
          "internalType": "string",
          "name": "_tags",
          "type": "string"
        }
      ],
      "name": "setTags",
      "outputs": [],
      "stateMutability": "nonpayable",
      "type": "function"
    },
    {
      "inputs": [],
      "name": "shopId",
      "outputs": [
        {
          "internalType": "uint256",
          "name": "",
          "type": "uint256"
        }
      ],
      "stateMutability": "view",
      "type": "function"
    },
    {
      "inputs": [],
      "name": "tags",
      "outputs": [
        {
          "internalType": "string",
          "name": "",
          "type": "string"
        }
      ],
      "stateMutability": "view",
      "type": "function"
    },
    {
      "inputs": [
        {
          "internalType": "uint256",
          "name": "",
          "type": "uint256"
        }
      ],
      "name": "transactions",
      "outputs": [
        {
          "internalType": "uint256",
          "name": "transId",
          "type": "uint256"
        },
        {
          "internalType": "uint256",
          "name": "total",
          "type": "uint256"
        },
        {
          "internalType": "bool",
          "name": "isValid",
          "type": "bool"
        },
        {
          "internalType": "address",
          "name": "client",
          "type": "address"
        },
        {
          "internalType": "uint256",
          "name": "review",
          "type": "uint256"
        },
        {
          "internalType": "bool",
          "name": "isReviewed",
          "type": "bool"
        }
      ],
      "stateMutability": "view",
      "type": "function"
    }
  ],
  "bytecode": "0x60806040526103e86007556000600860006101000a81548160ff02191690831515021790555034801561003157600080fd5b50614391806100416000396000f3fe6080604052600436106101cd5760003560e01c80638b4989af116100f7578063ba5a941411610095578063f0547bc811610064578063f0547bc81461067f578063f3ccaac0146106a8578063f5b89aac146106d3578063fa4fee98146106fe576101cd565b8063ba5a9414146105e2578063c79c6dba146105fe578063cdd57a3a14610629578063de6b7e0914610654576101cd565b80639ace38c2116100d15780639ace38c2146105215780639cb8a26a14610563578063a4b78a5d1461057a578063a6153249146105a5576101cd565b80638b4989af1461049d5780638cf27994146104c65780638da5cb5b146104f6576101cd565b8063309c4e1d1161016f5780635f6ad5961161013e5780635f6ad596146103e3578063654fc8331461040c57806376aadd73146104355780638013f0b61461045e576101cd565b8063309c4e1d1461030f57806330ac42341461033a5780634f51e294146103795780635bf8633a146103b8576101cd565b80630c340a24116101ab5780630c340a24146102655780630cc9dc7d1461029057806319f112e2146102bb5780632477eaae146102e4576101cd565b806306fdde03146101d2578063070c24b0146101fd578063090567d21461023c575b600080fd5b3480156101de57600080fd5b506101e7610727565b6040516101f491906139c2565b60405180910390f35b34801561020957600080fd5b50610224600480360381019061021f9190613010565b6107b5565b60405161023393929190613bac565b60405180910390f35b34801561024857600080fd5b50610263600480360381019061025e9190613220565b6107ff565b005b34801561027157600080fd5b5061027a610899565b60405161028791906138fc565b60405180910390f35b34801561029c57600080fd5b506102a56108bf565b6040516102b29190613b91565b60405180910390f35b3480156102c757600080fd5b506102e260048036038101906102dd91906131df565b6108c5565b005b3480156102f057600080fd5b506102f96109bb565b60405161030691906139a0565b60405180910390f35b34801561031b57600080fd5b50610324610b75565b604051610331919061395c565b60405180910390f35b34801561034657600080fd5b50610361600480360381019061035c9190613220565b610c3e565b60405161037093929190613bac565b60405180910390f35b34801561038557600080fd5b506103a0600480360381019061039b9190613010565b610c98565b6040516103af93929190613bac565b60405180910390f35b3480156103c457600080fd5b506103cd610ce2565b6040516103da91906138fc565b60405180910390f35b3480156103ef57600080fd5b5061040a60048036038101906104059190613220565b610d08565b005b34801561041857600080fd5b50610433600480360381019061042e9190613220565b610f8c565b005b34801561044157600080fd5b5061045c60048036038101906104579190613010565b61108b565b005b34801561046a57600080fd5b5061048560048036038101906104809190613220565b611419565b60405161049493929190613bac565b60405180910390f35b3480156104a957600080fd5b506104c460048036038101906104bf91906132c6565b611473565b005b6104e060048036038101906104db9190613160565b611604565b6040516104ed9190613b91565b60405180910390f35b34801561050257600080fd5b5061050b611cbf565b60405161051891906138fc565b60405180910390f35b34801561052d57600080fd5b5061054860048036038101906105439190613220565b611ce5565b60405161055a96959493929190613c0c565b60405180910390f35b34801561056f57600080fd5b50610578611d6b565b005b34801561058657600080fd5b5061058f611e36565b60405161059c9190613b91565b60405180910390f35b3480156105b157600080fd5b506105cc60048036038101906105c79190613220565b611e3c565b6040516105d99190613b91565b60405180910390f35b6105fc60048036038101906105f79190613272565b611e60565b005b34801561060a57600080fd5b5061061361211d565b604051610620919061395c565b60405180910390f35b34801561063557600080fd5b5061063e6121e6565b60405161064b9190613b91565b60405180910390f35b34801561066057600080fd5b506106696121f2565b60405161067691906139c2565b60405180910390f35b34801561068b57600080fd5b506106a660048036038101906106a19190613010565b612280565b005b3480156106b457600080fd5b506106bd612767565b6040516106ca91906139c2565b60405180910390f35b3480156106df57600080fd5b506106e86127f5565b6040516106f5919061397e565b60405180910390f35b34801561070a57600080fd5b5061072560048036038101906107209190613039565b61288b565b005b6000805461073490613fdd565b80601f016020809104026020016040519081016040528092919081815260200182805461076090613fdd565b80156107ad5780601f10610782576101008083540402835291602001916107ad565b820191906000526020600020905b81548152906001019060200180831161079057829003601f168201915b505050505081565b60106020528060005260406000206000915090508060000154908060010160009054906101000a900473ffffffffffffffffffffffffffffffffffffffff16908060020154905083565b600560009054906101000a900473ffffffffffffffffffffffffffffffffffffffff1673ffffffffffffffffffffffffffffffffffffffff163373ffffffffffffffffffffffffffffffffffffffff161461088f576040517f08c379a000000000000000000000000000000000000000000000000000000000815260040161088690613a04565b60405180910390fd5b8060078190555050565b600560009054906101000a900473ffffffffffffffffffffffffffffffffffffffff1681565b60075481565b600460009054906101000a900473ffffffffffffffffffffffffffffffffffffffff1673ffffffffffffffffffffffffffffffffffffffff163373ffffffffffffffffffffffffffffffffffffffff1614610955576040517f08c379a000000000000000000000000000000000000000000000000000000000815260040161094c90613ac4565b60405180910390fd5b61011861096182612a60565b106109a1576040517f08c379a0000000000000000000000000000000000000000000000000000000008152600401610998906139e4565b60405180910390fd5b80600390805190602001906109b7929190612ca1565b5050565b60606012805480602002602001604051908101604052809291908181526020016000905b82821015610b6c5783829060005260206000209060070201604051806101000160405290816000820154815260200160018201805480602002602001604051908101604052809291908181526020018280548015610a5c57602002820191906000526020600020905b815481526020019060010190808311610a48575b5050505050815260200160028201805480602002602001604051908101604052809291908181526020018280548015610ab457602002820191906000526020600020905b815481526020019060010190808311610aa0575b50505050508152602001600382015481526020016004820160009054906101000a900460ff161515151581526020016004820160019054906101000a900473ffffffffffffffffffffffffffffffffffffffff1673ffffffffffffffffffffffffffffffffffffffff1673ffffffffffffffffffffffffffffffffffffffff168152602001600582015481526020016006820160009054906101000a900460ff161515151581525050815260200190600101906109df565b50505050905090565b6060600f805480602002602001604051908101604052809291908181526020016000905b82821015610c355783829060005260206000209060030201604051806060016040529081600082015481526020016001820160009054906101000a900473ffffffffffffffffffffffffffffffffffffffff1673ffffffffffffffffffffffffffffffffffffffff1673ffffffffffffffffffffffffffffffffffffffff16815260200160028201548152505081526020019060010190610b99565b50505050905090565b600f8181548110610c4e57600080fd5b90600052602060002090600302016000915090508060000154908060010160009054906101000a900473ffffffffffffffffffffffffffffffffffffffff16908060020154905083565b60116020528060005260406000206000915090508060000154908060010160009054906101000a900473ffffffffffffffffffffffffffffffffffffffff16908060020154905083565b600660009054906101000a900473ffffffffffffffffffffffffffffffffffffffff1681565b6000601160003373ffffffffffffffffffffffffffffffffffffffff1673ffffffffffffffffffffffffffffffffffffffff1681526020019081526020016000206000015414610d8d576040517f08c379a0000000000000000000000000000000000000000000000000000000008152600401610d8490613a64565b60405180910390fd5b60008111610dd0576040517f08c379a0000000000000000000000000000000000000000000000000000000008152600401610dc790613a24565b60405180910390fd5b60648110610e13576040517f08c379a0000000000000000000000000000000000000000000000000000000008152600401610e0a90613aa4565b60405180910390fd5b6000610e1f600b612c3b565b9050600060405180606001604052808481526020013373ffffffffffffffffffffffffffffffffffffffff16815260200183815250905080601060003373ffffffffffffffffffffffffffffffffffffffff1673ffffffffffffffffffffffffffffffffffffffff1681526020019081526020016000206000820151816000015560208201518160010160006101000a81548173ffffffffffffffffffffffffffffffffffffffff021916908373ffffffffffffffffffffffffffffffffffffffff16021790555060408201518160020155905050600e8190806001815401808255809150506001900390600052602060002090600302016000909190919091506000820151816000015560208201518160010160006101000a81548173ffffffffffffffffffffffffffffffffffffffff021916908373ffffffffffffffffffffffffffffffffffffffff160217905550604082015181600201555050610f87600b612c49565b505050565b600460009054906101000a900473ffffffffffffffffffffffffffffffffffffffff1673ffffffffffffffffffffffffffffffffffffffff163373ffffffffffffffffffffffffffffffffffffffff161461101c576040517f08c379a000000000000000000000000000000000000000000000000000000000815260040161101390613ac4565b60405180910390fd5b600973__$2504da76dd911be12547f2608c53b8702a$__63ef57f72c9091836040518363ffffffff1660e01b8152600401611058929190613b68565b60006040518083038186803b15801561107057600080fd5b505af4158015611084573d6000803e3d6000fd5b5050505050565b600460009054906101000a900473ffffffffffffffffffffffffffffffffffffffff1673ffffffffffffffffffffffffffffffffffffffff163373ffffffffffffffffffffffffffffffffffffffff161461111b576040517f08c379a000000000000000000000000000000000000000000000000000000000815260040161111290613ac4565b60405180910390fd5b60005b600f8054905081101561139c578173ffffffffffffffffffffffffffffffffffffffff16600f828154811061117c577f4e487b7100000000000000000000000000000000000000000000000000000000600052603260045260246000fd5b906000526020600020906003020160010160009054906101000a900473ffffffffffffffffffffffffffffffffffffffff1673ffffffffffffffffffffffffffffffffffffffff16141561138957600f8181548110611204577f4e487b7100000000000000000000000000000000000000000000000000000000600052603260045260246000fd5b90600052602060002090600302016000808201600090556001820160006101000a81549073ffffffffffffffffffffffffffffffffffffffff0219169055600282016000905550506001600f8054905061125e9190613f0d565b811461138457600f6001600f805490506112789190613f0d565b815481106112af577f4e487b7100000000000000000000000000000000000000000000000000000000600052603260045260246000fd5b9060005260206000209060030201600f82815481106112f7577f4e487b7100000000000000000000000000000000000000000000000000000000600052603260045260246000fd5b9060005260206000209060030201600082015481600001556001820160009054906101000a900473ffffffffffffffffffffffffffffffffffffffff168160010160006101000a81548173ffffffffffffffffffffffffffffffffffffffff021916908373ffffffffffffffffffffffffffffffffffffffff160217905550600282015481600201559050505b61139c565b808061139490614040565b91505061111e565b50601160008273ffffffffffffffffffffffffffffffffffffffff1673ffffffffffffffffffffffffffffffffffffffff1681526020019081526020016000206000808201600090556001820160006101000a81549073ffffffffffffffffffffffffffffffffffffffff02191690556002820160009055505050565b600e818154811061142957600080fd5b90600052602060002090600302016000915090508060000154908060010160009054906101000a900473ffffffffffffffffffffffffffffffffffffffff16908060020154905083565b3373ffffffffffffffffffffffffffffffffffffffff16601282815481106114c4577f4e487b7100000000000000000000000000000000000000000000000000000000600052603260045260246000fd5b906000526020600020906007020160040160019054906101000a900473ffffffffffffffffffffffffffffffffffffffff1673ffffffffffffffffffffffffffffffffffffffff161461154c576040517f08c379a000000000000000000000000000000000000000000000000000000000815260040161154390613a84565b60405180910390fd5b8160128281548110611587577f4e487b7100000000000000000000000000000000000000000000000000000000600052603260045260246000fd5b9060005260206000209060070201600501819055506001601282815481106115d8577f4e487b7100000000000000000000000000000000000000000000000000000000600052603260045260246000fd5b906000526020600020906007020160060160006101000a81548160ff0219169083151502179055505050565b600061160e612d27565b600073ffffffffffffffffffffffffffffffffffffffff168373ffffffffffffffffffffffffffffffffffffffff161461176d57601160008473ffffffffffffffffffffffffffffffffffffffff1673ffffffffffffffffffffffffffffffffffffffff168152602001908152602001600020604051806060016040529081600082015481526020016001820160009054906101000a900473ffffffffffffffffffffffffffffffffffffffff1673ffffffffffffffffffffffffffffffffffffffff1673ffffffffffffffffffffffffffffffffffffffff1681526020016002820154815250509050600073ffffffffffffffffffffffffffffffffffffffff16816020015173ffffffffffffffffffffffffffffffffffffffff16141561176c576040517f08c379a000000000000000000000000000000000000000000000000000000000815260040161176390613ae4565b60405180910390fd5b5b6000808087519050600091505b8082101561187c578682815181106117bb577f4e487b7100000000000000000000000000000000000000000000000000000000600052603260045260246000fd5b60200260200101516009600001898481518110611801577f4e487b7100000000000000000000000000000000000000000000000000000000600052603260045260246000fd5b602002602001015181548110611840577f4e487b7100000000000000000000000000000000000000000000000000000000600052603260045260246000fd5b90600052602060002090600302016001015461185c9190613eb3565b836118679190613e2c565b9250818061187490614040565b92505061177a565b823410156118bf576040517f08c379a00000000000000000000000000000000000000000000000000000000081526004016118b690613a44565b60405180910390fd5b600660009054906101000a900473ffffffffffffffffffffffffffffffffffffffff1673ffffffffffffffffffffffffffffffffffffffff16634cfc8ed7338a8a6040518463ffffffff1660e01b815260040161191e93929190613917565b600060405180830381600087803b15801561193857600080fd5b505af115801561194c573d6000803e3d6000fd5b5050505061195a600d612c49565b60008060075461196a600d612c3b565b111561198757611984606486612c5f90919063ffffffff16565b90505b600073ffffffffffffffffffffffffffffffffffffffff168873ffffffffffffffffffffffffffffffffffffffff1614611a33576119e586600001516119d7606488612c5f90919063ffffffff16565b612c7590919063ffffffff16565b9150856020015173ffffffffffffffffffffffffffffffffffffffff166108fc839081150290604051600060405180830381858888f19350505050158015611a31573d6000803e3d6000fd5b505b600460009054906101000a900473ffffffffffffffffffffffffffffffffffffffff1673ffffffffffffffffffffffffffffffffffffffff166108fc611a9484611a86858a612c8b90919063ffffffff16565b612c8b90919063ffffffff16565b9081150290604051600060405180830381858888f19350505050158015611abf573d6000803e3d6000fd5b506000811115611b3357600560009054906101000a900473ffffffffffffffffffffffffffffffffffffffff1673ffffffffffffffffffffffffffffffffffffffff166108fc829081150290604051600060405180830381858888f19350505050158015611b31573d6000803e3d6000fd5b505b6000611b3f600c612c3b565b905060126040518061010001604052808381526020018d81526020018c81526020018881526020016001151581526020013373ffffffffffffffffffffffffffffffffffffffff16815260200160008152602001600015158152509080600181540180825580915050600190039060005260206000209060070201600090919091909150600082015181600001556020820151816001019080519060200190611be9929190612d5e565b506040820151816002019080519060200190611c06929190612d5e565b506060820151816003015560808201518160040160006101000a81548160ff02191690831515021790555060a08201518160040160016101000a81548173ffffffffffffffffffffffffffffffffffffffff021916908373ffffffffffffffffffffffffffffffffffffffff16021790555060c0820151816005015560e08201518160060160006101000a81548160ff0219169083151502179055505050611cae600c612c49565b809750505050505050509392505050565b600460009054906101000a900473ffffffffffffffffffffffffffffffffffffffff1681565b60128181548110611cf557600080fd5b90600052602060002090600702016000915090508060000154908060030154908060040160009054906101000a900460ff16908060040160019054906101000a900473ffffffffffffffffffffffffffffffffffffffff16908060050154908060060160009054906101000a900460ff16905086565b600560009054906101000a900473ffffffffffffffffffffffffffffffffffffffff1673ffffffffffffffffffffffffffffffffffffffff163373ffffffffffffffffffffffffffffffffffffffff1614611dfb576040517f08c379a0000000000000000000000000000000000000000000000000000000008152600401611df290613a04565b60405180910390fd5b600560009054906101000a900473ffffffffffffffffffffffffffffffffffffffff1673ffffffffffffffffffffffffffffffffffffffff16ff5b60015481565b600a8181548110611e4c57600080fd5b906000526020600020016000915090505481565b600460009054906101000a900473ffffffffffffffffffffffffffffffffffffffff1673ffffffffffffffffffffffffffffffffffffffff163373ffffffffffffffffffffffffffffffffffffffff1614611ef0576040517f08c379a0000000000000000000000000000000000000000000000000000000008152600401611ee790613ac4565b60405180910390fd5b60006001600660009054906101000a900473ffffffffffffffffffffffffffffffffffffffff1673ffffffffffffffffffffffffffffffffffffffff1663775a25e36040518163ffffffff1660e01b815260040160206040518083038186803b158015611f5c57600080fd5b505afa158015611f70573d6000803e3d6000fd5b505050506040513d601f19601f82011682018060405250810190611f949190613249565b611f9e9190613e2c565b9050600660009054906101000a900473ffffffffffffffffffffffffffffffffffffffff1673ffffffffffffffffffffffffffffffffffffffff16633d54eebb836040518263ffffffff1660e01b8152600401611ffb91906139c2565b600060405180830381600087803b15801561201557600080fd5b505af1158015612029573d6000803e3d6000fd5b50505050600973__$2504da76dd911be12547f2608c53b8702a$__63fef3c5a390916040518060600160405280858152602001878152602001600015158152506040518363ffffffff1660e01b8152600401612086929190613b3f565b60006040518083038186803b15801561209e57600080fd5b505af41580156120b2573d6000803e3d6000fd5b50505050600a8190806001815401808255809150506001900390600052602060002001600090919091909150557f591fb83da607b2c6982a1348c1689d04071f4851678881f0a7dd64331770cf5c8184604051612110929190613be3565b60405180910390a1505050565b6060600e805480602002602001604051908101604052809291908181526020016000905b828210156121dd5783829060005260206000209060030201604051806060016040529081600082015481526020016001820160009054906101000a900473ffffffffffffffffffffffffffffffffffffffff1673ffffffffffffffffffffffffffffffffffffffff1673ffffffffffffffffffffffffffffffffffffffff16815260200160028201548152505081526020019060010190612141565b50505050905090565b600d8060000154905081565b600380546121ff90613fdd565b80601f016020809104026020016040519081016040528092919081815260200182805461222b90613fdd565b80156122785780601f1061224d57610100808354040283529160200191612278565b820191906000526020600020905b81548152906001019060200180831161225b57829003601f168201915b505050505081565b600460009054906101000a900473ffffffffffffffffffffffffffffffffffffffff1673ffffffffffffffffffffffffffffffffffffffff163373ffffffffffffffffffffffffffffffffffffffff1614612310576040517f08c379a000000000000000000000000000000000000000000000000000000000815260040161230790613ac4565b60405180910390fd5b601060008273ffffffffffffffffffffffffffffffffffffffff1673ffffffffffffffffffffffffffffffffffffffff168152602001908152602001600020601160008373ffffffffffffffffffffffffffffffffffffffff1673ffffffffffffffffffffffffffffffffffffffff168152602001908152602001600020600082015481600001556001820160009054906101000a900473ffffffffffffffffffffffffffffffffffffffff168160010160006101000a81548173ffffffffffffffffffffffffffffffffffffffff021916908373ffffffffffffffffffffffffffffffffffffffff160217905550600282015481600201559050506000601060008373ffffffffffffffffffffffffffffffffffffffff1673ffffffffffffffffffffffffffffffffffffffff168152602001908152602001600020600201549050600f601160008473ffffffffffffffffffffffffffffffffffffffff1673ffffffffffffffffffffffffffffffffffffffff1681526020019081526020016000209080600181540180825580915050600190039060005260206000209060030201600090919091909150600082015481600001556001820160009054906101000a900473ffffffffffffffffffffffffffffffffffffffff168160010160006101000a81548173ffffffffffffffffffffffffffffffffffffffff021916908373ffffffffffffffffffffffffffffffffffffffff160217905550600282015481600201555050600e8181548110612574577f4e487b7100000000000000000000000000000000000000000000000000000000600052603260045260246000fd5b90600052602060002090600302016000808201600090556001820160006101000a81549073ffffffffffffffffffffffffffffffffffffffff0219169055600282016000905550506000600e8054905011156126ea57600e6001600e805490506125de9190613f0d565b81548110612615577f4e487b7100000000000000000000000000000000000000000000000000000000600052603260045260246000fd5b9060005260206000209060030201600e828154811061265d577f4e487b7100000000000000000000000000000000000000000000000000000000600052603260045260246000fd5b9060005260206000209060030201600082015481600001556001820160009054906101000a900473ffffffffffffffffffffffffffffffffffffffff168160010160006101000a81548173ffffffffffffffffffffffffffffffffffffffff021916908373ffffffffffffffffffffffffffffffffffffffff160217905550600282015481600201559050505b601060008373ffffffffffffffffffffffffffffffffffffffff1673ffffffffffffffffffffffffffffffffffffffff1681526020019081526020016000206000808201600090556001820160006101000a81549073ffffffffffffffffffffffffffffffffffffffff0219169055600282016000905550505050565b6002805461277490613fdd565b80601f01602080910402602001604051908101604052809291908181526020018280546127a090613fdd565b80156127ed5780601f106127c2576101008083540402835291602001916127ed565b820191906000526020600020905b8154815290600101906020018083116127d057829003601f168201915b505050505081565b6060600973__$2504da76dd911be12547f2608c53b8702a$__6334871c0390916040518263ffffffff1660e01b81526004016128319190613b24565b60006040518083038186803b15801561284957600080fd5b505af415801561285d573d6000803e3d6000fd5b505050506040513d6000823e3d601f19601f82011682018060405250810190612886919061311f565b905090565b60001515600860009054906101000a900460ff161515146128e1576040517f08c379a00000000000000000000000000000000000000000000000000000000081526004016128d890613b04565b60405180910390fd5b6101186128ed85612a60565b1061292d576040517f08c379a0000000000000000000000000000000000000000000000000000000008152600401612924906139e4565b60405180910390fd5b6001600860006101000a81548160ff02191690831515021790555086600460006101000a81548173ffffffffffffffffffffffffffffffffffffffff021916908373ffffffffffffffffffffffffffffffffffffffff160217905550856000908051906020019061299f929190612ca1565b5084600290805190602001906129b6929190612ca1565b5083600390805190602001906129cd929190612ca1565b508260018190555081600560006101000a81548173ffffffffffffffffffffffffffffffffffffffff021916908373ffffffffffffffffffffffffffffffffffffffff16021790555080600660006101000a81548173ffffffffffffffffffffffffffffffffffffffff021916908373ffffffffffffffffffffffffffffffffffffffff16021790555050505050505050565b60008060008084519050600092505b80821015612c30576000858381518110612ab2577f4e487b7100000000000000000000000000000000000000000000000000000000600052603260045260246000fd5b602001015160f81c60f81b9050608060f81b817effffffffffffffffffffffffffffffffffffffffffffffffffffffffffffff19161015612b0157600183612afa9190613e2c565b9250612c1c565b60e060f81b817effffffffffffffffffffffffffffffffffffffffffffffffffffffffffffff19161015612b4357600283612b3c9190613e2c565b9250612c1b565b60f060f81b817effffffffffffffffffffffffffffffffffffffffffffffffffffffffffffff19161015612b8557600383612b7e9190613e2c565b9250612c1a565b60f8801b817effffffffffffffffffffffffffffffffffffffffffffffffffffffffffffff19161015612bc657600483612bbf9190613e2c565b9250612c19565b60fc60f81b817effffffffffffffffffffffffffffffffffffffffffffffffffffffffffffff19161015612c0857600583612c019190613e2c565b9250612c18565b600683612c159190613e2c565b92505b5b5b5b5b508280612c2890614040565b935050612a6f565b829350505050919050565b600081600001549050919050565b6001816000016000828254019250508190555050565b60008183612c6d9190613e82565b905092915050565b60008183612c839190613eb3565b905092915050565b60008183612c999190613f0d565b905092915050565b828054612cad90613fdd565b90600052602060002090601f016020900481019282612ccf5760008555612d16565b82601f10612ce857805160ff1916838001178555612d16565b82800160010185558215612d16579182015b82811115612d15578251825591602001919060010190612cfa565b5b509050612d239190612dab565b5090565b604051806060016040528060008152602001600073ffffffffffffffffffffffffffffffffffffffff168152602001600081525090565b828054828255906000526020600020908101928215612d9a579160200282015b82811115612d99578251825591602001919060010190612d7e565b5b509050612da79190612dab565b5090565b5b80821115612dc4576000816000905550600101612dac565b5090565b6000612ddb612dd684613c92565b613c6d565b90508083825260208201905082856060860282011115612dfa57600080fd5b60005b85811015612e2a5781612e108882612f86565b845260208401935060608301925050600181019050612dfd565b5050509392505050565b6000612e47612e4284613cbe565b613c6d565b90508083825260208201905082856020860282011115612e6657600080fd5b60005b85811015612e965781612e7c8882612fe6565b845260208401935060208301925050600181019050612e69565b5050509392505050565b6000612eb3612eae84613cea565b613c6d565b905082815260208101848484011115612ecb57600080fd5b612ed6848285613f9b565b509392505050565b600081359050612eed81614316565b92915050565b600082601f830112612f0457600080fd5b8151612f14848260208601612dc8565b91505092915050565b600082601f830112612f2e57600080fd5b8135612f3e848260208601612e34565b91505092915050565b600081519050612f568161432d565b92915050565b600082601f830112612f6d57600080fd5b8135612f7d848260208601612ea0565b91505092915050565b600060608284031215612f9857600080fd5b612fa26060613c6d565b90506000612fb284828501612ffb565b6000830152506020612fc684828501612ffb565b6020830152506040612fda84828501612f47565b60408301525092915050565b600081359050612ff581614344565b92915050565b60008151905061300a81614344565b92915050565b60006020828403121561302257600080fd5b600061303084828501612ede565b91505092915050565b600080600080600080600060e0888a03121561305457600080fd5b60006130628a828b01612ede565b975050602088013567ffffffffffffffff81111561307f57600080fd5b61308b8a828b01612f5c565b965050604088013567ffffffffffffffff8111156130a857600080fd5b6130b48a828b01612f5c565b955050606088013567ffffffffffffffff8111156130d157600080fd5b6130dd8a828b01612f5c565b94505060806130ee8a828b01612fe6565b93505060a06130ff8a828b01612ede565b92505060c06131108a828b01612ede565b91505092959891949750929550565b60006020828403121561313157600080fd5b600082015167ffffffffffffffff81111561314b57600080fd5b61315784828501612ef3565b91505092915050565b60008060006060848603121561317557600080fd5b600084013567ffffffffffffffff81111561318f57600080fd5b61319b86828701612f1d565b935050602084013567ffffffffffffffff8111156131b857600080fd5b6131c486828701612f1d565b92505060406131d586828701612ede565b9150509250925092565b6000602082840312156131f157600080fd5b600082013567ffffffffffffffff81111561320b57600080fd5b61321784828501612f5c565b91505092915050565b60006020828403121561323257600080fd5b600061324084828501612fe6565b91505092915050565b60006020828403121561325b57600080fd5b600061326984828501612ffb565b91505092915050565b6000806040838503121561328557600080fd5b600061329385828601612fe6565b925050602083013567ffffffffffffffff8111156132b057600080fd5b6132bc85828601612f5c565b9150509250929050565b600080604083850312156132d957600080fd5b60006132e785828601612fe6565b92505060206132f885828601612fe6565b9150509250929050565b600061330e838361373c565b60608301905092915050565b6000613326838361377e565b60608301905092915050565b600061333e8383613809565b905092915050565b600061335283836138c0565b60208301905092915050565b61336781613f53565b82525050565b61337681613f41565b82525050565b61338581613f41565b82525050565b600061339682613d5b565b6133a08185613dc6565b93506133ab83613d1b565b8060005b838110156133dc5781516133c38882613302565b97506133ce83613d92565b9250506001810190506133af565b5085935050505092915050565b60006133f482613d66565b6133fe8185613dd7565b935061340983613d2b565b8060005b8381101561343a578151613421888261331a565b975061342c83613d9f565b92505060018101905061340d565b5085935050505092915050565b600061345282613d71565b61345c8185613de8565b93508360208202850161346e85613d3b565b8060005b858110156134aa578484038952815161348b8582613332565b945061349683613dac565b925060208a01995050600181019050613472565b50829750879550505050505092915050565b60006134c782613d7c565b6134d18185613df9565b93506134dc83613d4b565b8060005b8381101561350d5781516134f48882613346565b97506134ff83613db9565b9250506001810190506134e0565b5085935050505092915050565b600061352582613d7c565b61352f8185613e0a565b935061353a83613d4b565b8060005b8381101561356b5781516135528882613346565b975061355d83613db9565b92505060018101905061353e565b5085935050505092915050565b61358181613f65565b82525050565b61359081613f65565b82525050565b61359f81613f65565b82525050565b60006135b082613d87565b6135ba8185613e1b565b93506135ca818560208601613faa565b6135d381614145565b840191505092915050565b60006135eb602a83613e1b565b91506135f682614156565b604082019050919050565b600061360e600483613e1b565b9150613619826141a5565b602082019050919050565b6000613631600383613e1b565b915061363c826141ce565b602082019050919050565b6000613654600383613e1b565b915061365f826141f7565b602082019050919050565b6000613677600383613e1b565b915061368282614220565b602082019050919050565b600061369a600383613e1b565b91506136a582614249565b602082019050919050565b60006136bd600383613e1b565b91506136c882614272565b602082019050919050565b60006136e0600483613e1b565b91506136eb8261429b565b602082019050919050565b6000613703600383613e1b565b915061370e826142c4565b602082019050919050565b6000613726600483613e1b565b9150613731826142ed565b602082019050919050565b60608201600082015161375260008501826138c0565b506020820151613765602085018261336d565b50604082015161377860408501826138c0565b50505050565b60608201600082015161379460008501826138c0565b5060208201516137a760208501826138c0565b5060408201516137ba6040850182613578565b50505050565b6060820160008201516137d660008501826138ed565b5060208201516137e960208501826138ed565b5060408201516137fc6040850182613596565b50505050565b8082525050565b60006101008301600083015161382260008601826138c0565b506020830151848203602086015261383a82826134bc565b9150506040830151848203604086015261385482826134bc565b915050606083015161386960608601826138c0565b50608083015161387c6080860182613578565b5060a083015161388f60a086018261336d565b5060c08301516138a260c08601826138c0565b5060e08301516138b560e0860182613578565b508091505092915050565b6138c981613f91565b82525050565b6138d881613f91565b82525050565b6138e781613f91565b82525050565b6138f681613f91565b82525050565b6000602082019050613911600083018461335e565b92915050565b600060608201905061392c600083018661337c565b818103602083015261393e818561351a565b90508181036040830152613952818461351a565b9050949350505050565b60006020820190508181036000830152613976818461338b565b905092915050565b6000602082019050818103600083015261399881846133e9565b905092915050565b600060208201905081810360008301526139ba8184613447565b905092915050565b600060208201905081810360008301526139dc81846135a5565b905092915050565b600060208201905081810360008301526139fd816135de565b9050919050565b60006020820190508181036000830152613a1d81613601565b9050919050565b60006020820190508181036000830152613a3d81613624565b9050919050565b60006020820190508181036000830152613a5d81613647565b9050919050565b60006020820190508181036000830152613a7d8161366a565b9050919050565b60006020820190508181036000830152613a9d8161368d565b9050919050565b60006020820190508181036000830152613abd816136b0565b9050919050565b60006020820190508181036000830152613add816136d3565b9050919050565b60006020820190508181036000830152613afd816136f6565b9050919050565b60006020820190508181036000830152613b1d81613719565b9050919050565b6000602082019050613b396000830184613802565b92915050565b6000608082019050613b546000830185613802565b613b6160208301846137c0565b9392505050565b6000604082019050613b7d6000830185613802565b613b8a60208301846138de565b9392505050565b6000602082019050613ba660008301846138cf565b92915050565b6000606082019050613bc160008301866138cf565b613bce602083018561337c565b613bdb60408301846138cf565b949350505050565b6000604082019050613bf860008301856138cf565b613c0560208301846138cf565b9392505050565b600060c082019050613c2160008301896138cf565b613c2e60208301886138cf565b613c3b6040830187613587565b613c48606083018661337c565b613c5560808301856138cf565b613c6260a0830184613587565b979650505050505050565b6000613c77613c88565b9050613c83828261400f565b919050565b6000604051905090565b600067ffffffffffffffff821115613cad57613cac614116565b5b602082029050602081019050919050565b600067ffffffffffffffff821115613cd957613cd8614116565b5b602082029050602081019050919050565b600067ffffffffffffffff821115613d0557613d04614116565b5b613d0e82614145565b9050602081019050919050565b6000819050602082019050919050565b6000819050602082019050919050565b6000819050602082019050919050565b6000819050602082019050919050565b600081519050919050565b600081519050919050565b600081519050919050565b600081519050919050565b600081519050919050565b6000602082019050919050565b6000602082019050919050565b6000602082019050919050565b6000602082019050919050565b600082825260208201905092915050565b600082825260208201905092915050565b600082825260208201905092915050565b600082825260208201905092915050565b600082825260208201905092915050565b600082825260208201905092915050565b6000613e3782613f91565b9150613e4283613f91565b9250827fffffffffffffffffffffffffffffffffffffffffffffffffffffffffffffffff03821115613e7757613e76614089565b5b828201905092915050565b6000613e8d82613f91565b9150613e9883613f91565b925082613ea857613ea76140b8565b5b828204905092915050565b6000613ebe82613f91565b9150613ec983613f91565b9250817fffffffffffffffffffffffffffffffffffffffffffffffffffffffffffffffff0483118215151615613f0257613f01614089565b5b828202905092915050565b6000613f1882613f91565b9150613f2383613f91565b925082821015613f3657613f35614089565b5b828203905092915050565b6000613f4c82613f71565b9050919050565b6000613f5e82613f71565b9050919050565b60008115159050919050565b600073ffffffffffffffffffffffffffffffffffffffff82169050919050565b6000819050919050565b82818337600083830152505050565b60005b83811015613fc8578082015181840152602081019050613fad565b83811115613fd7576000848401525b50505050565b60006002820490506001821680613ff557607f821691505b60208210811415614009576140086140e7565b5b50919050565b61401882614145565b810181811067ffffffffffffffff8211171561403757614036614116565b5b80604052505050565b600061404b82613f91565b91507fffffffffffffffffffffffffffffffffffffffffffffffffffffffffffffffff82141561407e5761407d614089565b5b600182019050919050565b7f4e487b7100000000000000000000000000000000000000000000000000000000600052601160045260246000fd5b7f4e487b7100000000000000000000000000000000000000000000000000000000600052601260045260246000fd5b7f4e487b7100000000000000000000000000000000000000000000000000000000600052602260045260246000fd5b7f4e487b7100000000000000000000000000000000000000000000000000000000600052604160045260246000fd5b6000601f19601f8301169050919050565b7f533a30312054616773206d757374206265206c657373207468616e203238302060008201527f6368617261637465727300000000000000000000000000000000000000000000602082015250565b7f533a303300000000000000000000000000000000000000000000000000000000600082015250565b7f5041310000000000000000000000000000000000000000000000000000000000600082015250565b7f4d54310000000000000000000000000000000000000000000000000000000000600082015250565b7f5041300000000000000000000000000000000000000000000000000000000000600082015250565b7f4752300000000000000000000000000000000000000000000000000000000000600082015250565b7f5041320000000000000000000000000000000000000000000000000000000000600082015250565b7f533a303100000000000000000000000000000000000000000000000000000000600082015250565b7f4d54300000000000000000000000000000000000000000000000000000000000600082015250565b7f533a303000000000000000000000000000000000000000000000000000000000600082015250565b61431f81613f41565b811461432a57600080fd5b50565b61433681613f65565b811461434157600080fd5b50565b61434d81613f91565b811461435857600080fd5b5056fea26469706673582212207e39be47cb734e42a46113a82e7a3e50b200004d9a55e1c750605bc51658967b64736f6c63430008040033",
  "linkReferences": {
    "contracts/library/Catalog.sol": {
      "Catalog": [
        {
          "length": 20,
          "start": 4193
        },
        {
          "length": 20,
          "start": 8306
        },
        {
          "length": 20,
          "start": 10300
        }
      ]
    }
  },
  "deployedLinkReferences": {
    "contracts/library/Catalog.sol": {
      "Catalog": [
        {
          "length": 20,
          "start": 4128
        },
        {
          "length": 20,
          "start": 8241
        },
        {
          "length": 20,
          "start": 10235
        }
      ]
    }
  }
}