{
  "_format": "hh-sol-artifact-1",
  "contractName": "Shop",
  "sourceName": "contracts/Shop.sol",
  "abi": [
    {
      "inputs": [
        {
          "internalType": "address",
          "name": "_owner",
          "type": "address"
        },
        {
          "internalType": "string",
          "name": "_name",
          "type": "string"
        },
        {
          "internalType": "string",
          "name": "_description",
          "type": "string"
        },
        {
          "internalType": "string",
          "name": "_location",
          "type": "string"
        },
        {
          "internalType": "string",
          "name": "_phone",
          "type": "string"
        },
        {
          "internalType": "string",
          "name": "_image",
          "type": "string"
        }
      ],
      "stateMutability": "nonpayable",
      "type": "constructor"
    },
    {
      "anonymous": false,
      "inputs": [
        {
          "indexed": false,
          "internalType": "uint256",
          "name": "itemId",
          "type": "uint256"
        },
        {
          "indexed": false,
          "internalType": "string",
          "name": "name",
          "type": "string"
        },
        {
          "indexed": false,
          "internalType": "string",
          "name": "description",
          "type": "string"
        },
        {
          "indexed": false,
          "internalType": "string",
          "name": "image",
          "type": "string"
        },
        {
          "indexed": false,
          "internalType": "uint256",
          "name": "price",
          "type": "uint256"
        }
      ],
      "name": "ItemCreated",
      "type": "event"
    },
    {
      "inputs": [
        {
          "internalType": "address",
          "name": "affAddr",
          "type": "address"
        }
      ],
      "name": "approveAffiliate",
      "outputs": [],
      "stateMutability": "nonpayable",
      "type": "function"
    },
    {
      "inputs": [
        {
          "internalType": "uint256",
          "name": "",
          "type": "uint256"
        }
      ],
      "name": "catalog",
      "outputs": [
        {
          "internalType": "uint256",
          "name": "itemId",
          "type": "uint256"
        },
        {
          "internalType": "string",
          "name": "name",
          "type": "string"
        },
        {
          "internalType": "string",
          "name": "description",
          "type": "string"
        },
        {
          "internalType": "string",
          "name": "image",
          "type": "string"
        },
        {
          "internalType": "uint256",
          "name": "price",
          "type": "uint256"
        },
        {
          "internalType": "bool",
          "name": "inStock",
          "type": "bool"
        },
        {
          "internalType": "bool",
          "name": "isDeleted",
          "type": "bool"
        }
      ],
      "stateMutability": "view",
      "type": "function"
    },
    {
      "inputs": [
        {
          "internalType": "string",
          "name": "_name",
          "type": "string"
        },
        {
          "internalType": "string",
          "name": "_description",
          "type": "string"
        },
        {
          "internalType": "string",
          "name": "_image",
          "type": "string"
        },
        {
          "internalType": "uint256",
          "name": "_price",
          "type": "uint256"
        }
      ],
      "name": "createItem",
      "outputs": [],
      "stateMutability": "payable",
      "type": "function"
    },
    {
      "inputs": [
        {
          "internalType": "uint256",
          "name": "itemId",
          "type": "uint256"
        }
      ],
      "name": "deleteItem",
      "outputs": [],
      "stateMutability": "nonpayable",
      "type": "function"
    },
    {
      "inputs": [],
      "name": "description",
      "outputs": [
        {
          "internalType": "string",
          "name": "",
          "type": "string"
        }
      ],
      "stateMutability": "view",
      "type": "function"
    },
    {
      "inputs": [],
      "name": "fetchCatalogItems",
      "outputs": [
        {
          "components": [
            {
              "internalType": "uint256",
              "name": "itemId",
              "type": "uint256"
            },
            {
              "internalType": "string",
              "name": "name",
              "type": "string"
            },
            {
              "internalType": "string",
              "name": "description",
              "type": "string"
            },
            {
              "internalType": "string",
              "name": "image",
              "type": "string"
            },
            {
              "internalType": "uint256",
              "name": "price",
              "type": "uint256"
            },
            {
              "internalType": "bool",
              "name": "inStock",
              "type": "bool"
            },
            {
              "internalType": "bool",
              "name": "isDeleted",
              "type": "bool"
            }
          ],
          "internalType": "struct Shop.Item[]",
          "name": "",
          "type": "tuple[]"
        }
      ],
      "stateMutability": "view",
      "type": "function"
    },
    {
      "inputs": [],
      "name": "fetchTransactions",
      "outputs": [
        {
          "components": [
            {
              "internalType": "uint256",
              "name": "transId",
              "type": "uint256"
            },
            {
              "internalType": "uint256[]",
              "name": "itemIds",
              "type": "uint256[]"
            },
            {
              "internalType": "uint256[]",
              "name": "itemQty",
              "type": "uint256[]"
            },
            {
              "internalType": "uint256",
              "name": "total",
              "type": "uint256"
            },
            {
              "internalType": "bool",
              "name": "isValid",
              "type": "bool"
            },
            {
              "internalType": "address",
              "name": "client",
              "type": "address"
            },
            {
              "internalType": "uint256",
              "name": "review",
              "type": "uint256"
            },
            {
              "internalType": "bool",
              "name": "isReviewed",
              "type": "bool"
            },
            {
              "internalType": "address",
              "name": "affilate",
              "type": "address"
            },
            {
              "internalType": "uint256",
              "name": "affPercentage",
              "type": "uint256"
            }
          ],
          "internalType": "struct Shop.Trans[]",
          "name": "",
          "type": "tuple[]"
        }
      ],
      "stateMutability": "view",
      "type": "function"
    },
    {
      "inputs": [],
      "name": "freeTransactions",
      "outputs": [
        {
          "internalType": "uint256",
          "name": "",
          "type": "uint256"
        }
      ],
      "stateMutability": "view",
      "type": "function"
    },
    {
      "inputs": [],
      "name": "getProposedAffiliates",
      "outputs": [
        {
          "components": [
            {
              "internalType": "uint256",
              "name": "percentage",
              "type": "uint256"
            },
            {
              "internalType": "address",
              "name": "affAddr",
              "type": "address"
            },
            {
              "internalType": "uint256",
              "name": "id",
              "type": "uint256"
            }
          ],
          "internalType": "struct Shop.Affiliate[]",
          "name": "",
          "type": "tuple[]"
        }
      ],
      "stateMutability": "view",
      "type": "function"
    },
    {
      "inputs": [
        {
          "internalType": "uint256",
          "name": "stars",
          "type": "uint256"
        },
        {
          "internalType": "uint256",
          "name": "transId",
          "type": "uint256"
        }
      ],
      "name": "giveReview",
      "outputs": [],
      "stateMutability": "nonpayable",
      "type": "function"
    },
    {
      "inputs": [],
      "name": "governor",
      "outputs": [
        {
          "internalType": "address payable",
          "name": "",
          "type": "address"
        }
      ],
      "stateMutability": "view",
      "type": "function"
    },
    {
      "inputs": [],
      "name": "image",
      "outputs": [
        {
          "internalType": "string",
          "name": "",
          "type": "string"
        }
      ],
      "stateMutability": "view",
      "type": "function"
    },
    {
      "inputs": [],
      "name": "location",
      "outputs": [
        {
          "internalType": "string",
          "name": "",
          "type": "string"
        }
      ],
      "stateMutability": "view",
      "type": "function"
    },
    {
      "inputs": [
        {
          "internalType": "uint256[]",
          "name": "itemIds",
          "type": "uint256[]"
        },
        {
          "internalType": "uint256[]",
          "name": "itemQty",
          "type": "uint256[]"
        },
        {
          "internalType": "address",
          "name": "affAddr",
          "type": "address"
        }
      ],
      "name": "makeAffTransaction",
      "outputs": [
        {
          "internalType": "uint256",
          "name": "transactionId",
          "type": "uint256"
        }
      ],
      "stateMutability": "payable",
      "type": "function"
    },
    {
      "inputs": [
        {
          "internalType": "uint256[]",
          "name": "itemIds",
          "type": "uint256[]"
        },
        {
          "internalType": "uint256[]",
          "name": "itemQty",
          "type": "uint256[]"
        }
      ],
      "name": "makeTransaction",
      "outputs": [
        {
          "internalType": "uint256",
          "name": "transactionId",
          "type": "uint256"
        }
      ],
      "stateMutability": "payable",
      "type": "function"
    },
    {
      "inputs": [],
      "name": "name",
      "outputs": [
        {
          "internalType": "string",
          "name": "",
          "type": "string"
        }
      ],
      "stateMutability": "view",
      "type": "function"
    },
    {
      "inputs": [],
      "name": "owner",
      "outputs": [
        {
          "internalType": "address payable",
          "name": "",
          "type": "address"
        }
      ],
      "stateMutability": "view",
      "type": "function"
    },
    {
      "inputs": [],
      "name": "phone",
      "outputs": [
        {
          "internalType": "string",
          "name": "",
          "type": "string"
        }
      ],
      "stateMutability": "view",
      "type": "function"
    },
    {
      "inputs": [
        {
          "internalType": "uint256",
          "name": "percentage",
          "type": "uint256"
        }
      ],
      "name": "proposeAffiliate",
      "outputs": [],
      "stateMutability": "nonpayable",
      "type": "function"
    },
    {
      "inputs": [
        {
          "internalType": "uint256",
          "name": "",
          "type": "uint256"
        }
      ],
      "name": "proposedAffArr",
      "outputs": [
        {
          "internalType": "uint256",
          "name": "percentage",
          "type": "uint256"
        },
        {
          "internalType": "address",
          "name": "affAddr",
          "type": "address"
        },
        {
          "internalType": "uint256",
          "name": "id",
          "type": "uint256"
        }
      ],
      "stateMutability": "view",
      "type": "function"
    },
    {
      "inputs": [],
      "name": "selfDestruct",
      "outputs": [],
      "stateMutability": "nonpayable",
      "type": "function"
    },
    {
      "inputs": [
        {
          "internalType": "uint256",
          "name": "_freeTransactions",
          "type": "uint256"
        }
      ],
      "name": "setFreeTransactions",
      "outputs": [],
      "stateMutability": "nonpayable",
      "type": "function"
    },
    {
      "inputs": [
        {
          "internalType": "uint256",
          "name": "itemId",
          "type": "uint256"
        },
        {
          "internalType": "bool",
          "name": "_inStock",
          "type": "bool"
        }
      ],
      "name": "setInStock",
      "outputs": [],
      "stateMutability": "nonpayable",
      "type": "function"
    },
    {
      "inputs": [
        {
          "internalType": "uint256",
          "name": "",
          "type": "uint256"
        }
      ],
      "name": "transactions",
      "outputs": [
        {
          "internalType": "uint256",
          "name": "transId",
          "type": "uint256"
        },
        {
          "internalType": "uint256",
          "name": "total",
          "type": "uint256"
        },
        {
          "internalType": "bool",
          "name": "isValid",
          "type": "bool"
        },
        {
          "internalType": "address",
          "name": "client",
          "type": "address"
        },
        {
          "internalType": "uint256",
          "name": "review",
          "type": "uint256"
        },
        {
          "internalType": "bool",
          "name": "isReviewed",
          "type": "bool"
        },
        {
          "internalType": "address",
          "name": "affilate",
          "type": "address"
        },
        {
          "internalType": "uint256",
          "name": "affPercentage",
          "type": "uint256"
        }
      ],
      "stateMutability": "view",
      "type": "function"
    },
    {
      "inputs": [],
      "name": "transactionsCount",
      "outputs": [
        {
          "internalType": "uint256",
          "name": "_value",
          "type": "uint256"
        }
      ],
      "stateMutability": "view",
      "type": "function"
    }
  ],
  "bytecode": "0x60806040526103e86008553480156200001757600080fd5b50604051620043383803806200433883398181016040528101906200003d919062000281565b85600660006101000a81548173ffffffffffffffffffffffffffffffffffffffff021916908373ffffffffffffffffffffffffffffffffffffffff16021790555084600090805190602001906200009692919062000148565b508360019080519060200190620000af92919062000148565b508260029080519060200190620000c892919062000148565b508160039080519060200190620000e192919062000148565b508060049080519060200190620000fa92919062000148565b5033600760006101000a81548173ffffffffffffffffffffffffffffffffffffffff021916908373ffffffffffffffffffffffffffffffffffffffff16021790555050505050505062000552565b82805462000156906200045d565b90600052602060002090601f0160209004810192826200017a5760008555620001c6565b82601f106200019557805160ff1916838001178555620001c6565b82800160010185558215620001c6579182015b82811115620001c5578251825591602001919060010190620001a8565b5b509050620001d59190620001d9565b5090565b5b80821115620001f4576000816000905550600101620001da565b5090565b60006200020f6200020984620003bd565b62000394565b9050828152602081018484840111156200022857600080fd5b6200023584828562000427565b509392505050565b6000815190506200024e8162000538565b92915050565b600082601f8301126200026657600080fd5b815162000278848260208601620001f8565b91505092915050565b60008060008060008060c087890312156200029b57600080fd5b6000620002ab89828a016200023d565b965050602087015167ffffffffffffffff811115620002c957600080fd5b620002d789828a0162000254565b955050604087015167ffffffffffffffff811115620002f557600080fd5b6200030389828a0162000254565b945050606087015167ffffffffffffffff8111156200032157600080fd5b6200032f89828a0162000254565b935050608087015167ffffffffffffffff8111156200034d57600080fd5b6200035b89828a0162000254565b92505060a087015167ffffffffffffffff8111156200037957600080fd5b6200038789828a0162000254565b9150509295509295509295565b6000620003a0620003b3565b9050620003ae828262000493565b919050565b6000604051905090565b600067ffffffffffffffff821115620003db57620003da620004f8565b5b620003e68262000527565b9050602081019050919050565b6000620004008262000407565b9050919050565b600073ffffffffffffffffffffffffffffffffffffffff82169050919050565b60005b83811015620004475780820151818401526020810190506200042a565b8381111562000457576000848401525b50505050565b600060028204905060018216806200047657607f821691505b602082108114156200048d576200048c620004c9565b5b50919050565b6200049e8262000527565b810181811067ffffffffffffffff82111715620004c057620004bf620004f8565b5b80604052505050565b7f4e487b7100000000000000000000000000000000000000000000000000000000600052602260045260246000fd5b7f4e487b7100000000000000000000000000000000000000000000000000000000600052604160045260246000fd5b6000601f19601f8301169050919050565b6200054381620003f3565b81146200054f57600080fd5b50565b613dd680620005626000396000f3fe6080604052600436106101665760003560e01c80637ac1bc00116100d15780639cb8a26a1161008a578063f0547bc811610064578063f0547bc814610514578063f3ccaac01461053d578063f5b89aac14610568578063fd99a7461461059357610166565b80639cb8a26a1461048f578063c79c6dba146104a6578063ea5de25b146104d157610166565b80637ac1bc00146103715780638013f0b61461038d5780638b4989af146103cc5780638da5cb5b146103f55780639284f497146104205780639ace38c21461044b57610166565b80634118afad116101235780634118afad14610270578063516f279e146102a05780635606d2ec146102cb5780635f6ad596146102f4578063654fc8331461031d5780637284e4161461034657610166565b80630632999e1461016b57806306fdde031461019b578063090567d2146101c65780630c340a24146101ef5780630cc9dc7d1461021a5780632477eaae14610245575b600080fd5b61018560048036038101906101809190612d46565b6105be565b60405161019291906135ec565b60405180910390f35b3480156101a757600080fd5b506101b0610c23565b6040516101bd919061350a565b60405180910390f35b3480156101d257600080fd5b506101ed60048036038101906101e89190612e70565b610cb1565b005b3480156101fb57600080fd5b50610204610d4b565b6040516102119190613489565b60405180910390f35b34801561022657600080fd5b5061022f610d71565b60405161023c91906135ec565b60405180910390f35b34801561025157600080fd5b5061025a610d77565b60405161026791906134e8565b60405180910390f35b61028a60048036038101906102859190612cda565b610f91565b60405161029791906135ec565b60405180910390f35b3480156102ac57600080fd5b506102b561146b565b6040516102c2919061350a565b60405180910390f35b3480156102d757600080fd5b506102f260048036038101906102ed9190612e99565b6114f9565b005b34801561030057600080fd5b5061031b60048036038101906103169190612e70565b6115f0565b005b34801561032957600080fd5b50610344600480360381019061033f9190612e70565b611769565b005b34801561035257600080fd5b5061035b6118dc565b604051610368919061350a565b60405180910390f35b61038b60048036038101906103869190612dc5565b61196a565b005b34801561039957600080fd5b506103b460048036038101906103af9190612e70565b611bbb565b6040516103c393929190613607565b60405180910390f35b3480156103d857600080fd5b506103f360048036038101906103ee9190612ed5565b611c15565b005b34801561040157600080fd5b5061040a611da6565b6040516104179190613489565b60405180910390f35b34801561042c57600080fd5b50610435611dcc565b604051610442919061350a565b60405180910390f35b34801561045757600080fd5b50610472600480360381019061046d9190612e70565b611e5a565b60405161048698979695949392919061372a565b60405180910390f35b34801561049b57600080fd5b506104a4611f0c565b005b3480156104b257600080fd5b506104bb611fd7565b6040516104c891906134a4565b60405180910390f35b3480156104dd57600080fd5b506104f860048036038101906104f39190612e70565b612130565b60405161050b97969594939291906136a6565b60405180910390f35b34801561052057600080fd5b5061053b60048036038101906105369190612cb1565b612334565b005b34801561054957600080fd5b50610552612725565b60405161055f919061350a565b60405180910390f35b34801561057457600080fd5b5061057d6127b3565b60405161058a91906134c6565b60405180910390f35b34801561059f57600080fd5b506105a8612a12565b6040516105b591906135ec565b60405180910390f35b600080601060008473ffffffffffffffffffffffffffffffffffffffff1673ffffffffffffffffffffffffffffffffffffffff168152602001908152602001600020604051806060016040529081600082015481526020016001820160009054906101000a900473ffffffffffffffffffffffffffffffffffffffff1673ffffffffffffffffffffffffffffffffffffffff1673ffffffffffffffffffffffffffffffffffffffff16815260200160028201548152505090506000816040015114156106bf576040517f08c379a00000000000000000000000000000000000000000000000000000000081526004016106b6906135cc565b60405180910390fd5b6000805b86518110156107c357858181518110610705577f4e487b7100000000000000000000000000000000000000000000000000000000600052603260045260246000fd5b60200260200101516005888381518110610748577f4e487b7100000000000000000000000000000000000000000000000000000000600052603260045260246000fd5b602002602001015181548110610787577f4e487b7100000000000000000000000000000000000000000000000000000000600052603260045260246000fd5b9060005260206000209060060201600401546107a391906139c2565b826107ae919061393b565b915080806107bb90613b4f565b9150506106c3565b5080341015610807576040517f08c379a00000000000000000000000000000000000000000000000000000000081526004016107fe9061352c565b60405180910390fd5b610811600b612a1e565b60085461081e600b612a34565b11156109b857600061083a606483612a4290919063ffffffff16565b90506000610868846000015161085a606486612a4290919063ffffffff16565b612a5890919063ffffffff16565b90506000610891826108838587612a6e90919063ffffffff16565b612a6e90919063ffffffff16565b9050600760009054906101000a900473ffffffffffffffffffffffffffffffffffffffff1673ffffffffffffffffffffffffffffffffffffffff166108fc849081150290604051600060405180830381858888f193505050501580156108fb573d6000803e3d6000fd5b50600660009054906101000a900473ffffffffffffffffffffffffffffffffffffffff1673ffffffffffffffffffffffffffffffffffffffff166108fc829081150290604051600060405180830381858888f19350505050158015610964573d6000803e3d6000fd5b50846020015173ffffffffffffffffffffffffffffffffffffffff166108fc839081150290604051600060405180830381858888f193505050501580156109af573d6000803e3d6000fd5b50505050610a22565b600660009054906101000a900473ffffffffffffffffffffffffffffffffffffffff1673ffffffffffffffffffffffffffffffffffffffff166108fc829081150290604051600060405180830381858888f19350505050158015610a20573d6000803e3d6000fd5b505b6000610a2e600a612a34565b9050600c6040518061014001604052808381526020018981526020018881526020018481526020016001151581526020013373ffffffffffffffffffffffffffffffffffffffff168152602001600081526020016000151581526020018773ffffffffffffffffffffffffffffffffffffffff16815260200185600001518152509080600181540180825580915050600190039060005260206000209060080201600090919091909150600082015181600001556020820151816001019080519060200190610afe929190612a84565b506040820151816002019080519060200190610b1b929190612a84565b506060820151816003015560808201518160040160006101000a81548160ff02191690831515021790555060a08201518160040160016101000a81548173ffffffffffffffffffffffffffffffffffffffff021916908373ffffffffffffffffffffffffffffffffffffffff16021790555060c0820151816005015560e08201518160060160006101000a81548160ff0219169083151502179055506101008201518160060160016101000a81548173ffffffffffffffffffffffffffffffffffffffff021916908373ffffffffffffffffffffffffffffffffffffffff16021790555061012082015181600701555050610c16600a612a1e565b8093505050509392505050565b60008054610c3090613aec565b80601f0160208091040260200160405190810160405280929190818152602001828054610c5c90613aec565b8015610ca95780601f10610c7e57610100808354040283529160200191610ca9565b820191906000526020600020905b815481529060010190602001808311610c8c57829003601f168201915b505050505081565b600760009054906101000a900473ffffffffffffffffffffffffffffffffffffffff1673ffffffffffffffffffffffffffffffffffffffff163373ffffffffffffffffffffffffffffffffffffffff1614610d41576040517f08c379a0000000000000000000000000000000000000000000000000000000008152600401610d38906135ac565b60405180910390fd5b8060088190555050565b600760009054906101000a900473ffffffffffffffffffffffffffffffffffffffff1681565b60085481565b6060600c805480602002602001604051908101604052809291908181526020016000905b82821015610f885783829060005260206000209060080201604051806101400160405290816000820154815260200160018201805480602002602001604051908101604052809291908181526020018280548015610e1857602002820191906000526020600020905b815481526020019060010190808311610e04575b5050505050815260200160028201805480602002602001604051908101604052809291908181526020018280548015610e7057602002820191906000526020600020905b815481526020019060010190808311610e5c575b50505050508152602001600382015481526020016004820160009054906101000a900460ff161515151581526020016004820160019054906101000a900473ffffffffffffffffffffffffffffffffffffffff1673ffffffffffffffffffffffffffffffffffffffff1673ffffffffffffffffffffffffffffffffffffffff168152602001600582015481526020016006820160009054906101000a900460ff161515151581526020016006820160019054906101000a900473ffffffffffffffffffffffffffffffffffffffff1673ffffffffffffffffffffffffffffffffffffffff1673ffffffffffffffffffffffffffffffffffffffff16815260200160078201548152505081526020019060010190610d9b565b50505050905090565b6000806000905060005b845181101561109b57838181518110610fdd577f4e487b7100000000000000000000000000000000000000000000000000000000600052603260045260246000fd5b60200260200101516005868381518110611020577f4e487b7100000000000000000000000000000000000000000000000000000000600052603260045260246000fd5b60200260200101518154811061105f577f4e487b7100000000000000000000000000000000000000000000000000000000600052603260045260246000fd5b90600052602060002090600602016004015461107b91906139c2565b82611086919061393b565b9150808061109390613b4f565b915050610f9b565b50803410156110df576040517f08c379a00000000000000000000000000000000000000000000000000000000081526004016110d69061352c565b60405180910390fd5b6110e9600b612a1e565b6008546110f6600b612a34565b1115611204576000611112606483612a4290919063ffffffff16565b905060006111298284612a6e90919063ffffffff16565b9050600760009054906101000a900473ffffffffffffffffffffffffffffffffffffffff1673ffffffffffffffffffffffffffffffffffffffff166108fc839081150290604051600060405180830381858888f19350505050158015611193573d6000803e3d6000fd5b50600660009054906101000a900473ffffffffffffffffffffffffffffffffffffffff1673ffffffffffffffffffffffffffffffffffffffff166108fc829081150290604051600060405180830381858888f193505050501580156111fc573d6000803e3d6000fd5b50505061126e565b600660009054906101000a900473ffffffffffffffffffffffffffffffffffffffff1673ffffffffffffffffffffffffffffffffffffffff166108fc829081150290604051600060405180830381858888f1935050505015801561126c573d6000803e3d6000fd5b505b600061127a600a612a34565b9050600c6040518061014001604052808381526020018781526020018681526020018481526020016001151581526020013373ffffffffffffffffffffffffffffffffffffffff16815260200160008152602001600015158152602001600073ffffffffffffffffffffffffffffffffffffffff16815260200160008152509080600181540180825580915050600190039060005260206000209060080201600090919091909150600082015181600001556020820151816001019080519060200190611348929190612a84565b506040820151816002019080519060200190611365929190612a84565b506060820151816003015560808201518160040160006101000a81548160ff02191690831515021790555060a08201518160040160016101000a81548173ffffffffffffffffffffffffffffffffffffffff021916908373ffffffffffffffffffffffffffffffffffffffff16021790555060c0820151816005015560e08201518160060160006101000a81548160ff0219169083151502179055506101008201518160060160016101000a81548173ffffffffffffffffffffffffffffffffffffffff021916908373ffffffffffffffffffffffffffffffffffffffff16021790555061012082015181600701555050611460600a612a1e565b809250505092915050565b6002805461147890613aec565b80601f01602080910402602001604051908101604052809291908181526020018280546114a490613aec565b80156114f15780601f106114c6576101008083540402835291602001916114f1565b820191906000526020600020905b8154815290600101906020018083116114d457829003601f168201915b505050505081565b600660009054906101000a900473ffffffffffffffffffffffffffffffffffffffff1673ffffffffffffffffffffffffffffffffffffffff163373ffffffffffffffffffffffffffffffffffffffff1614611589576040517f08c379a00000000000000000000000000000000000000000000000000000000081526004016115809061358c565b60405180910390fd5b80600583815481106115c4577f4e487b7100000000000000000000000000000000000000000000000000000000600052603260045260246000fd5b906000526020600020906006020160050160006101000a81548160ff0219169083151502179055505050565b60006115fc600d612a34565b9050600060405180606001604052808481526020013373ffffffffffffffffffffffffffffffffffffffff16815260200183815250905080600f60003373ffffffffffffffffffffffffffffffffffffffff1673ffffffffffffffffffffffffffffffffffffffff1681526020019081526020016000206000820151816000015560208201518160010160006101000a81548173ffffffffffffffffffffffffffffffffffffffff021916908373ffffffffffffffffffffffffffffffffffffffff16021790555060408201518160020155905050600e8190806001815401808255809150506001900390600052602060002090600302016000909190919091506000820151816000015560208201518160010160006101000a81548173ffffffffffffffffffffffffffffffffffffffff021916908373ffffffffffffffffffffffffffffffffffffffff160217905550604082015181600201555050611764600d612a1e565b505050565b600660009054906101000a900473ffffffffffffffffffffffffffffffffffffffff1673ffffffffffffffffffffffffffffffffffffffff163373ffffffffffffffffffffffffffffffffffffffff16146117f9576040517f08c379a00000000000000000000000000000000000000000000000000000000081526004016117f09061358c565b60405180910390fd5b60005b6005805490508110156118d8578160058281548110611844577f4e487b7100000000000000000000000000000000000000000000000000000000600052603260045260246000fd5b90600052602060002090600602016000015414156118c557600160058281548110611898577f4e487b7100000000000000000000000000000000000000000000000000000000600052603260045260246000fd5b906000526020600020906006020160050160016101000a81548160ff0219169083151502179055506118d8565b80806118d090613b4f565b9150506117fc565b5050565b600180546118e990613aec565b80601f016020809104026020016040519081016040528092919081815260200182805461191590613aec565b80156119625780601f1061193757610100808354040283529160200191611962565b820191906000526020600020905b81548152906001019060200180831161194557829003601f168201915b505050505081565b600660009054906101000a900473ffffffffffffffffffffffffffffffffffffffff1673ffffffffffffffffffffffffffffffffffffffff163373ffffffffffffffffffffffffffffffffffffffff16146119fa576040517f08c379a00000000000000000000000000000000000000000000000000000000081526004016119f19061358c565b60405180910390fd5b6064611a066009612a34565b10611a46576040517f08c379a0000000000000000000000000000000000000000000000000000000008152600401611a3d9061356c565b60405180910390fd5b6000611a526009612a34565b905060006040518060e00160405280838152602001878152602001868152602001858152602001848152602001600115158152602001600015158152509050611a9b6009612a1e565b6005819080600181540180825580915050600190039060005260206000209060060201600090919091909150600082015181600001556020820151816001019080519060200190611aed929190612ad1565b506040820151816002019080519060200190611b0a929190612ad1565b506060820151816003019080519060200190611b27929190612ad1565b506080820151816004015560a08201518160050160006101000a81548160ff02191690831515021790555060c08201518160050160016101000a81548160ff02191690831515021790555050507f96879d8966d9359f51d0296e82bd5d835bae805b2011fc95f5e23f1d8b797b428287878787604051611bab95949392919061363e565b60405180910390a1505050505050565b600e8181548110611bcb57600080fd5b90600052602060002090600302016000915090508060000154908060010160009054906101000a900473ffffffffffffffffffffffffffffffffffffffff16908060020154905083565b3373ffffffffffffffffffffffffffffffffffffffff16600c8281548110611c66577f4e487b7100000000000000000000000000000000000000000000000000000000600052603260045260246000fd5b906000526020600020906008020160040160019054906101000a900473ffffffffffffffffffffffffffffffffffffffff1673ffffffffffffffffffffffffffffffffffffffff1614611cee576040517f08c379a0000000000000000000000000000000000000000000000000000000008152600401611ce59061354c565b60405180910390fd5b81600c8281548110611d29577f4e487b7100000000000000000000000000000000000000000000000000000000600052603260045260246000fd5b9060005260206000209060080201600501819055506001600c8281548110611d7a577f4e487b7100000000000000000000000000000000000000000000000000000000600052603260045260246000fd5b906000526020600020906008020160060160006101000a81548160ff0219169083151502179055505050565b600660009054906101000a900473ffffffffffffffffffffffffffffffffffffffff1681565b60038054611dd990613aec565b80601f0160208091040260200160405190810160405280929190818152602001828054611e0590613aec565b8015611e525780601f10611e2757610100808354040283529160200191611e52565b820191906000526020600020905b815481529060010190602001808311611e3557829003601f168201915b505050505081565b600c8181548110611e6a57600080fd5b90600052602060002090600802016000915090508060000154908060030154908060040160009054906101000a900460ff16908060040160019054906101000a900473ffffffffffffffffffffffffffffffffffffffff16908060050154908060060160009054906101000a900460ff16908060060160019054906101000a900473ffffffffffffffffffffffffffffffffffffffff16908060070154905088565b600760009054906101000a900473ffffffffffffffffffffffffffffffffffffffff1673ffffffffffffffffffffffffffffffffffffffff163373ffffffffffffffffffffffffffffffffffffffff1614611f9c576040517f08c379a0000000000000000000000000000000000000000000000000000000008152600401611f93906135ac565b60405180910390fd5b600760009054906101000a900473ffffffffffffffffffffffffffffffffffffffff1673ffffffffffffffffffffffffffffffffffffffff16ff5b6060600660009054906101000a900473ffffffffffffffffffffffffffffffffffffffff1673ffffffffffffffffffffffffffffffffffffffff163373ffffffffffffffffffffffffffffffffffffffff1614612069576040517f08c379a00000000000000000000000000000000000000000000000000000000081526004016120609061358c565b60405180910390fd5b600e805480602002602001604051908101604052809291908181526020016000905b828210156121275783829060005260206000209060030201604051806060016040529081600082015481526020016001820160009054906101000a900473ffffffffffffffffffffffffffffffffffffffff1673ffffffffffffffffffffffffffffffffffffffff1673ffffffffffffffffffffffffffffffffffffffff1681526020016002820154815250508152602001906001019061208b565b50505050905090565b6005818154811061214057600080fd5b906000526020600020906006020160009150905080600001549080600101805461216990613aec565b80601f016020809104026020016040519081016040528092919081815260200182805461219590613aec565b80156121e25780601f106121b7576101008083540402835291602001916121e2565b820191906000526020600020905b8154815290600101906020018083116121c557829003601f168201915b5050505050908060020180546121f790613aec565b80601f016020809104026020016040519081016040528092919081815260200182805461222390613aec565b80156122705780601f1061224557610100808354040283529160200191612270565b820191906000526020600020905b81548152906001019060200180831161225357829003601f168201915b50505050509080600301805461228590613aec565b80601f01602080910402602001604051908101604052809291908181526020018280546122b190613aec565b80156122fe5780601f106122d3576101008083540402835291602001916122fe565b820191906000526020600020905b8154815290600101906020018083116122e157829003601f168201915b5050505050908060040154908060050160009054906101000a900460ff16908060050160019054906101000a900460ff16905087565b600660009054906101000a900473ffffffffffffffffffffffffffffffffffffffff1673ffffffffffffffffffffffffffffffffffffffff163373ffffffffffffffffffffffffffffffffffffffff16146123c4576040517f08c379a00000000000000000000000000000000000000000000000000000000081526004016123bb9061358c565b60405180910390fd5b600f60008273ffffffffffffffffffffffffffffffffffffffff1673ffffffffffffffffffffffffffffffffffffffff168152602001908152602001600020601060008373ffffffffffffffffffffffffffffffffffffffff1673ffffffffffffffffffffffffffffffffffffffff168152602001908152602001600020600082015481600001556001820160009054906101000a900473ffffffffffffffffffffffffffffffffffffffff168160010160006101000a81548173ffffffffffffffffffffffffffffffffffffffff021916908373ffffffffffffffffffffffffffffffffffffffff160217905550600282015481600201559050506000600f60008373ffffffffffffffffffffffffffffffffffffffff1673ffffffffffffffffffffffffffffffffffffffff168152602001908152602001600020600201549050600e8181548110612541577f4e487b7100000000000000000000000000000000000000000000000000000000600052603260045260246000fd5b90600052602060002090600302016000808201600090556001820160006101000a81549073ffffffffffffffffffffffffffffffffffffffff021916905560028201600090555050600e6001600e8054905061259d9190613a1c565b815481106125d4577f4e487b7100000000000000000000000000000000000000000000000000000000600052603260045260246000fd5b9060005260206000209060030201600e828154811061261c577f4e487b7100000000000000000000000000000000000000000000000000000000600052603260045260246000fd5b9060005260206000209060030201600082015481600001556001820160009054906101000a900473ffffffffffffffffffffffffffffffffffffffff168160010160006101000a81548173ffffffffffffffffffffffffffffffffffffffff021916908373ffffffffffffffffffffffffffffffffffffffff16021790555060028201548160020155905050600f60008373ffffffffffffffffffffffffffffffffffffffff1673ffffffffffffffffffffffffffffffffffffffff1681526020019081526020016000206000808201600090556001820160006101000a81549073ffffffffffffffffffffffffffffffffffffffff0219169055600282016000905550505050565b6004805461273290613aec565b80601f016020809104026020016040519081016040528092919081815260200182805461275e90613aec565b80156127ab5780601f10612780576101008083540402835291602001916127ab565b820191906000526020600020905b81548152906001019060200180831161278e57829003601f168201915b505050505081565b60606005805480602002602001604051908101604052809291908181526020016000905b82821015612a0957838290600052602060002090600602016040518060e00160405290816000820154815260200160018201805461281490613aec565b80601f016020809104026020016040519081016040528092919081815260200182805461284090613aec565b801561288d5780601f106128625761010080835404028352916020019161288d565b820191906000526020600020905b81548152906001019060200180831161287057829003601f168201915b505050505081526020016002820180546128a690613aec565b80601f01602080910402602001604051908101604052809291908181526020018280546128d290613aec565b801561291f5780601f106128f45761010080835404028352916020019161291f565b820191906000526020600020905b81548152906001019060200180831161290257829003601f168201915b5050505050815260200160038201805461293890613aec565b80601f016020809104026020016040519081016040528092919081815260200182805461296490613aec565b80156129b15780601f10612986576101008083540402835291602001916129b1565b820191906000526020600020905b81548152906001019060200180831161299457829003601f168201915b50505050508152602001600482015481526020016005820160009054906101000a900460ff161515151581526020016005820160019054906101000a900460ff161515151581525050815260200190600101906127d7565b50505050905090565b600b8060000154905081565b6001816000016000828254019250508190555050565b600081600001549050919050565b60008183612a509190613991565b905092915050565b60008183612a6691906139c2565b905092915050565b60008183612a7c9190613a1c565b905092915050565b828054828255906000526020600020908101928215612ac0579160200282015b82811115612abf578251825591602001919060010190612aa4565b5b509050612acd9190612b57565b5090565b828054612add90613aec565b90600052602060002090601f016020900481019282612aff5760008555612b46565b82601f10612b1857805160ff1916838001178555612b46565b82800160010185558215612b46579182015b82811115612b45578251825591602001919060010190612b2a565b5b509050612b539190612b57565b5090565b5b80821115612b70576000816000905550600101612b58565b5090565b6000612b87612b82846137cd565b6137a8565b90508083825260208201905082856020860282011115612ba657600080fd5b60005b85811015612bd65781612bbc8882612c9c565b845260208401935060208301925050600181019050612ba9565b5050509392505050565b6000612bf3612bee846137f9565b6137a8565b905082815260208101848484011115612c0b57600080fd5b612c16848285613aaa565b509392505050565b600081359050612c2d81613d5b565b92915050565b600082601f830112612c4457600080fd5b8135612c54848260208601612b74565b91505092915050565b600081359050612c6c81613d72565b92915050565b600082601f830112612c8357600080fd5b8135612c93848260208601612be0565b91505092915050565b600081359050612cab81613d89565b92915050565b600060208284031215612cc357600080fd5b6000612cd184828501612c1e565b91505092915050565b60008060408385031215612ced57600080fd5b600083013567ffffffffffffffff811115612d0757600080fd5b612d1385828601612c33565b925050602083013567ffffffffffffffff811115612d3057600080fd5b612d3c85828601612c33565b9150509250929050565b600080600060608486031215612d5b57600080fd5b600084013567ffffffffffffffff811115612d7557600080fd5b612d8186828701612c33565b935050602084013567ffffffffffffffff811115612d9e57600080fd5b612daa86828701612c33565b9250506040612dbb86828701612c1e565b9150509250925092565b60008060008060808587031215612ddb57600080fd5b600085013567ffffffffffffffff811115612df557600080fd5b612e0187828801612c72565b945050602085013567ffffffffffffffff811115612e1e57600080fd5b612e2a87828801612c72565b935050604085013567ffffffffffffffff811115612e4757600080fd5b612e5387828801612c72565b9250506060612e6487828801612c9c565b91505092959194509250565b600060208284031215612e8257600080fd5b6000612e9084828501612c9c565b91505092915050565b60008060408385031215612eac57600080fd5b6000612eba85828601612c9c565b9250506020612ecb85828601612c5d565b9150509250929050565b60008060408385031215612ee857600080fd5b6000612ef685828601612c9c565b9250506020612f0785828601612c9c565b9150509250929050565b6000612f1d838361329e565b60608301905092915050565b6000612f3583836132e0565b905092915050565b6000612f49838361338a565b905092915050565b6000612f5d838361346b565b60208301905092915050565b612f7281613a62565b82525050565b612f8181613a50565b82525050565b612f9081613a50565b82525050565b6000612fa18261386a565b612fab81856138d5565b9350612fb68361382a565b8060005b83811015612fe7578151612fce8882612f11565b9750612fd9836138a1565b925050600181019050612fba565b5085935050505092915050565b6000612fff82613875565b61300981856138e6565b93508360208202850161301b8561383a565b8060005b8581101561305757848403895281516130388582612f29565b9450613043836138ae565b925060208a0199505060018101905061301f565b50829750879550505050505092915050565b600061307482613880565b61307e81856138f7565b9350836020820285016130908561384a565b8060005b858110156130cc57848403895281516130ad8582612f3d565b94506130b8836138bb565b925060208a01995050600181019050613094565b50829750879550505050505092915050565b60006130e98261388b565b6130f38185613908565b93506130fe8361385a565b8060005b8381101561312f5781516131168882612f51565b9750613121836138c8565b925050600181019050613102565b5085935050505092915050565b61314581613a74565b82525050565b61315481613a74565b82525050565b600061316582613896565b61316f8185613919565b935061317f818560208601613ab9565b61318881613c54565b840191505092915050565b600061319e82613896565b6131a8818561392a565b93506131b8818560208601613ab9565b6131c181613c54565b840191505092915050565b60006131d960168361392a565b91506131e482613c65565b602082019050919050565b60006131fc60148361392a565b915061320782613c8e565b602082019050919050565b600061321f601c8361392a565b915061322a82613cb7565b602082019050919050565b600061324260138361392a565b915061324d82613ce0565b602082019050919050565b600061326560168361392a565b915061327082613d09565b602082019050919050565b6000613288601a8361392a565b915061329382613d32565b602082019050919050565b6060820160008201516132b4600085018261346b565b5060208201516132c76020850182612f78565b5060408201516132da604085018261346b565b50505050565b600060e0830160008301516132f8600086018261346b565b5060208301518482036020860152613310828261315a565b9150506040830151848203604086015261332a828261315a565b91505060608301518482036060860152613344828261315a565b9150506080830151613359608086018261346b565b5060a083015161336c60a086018261313c565b5060c083015161337f60c086018261313c565b508091505092915050565b6000610140830160008301516133a3600086018261346b565b50602083015184820360208601526133bb82826130de565b915050604083015184820360408601526133d582826130de565b91505060608301516133ea606086018261346b565b5060808301516133fd608086018261313c565b5060a083015161341060a0860182612f78565b5060c083015161342360c086018261346b565b5060e083015161343660e086018261313c565b5061010083015161344b610100860182612f78565b5061012083015161346061012086018261346b565b508091505092915050565b61347481613aa0565b82525050565b61348381613aa0565b82525050565b600060208201905061349e6000830184612f69565b92915050565b600060208201905081810360008301526134be8184612f96565b905092915050565b600060208201905081810360008301526134e08184612ff4565b905092915050565b600060208201905081810360008301526135028184613069565b905092915050565b600060208201905081810360008301526135248184613193565b905092915050565b60006020820190508181036000830152613545816131cc565b9050919050565b60006020820190508181036000830152613565816131ef565b9050919050565b6000602082019050818103600083015261358581613212565b9050919050565b600060208201905081810360008301526135a581613235565b9050919050565b600060208201905081810360008301526135c581613258565b9050919050565b600060208201905081810360008301526135e58161327b565b9050919050565b6000602082019050613601600083018461347a565b92915050565b600060608201905061361c600083018661347a565b6136296020830185612f87565b613636604083018461347a565b949350505050565b600060a082019050613653600083018861347a565b81810360208301526136658187613193565b905081810360408301526136798186613193565b9050818103606083015261368d8185613193565b905061369c608083018461347a565b9695505050505050565b600060e0820190506136bb600083018a61347a565b81810360208301526136cd8189613193565b905081810360408301526136e18188613193565b905081810360608301526136f58187613193565b9050613704608083018661347a565b61371160a083018561314b565b61371e60c083018461314b565b98975050505050505050565b600061010082019050613740600083018b61347a565b61374d602083018a61347a565b61375a604083018961314b565b6137676060830188612f87565b613774608083018761347a565b61378160a083018661314b565b61378e60c0830185612f87565b61379b60e083018461347a565b9998505050505050505050565b60006137b26137c3565b90506137be8282613b1e565b919050565b6000604051905090565b600067ffffffffffffffff8211156137e8576137e7613c25565b5b602082029050602081019050919050565b600067ffffffffffffffff82111561381457613813613c25565b5b61381d82613c54565b9050602081019050919050565b6000819050602082019050919050565b6000819050602082019050919050565b6000819050602082019050919050565b6000819050602082019050919050565b600081519050919050565b600081519050919050565b600081519050919050565b600081519050919050565b600081519050919050565b6000602082019050919050565b6000602082019050919050565b6000602082019050919050565b6000602082019050919050565b600082825260208201905092915050565b600082825260208201905092915050565b600082825260208201905092915050565b600082825260208201905092915050565b600082825260208201905092915050565b600082825260208201905092915050565b600061394682613aa0565b915061395183613aa0565b9250827fffffffffffffffffffffffffffffffffffffffffffffffffffffffffffffffff0382111561398657613985613b98565b5b828201905092915050565b600061399c82613aa0565b91506139a783613aa0565b9250826139b7576139b6613bc7565b5b828204905092915050565b60006139cd82613aa0565b91506139d883613aa0565b9250817fffffffffffffffffffffffffffffffffffffffffffffffffffffffffffffffff0483118215151615613a1157613a10613b98565b5b828202905092915050565b6000613a2782613aa0565b9150613a3283613aa0565b925082821015613a4557613a44613b98565b5b828203905092915050565b6000613a5b82613a80565b9050919050565b6000613a6d82613a80565b9050919050565b60008115159050919050565b600073ffffffffffffffffffffffffffffffffffffffff82169050919050565b6000819050919050565b82818337600083830152505050565b60005b83811015613ad7578082015181840152602081019050613abc565b83811115613ae6576000848401525b50505050565b60006002820490506001821680613b0457607f821691505b60208210811415613b1857613b17613bf6565b5b50919050565b613b2782613c54565b810181811067ffffffffffffffff82111715613b4657613b45613c25565b5b80604052505050565b6000613b5a82613aa0565b91507fffffffffffffffffffffffffffffffffffffffffffffffffffffffffffffffff821415613b8d57613b8c613b98565b5b600182019050919050565b7f4e487b7100000000000000000000000000000000000000000000000000000000600052601160045260246000fd5b7f4e487b7100000000000000000000000000000000000000000000000000000000600052601260045260246000fd5b7f4e487b7100000000000000000000000000000000000000000000000000000000600052602260045260246000fd5b7f4e487b7100000000000000000000000000000000000000000000000000000000600052604160045260246000fd5b6000601f19601f8301169050919050565b7f52657175697265642076616c7565206e6f74206d657400000000000000000000600082015250565b7f53656e646572206973206e6f7420636c69656e74000000000000000000000000600082015250565b7f4d757374206265206665776572207468616e20313030206974656d7300000000600082015250565b7f4f6e6c79206f776e65722066756e6374696f6e00000000000000000000000000600082015250565b7f4f6e6c7920676f7665726e6f722066756e6374696f6e00000000000000000000600082015250565b7f416666696c69617465206d75737420626520617070726f766564000000000000600082015250565b613d6481613a50565b8114613d6f57600080fd5b50565b613d7b81613a74565b8114613d8657600080fd5b50565b613d9281613aa0565b8114613d9d57600080fd5b5056fea26469706673582212207e733ff6563d16c639d2e170e4d377a281f8b9e17ef5188fc6016331fc4f127664736f6c63430008040033",
  "linkReferences": {},
  "deployedLinkReferences": {}
}