{
  "_format": "hh-sol-artifact-1",
  "contractName": "ShopMaker",
  "sourceName": "contracts/ShopMaker.sol",
  "abi": [
    {
      "anonymous": false,
      "inputs": [
        {
          "indexed": true,
          "internalType": "address",
          "name": "shopAddress",
          "type": "address"
        },
        {
          "indexed": true,
          "internalType": "string",
          "name": "name",
          "type": "string"
        }
      ],
      "name": "ShopCreated",
      "type": "event"
    },
    {
      "inputs": [
        {
          "internalType": "address",
          "name": "owner",
          "type": "address"
        },
        {
          "internalType": "string",
          "name": "name",
          "type": "string"
        },
        {
          "internalType": "string",
          "name": "description",
          "type": "string"
        },
        {
          "internalType": "string",
          "name": "location",
          "type": "string"
        },
        {
          "internalType": "string",
          "name": "phone",
          "type": "string"
        },
        {
          "internalType": "string",
          "name": "image",
          "type": "string"
        }
      ],
      "name": "createShop",
      "outputs": [
        {
          "internalType": "address",
          "name": "",
          "type": "address"
        }
      ],
      "stateMutability": "payable",
      "type": "function"
    }
  ],
  "bytecode": "0x608060405234801561001057600080fd5b5061539f806100206000396000f3fe608060405260043610620000205760003560e01c806308c2a2891462000025575b600080fd5b6200004360048036038101906200003d9190620001a3565b6200005b565b60405162000052919062000358565b60405180910390f35b60008087878787878760405162000072906200010c565b620000839695949392919062000375565b604051809103906000f080158015620000a0573d6000803e3d6000fd5b50905086604051620000b391906200033f565b60405180910390208173ffffffffffffffffffffffffffffffffffffffff167f45277a23a38027df0b3b8ce31022d3988d3a5b8b8d753608ab96b7d20b40bab360405160405180910390a3809150509695505050505050565b614dd5806200059583390190565b6000620001316200012b846200042e565b62000405565b9050828152602081018484840111156200014a57600080fd5b62000157848285620004bf565b509392505050565b60008135905062000170816200057a565b92915050565b600082601f8301126200018857600080fd5b81356200019a8482602086016200011a565b91505092915050565b60008060008060008060c08789031215620001bd57600080fd5b6000620001cd89828a016200015f565b965050602087013567ffffffffffffffff811115620001eb57600080fd5b620001f989828a0162000176565b955050604087013567ffffffffffffffff8111156200021757600080fd5b6200022589828a0162000176565b945050606087013567ffffffffffffffff8111156200024357600080fd5b6200025189828a0162000176565b935050608087013567ffffffffffffffff8111156200026f57600080fd5b6200027d89828a0162000176565b92505060a087013567ffffffffffffffff8111156200029b57600080fd5b620002a989828a0162000176565b9150509295509295509295565b620002c1816200048b565b82525050565b6000620002d48262000464565b620002e081856200046f565b9350620002f2818560208601620004ce565b620002fd8162000569565b840191505092915050565b6000620003158262000464565b62000321818562000480565b935062000333818560208601620004ce565b80840191505092915050565b60006200034d828462000308565b915081905092915050565b60006020820190506200036f6000830184620002b6565b92915050565b600060c0820190506200038c6000830189620002b6565b8181036020830152620003a08188620002c7565b90508181036040830152620003b68187620002c7565b90508181036060830152620003cc8186620002c7565b90508181036080830152620003e28185620002c7565b905081810360a0830152620003f88184620002c7565b9050979650505050505050565b60006200041162000424565b90506200041f828262000504565b919050565b6000604051905090565b600067ffffffffffffffff8211156200044c576200044b6200053a565b5b620004578262000569565b9050602081019050919050565b600081519050919050565b600082825260208201905092915050565b600081905092915050565b600062000498826200049f565b9050919050565b600073ffffffffffffffffffffffffffffffffffffffff82169050919050565b82818337600083830152505050565b60005b83811015620004ee578082015181840152602081019050620004d1565b83811115620004fe576000848401525b50505050565b6200050f8262000569565b810181811067ffffffffffffffff821117156200053157620005306200053a565b5b80604052505050565b7f4e487b7100000000000000000000000000000000000000000000000000000000600052604160045260246000fd5b6000601f19601f8301169050919050565b62000585816200048b565b81146200059157600080fd5b5056fe60806040526103e86008553480156200001757600080fd5b5060405162004dd538038062004dd583398181016040528101906200003d919062000281565b85600660006101000a81548173ffffffffffffffffffffffffffffffffffffffff021916908373ffffffffffffffffffffffffffffffffffffffff16021790555084600190805190602001906200009692919062000148565b508360029080519060200190620000af92919062000148565b508260039080519060200190620000c892919062000148565b508160049080519060200190620000e192919062000148565b508060059080519060200190620000fa92919062000148565b5033600760006101000a81548173ffffffffffffffffffffffffffffffffffffffff021916908373ffffffffffffffffffffffffffffffffffffffff16021790555050505050505062000552565b82805462000156906200045d565b90600052602060002090601f0160209004810192826200017a5760008555620001c6565b82601f106200019557805160ff1916838001178555620001c6565b82800160010185558215620001c6579182015b82811115620001c5578251825591602001919060010190620001a8565b5b509050620001d59190620001d9565b5090565b5b80821115620001f4576000816000905550600101620001da565b5090565b60006200020f6200020984620003bd565b62000394565b9050828152602081018484840111156200022857600080fd5b6200023584828562000427565b509392505050565b6000815190506200024e8162000538565b92915050565b600082601f8301126200026657600080fd5b815162000278848260208601620001f8565b91505092915050565b60008060008060008060c087890312156200029b57600080fd5b6000620002ab89828a016200023d565b965050602087015167ffffffffffffffff811115620002c957600080fd5b620002d789828a0162000254565b955050604087015167ffffffffffffffff811115620002f557600080fd5b6200030389828a0162000254565b945050606087015167ffffffffffffffff8111156200032157600080fd5b6200032f89828a0162000254565b935050608087015167ffffffffffffffff8111156200034d57600080fd5b6200035b89828a0162000254565b92505060a087015167ffffffffffffffff8111156200037957600080fd5b6200038789828a0162000254565b9150509295509295509295565b6000620003a0620003b3565b9050620003ae828262000493565b919050565b6000604051905090565b600067ffffffffffffffff821115620003db57620003da620004f8565b5b620003e68262000527565b9050602081019050919050565b6000620004008262000407565b9050919050565b600073ffffffffffffffffffffffffffffffffffffffff82169050919050565b60005b83811015620004475780820151818401526020810190506200042a565b8381111562000457576000848401525b50505050565b600060028204905060018216806200047657607f821691505b602082108114156200048d576200048c620004c9565b5b50919050565b6200049e8262000527565b810181811067ffffffffffffffff82111715620004c057620004bf620004f8565b5b80604052505050565b7f4e487b7100000000000000000000000000000000000000000000000000000000600052602260045260246000fd5b7f4e487b7100000000000000000000000000000000000000000000000000000000600052604160045260246000fd5b6000601f19601f8301169050919050565b6200054381620003f3565b81146200054f57600080fd5b50565b61487380620005626000396000f3fe6080604052600436106101c25760003560e01c8063654fc833116100f75780639284f49711610095578063f0547bc811610064578063f0547bc81461064b578063f3ccaac014610674578063f5b89aac1461069f578063fd99a746146106ca576101c2565b80639284f4971461059a5780639ace38c2146105c55780639cb8a26a14610609578063c79c6dba14610620576101c2565b80638013f0b6116100d15780638013f0b6146104d75780638b4989af146105165780638cf279941461053f5780638da5cb5b1461056f576101c2565b8063654fc8331461045a5780637284e4161461048357806376aadd73146104ae576101c2565b8063309c4e1d11610164578063516f279e1161013e578063516f279e146103c15780635606d2ec146103ec5780635f6ad596146104155780635ff2d6051461043e576101c2565b8063309c4e1d1461031857806330ac4234146103435780634f51e29414610382576101c2565b8063090567d2116101a0578063090567d21461026e5780630c340a24146102975780630cc9dc7d146102c25780632477eaae146102ed576101c2565b806304cca07d146101c757806306fdde0314610204578063070c24b01461022f575b600080fd5b3480156101d357600080fd5b506101ee60048036038101906101e99190613567565b6106f5565b6040516101fb9190613e2c565b60405180910390f35b34801561021057600080fd5b5061021961087f565b6040516102269190613e2c565b60405180910390f35b34801561023b57600080fd5b5061025660048036038101906102519190613395565b61090d565b60405161026593929190614034565b60405180910390f35b34801561027a57600080fd5b50610295600480360381019061029091906135bb565b610957565b005b3480156102a357600080fd5b506102ac6109f1565b6040516102b99190613dab565b60405180910390f35b3480156102ce57600080fd5b506102d7610a17565b6040516102e49190614019565b60405180910390f35b3480156102f957600080fd5b50610302610a1d565b60405161030f9190613e0a565b60405180910390f35b34801561032457600080fd5b5061032d610c37565b60405161033a9190613dc6565b60405180910390f35b34801561034f57600080fd5b5061036a600480360381019061036591906135bb565b610d00565b60405161037993929190614034565b60405180910390f35b34801561038e57600080fd5b506103a960048036038101906103a49190613395565b610d5a565b6040516103b893929190614034565b60405180910390f35b3480156103cd57600080fd5b506103d6610da4565b6040516103e39190613e2c565b60405180910390f35b3480156103f857600080fd5b50610413600480360381019061040e91906135e4565b610e32565b005b34801561042157600080fd5b5061043c600480360381019061043791906135bb565b610f34565b005b6104586004803603810190610453919061347e565b6111b8565b005b34801561046657600080fd5b50610481600480360381019061047c91906135bb565b61138e565b005b34801561048f57600080fd5b5061049861148d565b6040516104a59190613e2c565b60405180910390f35b3480156104ba57600080fd5b506104d560048036038101906104d09190613395565b61151b565b005b3480156104e357600080fd5b506104fe60048036038101906104f991906135bb565b6118a9565b60405161050d93929190614034565b60405180910390f35b34801561052257600080fd5b5061053d60048036038101906105389190613620565b611903565b005b610559600480360381019061055491906133ff565b611a94565b6040516105669190614019565b60405180910390f35b34801561057b57600080fd5b506105846123d3565b6040516105919190613dab565b60405180910390f35b3480156105a657600080fd5b506105af6123f9565b6040516105bc9190613e2c565b60405180910390f35b3480156105d157600080fd5b506105ec60048036038101906105e791906135bb565b612487565b6040516106009897969594939291906140d3565b60405180910390f35b34801561061557600080fd5b5061061e612539565b005b34801561062c57600080fd5b50610635612604565b6040516106429190613dc6565b60405180910390f35b34801561065757600080fd5b50610672600480360381019061066d9190613395565b6126cd565b005b34801561068057600080fd5b50610689612bb4565b6040516106969190613e2c565b60405180910390f35b3480156106ab57600080fd5b506106b4612c42565b6040516106c19190613de8565b60405180910390f35b3480156106d657600080fd5b506106df612cd8565b6040516106ec9190614019565b60405180910390f35b60603373ffffffffffffffffffffffffffffffffffffffff1660128381548110610748577f4e487b7100000000000000000000000000000000000000000000000000000000600052603260045260246000fd5b906000526020600020906008020160040160019054906101000a900473ffffffffffffffffffffffffffffffffffffffff1673ffffffffffffffffffffffffffffffffffffffff16146107d0576040517f08c379a00000000000000000000000000000000000000000000000000000000081526004016107c790613f0e565b60405180910390fd5b600f836040516107e09190613d94565b908152602001604051809103902080546107f9906144dd565b80601f0160208091040260200160405190810160405280929190818152602001828054610825906144dd565b80156108725780601f1061084757610100808354040283529160200191610872565b820191906000526020600020905b81548152906001019060200180831161085557829003601f168201915b5050505050905092915050565b6001805461088c906144dd565b80601f01602080910402602001604051908101604052809291908181526020018280546108b8906144dd565b80156109055780601f106108da57610100808354040283529160200191610905565b820191906000526020600020905b8154815290600101906020018083116108e857829003601f168201915b505050505081565b600d6020528060005260406000206000915090508060000154908060010160009054906101000a900473ffffffffffffffffffffffffffffffffffffffff16908060020154905083565b600760009054906101000a900473ffffffffffffffffffffffffffffffffffffffff1673ffffffffffffffffffffffffffffffffffffffff163373ffffffffffffffffffffffffffffffffffffffff16146109e7576040517f08c379a00000000000000000000000000000000000000000000000000000000081526004016109de90613f4e565b60405180910390fd5b8060088190555050565b600760009054906101000a900473ffffffffffffffffffffffffffffffffffffffff1681565b60085481565b60606012805480602002602001604051908101604052809291908181526020016000905b82821015610c2e5783829060005260206000209060080201604051806101400160405290816000820154815260200160018201805480602002602001604051908101604052809291908181526020018280548015610abe57602002820191906000526020600020905b815481526020019060010190808311610aaa575b5050505050815260200160028201805480602002602001604051908101604052809291908181526020018280548015610b1657602002820191906000526020600020905b815481526020019060010190808311610b02575b50505050508152602001600382015481526020016004820160009054906101000a900460ff161515151581526020016004820160019054906101000a900473ffffffffffffffffffffffffffffffffffffffff1673ffffffffffffffffffffffffffffffffffffffff1673ffffffffffffffffffffffffffffffffffffffff168152602001600582015481526020016006820160009054906101000a900460ff161515151581526020016006820160019054906101000a900473ffffffffffffffffffffffffffffffffffffffff1673ffffffffffffffffffffffffffffffffffffffff1673ffffffffffffffffffffffffffffffffffffffff16815260200160078201548152505081526020019060010190610a41565b50505050905090565b6060600c805480602002602001604051908101604052809291908181526020016000905b82821015610cf75783829060005260206000209060030201604051806060016040529081600082015481526020016001820160009054906101000a900473ffffffffffffffffffffffffffffffffffffffff1673ffffffffffffffffffffffffffffffffffffffff1673ffffffffffffffffffffffffffffffffffffffff16815260200160028201548152505081526020019060010190610c5b565b50505050905090565b600c8181548110610d1057600080fd5b90600052602060002090600302016000915090508060000154908060010160009054906101000a900473ffffffffffffffffffffffffffffffffffffffff16908060020154905083565b600e6020528060005260406000206000915090508060000154908060010160009054906101000a900473ffffffffffffffffffffffffffffffffffffffff16908060020154905083565b60038054610db1906144dd565b80601f0160208091040260200160405190810160405280929190818152602001828054610ddd906144dd565b8015610e2a5780601f10610dff57610100808354040283529160200191610e2a565b820191906000526020600020905b815481529060010190602001808311610e0d57829003601f168201915b505050505081565b600660009054906101000a900473ffffffffffffffffffffffffffffffffffffffff1673ffffffffffffffffffffffffffffffffffffffff163373ffffffffffffffffffffffffffffffffffffffff1614610ec2576040517f08c379a0000000000000000000000000000000000000000000000000000000008152600401610eb990613e4e565b60405180910390fd5b600073__$2504da76dd911be12547f2608c53b8702a$__6331dfe65b909184846040518463ffffffff1660e01b8152600401610f0093929190613fe2565b60006040518083038186803b158015610f1857600080fd5b505af4158015610f2c573d6000803e3d6000fd5b505050505050565b6000600e60003373ffffffffffffffffffffffffffffffffffffffff1673ffffffffffffffffffffffffffffffffffffffff1681526020019081526020016000206000015414610fb9576040517f08c379a0000000000000000000000000000000000000000000000000000000008152600401610fb090613eae565b60405180910390fd5b60008111610ffc576040517f08c379a0000000000000000000000000000000000000000000000000000000008152600401610ff390613e6e565b60405180910390fd5b6064811061103f576040517f08c379a000000000000000000000000000000000000000000000000000000000815260040161103690613eee565b60405180910390fd5b600061104b600a612ce4565b9050600060405180606001604052808481526020013373ffffffffffffffffffffffffffffffffffffffff16815260200183815250905080600d60003373ffffffffffffffffffffffffffffffffffffffff1673ffffffffffffffffffffffffffffffffffffffff1681526020019081526020016000206000820151816000015560208201518160010160006101000a81548173ffffffffffffffffffffffffffffffffffffffff021916908373ffffffffffffffffffffffffffffffffffffffff16021790555060408201518160020155905050600b8190806001815401808255809150506001900390600052602060002090600302016000909190919091506000820151816000015560208201518160010160006101000a81548173ffffffffffffffffffffffffffffffffffffffff021916908373ffffffffffffffffffffffffffffffffffffffff1602179055506040820151816002015550506111b3600a612cf2565b505050565b600660009054906101000a900473ffffffffffffffffffffffffffffffffffffffff1673ffffffffffffffffffffffffffffffffffffffff163373ffffffffffffffffffffffffffffffffffffffff1614611248576040517f08c379a000000000000000000000000000000000000000000000000000000000815260040161123f90613e4e565b60405180910390fd5b60006112546009612ce4565b9050600073__$2504da76dd911be12547f2608c53b8702a$__63fef3c5a390916040518060e001604052808581526020018b81526020018a8152602001898152602001888152602001600115158152602001600015158152506040518363ffffffff1660e01b81526004016112ca929190613f89565b60006040518083038186803b1580156112e257600080fd5b505af41580156112f6573d6000803e3d6000fd5b50505050811561133c5782600f61130c83612d08565b6040516113199190613d94565b9081526020016040518091039020908051906020019061133a929190612ef7565b505b6113466009612cf2565b7f96879d8966d9359f51d0296e82bd5d835bae805b2011fc95f5e23f1d8b797b42818888888860405161137d95949392919061406b565b60405180910390a150505050505050565b600660009054906101000a900473ffffffffffffffffffffffffffffffffffffffff1673ffffffffffffffffffffffffffffffffffffffff163373ffffffffffffffffffffffffffffffffffffffff161461141e576040517f08c379a000000000000000000000000000000000000000000000000000000000815260040161141590613e4e565b60405180910390fd5b600073__$2504da76dd911be12547f2608c53b8702a$__63ef57f72c9091836040518363ffffffff1660e01b815260040161145a929190613fb9565b60006040518083038186803b15801561147257600080fd5b505af4158015611486573d6000803e3d6000fd5b5050505050565b6002805461149a906144dd565b80601f01602080910402602001604051908101604052809291908181526020018280546114c6906144dd565b80156115135780601f106114e857610100808354040283529160200191611513565b820191906000526020600020905b8154815290600101906020018083116114f657829003601f168201915b505050505081565b600660009054906101000a900473ffffffffffffffffffffffffffffffffffffffff1673ffffffffffffffffffffffffffffffffffffffff163373ffffffffffffffffffffffffffffffffffffffff16146115ab576040517f08c379a00000000000000000000000000000000000000000000000000000000081526004016115a290613e4e565b60405180910390fd5b60005b600c8054905081101561182c578173ffffffffffffffffffffffffffffffffffffffff16600c828154811061160c577f4e487b7100000000000000000000000000000000000000000000000000000000600052603260045260246000fd5b906000526020600020906003020160010160009054906101000a900473ffffffffffffffffffffffffffffffffffffffff1673ffffffffffffffffffffffffffffffffffffffff16141561181957600c8181548110611694577f4e487b7100000000000000000000000000000000000000000000000000000000600052603260045260246000fd5b90600052602060002090600302016000808201600090556001820160006101000a81549073ffffffffffffffffffffffffffffffffffffffff0219169055600282016000905550506001600c805490506116ee919061440d565b811461181457600c6001600c80549050611708919061440d565b8154811061173f577f4e487b7100000000000000000000000000000000000000000000000000000000600052603260045260246000fd5b9060005260206000209060030201600c8281548110611787577f4e487b7100000000000000000000000000000000000000000000000000000000600052603260045260246000fd5b9060005260206000209060030201600082015481600001556001820160009054906101000a900473ffffffffffffffffffffffffffffffffffffffff168160010160006101000a81548173ffffffffffffffffffffffffffffffffffffffff021916908373ffffffffffffffffffffffffffffffffffffffff160217905550600282015481600201559050505b61182c565b808061182490614540565b9150506115ae565b50600e60008273ffffffffffffffffffffffffffffffffffffffff1673ffffffffffffffffffffffffffffffffffffffff1681526020019081526020016000206000808201600090556001820160006101000a81549073ffffffffffffffffffffffffffffffffffffffff02191690556002820160009055505050565b600b81815481106118b957600080fd5b90600052602060002090600302016000915090508060000154908060010160009054906101000a900473ffffffffffffffffffffffffffffffffffffffff16908060020154905083565b3373ffffffffffffffffffffffffffffffffffffffff1660128281548110611954577f4e487b7100000000000000000000000000000000000000000000000000000000600052603260045260246000fd5b906000526020600020906008020160040160019054906101000a900473ffffffffffffffffffffffffffffffffffffffff1673ffffffffffffffffffffffffffffffffffffffff16146119dc576040517f08c379a00000000000000000000000000000000000000000000000000000000081526004016119d390613ece565b60405180910390fd5b8160128281548110611a17577f4e487b7100000000000000000000000000000000000000000000000000000000600052603260045260246000fd5b906000526020600020906008020160050181905550600160128281548110611a68577f4e487b7100000000000000000000000000000000000000000000000000000000600052603260045260246000fd5b906000526020600020906008020160060160006101000a81548160ff0219169083151502179055505050565b6000611a9e612f7d565b600073ffffffffffffffffffffffffffffffffffffffff168373ffffffffffffffffffffffffffffffffffffffff1614611bfd57600e60008473ffffffffffffffffffffffffffffffffffffffff1673ffffffffffffffffffffffffffffffffffffffff168152602001908152602001600020604051806060016040529081600082015481526020016001820160009054906101000a900473ffffffffffffffffffffffffffffffffffffffff1673ffffffffffffffffffffffffffffffffffffffff1673ffffffffffffffffffffffffffffffffffffffff1681526020016002820154815250509050600073ffffffffffffffffffffffffffffffffffffffff16816020015173ffffffffffffffffffffffffffffffffffffffff161415611bfc576040517f08c379a0000000000000000000000000000000000000000000000000000000008152600401611bf390613f2e565b60405180910390fd5b5b6000805b8651811015611d0357858181518110611c43577f4e487b7100000000000000000000000000000000000000000000000000000000600052603260045260246000fd5b602002602001015160008001888381518110611c88577f4e487b7100000000000000000000000000000000000000000000000000000000600052603260045260246000fd5b602002602001015181548110611cc7577f4e487b7100000000000000000000000000000000000000000000000000000000600052603260045260246000fd5b906000526020600020906006020160040154611ce391906143b3565b82611cee919061432c565b91508080611cfb90614540565b915050611c01565b5080341015611d47576040517f08c379a0000000000000000000000000000000000000000000000000000000008152600401611d3e90613e8e565b60405180910390fd5b611d516011612cf2565b600854611d5e6011612ce4565b111561203557600073ffffffffffffffffffffffffffffffffffffffff168473ffffffffffffffffffffffffffffffffffffffff1614611f2c576000611dae606483612eb590919063ffffffff16565b90506000611ddc8460000151611dce606486612eb590919063ffffffff16565b612ecb90919063ffffffff16565b90506000611e0582611df78587612ee190919063ffffffff16565b612ee190919063ffffffff16565b9050600760009054906101000a900473ffffffffffffffffffffffffffffffffffffffff1673ffffffffffffffffffffffffffffffffffffffff166108fc849081150290604051600060405180830381858888f19350505050158015611e6f573d6000803e3d6000fd5b50600660009054906101000a900473ffffffffffffffffffffffffffffffffffffffff1673ffffffffffffffffffffffffffffffffffffffff166108fc829081150290604051600060405180830381858888f19350505050158015611ed8573d6000803e3d6000fd5b50846020015173ffffffffffffffffffffffffffffffffffffffff166108fc839081150290604051600060405180830381858888f19350505050158015611f23573d6000803e3d6000fd5b50505050612030565b6000611f42606483612eb590919063ffffffff16565b90506000611f598284612ee190919063ffffffff16565b9050600760009054906101000a900473ffffffffffffffffffffffffffffffffffffffff1673ffffffffffffffffffffffffffffffffffffffff166108fc839081150290604051600060405180830381858888f19350505050158015611fc3573d6000803e3d6000fd5b50600660009054906101000a900473ffffffffffffffffffffffffffffffffffffffff1673ffffffffffffffffffffffffffffffffffffffff166108fc829081150290604051600060405180830381858888f1935050505015801561202c573d6000803e3d6000fd5b5050505b6121d4565b600073ffffffffffffffffffffffffffffffffffffffff168473ffffffffffffffffffffffffffffffffffffffff16146121695760006120958360000151612087606485612eb590919063ffffffff16565b612ecb90919063ffffffff16565b905060006120ac8284612ee190919063ffffffff16565b9050600660009054906101000a900473ffffffffffffffffffffffffffffffffffffffff1673ffffffffffffffffffffffffffffffffffffffff166108fc829081150290604051600060405180830381858888f19350505050158015612116573d6000803e3d6000fd5b50836020015173ffffffffffffffffffffffffffffffffffffffff166108fc839081150290604051600060405180830381858888f19350505050158015612161573d6000803e3d6000fd5b5050506121d3565b600660009054906101000a900473ffffffffffffffffffffffffffffffffffffffff1673ffffffffffffffffffffffffffffffffffffffff166108fc829081150290604051600060405180830381858888f193505050501580156121d1573d6000803e3d6000fd5b505b5b60006121e06010612ce4565b905060126040518061014001604052808381526020018981526020018881526020018481526020016001151581526020013373ffffffffffffffffffffffffffffffffffffffff16815260200160008152602001600015158152602001600073ffffffffffffffffffffffffffffffffffffffff168152602001600081525090806001815401808255809150506001900390600052602060002090600802016000909190919091506000820151816000015560208201518160010190805190602001906122ae929190612fb4565b5060408201518160020190805190602001906122cb929190612fb4565b506060820151816003015560808201518160040160006101000a81548160ff02191690831515021790555060a08201518160040160016101000a81548173ffffffffffffffffffffffffffffffffffffffff021916908373ffffffffffffffffffffffffffffffffffffffff16021790555060c0820151816005015560e08201518160060160006101000a81548160ff0219169083151502179055506101008201518160060160016101000a81548173ffffffffffffffffffffffffffffffffffffffff021916908373ffffffffffffffffffffffffffffffffffffffff160217905550610120820151816007015550506123c66010612cf2565b8093505050509392505050565b600660009054906101000a900473ffffffffffffffffffffffffffffffffffffffff1681565b60048054612406906144dd565b80601f0160208091040260200160405190810160405280929190818152602001828054612432906144dd565b801561247f5780601f106124545761010080835404028352916020019161247f565b820191906000526020600020905b81548152906001019060200180831161246257829003601f168201915b505050505081565b6012818154811061249757600080fd5b90600052602060002090600802016000915090508060000154908060030154908060040160009054906101000a900460ff16908060040160019054906101000a900473ffffffffffffffffffffffffffffffffffffffff16908060050154908060060160009054906101000a900460ff16908060060160019054906101000a900473ffffffffffffffffffffffffffffffffffffffff16908060070154905088565b600760009054906101000a900473ffffffffffffffffffffffffffffffffffffffff1673ffffffffffffffffffffffffffffffffffffffff163373ffffffffffffffffffffffffffffffffffffffff16146125c9576040517f08c379a00000000000000000000000000000000000000000000000000000000081526004016125c090613f4e565b60405180910390fd5b600760009054906101000a900473ffffffffffffffffffffffffffffffffffffffff1673ffffffffffffffffffffffffffffffffffffffff16ff5b6060600b805480602002602001604051908101604052809291908181526020016000905b828210156126c45783829060005260206000209060030201604051806060016040529081600082015481526020016001820160009054906101000a900473ffffffffffffffffffffffffffffffffffffffff1673ffffffffffffffffffffffffffffffffffffffff1673ffffffffffffffffffffffffffffffffffffffff16815260200160028201548152505081526020019060010190612628565b50505050905090565b600660009054906101000a900473ffffffffffffffffffffffffffffffffffffffff1673ffffffffffffffffffffffffffffffffffffffff163373ffffffffffffffffffffffffffffffffffffffff161461275d576040517f08c379a000000000000000000000000000000000000000000000000000000000815260040161275490613e4e565b60405180910390fd5b600d60008273ffffffffffffffffffffffffffffffffffffffff1673ffffffffffffffffffffffffffffffffffffffff168152602001908152602001600020600e60008373ffffffffffffffffffffffffffffffffffffffff1673ffffffffffffffffffffffffffffffffffffffff168152602001908152602001600020600082015481600001556001820160009054906101000a900473ffffffffffffffffffffffffffffffffffffffff168160010160006101000a81548173ffffffffffffffffffffffffffffffffffffffff021916908373ffffffffffffffffffffffffffffffffffffffff160217905550600282015481600201559050506000600d60008373ffffffffffffffffffffffffffffffffffffffff1673ffffffffffffffffffffffffffffffffffffffff168152602001908152602001600020600201549050600c600e60008473ffffffffffffffffffffffffffffffffffffffff1673ffffffffffffffffffffffffffffffffffffffff1681526020019081526020016000209080600181540180825580915050600190039060005260206000209060030201600090919091909150600082015481600001556001820160009054906101000a900473ffffffffffffffffffffffffffffffffffffffff168160010160006101000a81548173ffffffffffffffffffffffffffffffffffffffff021916908373ffffffffffffffffffffffffffffffffffffffff160217905550600282015481600201555050600b81815481106129c1577f4e487b7100000000000000000000000000000000000000000000000000000000600052603260045260246000fd5b90600052602060002090600302016000808201600090556001820160006101000a81549073ffffffffffffffffffffffffffffffffffffffff0219169055600282016000905550506000600b805490501115612b3757600b6001600b80549050612a2b919061440d565b81548110612a62577f4e487b7100000000000000000000000000000000000000000000000000000000600052603260045260246000fd5b9060005260206000209060030201600b8281548110612aaa577f4e487b7100000000000000000000000000000000000000000000000000000000600052603260045260246000fd5b9060005260206000209060030201600082015481600001556001820160009054906101000a900473ffffffffffffffffffffffffffffffffffffffff168160010160006101000a81548173ffffffffffffffffffffffffffffffffffffffff021916908373ffffffffffffffffffffffffffffffffffffffff160217905550600282015481600201559050505b600d60008373ffffffffffffffffffffffffffffffffffffffff1673ffffffffffffffffffffffffffffffffffffffff1681526020019081526020016000206000808201600090556001820160006101000a81549073ffffffffffffffffffffffffffffffffffffffff0219169055600282016000905550505050565b60058054612bc1906144dd565b80601f0160208091040260200160405190810160405280929190818152602001828054612bed906144dd565b8015612c3a5780601f10612c0f57610100808354040283529160200191612c3a565b820191906000526020600020905b815481529060010190602001808311612c1d57829003601f168201915b505050505081565b6060600073__$2504da76dd911be12547f2608c53b8702a$__6334871c0390916040518263ffffffff1660e01b8152600401612c7e9190613f6e565b60006040518083038186803b158015612c9657600080fd5b505af4158015612caa573d6000803e3d6000fd5b505050506040513d6000823e3d601f19601f82011682018060405250810190612cd391906133be565b905090565b60118060000154905081565b600081600001549050919050565b6001816000016000828254019250508190555050565b60606000821415612d50576040518060400160405280600181526020017f30000000000000000000000000000000000000000000000000000000000000008152509050612eb0565b600082905060005b60008214612d82578080612d6b90614540565b915050600a82612d7b9190614382565b9150612d58565b60008167ffffffffffffffff811115612dc4577f4e487b7100000000000000000000000000000000000000000000000000000000600052604160045260246000fd5b6040519080825280601f01601f191660200182016040528015612df65781602001600182028036833780820191505090505b5090505b60008514612ea957600182612e0f919061440d565b9150600a85612e1e9190614589565b6030612e2a919061432c565b60f81b818381518110612e66577f4e487b7100000000000000000000000000000000000000000000000000000000600052603260045260246000fd5b60200101907effffffffffffffffffffffffffffffffffffffffffffffffffffffffffffff1916908160001a905350600a85612ea29190614382565b9450612dfa565b8093505050505b919050565b60008183612ec39190614382565b905092915050565b60008183612ed991906143b3565b905092915050565b60008183612eef919061440d565b905092915050565b828054612f03906144dd565b90600052602060002090601f016020900481019282612f255760008555612f6c565b82601f10612f3e57805160ff1916838001178555612f6c565b82800160010185558215612f6c579182015b82811115612f6b578251825591602001919060010190612f50565b5b509050612f799190613001565b5090565b604051806060016040528060008152602001600073ffffffffffffffffffffffffffffffffffffffff168152602001600081525090565b828054828255906000526020600020908101928215612ff0579160200282015b82811115612fef578251825591602001919060010190612fd4565b5b509050612ffd9190613001565b5090565b5b8082111561301a576000816000905550600101613002565b5090565b600061303161302c84614176565b614151565b9050808382526020820190508285602086028201111561305057600080fd5b60005b8581101561309a57815167ffffffffffffffff81111561307257600080fd5b80860161307f8982613273565b85526020850194506020840193505050600181019050613053565b5050509392505050565b60006130b76130b2846141a2565b614151565b905080838252602082019050828560208602820111156130d657600080fd5b60005b8581101561310657816130ec888261336b565b8452602084019350602083019250506001810190506130d9565b5050509392505050565b600061312361311e846141ce565b614151565b90508281526020810184848401111561313b57600080fd5b61314684828561449b565b509392505050565b600061316161315c846141ce565b614151565b90508281526020810184848401111561317957600080fd5b6131848482856144aa565b509392505050565b60008135905061319b816147f8565b92915050565b600082601f8301126131b257600080fd5b81516131c284826020860161301e565b91505092915050565b600082601f8301126131dc57600080fd5b81356131ec8482602086016130a4565b91505092915050565b6000813590506132048161480f565b92915050565b6000815190506132198161480f565b92915050565b600082601f83011261323057600080fd5b8135613240848260208601613110565b91505092915050565b600082601f83011261325a57600080fd5b815161326a84826020860161314e565b91505092915050565b600060e0828403121561328557600080fd5b61328f60e0614151565b9050600061329f84828501613380565b600083015250602082015167ffffffffffffffff8111156132bf57600080fd5b6132cb84828501613249565b602083015250604082015167ffffffffffffffff8111156132eb57600080fd5b6132f784828501613249565b604083015250606082015167ffffffffffffffff81111561331757600080fd5b61332384828501613249565b606083015250608061333784828501613380565b60808301525060a061334b8482850161320a565b60a08301525060c061335f8482850161320a565b60c08301525092915050565b60008135905061337a81614826565b92915050565b60008151905061338f81614826565b92915050565b6000602082840312156133a757600080fd5b60006133b58482850161318c565b91505092915050565b6000602082840312156133d057600080fd5b600082015167ffffffffffffffff8111156133ea57600080fd5b6133f6848285016131a1565b91505092915050565b60008060006060848603121561341457600080fd5b600084013567ffffffffffffffff81111561342e57600080fd5b61343a868287016131cb565b935050602084013567ffffffffffffffff81111561345757600080fd5b613463868287016131cb565b92505060406134748682870161318c565b9150509250925092565b60008060008060008060c0878903121561349757600080fd5b600087013567ffffffffffffffff8111156134b157600080fd5b6134bd89828a0161321f565b965050602087013567ffffffffffffffff8111156134da57600080fd5b6134e689828a0161321f565b955050604087013567ffffffffffffffff81111561350357600080fd5b61350f89828a0161321f565b945050606061352089828a0161336b565b935050608087013567ffffffffffffffff81111561353d57600080fd5b61354989828a0161321f565b92505060a061355a89828a016131f5565b9150509295509295509295565b6000806040838503121561357a57600080fd5b600083013567ffffffffffffffff81111561359457600080fd5b6135a08582860161321f565b92505060206135b18582860161336b565b9150509250929050565b6000602082840312156135cd57600080fd5b60006135db8482850161336b565b91505092915050565b600080604083850312156135f757600080fd5b60006136058582860161336b565b9250506020613616858286016131f5565b9150509250929050565b6000806040838503121561363357600080fd5b60006136418582860161336b565b92505060206136528582860161336b565b9150509250929050565b60006136688383613ada565b60608301905092915050565b60006136808383613b1c565b905092915050565b60006136948383613c77565b905092915050565b60006136a88383613d58565b60208301905092915050565b6136bd81614453565b82525050565b6136cc81614441565b82525050565b6136db81614441565b82525050565b60006136ec8261423f565b6136f681856142aa565b9350613701836141ff565b8060005b83811015613732578151613719888261365c565b975061372483614276565b925050600181019050613705565b5085935050505092915050565b600061374a8261424a565b61375481856142bb565b9350836020820285016137668561420f565b8060005b858110156137a257848403895281516137838582613674565b945061378e83614283565b925060208a0199505060018101905061376a565b50829750879550505050505092915050565b60006137bf82614255565b6137c981856142cc565b9350836020820285016137db8561421f565b8060005b8581101561381757848403895281516137f88582613688565b945061380383614290565b925060208a019950506001810190506137df565b50829750879550505050505092915050565b600061383482614260565b61383e81856142dd565b93506138498361422f565b8060005b8381101561387a578151613861888261369c565b975061386c8361429d565b92505060018101905061384d565b5085935050505092915050565b61389081614465565b82525050565b61389f81614465565b82525050565b6138ae81614465565b82525050565b6138bd81614465565b82525050565b60006138ce8261426b565b6138d881856142ee565b93506138e88185602086016144aa565b6138f181614676565b840191505092915050565b60006139078261426b565b61391181856142ff565b93506139218185602086016144aa565b61392a81614676565b840191505092915050565b60006139408261426b565b61394a8185614310565b935061395a8185602086016144aa565b61396381614676565b840191505092915050565b60006139798261426b565b6139838185614321565b93506139938185602086016144aa565b80840191505092915050565b60006139ac6003836142ff565b91506139b782614687565b602082019050919050565b60006139cf6003836142ff565b91506139da826146b0565b602082019050919050565b60006139f26003836142ff565b91506139fd826146d9565b602082019050919050565b6000613a156003836142ff565b9150613a2082614702565b602082019050919050565b6000613a386003836142ff565b9150613a438261472b565b602082019050919050565b6000613a5b6003836142ff565b9150613a6682614754565b602082019050919050565b6000613a7e6015836142ff565b9150613a898261477d565b602082019050919050565b6000613aa16003836142ff565b9150613aac826147a6565b602082019050919050565b6000613ac46003836142ff565b9150613acf826147cf565b602082019050919050565b606082016000820151613af06000850182613d58565b506020820151613b0360208501826136c3565b506040820151613b166040850182613d58565b50505050565b600060e083016000830151613b346000860182613d58565b5060208301518482036020860152613b4c82826138c3565b91505060408301518482036040860152613b6682826138c3565b91505060608301518482036060860152613b8082826138c3565b9150506080830151613b956080860182613d58565b5060a0830151613ba860a0860182613887565b5060c0830151613bbb60c0860182613887565b508091505092915050565b600060e083016000830151613bde6000860182613d85565b5060208301518482036020860152613bf68282613935565b91505060408301518482036040860152613c108282613935565b91505060608301518482036060860152613c2a8282613935565b9150506080830151613c3f6080860182613d85565b5060a0830151613c5260a08601826138b4565b5060c0830151613c6560c08601826138b4565b508091505092915050565b8082525050565b600061014083016000830151613c906000860182613d58565b5060208301518482036020860152613ca88282613829565b91505060408301518482036040860152613cc28282613829565b9150506060830151613cd76060860182613d58565b506080830151613cea6080860182613887565b5060a0830151613cfd60a08601826136c3565b5060c0830151613d1060c0860182613d58565b5060e0830151613d2360e0860182613887565b50610100830151613d386101008601826136c3565b50610120830151613d4d610120860182613d58565b508091505092915050565b613d6181614491565b82525050565b613d7081614491565b82525050565b613d7f81614491565b82525050565b613d8e81614491565b82525050565b6000613da0828461396e565b915081905092915050565b6000602082019050613dc060008301846136b4565b92915050565b60006020820190508181036000830152613de081846136e1565b905092915050565b60006020820190508181036000830152613e02818461373f565b905092915050565b60006020820190508181036000830152613e2481846137b4565b905092915050565b60006020820190508181036000830152613e4681846138fc565b905092915050565b60006020820190508181036000830152613e678161399f565b9050919050565b60006020820190508181036000830152613e87816139c2565b9050919050565b60006020820190508181036000830152613ea7816139e5565b9050919050565b60006020820190508181036000830152613ec781613a08565b9050919050565b60006020820190508181036000830152613ee781613a2b565b9050919050565b60006020820190508181036000830152613f0781613a4e565b9050919050565b60006020820190508181036000830152613f2781613a71565b9050919050565b60006020820190508181036000830152613f4781613a94565b9050919050565b60006020820190508181036000830152613f6781613ab7565b9050919050565b6000602082019050613f836000830184613c70565b92915050565b6000604082019050613f9e6000830185613c70565b8181036020830152613fb08184613bc6565b90509392505050565b6000604082019050613fce6000830185613c70565b613fdb6020830184613d76565b9392505050565b6000606082019050613ff76000830186613c70565b6140046020830185613d76565b61401160408301846138a5565b949350505050565b600060208201905061402e6000830184613d67565b92915050565b60006060820190506140496000830186613d67565b61405660208301856136d2565b6140636040830184613d67565b949350505050565b600060a0820190506140806000830188613d67565b818103602083015261409281876138fc565b905081810360408301526140a681866138fc565b905081810360608301526140ba81856138fc565b90506140c96080830184613d67565b9695505050505050565b6000610100820190506140e9600083018b613d67565b6140f6602083018a613d67565b6141036040830189613896565b61411060608301886136d2565b61411d6080830187613d67565b61412a60a0830186613896565b61413760c08301856136d2565b61414460e0830184613d67565b9998505050505050505050565b600061415b61416c565b9050614167828261450f565b919050565b6000604051905090565b600067ffffffffffffffff82111561419157614190614647565b5b602082029050602081019050919050565b600067ffffffffffffffff8211156141bd576141bc614647565b5b602082029050602081019050919050565b600067ffffffffffffffff8211156141e9576141e8614647565b5b6141f282614676565b9050602081019050919050565b6000819050602082019050919050565b6000819050602082019050919050565b6000819050602082019050919050565b6000819050602082019050919050565b600081519050919050565b600081519050919050565b600081519050919050565b600081519050919050565b600081519050919050565b6000602082019050919050565b6000602082019050919050565b6000602082019050919050565b6000602082019050919050565b600082825260208201905092915050565b600082825260208201905092915050565b600082825260208201905092915050565b600082825260208201905092915050565b600082825260208201905092915050565b600082825260208201905092915050565b600082825260208201905092915050565b600081905092915050565b600061433782614491565b915061434283614491565b9250827fffffffffffffffffffffffffffffffffffffffffffffffffffffffffffffffff03821115614377576143766145ba565b5b828201905092915050565b600061438d82614491565b915061439883614491565b9250826143a8576143a76145e9565b5b828204905092915050565b60006143be82614491565b91506143c983614491565b9250817fffffffffffffffffffffffffffffffffffffffffffffffffffffffffffffffff0483118215151615614402576144016145ba565b5b828202905092915050565b600061441882614491565b915061442383614491565b925082821015614436576144356145ba565b5b828203905092915050565b600061444c82614471565b9050919050565b600061445e82614471565b9050919050565b60008115159050919050565b600073ffffffffffffffffffffffffffffffffffffffff82169050919050565b6000819050919050565b82818337600083830152505050565b60005b838110156144c85780820151818401526020810190506144ad565b838111156144d7576000848401525b50505050565b600060028204905060018216806144f557607f821691505b6020821081141561450957614508614618565b5b50919050565b61451882614676565b810181811067ffffffffffffffff8211171561453757614536614647565b5b80604052505050565b600061454b82614491565b91507fffffffffffffffffffffffffffffffffffffffffffffffffffffffffffffffff82141561457e5761457d6145ba565b5b600182019050919050565b600061459482614491565b915061459f83614491565b9250826145af576145ae6145e9565b5b828206905092915050565b7f4e487b7100000000000000000000000000000000000000000000000000000000600052601160045260246000fd5b7f4e487b7100000000000000000000000000000000000000000000000000000000600052601260045260246000fd5b7f4e487b7100000000000000000000000000000000000000000000000000000000600052602260045260246000fd5b7f4e487b7100000000000000000000000000000000000000000000000000000000600052604160045260246000fd5b6000601f19601f8301169050919050565b7f4f4f300000000000000000000000000000000000000000000000000000000000600082015250565b7f5041310000000000000000000000000000000000000000000000000000000000600082015250565b7f4d54310000000000000000000000000000000000000000000000000000000000600082015250565b7f5041300000000000000000000000000000000000000000000000000000000000600082015250565b7f4752300000000000000000000000000000000000000000000000000000000000600082015250565b7f5041320000000000000000000000000000000000000000000000000000000000600082015250565b7f53656e646572206d75737420626520636c69656e740000000000000000000000600082015250565b7f4d54300000000000000000000000000000000000000000000000000000000000600082015250565b7f4f47300000000000000000000000000000000000000000000000000000000000600082015250565b61480181614441565b811461480c57600080fd5b50565b61481881614465565b811461482357600080fd5b50565b61482f81614491565b811461483a57600080fd5b5056fea2646970667358221220229e7b8cc1360675d631cadea3423ae1fe07bb9367f1c5b7a1925eaa9bce936864736f6c63430008040033a2646970667358221220272111832407b5af266318e0ac60c7881ecb0cd99a5b49c9283e9f841a19650f64736f6c63430008040033",
  "linkReferences": {
    "contracts/library/Catalog.sol": {
      "Catalog": [
        {
          "length": 20,
          "start": 6621
        },
        {
          "length": 20,
          "start": 7537
        },
        {
          "length": 20,
          "start": 7993
        },
        {
          "length": 20,
          "start": 14175
        }
      ]
    }
  },
  "deployedLinkReferences": {
    "contracts/library/Catalog.sol": {
      "Catalog": [
        {
          "length": 20,
          "start": 6589
        },
        {
          "length": 20,
          "start": 7505
        },
        {
          "length": 20,
          "start": 7961
        },
        {
          "length": 20,
          "start": 14143
        }
      ]
    }
  }
}