{
  "_format": "hh-sol-artifact-1",
  "contractName": "ItemToken",
  "sourceName": "contracts/tokens/ItemToken.sol",
  "abi": [
    {
      "inputs": [
        {
          "internalType": "string",
          "name": "_name",
          "type": "string"
        },
        {
          "internalType": "string",
          "name": "_symbol",
          "type": "string"
        }
      ],
      "stateMutability": "nonpayable",
      "type": "constructor"
    },
    {
      "anonymous": false,
      "inputs": [
        {
          "indexed": true,
          "internalType": "address",
          "name": "owner",
          "type": "address"
        },
        {
          "indexed": true,
          "internalType": "address",
          "name": "approved",
          "type": "address"
        },
        {
          "indexed": true,
          "internalType": "uint256",
          "name": "tokenId",
          "type": "uint256"
        }
      ],
      "name": "Approval",
      "type": "event"
    },
    {
      "anonymous": false,
      "inputs": [
        {
          "indexed": true,
          "internalType": "address",
          "name": "owner",
          "type": "address"
        },
        {
          "indexed": true,
          "internalType": "address",
          "name": "operator",
          "type": "address"
        },
        {
          "indexed": false,
          "internalType": "bool",
          "name": "approved",
          "type": "bool"
        }
      ],
      "name": "ApprovalForAll",
      "type": "event"
    },
    {
      "anonymous": false,
      "inputs": [
        {
          "indexed": true,
          "internalType": "address",
          "name": "from",
          "type": "address"
        },
        {
          "indexed": true,
          "internalType": "address",
          "name": "to",
          "type": "address"
        },
        {
          "indexed": true,
          "internalType": "uint256",
          "name": "tokenId",
          "type": "uint256"
        }
      ],
      "name": "Transfer",
      "type": "event"
    },
    {
      "inputs": [
        {
          "internalType": "address",
          "name": "to",
          "type": "address"
        },
        {
          "internalType": "uint256",
          "name": "tokenId",
          "type": "uint256"
        }
      ],
      "name": "approve",
      "outputs": [],
      "stateMutability": "nonpayable",
      "type": "function"
    },
    {
      "inputs": [
        {
          "internalType": "address",
          "name": "owner",
          "type": "address"
        }
      ],
      "name": "balanceOf",
      "outputs": [
        {
          "internalType": "uint256",
          "name": "",
          "type": "uint256"
        }
      ],
      "stateMutability": "view",
      "type": "function"
    },
    {
      "inputs": [
        {
          "internalType": "address",
          "name": "_to",
          "type": "address"
        },
        {
          "internalType": "uint256",
          "name": "_amount",
          "type": "uint256"
        }
      ],
      "name": "batchSale",
      "outputs": [],
      "stateMutability": "nonpayable",
      "type": "function"
    },
    {
      "inputs": [
        {
          "internalType": "string",
          "name": "_uri",
          "type": "string"
        }
      ],
      "name": "createItem",
      "outputs": [],
      "stateMutability": "nonpayable",
      "type": "function"
    },
    {
      "inputs": [
        {
          "internalType": "uint256",
          "name": "tokenId",
          "type": "uint256"
        }
      ],
      "name": "getApproved",
      "outputs": [
        {
          "internalType": "address",
          "name": "",
          "type": "address"
        }
      ],
      "stateMutability": "view",
      "type": "function"
    },
    {
      "inputs": [],
      "name": "getTemplateTokenIds",
      "outputs": [
        {
          "internalType": "uint256[]",
          "name": "",
          "type": "uint256[]"
        }
      ],
      "stateMutability": "view",
      "type": "function"
    },
    {
      "inputs": [],
      "name": "getTotal",
      "outputs": [
        {
          "internalType": "uint256",
          "name": "",
          "type": "uint256"
        }
      ],
      "stateMutability": "view",
      "type": "function"
    },
    {
      "inputs": [
        {
          "internalType": "address",
          "name": "_owner",
          "type": "address"
        },
        {
          "internalType": "address",
          "name": "_shop",
          "type": "address"
        },
        {
          "internalType": "string",
          "name": "name_",
          "type": "string"
        },
        {
          "internalType": "string",
          "name": "symbol_",
          "type": "string"
        }
      ],
      "name": "initialize",
      "outputs": [],
      "stateMutability": "nonpayable",
      "type": "function"
    },
    {
      "inputs": [
        {
          "internalType": "address",
          "name": "owner",
          "type": "address"
        },
        {
          "internalType": "address",
          "name": "operator",
          "type": "address"
        }
      ],
      "name": "isApprovedForAll",
      "outputs": [
        {
          "internalType": "bool",
          "name": "",
          "type": "bool"
        }
      ],
      "stateMutability": "view",
      "type": "function"
    },
    {
      "inputs": [],
      "name": "isPaused",
      "outputs": [
        {
          "internalType": "bool",
          "name": "",
          "type": "bool"
        }
      ],
      "stateMutability": "view",
      "type": "function"
    },
    {
      "inputs": [],
      "name": "name",
      "outputs": [
        {
          "internalType": "string",
          "name": "",
          "type": "string"
        }
      ],
      "stateMutability": "view",
      "type": "function"
    },
    {
      "inputs": [],
      "name": "owner",
      "outputs": [
        {
          "internalType": "address",
          "name": "",
          "type": "address"
        }
      ],
      "stateMutability": "view",
      "type": "function"
    },
    {
      "inputs": [
        {
          "internalType": "uint256",
          "name": "tokenId",
          "type": "uint256"
        }
      ],
      "name": "ownerOf",
      "outputs": [
        {
          "internalType": "address",
          "name": "",
          "type": "address"
        }
      ],
      "stateMutability": "view",
      "type": "function"
    },
    {
      "inputs": [
        {
          "internalType": "address",
          "name": "from",
          "type": "address"
        },
        {
          "internalType": "address",
          "name": "to",
          "type": "address"
        },
        {
          "internalType": "uint256",
          "name": "tokenId",
          "type": "uint256"
        }
      ],
      "name": "safeTransferFrom",
      "outputs": [],
      "stateMutability": "nonpayable",
      "type": "function"
    },
    {
      "inputs": [
        {
          "internalType": "address",
          "name": "from",
          "type": "address"
        },
        {
          "internalType": "address",
          "name": "to",
          "type": "address"
        },
        {
          "internalType": "uint256",
          "name": "tokenId",
          "type": "uint256"
        },
        {
          "internalType": "bytes",
          "name": "_data",
          "type": "bytes"
        }
      ],
      "name": "safeTransferFrom",
      "outputs": [],
      "stateMutability": "nonpayable",
      "type": "function"
    },
    {
      "inputs": [
        {
          "internalType": "address",
          "name": "operator",
          "type": "address"
        },
        {
          "internalType": "bool",
          "name": "approved",
          "type": "bool"
        }
      ],
      "name": "setApprovalForAll",
      "outputs": [],
      "stateMutability": "nonpayable",
      "type": "function"
    },
    {
      "inputs": [
        {
          "internalType": "uint256",
          "name": "tokenId",
          "type": "uint256"
        },
        {
          "internalType": "string",
          "name": "_uri",
          "type": "string"
        }
      ],
      "name": "setTokenURI",
      "outputs": [],
      "stateMutability": "nonpayable",
      "type": "function"
    },
    {
      "inputs": [],
      "name": "shop",
      "outputs": [
        {
          "internalType": "address",
          "name": "",
          "type": "address"
        }
      ],
      "stateMutability": "view",
      "type": "function"
    },
    {
      "inputs": [
        {
          "internalType": "bytes4",
          "name": "interfaceId",
          "type": "bytes4"
        }
      ],
      "name": "supportsInterface",
      "outputs": [
        {
          "internalType": "bool",
          "name": "",
          "type": "bool"
        }
      ],
      "stateMutability": "view",
      "type": "function"
    },
    {
      "inputs": [],
      "name": "symbol",
      "outputs": [
        {
          "internalType": "string",
          "name": "",
          "type": "string"
        }
      ],
      "stateMutability": "view",
      "type": "function"
    },
    {
      "inputs": [
        {
          "internalType": "uint256",
          "name": "",
          "type": "uint256"
        }
      ],
      "name": "templateTokenIds",
      "outputs": [
        {
          "internalType": "uint256",
          "name": "",
          "type": "uint256"
        }
      ],
      "stateMutability": "view",
      "type": "function"
    },
    {
      "inputs": [],
      "name": "togglePause",
      "outputs": [],
      "stateMutability": "nonpayable",
      "type": "function"
    },
    {
      "inputs": [
        {
          "internalType": "uint256",
          "name": "tokenId",
          "type": "uint256"
        }
      ],
      "name": "tokenURI",
      "outputs": [
        {
          "internalType": "string",
          "name": "",
          "type": "string"
        }
      ],
      "stateMutability": "view",
      "type": "function"
    },
    {
      "inputs": [
        {
          "internalType": "address",
          "name": "from",
          "type": "address"
        },
        {
          "internalType": "address",
          "name": "to",
          "type": "address"
        },
        {
          "internalType": "uint256",
          "name": "tokenId",
          "type": "uint256"
        }
      ],
      "name": "transferFrom",
      "outputs": [],
      "stateMutability": "nonpayable",
      "type": "function"
    }
  ],
  "bytecode": "0x60806040526000600960146101000a81548160ff0219169083151502179055506001600960156101000a81548160ff0219169083151502179055503480156200004757600080fd5b506040516200386f3803806200386f83398181016040528101906200006d9190620001cd565b8181816000908051906020019062000087929190620000ab565b508060019080519060200190620000a0929190620000ab565b5050505050620003b0565b828054620000b990620002d5565b90600052602060002090601f016020900481019282620000dd576000855562000129565b82601f10620000f857805160ff191683800117855562000129565b8280016001018555821562000129579182015b82811115620001285782518255916020019190600101906200010b565b5b5090506200013891906200013c565b5090565b5b80821115620001575760008160009055506001016200013d565b5090565b6000620001726200016c8462000269565b62000240565b9050828152602081018484840111156200018b57600080fd5b620001988482856200029f565b509392505050565b600082601f830112620001b257600080fd5b8151620001c48482602086016200015b565b91505092915050565b60008060408385031215620001e157600080fd5b600083015167ffffffffffffffff811115620001fc57600080fd5b6200020a85828601620001a0565b925050602083015167ffffffffffffffff8111156200022857600080fd5b6200023685828601620001a0565b9150509250929050565b60006200024c6200025f565b90506200025a82826200030b565b919050565b6000604051905090565b600067ffffffffffffffff82111562000287576200028662000370565b5b62000292826200039f565b9050602081019050919050565b60005b83811015620002bf578082015181840152602081019050620002a2565b83811115620002cf576000848401525b50505050565b60006002820490506001821680620002ee57607f821691505b6020821081141562000305576200030462000341565b5b50919050565b62000316826200039f565b810181811067ffffffffffffffff8211171562000338576200033762000370565b5b80604052505050565b7f4e487b7100000000000000000000000000000000000000000000000000000000600052602260045260246000fd5b7f4e487b7100000000000000000000000000000000000000000000000000000000600052604160045260246000fd5b6000601f19601f8301169050919050565b6134af80620003c06000396000f3fe608060405234801561001057600080fd5b50600436106101585760003560e01c806370a08231116100c3578063b187bd261161007c578063b187bd26146103b1578063b88d4fde146103cf578063c4ae3168146103eb578063c87b56dd146103f5578063e985e9c514610425578063ff3c36cf1461045557610158565b806370a08231146102ef578063775a25e31461031f5780638da5cb5b1461033d5780638efba2b11461035b57806395d89b4114610377578063a22cb4651461039557610158565b8063162094c411610115578063162094c4146102335780632016a0d21461024f57806323b872dd1461026b5780633d54eebb1461028757806342842e0e146102a35780636352211e146102bf57610158565b806301ffc9a71461015d57806306fdde031461018d578063081812fc146101ab5780630881fa0d146101db578063088b683f146101f9578063095ea7b314610217575b600080fd5b61017760048036038101906101729190612335565b610485565b60405161018491906128bd565b60405180910390f35b610195610567565b6040516101a291906128d8565b60405180910390f35b6101c560048036038101906101c091906123c8565b6105f9565b6040516101d29190612834565b60405180910390f35b6101e361067e565b6040516101f09190612834565b60405180910390f35b6102016106a4565b60405161020e919061289b565b60405180910390f35b610231600480360381019061022c91906122f9565b6106fc565b005b61024d600480360381019061024891906123f1565b610814565b005b61026960048036038101906102649190612160565b6108b2565b005b610285600480360381019061028091906121f3565b6109f4565b005b6102a1600480360381019061029c9190612387565b610a54565b005b6102bd60048036038101906102b891906121f3565b610b40565b005b6102d960048036038101906102d491906123c8565b610b60565b6040516102e69190612834565b60405180910390f35b610309600480360381019061030491906120fb565b610c12565b6040516103169190612b3a565b60405180910390f35b610327610cca565b6040516103349190612b3a565b60405180910390f35b610345610cdb565b6040516103529190612834565b60405180910390f35b610375600480360381019061037091906122f9565b610d01565b005b61037f610dd7565b60405161038c91906128d8565b60405180910390f35b6103af60048036038101906103aa91906122bd565b610e69565b005b6103b9610e7f565b6040516103c691906128bd565b60405180910390f35b6103e960048036038101906103e49190612242565b610e92565b005b6103f3610ef4565b005b61040f600480360381019061040a91906123c8565b610fb0565b60405161041c91906128d8565b60405180910390f35b61043f600480360381019061043a9190612124565b61114f565b60405161044c91906128bd565b60405180910390f35b61046f600480360381019061046a91906123c8565b6111e3565b60405161047c9190612b3a565b60405180910390f35b60007f80ac58cd000000000000000000000000000000000000000000000000000000007bffffffffffffffffffffffffffffffffffffffffffffffffffffffff1916827bffffffffffffffffffffffffffffffffffffffffffffffffffffffff1916148061055057507f5b5e139f000000000000000000000000000000000000000000000000000000007bffffffffffffffffffffffffffffffffffffffffffffffffffffffff1916827bffffffffffffffffffffffffffffffffffffffffffffffffffffffff1916145b80610560575061055f82611207565b5b9050919050565b60606000805461057690612dc9565b80601f01602080910402602001604051908101604052809291908181526020018280546105a290612dc9565b80156105ef5780601f106105c4576101008083540402835291602001916105ef565b820191906000526020600020905b8154815290600101906020018083116105d257829003601f168201915b5050505050905090565b600061060482611271565b610643576040517f08c379a000000000000000000000000000000000000000000000000000000000815260040161063a90612aba565b60405180910390fd5b6004600083815260200190815260200160002060009054906101000a900473ffffffffffffffffffffffffffffffffffffffff169050919050565b600960009054906101000a900473ffffffffffffffffffffffffffffffffffffffff1681565b6060600a8054806020026020016040519081016040528092919081815260200182805480156106f257602002820191906000526020600020905b8154815260200190600101908083116106de575b5050505050905090565b600061070782610b60565b90508073ffffffffffffffffffffffffffffffffffffffff168373ffffffffffffffffffffffffffffffffffffffff161415610778576040517f08c379a000000000000000000000000000000000000000000000000000000000815260040161076f90612ada565b60405180910390fd5b8073ffffffffffffffffffffffffffffffffffffffff166107976112dd565b73ffffffffffffffffffffffffffffffffffffffff1614806107c657506107c5816107c06112dd565b61114f565b5b610805576040517f08c379a00000000000000000000000000000000000000000000000000000000081526004016107fc906129fa565b60405180910390fd5b61080f83836112e5565b505050565b600860009054906101000a900473ffffffffffffffffffffffffffffffffffffffff1673ffffffffffffffffffffffffffffffffffffffff163373ffffffffffffffffffffffffffffffffffffffff16146108a4576040517f08c379a000000000000000000000000000000000000000000000000000000000815260040161089b90612b1a565b60405180910390fd5b6108ae828261139e565b5050565b60001515600960149054906101000a900460ff16151514610908576040517f08c379a00000000000000000000000000000000000000000000000000000000081526004016108ff9061291a565b60405180910390fd5b6000600960156101000a81548160ff0219169083151502179055506001600960146101000a81548160ff02191690831515021790555083600860006101000a81548173ffffffffffffffffffffffffffffffffffffffff021916908373ffffffffffffffffffffffffffffffffffffffff16021790555082600960006101000a81548173ffffffffffffffffffffffffffffffffffffffff021916908373ffffffffffffffffffffffffffffffffffffffff16021790555081600090805190602001906109d6929190611f1f565b5080600190805190602001906109ed929190611f1f565b5050505050565b610a056109ff6112dd565b82611412565b610a44576040517f08c379a0000000000000000000000000000000000000000000000000000000008152600401610a3b90612afa565b60405180910390fd5b610a4f8383836114f0565b505050565b600960009054906101000a900473ffffffffffffffffffffffffffffffffffffffff1673ffffffffffffffffffffffffffffffffffffffff163373ffffffffffffffffffffffffffffffffffffffff1614610ae4576040517f08c379a0000000000000000000000000000000000000000000000000000000008152600401610adb906129da565b60405180910390fd5b610aee6007611757565b6000610afa600761176d565b9050610b28600860009054906101000a900473ffffffffffffffffffffffffffffffffffffffff168261177b565b610b32818361139e565b610b3c6007611757565b5050565b610b5b83838360405180602001604052806000815250610e92565b505050565b6000806002600084815260200190815260200160002060009054906101000a900473ffffffffffffffffffffffffffffffffffffffff169050600073ffffffffffffffffffffffffffffffffffffffff168173ffffffffffffffffffffffffffffffffffffffff161415610c09576040517f08c379a0000000000000000000000000000000000000000000000000000000008152600401610c0090612a3a565b60405180910390fd5b80915050919050565b60008073ffffffffffffffffffffffffffffffffffffffff168273ffffffffffffffffffffffffffffffffffffffff161415610c83576040517f08c379a0000000000000000000000000000000000000000000000000000000008152600401610c7a90612a1a565b60405180910390fd5b600360008373ffffffffffffffffffffffffffffffffffffffff1673ffffffffffffffffffffffffffffffffffffffff168152602001908152602001600020549050919050565b6000610cd6600761176d565b905090565b600860009054906101000a900473ffffffffffffffffffffffffffffffffffffffff1681565b600960009054906101000a900473ffffffffffffffffffffffffffffffffffffffff1673ffffffffffffffffffffffffffffffffffffffff163373ffffffffffffffffffffffffffffffffffffffff1614610d91576040517f08c379a0000000000000000000000000000000000000000000000000000000008152600401610d88906129da565b60405180910390fd5b60005b81811015610dd2576000610da8600761176d565b9050610db4848261177b565b610dbe6007611757565b508080610dca90612e2c565b915050610d94565b505050565b606060018054610de690612dc9565b80601f0160208091040260200160405190810160405280929190818152602001828054610e1290612dc9565b8015610e5f5780601f10610e3457610100808354040283529160200191610e5f565b820191906000526020600020905b815481529060010190602001808311610e4257829003601f168201915b5050505050905090565b610e7b610e746112dd565b8383611799565b5050565b600960159054906101000a900460ff1681565b610ea3610e9d6112dd565b83611412565b610ee2576040517f08c379a0000000000000000000000000000000000000000000000000000000008152600401610ed990612afa565b60405180910390fd5b610eee84848484611906565b50505050565b600960009054906101000a900473ffffffffffffffffffffffffffffffffffffffff1673ffffffffffffffffffffffffffffffffffffffff163373ffffffffffffffffffffffffffffffffffffffff1614610f84576040517f08c379a0000000000000000000000000000000000000000000000000000000008152600401610f7b906129da565b60405180910390fd5b600960159054906101000a900460ff1615600960156101000a81548160ff021916908315150217905550565b6060610fbb82611271565b610ffa576040517f08c379a0000000000000000000000000000000000000000000000000000000008152600401610ff190612a9a565b60405180910390fd5b600060066000848152602001908152602001600020805461101a90612dc9565b80601f016020809104026020016040519081016040528092919081815260200182805461104690612dc9565b80156110935780601f1061106857610100808354040283529160200191611093565b820191906000526020600020905b81548152906001019060200180831161107657829003601f168201915b5050505050905060006110a4611962565b90506000815114156110ba57819250505061114a565b6000825111156110ef5780826040516020016110d7929190612810565b6040516020818303038152906040529250505061114a565b60006110f9611962565b905060008151116111195760405180602001604052806000815250611144565b8061112386611979565b604051602001611134929190612810565b6040516020818303038152906040525b93505050505b919050565b6000600560008473ffffffffffffffffffffffffffffffffffffffff1673ffffffffffffffffffffffffffffffffffffffff16815260200190815260200160002060008373ffffffffffffffffffffffffffffffffffffffff1673ffffffffffffffffffffffffffffffffffffffff16815260200190815260200160002060009054906101000a900460ff16905092915050565b600a81815481106111f357600080fd5b906000526020600020016000915090505481565b60007f01ffc9a7000000000000000000000000000000000000000000000000000000007bffffffffffffffffffffffffffffffffffffffffffffffffffffffff1916827bffffffffffffffffffffffffffffffffffffffffffffffffffffffff1916149050919050565b60008073ffffffffffffffffffffffffffffffffffffffff166002600084815260200190815260200160002060009054906101000a900473ffffffffffffffffffffffffffffffffffffffff1673ffffffffffffffffffffffffffffffffffffffff1614159050919050565b600033905090565b816004600083815260200190815260200160002060006101000a81548173ffffffffffffffffffffffffffffffffffffffff021916908373ffffffffffffffffffffffffffffffffffffffff160217905550808273ffffffffffffffffffffffffffffffffffffffff1661135883610b60565b73ffffffffffffffffffffffffffffffffffffffff167f8c5be1e5ebec7d5bd14f71427d1e84f3dd0314c0f7b2291e5b200ac8c7c3b92560405160405180910390a45050565b6113a782611271565b6113e6576040517f08c379a00000000000000000000000000000000000000000000000000000000081526004016113dd90612a5a565b60405180910390fd5b8060066000848152602001908152602001600020908051906020019061140d929190611f1f565b505050565b600061141d82611271565b61145c576040517f08c379a0000000000000000000000000000000000000000000000000000000008152600401611453906129ba565b60405180910390fd5b600061146783610b60565b90508073ffffffffffffffffffffffffffffffffffffffff168473ffffffffffffffffffffffffffffffffffffffff1614806114a957506114a8818561114f565b5b806114e757508373ffffffffffffffffffffffffffffffffffffffff166114cf846105f9565b73ffffffffffffffffffffffffffffffffffffffff16145b91505092915050565b8273ffffffffffffffffffffffffffffffffffffffff1661151082610b60565b73ffffffffffffffffffffffffffffffffffffffff1614611566576040517f08c379a000000000000000000000000000000000000000000000000000000000815260040161155d9061293a565b60405180910390fd5b600073ffffffffffffffffffffffffffffffffffffffff168273ffffffffffffffffffffffffffffffffffffffff1614156115d6576040517f08c379a00000000000000000000000000000000000000000000000000000000081526004016115cd9061297a565b60405180910390fd5b6115e1838383611b26565b6115ec6000826112e5565b6001600360008573ffffffffffffffffffffffffffffffffffffffff1673ffffffffffffffffffffffffffffffffffffffff168152602001908152602001600020600082825461163c9190612cdf565b925050819055506001600360008473ffffffffffffffffffffffffffffffffffffffff1673ffffffffffffffffffffffffffffffffffffffff16815260200190815260200160002060008282546116939190612c58565b92505081905550816002600083815260200190815260200160002060006101000a81548173ffffffffffffffffffffffffffffffffffffffff021916908373ffffffffffffffffffffffffffffffffffffffff160217905550808273ffffffffffffffffffffffffffffffffffffffff168473ffffffffffffffffffffffffffffffffffffffff167fddf252ad1be2c89b69c2b068fc378daa952ba7f163c4a11628f55a4df523b3ef60405160405180910390a4611752838383611b2b565b505050565b6001816000016000828254019250508190555050565b600081600001549050919050565b611795828260405180602001604052806000815250611b30565b5050565b8173ffffffffffffffffffffffffffffffffffffffff168373ffffffffffffffffffffffffffffffffffffffff161415611808576040517f08c379a00000000000000000000000000000000000000000000000000000000081526004016117ff9061299a565b60405180910390fd5b80600560008573ffffffffffffffffffffffffffffffffffffffff1673ffffffffffffffffffffffffffffffffffffffff16815260200190815260200160002060008473ffffffffffffffffffffffffffffffffffffffff1673ffffffffffffffffffffffffffffffffffffffff16815260200190815260200160002060006101000a81548160ff0219169083151502179055508173ffffffffffffffffffffffffffffffffffffffff168373ffffffffffffffffffffffffffffffffffffffff167f17307eab39ab6107e8899845ad3d59bd9653f200f220920489ca2b5937696c31836040516118f991906128bd565b60405180910390a3505050565b6119118484846114f0565b61191d84848484611b8b565b61195c576040517f08c379a0000000000000000000000000000000000000000000000000000000008152600401611953906128fa565b60405180910390fd5b50505050565b606060405180602001604052806000815250905090565b606060008214156119c1576040518060400160405280600181526020017f30000000000000000000000000000000000000000000000000000000000000008152509050611b21565b600082905060005b600082146119f35780806119dc90612e2c565b915050600a826119ec9190612cae565b91506119c9565b60008167ffffffffffffffff811115611a35577f4e487b7100000000000000000000000000000000000000000000000000000000600052604160045260246000fd5b6040519080825280601f01601f191660200182016040528015611a675781602001600182028036833780820191505090505b5090505b60008514611b1a57600182611a809190612cdf565b9150600a85611a8f9190612e75565b6030611a9b9190612c58565b60f81b818381518110611ad7577f4e487b7100000000000000000000000000000000000000000000000000000000600052603260045260246000fd5b60200101907effffffffffffffffffffffffffffffffffffffffffffffffffffffffffffff1916908160001a905350600a85611b139190612cae565b9450611a6b565b8093505050505b919050565b505050565b505050565b611b3a8383611d22565b611b476000848484611b8b565b611b86576040517f08c379a0000000000000000000000000000000000000000000000000000000008152600401611b7d906128fa565b60405180910390fd5b505050565b6000611bac8473ffffffffffffffffffffffffffffffffffffffff16611efc565b15611d15578373ffffffffffffffffffffffffffffffffffffffff1663150b7a02611bd56112dd565b8786866040518563ffffffff1660e01b8152600401611bf7949392919061284f565b602060405180830381600087803b158015611c1157600080fd5b505af1925050508015611c4257506040513d601f19601f82011682018060405250810190611c3f919061235e565b60015b611cc5573d8060008114611c72576040519150601f19603f3d011682016040523d82523d6000602084013e611c77565b606091505b50600081511415611cbd576040517f08c379a0000000000000000000000000000000000000000000000000000000008152600401611cb4906128fa565b60405180910390fd5b805181602001fd5b63150b7a0260e01b7bffffffffffffffffffffffffffffffffffffffffffffffffffffffff1916817bffffffffffffffffffffffffffffffffffffffffffffffffffffffff191614915050611d1a565b600190505b949350505050565b600073ffffffffffffffffffffffffffffffffffffffff168273ffffffffffffffffffffffffffffffffffffffff161415611d92576040517f08c379a0000000000000000000000000000000000000000000000000000000008152600401611d8990612a7a565b60405180910390fd5b611d9b81611271565b15611ddb576040517f08c379a0000000000000000000000000000000000000000000000000000000008152600401611dd29061295a565b60405180910390fd5b611de760008383611b26565b6001600360008473ffffffffffffffffffffffffffffffffffffffff1673ffffffffffffffffffffffffffffffffffffffff1681526020019081526020016000206000828254611e379190612c58565b92505081905550816002600083815260200190815260200160002060006101000a81548173ffffffffffffffffffffffffffffffffffffffff021916908373ffffffffffffffffffffffffffffffffffffffff160217905550808273ffffffffffffffffffffffffffffffffffffffff16600073ffffffffffffffffffffffffffffffffffffffff167fddf252ad1be2c89b69c2b068fc378daa952ba7f163c4a11628f55a4df523b3ef60405160405180910390a4611ef860008383611b2b565b5050565b6000808273ffffffffffffffffffffffffffffffffffffffff163b119050919050565b828054611f2b90612dc9565b90600052602060002090601f016020900481019282611f4d5760008555611f94565b82601f10611f6657805160ff1916838001178555611f94565b82800160010185558215611f94579182015b82811115611f93578251825591602001919060010190611f78565b5b509050611fa19190611fa5565b5090565b5b80821115611fbe576000816000905550600101611fa6565b5090565b6000611fd5611fd084612b7a565b612b55565b905082815260208101848484011115611fed57600080fd5b611ff8848285612d87565b509392505050565b600061201361200e84612bab565b612b55565b90508281526020810184848401111561202b57600080fd5b612036848285612d87565b509392505050565b60008135905061204d8161341d565b92915050565b60008135905061206281613434565b92915050565b6000813590506120778161344b565b92915050565b60008151905061208c8161344b565b92915050565b600082601f8301126120a357600080fd5b81356120b3848260208601611fc2565b91505092915050565b600082601f8301126120cd57600080fd5b81356120dd848260208601612000565b91505092915050565b6000813590506120f581613462565b92915050565b60006020828403121561210d57600080fd5b600061211b8482850161203e565b91505092915050565b6000806040838503121561213757600080fd5b60006121458582860161203e565b92505060206121568582860161203e565b9150509250929050565b6000806000806080858703121561217657600080fd5b60006121848782880161203e565b94505060206121958782880161203e565b935050604085013567ffffffffffffffff8111156121b257600080fd5b6121be878288016120bc565b925050606085013567ffffffffffffffff8111156121db57600080fd5b6121e7878288016120bc565b91505092959194509250565b60008060006060848603121561220857600080fd5b60006122168682870161203e565b93505060206122278682870161203e565b9250506040612238868287016120e6565b9150509250925092565b6000806000806080858703121561225857600080fd5b60006122668782880161203e565b94505060206122778782880161203e565b9350506040612288878288016120e6565b925050606085013567ffffffffffffffff8111156122a557600080fd5b6122b187828801612092565b91505092959194509250565b600080604083850312156122d057600080fd5b60006122de8582860161203e565b92505060206122ef85828601612053565b9150509250929050565b6000806040838503121561230c57600080fd5b600061231a8582860161203e565b925050602061232b858286016120e6565b9150509250929050565b60006020828403121561234757600080fd5b600061235584828501612068565b91505092915050565b60006020828403121561237057600080fd5b600061237e8482850161207d565b91505092915050565b60006020828403121561239957600080fd5b600082013567ffffffffffffffff8111156123b357600080fd5b6123bf848285016120bc565b91505092915050565b6000602082840312156123da57600080fd5b60006123e8848285016120e6565b91505092915050565b6000806040838503121561240457600080fd5b6000612412858286016120e6565b925050602083013567ffffffffffffffff81111561242f57600080fd5b61243b858286016120bc565b9150509250929050565b600061245183836127f2565b60208301905092915050565b61246681612d13565b82525050565b600061247782612bec565b6124818185612c1a565b935061248c83612bdc565b8060005b838110156124bd5781516124a48882612445565b97506124af83612c0d565b925050600181019050612490565b5085935050505092915050565b6124d381612d25565b82525050565b60006124e482612bf7565b6124ee8185612c2b565b93506124fe818560208601612d96565b61250781612f62565b840191505092915050565b600061251d82612c02565b6125278185612c3c565b9350612537818560208601612d96565b61254081612f62565b840191505092915050565b600061255682612c02565b6125608185612c4d565b9350612570818560208601612d96565b80840191505092915050565b6000612589603283612c3c565b915061259482612f73565b604082019050919050565b60006125ac600983612c3c565b91506125b782612fc2565b602082019050919050565b60006125cf602583612c3c565b91506125da82612feb565b604082019050919050565b60006125f2601c83612c3c565b91506125fd8261303a565b602082019050919050565b6000612615602483612c3c565b915061262082613063565b604082019050919050565b6000612638601983612c3c565b9150612643826130b2565b602082019050919050565b600061265b602c83612c3c565b9150612666826130db565b604082019050919050565b600061267e600983612c3c565b91506126898261312a565b602082019050919050565b60006126a1603883612c3c565b91506126ac82613153565b604082019050919050565b60006126c4602a83612c3c565b91506126cf826131a2565b604082019050919050565b60006126e7602983612c3c565b91506126f2826131f1565b604082019050919050565b600061270a602e83612c3c565b915061271582613240565b604082019050919050565b600061272d602083612c3c565b91506127388261328f565b602082019050919050565b6000612750603183612c3c565b915061275b826132b8565b604082019050919050565b6000612773602c83612c3c565b915061277e82613307565b604082019050919050565b6000612796602183612c3c565b91506127a182613356565b604082019050919050565b60006127b9603183612c3c565b91506127c4826133a5565b604082019050919050565b60006127dc600983612c3c565b91506127e7826133f4565b602082019050919050565b6127fb81612d7d565b82525050565b61280a81612d7d565b82525050565b600061281c828561254b565b9150612828828461254b565b91508190509392505050565b6000602082019050612849600083018461245d565b92915050565b6000608082019050612864600083018761245d565b612871602083018661245d565b61287e6040830185612801565b818103606083015261289081846124d9565b905095945050505050565b600060208201905081810360008301526128b5818461246c565b905092915050565b60006020820190506128d260008301846124ca565b92915050565b600060208201905081810360008301526128f28184612512565b905092915050565b600060208201905081810360008301526129138161257c565b9050919050565b600060208201905081810360008301526129338161259f565b9050919050565b60006020820190508181036000830152612953816125c2565b9050919050565b60006020820190508181036000830152612973816125e5565b9050919050565b6000602082019050818103600083015261299381612608565b9050919050565b600060208201905081810360008301526129b38161262b565b9050919050565b600060208201905081810360008301526129d38161264e565b9050919050565b600060208201905081810360008301526129f381612671565b9050919050565b60006020820190508181036000830152612a1381612694565b9050919050565b60006020820190508181036000830152612a33816126b7565b9050919050565b60006020820190508181036000830152612a53816126da565b9050919050565b60006020820190508181036000830152612a73816126fd565b9050919050565b60006020820190508181036000830152612a9381612720565b9050919050565b60006020820190508181036000830152612ab381612743565b9050919050565b60006020820190508181036000830152612ad381612766565b9050919050565b60006020820190508181036000830152612af381612789565b9050919050565b60006020820190508181036000830152612b13816127ac565b9050919050565b60006020820190508181036000830152612b33816127cf565b9050919050565b6000602082019050612b4f6000830184612801565b92915050565b6000612b5f612b70565b9050612b6b8282612dfb565b919050565b6000604051905090565b600067ffffffffffffffff821115612b9557612b94612f33565b5b612b9e82612f62565b9050602081019050919050565b600067ffffffffffffffff821115612bc657612bc5612f33565b5b612bcf82612f62565b9050602081019050919050565b6000819050602082019050919050565b600081519050919050565b600081519050919050565b600081519050919050565b6000602082019050919050565b600082825260208201905092915050565b600082825260208201905092915050565b600082825260208201905092915050565b600081905092915050565b6000612c6382612d7d565b9150612c6e83612d7d565b9250827fffffffffffffffffffffffffffffffffffffffffffffffffffffffffffffffff03821115612ca357612ca2612ea6565b5b828201905092915050565b6000612cb982612d7d565b9150612cc483612d7d565b925082612cd457612cd3612ed5565b5b828204905092915050565b6000612cea82612d7d565b9150612cf583612d7d565b925082821015612d0857612d07612ea6565b5b828203905092915050565b6000612d1e82612d5d565b9050919050565b60008115159050919050565b60007fffffffff0000000000000000000000000000000000000000000000000000000082169050919050565b600073ffffffffffffffffffffffffffffffffffffffff82169050919050565b6000819050919050565b82818337600083830152505050565b60005b83811015612db4578082015181840152602081019050612d99565b83811115612dc3576000848401525b50505050565b60006002820490506001821680612de157607f821691505b60208210811415612df557612df4612f04565b5b50919050565b612e0482612f62565b810181811067ffffffffffffffff82111715612e2357612e22612f33565b5b80604052505050565b6000612e3782612d7d565b91507fffffffffffffffffffffffffffffffffffffffffffffffffffffffffffffffff821415612e6a57612e69612ea6565b5b600182019050919050565b6000612e8082612d7d565b9150612e8b83612d7d565b925082612e9b57612e9a612ed5565b5b828206905092915050565b7f4e487b7100000000000000000000000000000000000000000000000000000000600052601160045260246000fd5b7f4e487b7100000000000000000000000000000000000000000000000000000000600052601260045260246000fd5b7f4e487b7100000000000000000000000000000000000000000000000000000000600052602260045260246000fd5b7f4e487b7100000000000000000000000000000000000000000000000000000000600052604160045260246000fd5b6000601f19601f8301169050919050565b7f4552433732313a207472616e7366657220746f206e6f6e20455243373231526560008201527f63656976657220696d706c656d656e7465720000000000000000000000000000602082015250565b7f4552433732313a30300000000000000000000000000000000000000000000000600082015250565b7f4552433732313a207472616e736665722066726f6d20696e636f72726563742060008201527f6f776e6572000000000000000000000000000000000000000000000000000000602082015250565b7f4552433732313a20746f6b656e20616c7265616479206d696e74656400000000600082015250565b7f4552433732313a207472616e7366657220746f20746865207a65726f2061646460008201527f7265737300000000000000000000000000000000000000000000000000000000602082015250565b7f4552433732313a20617070726f766520746f2063616c6c657200000000000000600082015250565b7f4552433732313a206f70657261746f7220717565727920666f72206e6f6e657860008201527f697374656e7420746f6b656e0000000000000000000000000000000000000000602082015250565b7f4552433732313a30310000000000000000000000000000000000000000000000600082015250565b7f4552433732313a20617070726f76652063616c6c6572206973206e6f74206f7760008201527f6e6572206e6f7220617070726f76656420666f7220616c6c0000000000000000602082015250565b7f4552433732313a2062616c616e636520717565727920666f7220746865207a6560008201527f726f206164647265737300000000000000000000000000000000000000000000602082015250565b7f4552433732313a206f776e657220717565727920666f72206e6f6e657869737460008201527f656e7420746f6b656e0000000000000000000000000000000000000000000000602082015250565b7f45524337323155524953746f726167653a2055524920736574206f66206e6f6e60008201527f6578697374656e7420746f6b656e000000000000000000000000000000000000602082015250565b7f4552433732313a206d696e7420746f20746865207a65726f2061646472657373600082015250565b7f45524337323155524953746f726167653a2055524920717565727920666f722060008201527f6e6f6e6578697374656e7420746f6b656e000000000000000000000000000000602082015250565b7f4552433732313a20617070726f76656420717565727920666f72206e6f6e657860008201527f697374656e7420746f6b656e0000000000000000000000000000000000000000602082015250565b7f4552433732313a20617070726f76616c20746f2063757272656e74206f776e6560008201527f7200000000000000000000000000000000000000000000000000000000000000602082015250565b7f4552433732313a207472616e736665722063616c6c6572206973206e6f74206f60008201527f776e6572206e6f7220617070726f766564000000000000000000000000000000602082015250565b7f4552433732313a30340000000000000000000000000000000000000000000000600082015250565b61342681612d13565b811461343157600080fd5b50565b61343d81612d25565b811461344857600080fd5b50565b61345481612d31565b811461345f57600080fd5b50565b61346b81612d7d565b811461347657600080fd5b5056fea2646970667358221220177ba4c4b90509a53f9d82e42e84a9ab1453300c60f9db265051f7350d20b58264736f6c63430008040033",
  "linkReferences": {},
  "deployedLinkReferences": {}
}