{
  "_format": "hh-sol-artifact-1",
  "contractName": "ItemToken",
  "sourceName": "contracts/tokens/ItemToken.sol",
  "abi": [
    {
      "inputs": [
        {
          "internalType": "string",
          "name": "_baseURI",
          "type": "string"
        }
      ],
      "stateMutability": "nonpayable",
      "type": "constructor"
    },
    {
      "anonymous": false,
      "inputs": [
        {
          "indexed": true,
          "internalType": "address",
          "name": "account",
          "type": "address"
        },
        {
          "indexed": true,
          "internalType": "address",
          "name": "operator",
          "type": "address"
        },
        {
          "indexed": false,
          "internalType": "bool",
          "name": "approved",
          "type": "bool"
        }
      ],
      "name": "ApprovalForAll",
      "type": "event"
    },
    {
      "anonymous": false,
      "inputs": [
        {
          "indexed": true,
          "internalType": "address",
          "name": "operator",
          "type": "address"
        },
        {
          "indexed": true,
          "internalType": "address",
          "name": "from",
          "type": "address"
        },
        {
          "indexed": true,
          "internalType": "address",
          "name": "to",
          "type": "address"
        },
        {
          "indexed": false,
          "internalType": "uint256[]",
          "name": "ids",
          "type": "uint256[]"
        },
        {
          "indexed": false,
          "internalType": "uint256[]",
          "name": "values",
          "type": "uint256[]"
        }
      ],
      "name": "TransferBatch",
      "type": "event"
    },
    {
      "anonymous": false,
      "inputs": [
        {
          "indexed": true,
          "internalType": "address",
          "name": "operator",
          "type": "address"
        },
        {
          "indexed": true,
          "internalType": "address",
          "name": "from",
          "type": "address"
        },
        {
          "indexed": true,
          "internalType": "address",
          "name": "to",
          "type": "address"
        },
        {
          "indexed": false,
          "internalType": "uint256",
          "name": "id",
          "type": "uint256"
        },
        {
          "indexed": false,
          "internalType": "uint256",
          "name": "value",
          "type": "uint256"
        }
      ],
      "name": "TransferSingle",
      "type": "event"
    },
    {
      "anonymous": false,
      "inputs": [
        {
          "indexed": false,
          "internalType": "string",
          "name": "value",
          "type": "string"
        },
        {
          "indexed": true,
          "internalType": "uint256",
          "name": "id",
          "type": "uint256"
        }
      ],
      "name": "URI",
      "type": "event"
    },
    {
      "inputs": [
        {
          "internalType": "address",
          "name": "account",
          "type": "address"
        },
        {
          "internalType": "uint256",
          "name": "id",
          "type": "uint256"
        }
      ],
      "name": "balanceOf",
      "outputs": [
        {
          "internalType": "uint256",
          "name": "",
          "type": "uint256"
        }
      ],
      "stateMutability": "view",
      "type": "function"
    },
    {
      "inputs": [
        {
          "internalType": "address[]",
          "name": "accounts",
          "type": "address[]"
        },
        {
          "internalType": "uint256[]",
          "name": "ids",
          "type": "uint256[]"
        }
      ],
      "name": "balanceOfBatch",
      "outputs": [
        {
          "internalType": "uint256[]",
          "name": "",
          "type": "uint256[]"
        }
      ],
      "stateMutability": "view",
      "type": "function"
    },
    {
      "inputs": [
        {
          "internalType": "address",
          "name": "_to",
          "type": "address"
        },
        {
          "internalType": "uint256[]",
          "name": "_tokenIds",
          "type": "uint256[]"
        },
        {
          "internalType": "uint256[]",
          "name": "_amounts",
          "type": "uint256[]"
        }
      ],
      "name": "batchSale",
      "outputs": [],
      "stateMutability": "nonpayable",
      "type": "function"
    },
    {
      "inputs": [
        {
          "internalType": "uint256",
          "name": "_tokenId",
          "type": "uint256"
        },
        {
          "internalType": "string",
          "name": "_uri",
          "type": "string"
        }
      ],
      "name": "createItem",
      "outputs": [],
      "stateMutability": "nonpayable",
      "type": "function"
    },
    {
      "inputs": [
        {
          "internalType": "address",
          "name": "_owner",
          "type": "address"
        },
        {
          "internalType": "address",
          "name": "_shop",
          "type": "address"
        }
      ],
      "name": "initialize",
      "outputs": [],
      "stateMutability": "nonpayable",
      "type": "function"
    },
    {
      "inputs": [
        {
          "internalType": "address",
          "name": "account",
          "type": "address"
        },
        {
          "internalType": "address",
          "name": "operator",
          "type": "address"
        }
      ],
      "name": "isApprovedForAll",
      "outputs": [
        {
          "internalType": "bool",
          "name": "",
          "type": "bool"
        }
      ],
      "stateMutability": "view",
      "type": "function"
    },
    {
      "inputs": [],
      "name": "owner",
      "outputs": [
        {
          "internalType": "address",
          "name": "",
          "type": "address"
        }
      ],
      "stateMutability": "view",
      "type": "function"
    },
    {
      "inputs": [
        {
          "internalType": "address",
          "name": "from",
          "type": "address"
        },
        {
          "internalType": "address",
          "name": "to",
          "type": "address"
        },
        {
          "internalType": "uint256[]",
          "name": "ids",
          "type": "uint256[]"
        },
        {
          "internalType": "uint256[]",
          "name": "amounts",
          "type": "uint256[]"
        },
        {
          "internalType": "bytes",
          "name": "data",
          "type": "bytes"
        }
      ],
      "name": "safeBatchTransferFrom",
      "outputs": [],
      "stateMutability": "nonpayable",
      "type": "function"
    },
    {
      "inputs": [
        {
          "internalType": "address",
          "name": "from",
          "type": "address"
        },
        {
          "internalType": "address",
          "name": "to",
          "type": "address"
        },
        {
          "internalType": "uint256",
          "name": "id",
          "type": "uint256"
        },
        {
          "internalType": "uint256",
          "name": "amount",
          "type": "uint256"
        },
        {
          "internalType": "bytes",
          "name": "data",
          "type": "bytes"
        }
      ],
      "name": "safeTransferFrom",
      "outputs": [],
      "stateMutability": "nonpayable",
      "type": "function"
    },
    {
      "inputs": [
        {
          "internalType": "address",
          "name": "operator",
          "type": "address"
        },
        {
          "internalType": "bool",
          "name": "approved",
          "type": "bool"
        }
      ],
      "name": "setApprovalForAll",
      "outputs": [],
      "stateMutability": "nonpayable",
      "type": "function"
    },
    {
      "inputs": [],
      "name": "shop",
      "outputs": [
        {
          "internalType": "address",
          "name": "",
          "type": "address"
        }
      ],
      "stateMutability": "view",
      "type": "function"
    },
    {
      "inputs": [
        {
          "internalType": "bytes4",
          "name": "interfaceId",
          "type": "bytes4"
        }
      ],
      "name": "supportsInterface",
      "outputs": [
        {
          "internalType": "bool",
          "name": "",
          "type": "bool"
        }
      ],
      "stateMutability": "view",
      "type": "function"
    },
    {
      "inputs": [
        {
          "internalType": "uint256",
          "name": "tokenId",
          "type": "uint256"
        }
      ],
      "name": "uri",
      "outputs": [
        {
          "internalType": "string",
          "name": "",
          "type": "string"
        }
      ],
      "stateMutability": "view",
      "type": "function"
    }
  ],
  "bytecode": "0x608060405260405180602001604052806000815250600390805190602001906200002b929190620000b0565b506000600660146101000a81548160ff0219169083151502179055503480156200005457600080fd5b506040516200360f3803806200360f83398181016040528101906200007a9190620001d2565b806200008c816200009460201b60201c565b505062000387565b8060029080519060200190620000ac929190620000b0565b5050565b828054620000be90620002ac565b90600052602060002090601f016020900481019282620000e257600085556200012e565b82601f10620000fd57805160ff19168380011785556200012e565b828001600101855582156200012e579182015b828111156200012d57825182559160200191906001019062000110565b5b5090506200013d919062000141565b5090565b5b808211156200015c57600081600090555060010162000142565b5090565b600062000177620001718462000240565b62000217565b9050828152602081018484840111156200019057600080fd5b6200019d84828562000276565b509392505050565b600082601f830112620001b757600080fd5b8151620001c984826020860162000160565b91505092915050565b600060208284031215620001e557600080fd5b600082015167ffffffffffffffff8111156200020057600080fd5b6200020e84828501620001a5565b91505092915050565b60006200022362000236565b9050620002318282620002e2565b919050565b6000604051905090565b600067ffffffffffffffff8211156200025e576200025d62000347565b5b620002698262000376565b9050602081019050919050565b60005b838110156200029657808201518184015260208101905062000279565b83811115620002a6576000848401525b50505050565b60006002820490506001821680620002c557607f821691505b60208210811415620002dc57620002db62000318565b5b50919050565b620002ed8262000376565b810181811067ffffffffffffffff821117156200030f576200030e62000347565b5b80604052505050565b7f4e487b7100000000000000000000000000000000000000000000000000000000600052602260045260246000fd5b7f4e487b7100000000000000000000000000000000000000000000000000000000600052604160045260246000fd5b6000601f19601f8301169050919050565b61327880620003976000396000f3fe608060405234801561001057600080fd5b50600436106100ce5760003560e01c80634cfc8ed71161008c578063a22cb46511610066578063a22cb46514610223578063ba5a94141461023f578063e985e9c51461025b578063f242432a1461028b576100ce565b80634cfc8ed7146101b95780634e1273f4146101d55780638da5cb5b14610205576100ce565b8062fdd58e146100d357806301ffc9a7146101035780630881fa0d146101335780630e89341c146101515780632eb2c2d614610181578063485cc9551461019d575b600080fd5b6100ed60048036038101906100e891906120ab565b6102a7565b6040516100fa9190612937565b60405180910390f35b61011d60048036038101906101189190612153565b610370565b60405161012a919061273a565b60405180910390f35b61013b610452565b6040516101489190612604565b60405180910390f35b61016b600480360381019061016691906121a5565b610478565b6040516101789190612755565b60405180910390f35b61019b60048036038101906101969190611ea2565b61055d565b005b6101b760048036038101906101b29190611e66565b6105fe565b005b6101d360048036038101906101ce9190611ff0565b6106f5565b005b6101ef60048036038101906101ea91906120e7565b6107ff565b6040516101fc91906126e1565b60405180910390f35b61020d6109b0565b60405161021a9190612604565b60405180910390f35b61023d6004803603810190610238919061206f565b6109d6565b005b610259600480360381019061025491906121ce565b6109ec565b005b61027560048036038101906102709190611e66565b610ac8565b604051610282919061273a565b60405180910390f35b6102a560048036038101906102a09190611f61565b610b5c565b005b60008073ffffffffffffffffffffffffffffffffffffffff168373ffffffffffffffffffffffffffffffffffffffff161415610318576040517f08c379a000000000000000000000000000000000000000000000000000000000815260040161030f906127d7565b60405180910390fd5b60008083815260200190815260200160002060008473ffffffffffffffffffffffffffffffffffffffff1673ffffffffffffffffffffffffffffffffffffffff16815260200190815260200160002054905092915050565b60007fd9b67a26000000000000000000000000000000000000000000000000000000007bffffffffffffffffffffffffffffffffffffffffffffffffffffffff1916827bffffffffffffffffffffffffffffffffffffffffffffffffffffffff1916148061043b57507f0e89341c000000000000000000000000000000000000000000000000000000007bffffffffffffffffffffffffffffffffffffffffffffffffffffffff1916827bffffffffffffffffffffffffffffffffffffffffffffffffffffffff1916145b8061044b575061044a82610bfd565b5b9050919050565b600660009054906101000a900473ffffffffffffffffffffffffffffffffffffffff1681565b6060600060046000848152602001908152602001600020805461049a90612bf7565b80601f01602080910402602001604051908101604052809291908181526020018280546104c690612bf7565b80156105135780601f106104e857610100808354040283529160200191610513565b820191906000526020600020905b8154815290600101906020018083116104f657829003601f168201915b5050505050905060008151116105315761052c83610c67565b610555565b6003816040516020016105459291906125e0565b6040516020818303038152906040525b915050919050565b610565610cfb565b73ffffffffffffffffffffffffffffffffffffffff168573ffffffffffffffffffffffffffffffffffffffff1614806105ab57506105aa856105a5610cfb565b610ac8565b5b6105ea576040517f08c379a00000000000000000000000000000000000000000000000000000000081526004016105e190612857565b60405180910390fd5b6105f78585858585610d03565b5050505050565b60001515600660149054906101000a900460ff16151514610654576040517f08c379a000000000000000000000000000000000000000000000000000000000815260040161064b90612817565b60405180910390fd5b6001600660146101000a81548160ff02191690831515021790555081600560006101000a81548173ffffffffffffffffffffffffffffffffffffffff021916908373ffffffffffffffffffffffffffffffffffffffff16021790555080600660006101000a81548173ffffffffffffffffffffffffffffffffffffffff021916908373ffffffffffffffffffffffffffffffffffffffff1602179055505050565b8051825114610739576040517f08c379a000000000000000000000000000000000000000000000000000000000815260040161073090612877565b60405180910390fd5b60008251905060005b818110156107f8576107e585858381518110610787577f4e487b7100000000000000000000000000000000000000000000000000000000600052603260045260246000fd5b60200260200101518584815181106107c8577f4e487b7100000000000000000000000000000000000000000000000000000000600052603260045260246000fd5b602002602001015160405180602001604052806000815250611071565b80806107f090612c5a565b915050610742565b5050505050565b60608151835114610845576040517f08c379a000000000000000000000000000000000000000000000000000000000815260040161083c906128d7565b60405180910390fd5b6000835167ffffffffffffffff811115610888577f4e487b7100000000000000000000000000000000000000000000000000000000600052604160045260246000fd5b6040519080825280602002602001820160405280156108b65781602001602082028036833780820191505090505b50905060005b84518110156109a55761094f858281518110610901577f4e487b7100000000000000000000000000000000000000000000000000000000600052603260045260246000fd5b6020026020010151858381518110610942577f4e487b7100000000000000000000000000000000000000000000000000000000600052603260045260246000fd5b60200260200101516102a7565b828281518110610988577f4e487b7100000000000000000000000000000000000000000000000000000000600052603260045260246000fd5b6020026020010181815250508061099e90612c5a565b90506108bc565b508091505092915050565b600560009054906101000a900473ffffffffffffffffffffffffffffffffffffffff1681565b6109e86109e1610cfb565b8383611222565b5050565b600660009054906101000a900473ffffffffffffffffffffffffffffffffffffffff1673ffffffffffffffffffffffffffffffffffffffff163373ffffffffffffffffffffffffffffffffffffffff1614610a7c576040517f08c379a0000000000000000000000000000000000000000000000000000000008152600401610a7390612797565b60405180910390fd5b610aba600560009054906101000a900473ffffffffffffffffffffffffffffffffffffffff1683600160405180602001604052806000815250611071565b610ac4828261138f565b5050565b6000600160008473ffffffffffffffffffffffffffffffffffffffff1673ffffffffffffffffffffffffffffffffffffffff16815260200190815260200160002060008373ffffffffffffffffffffffffffffffffffffffff1673ffffffffffffffffffffffffffffffffffffffff16815260200190815260200160002060009054906101000a900460ff16905092915050565b610b64610cfb565b73ffffffffffffffffffffffffffffffffffffffff168573ffffffffffffffffffffffffffffffffffffffff161480610baa5750610ba985610ba4610cfb565b610ac8565b5b610be9576040517f08c379a0000000000000000000000000000000000000000000000000000000008152600401610be0906127f7565b60405180910390fd5b610bf685858585856113fb565b5050505050565b60007f01ffc9a7000000000000000000000000000000000000000000000000000000007bffffffffffffffffffffffffffffffffffffffffffffffffffffffff1916827bffffffffffffffffffffffffffffffffffffffffffffffffffffffff1916149050919050565b606060028054610c7690612bf7565b80601f0160208091040260200160405190810160405280929190818152602001828054610ca290612bf7565b8015610cef5780601f10610cc457610100808354040283529160200191610cef565b820191906000526020600020905b815481529060010190602001808311610cd257829003601f168201915b50505050509050919050565b600033905090565b8151835114610d47576040517f08c379a0000000000000000000000000000000000000000000000000000000008152600401610d3e906128f7565b60405180910390fd5b600073ffffffffffffffffffffffffffffffffffffffff168473ffffffffffffffffffffffffffffffffffffffff161415610db7576040517f08c379a0000000000000000000000000000000000000000000000000000000008152600401610dae90612837565b60405180910390fd5b6000610dc1610cfb565b9050610dd1818787878787611697565b60005b8451811015610fce576000858281518110610e18577f4e487b7100000000000000000000000000000000000000000000000000000000600052603260045260246000fd5b602002602001015190506000858381518110610e5d577f4e487b7100000000000000000000000000000000000000000000000000000000600052603260045260246000fd5b60200260200101519050600080600084815260200190815260200160002060008b73ffffffffffffffffffffffffffffffffffffffff1673ffffffffffffffffffffffffffffffffffffffff16815260200190815260200160002054905081811015610efe576040517f08c379a0000000000000000000000000000000000000000000000000000000008152600401610ef590612897565b60405180910390fd5b81810360008085815260200190815260200160002060008c73ffffffffffffffffffffffffffffffffffffffff1673ffffffffffffffffffffffffffffffffffffffff168152602001908152602001600020819055508160008085815260200190815260200160002060008b73ffffffffffffffffffffffffffffffffffffffff1673ffffffffffffffffffffffffffffffffffffffff1681526020019081526020016000206000828254610fb39190612aeb565b9250508190555050505080610fc790612c5a565b9050610dd4565b508473ffffffffffffffffffffffffffffffffffffffff168673ffffffffffffffffffffffffffffffffffffffff168273ffffffffffffffffffffffffffffffffffffffff167f4a39dc06d4c0dbc64b70af90fd698a233a518aa5d07e595d983b8c0526c8f7fb8787604051611045929190612703565b60405180910390a461105b81878787878761169f565b6110698187878787876116a7565b505050505050565b600073ffffffffffffffffffffffffffffffffffffffff168473ffffffffffffffffffffffffffffffffffffffff1614156110e1576040517f08c379a00000000000000000000000000000000000000000000000000000000081526004016110d890612917565b60405180910390fd5b60006110eb610cfb565b905060006110f88561188e565b905060006111058561188e565b905061111683600089858589611697565b8460008088815260200190815260200160002060008973ffffffffffffffffffffffffffffffffffffffff1673ffffffffffffffffffffffffffffffffffffffff16815260200190815260200160002060008282546111759190612aeb565b925050819055508673ffffffffffffffffffffffffffffffffffffffff16600073ffffffffffffffffffffffffffffffffffffffff168473ffffffffffffffffffffffffffffffffffffffff167fc3d58168c5ae7397731d063d5bbf3d657854427343f4c083240f7aacaa2d0f6289896040516111f3929190612952565b60405180910390a461120a8360008985858961169f565b61121983600089898989611954565b50505050505050565b8173ffffffffffffffffffffffffffffffffffffffff168373ffffffffffffffffffffffffffffffffffffffff161415611291576040517f08c379a0000000000000000000000000000000000000000000000000000000008152600401611288906128b7565b60405180910390fd5b80600160008573ffffffffffffffffffffffffffffffffffffffff1673ffffffffffffffffffffffffffffffffffffffff16815260200190815260200160002060008473ffffffffffffffffffffffffffffffffffffffff1673ffffffffffffffffffffffffffffffffffffffff16815260200190815260200160002060006101000a81548160ff0219169083151502179055508173ffffffffffffffffffffffffffffffffffffffff168373ffffffffffffffffffffffffffffffffffffffff167f17307eab39ab6107e8899845ad3d59bd9653f200f220920489ca2b5937696c3183604051611382919061273a565b60405180910390a3505050565b806004600084815260200190815260200160002090805190602001906113b6929190611b5e565b50817f6bb7ff708619ba0610cba295a58592e0451dee2622938c8755667688daf3529b6113e284610478565b6040516113ef9190612755565b60405180910390a25050565b600073ffffffffffffffffffffffffffffffffffffffff168473ffffffffffffffffffffffffffffffffffffffff16141561146b576040517f08c379a000000000000000000000000000000000000000000000000000000000815260040161146290612837565b60405180910390fd5b6000611475610cfb565b905060006114828561188e565b9050600061148f8561188e565b905061149f838989858589611697565b600080600088815260200190815260200160002060008a73ffffffffffffffffffffffffffffffffffffffff1673ffffffffffffffffffffffffffffffffffffffff16815260200190815260200160002054905085811015611536576040517f08c379a000000000000000000000000000000000000000000000000000000000815260040161152d90612897565b60405180910390fd5b85810360008089815260200190815260200160002060008b73ffffffffffffffffffffffffffffffffffffffff1673ffffffffffffffffffffffffffffffffffffffff168152602001908152602001600020819055508560008089815260200190815260200160002060008a73ffffffffffffffffffffffffffffffffffffffff1673ffffffffffffffffffffffffffffffffffffffff16815260200190815260200160002060008282546115eb9190612aeb565b925050819055508773ffffffffffffffffffffffffffffffffffffffff168973ffffffffffffffffffffffffffffffffffffffff168573ffffffffffffffffffffffffffffffffffffffff167fc3d58168c5ae7397731d063d5bbf3d657854427343f4c083240f7aacaa2d0f628a8a604051611668929190612952565b60405180910390a461167e848a8a86868a61169f565b61168c848a8a8a8a8a611954565b505050505050505050565b505050505050565b505050505050565b6116c68473ffffffffffffffffffffffffffffffffffffffff16611b3b565b15611886578373ffffffffffffffffffffffffffffffffffffffff1663bc197c8187878686866040518663ffffffff1660e01b815260040161170c95949392919061261f565b602060405180830381600087803b15801561172657600080fd5b505af192505050801561175757506040513d601f19601f82011682018060405250810190611754919061217c565b60015b6117fd57611763612d30565b806308c379a014156117c05750611778613150565b8061178357506117c2565b806040517f08c379a00000000000000000000000000000000000000000000000000000000081526004016117b79190612755565b60405180910390fd5b505b6040517f08c379a00000000000000000000000000000000000000000000000000000000081526004016117f490612777565b60405180910390fd5b63bc197c8160e01b7bffffffffffffffffffffffffffffffffffffffffffffffffffffffff1916817bffffffffffffffffffffffffffffffffffffffffffffffffffffffff191614611884576040517f08c379a000000000000000000000000000000000000000000000000000000000815260040161187b906127b7565b60405180910390fd5b505b505050505050565b60606000600167ffffffffffffffff8111156118d3577f4e487b7100000000000000000000000000000000000000000000000000000000600052604160045260246000fd5b6040519080825280602002602001820160405280156119015781602001602082028036833780820191505090505b509050828160008151811061193f577f4e487b7100000000000000000000000000000000000000000000000000000000600052603260045260246000fd5b60200260200101818152505080915050919050565b6119738473ffffffffffffffffffffffffffffffffffffffff16611b3b565b15611b33578373ffffffffffffffffffffffffffffffffffffffff1663f23a6e6187878686866040518663ffffffff1660e01b81526004016119b9959493929190612687565b602060405180830381600087803b1580156119d357600080fd5b505af1925050508015611a0457506040513d601f19601f82011682018060405250810190611a01919061217c565b60015b611aaa57611a10612d30565b806308c379a01415611a6d5750611a25613150565b80611a305750611a6f565b806040517f08c379a0000000000000000000000000000000000000000000000000000000008152600401611a649190612755565b60405180910390fd5b505b6040517f08c379a0000000000000000000000000000000000000000000000000000000008152600401611aa190612777565b60405180910390fd5b63f23a6e6160e01b7bffffffffffffffffffffffffffffffffffffffffffffffffffffffff1916817bffffffffffffffffffffffffffffffffffffffffffffffffffffffff191614611b31576040517f08c379a0000000000000000000000000000000000000000000000000000000008152600401611b28906127b7565b60405180910390fd5b505b505050505050565b6000808273ffffffffffffffffffffffffffffffffffffffff163b119050919050565b828054611b6a90612bf7565b90600052602060002090601f016020900481019282611b8c5760008555611bd3565b82601f10611ba557805160ff1916838001178555611bd3565b82800160010185558215611bd3579182015b82811115611bd2578251825591602001919060010190611bb7565b5b509050611be09190611be4565b5090565b5b80821115611bfd576000816000905550600101611be5565b5090565b6000611c14611c0f846129a0565b61297b565b90508083825260208201905082856020860282011115611c3357600080fd5b60005b85811015611c635781611c498882611d55565b845260208401935060208301925050600181019050611c36565b5050509392505050565b6000611c80611c7b846129cc565b61297b565b90508083825260208201905082856020860282011115611c9f57600080fd5b60005b85811015611ccf5781611cb58882611e51565b845260208401935060208301925050600181019050611ca2565b5050509392505050565b6000611cec611ce7846129f8565b61297b565b905082815260208101848484011115611d0457600080fd5b611d0f848285612bb5565b509392505050565b6000611d2a611d2584612a29565b61297b565b905082815260208101848484011115611d4257600080fd5b611d4d848285612bb5565b509392505050565b600081359050611d64816131e6565b92915050565b600082601f830112611d7b57600080fd5b8135611d8b848260208601611c01565b91505092915050565b600082601f830112611da557600080fd5b8135611db5848260208601611c6d565b91505092915050565b600081359050611dcd816131fd565b92915050565b600081359050611de281613214565b92915050565b600081519050611df781613214565b92915050565b600082601f830112611e0e57600080fd5b8135611e1e848260208601611cd9565b91505092915050565b600082601f830112611e3857600080fd5b8135611e48848260208601611d17565b91505092915050565b600081359050611e608161322b565b92915050565b60008060408385031215611e7957600080fd5b6000611e8785828601611d55565b9250506020611e9885828601611d55565b9150509250929050565b600080600080600060a08688031215611eba57600080fd5b6000611ec888828901611d55565b9550506020611ed988828901611d55565b945050604086013567ffffffffffffffff811115611ef657600080fd5b611f0288828901611d94565b935050606086013567ffffffffffffffff811115611f1f57600080fd5b611f2b88828901611d94565b925050608086013567ffffffffffffffff811115611f4857600080fd5b611f5488828901611dfd565b9150509295509295909350565b600080600080600060a08688031215611f7957600080fd5b6000611f8788828901611d55565b9550506020611f9888828901611d55565b9450506040611fa988828901611e51565b9350506060611fba88828901611e51565b925050608086013567ffffffffffffffff811115611fd757600080fd5b611fe388828901611dfd565b9150509295509295909350565b60008060006060848603121561200557600080fd5b600061201386828701611d55565b935050602084013567ffffffffffffffff81111561203057600080fd5b61203c86828701611d94565b925050604084013567ffffffffffffffff81111561205957600080fd5b61206586828701611d94565b9150509250925092565b6000806040838503121561208257600080fd5b600061209085828601611d55565b92505060206120a185828601611dbe565b9150509250929050565b600080604083850312156120be57600080fd5b60006120cc85828601611d55565b92505060206120dd85828601611e51565b9150509250929050565b600080604083850312156120fa57600080fd5b600083013567ffffffffffffffff81111561211457600080fd5b61212085828601611d6a565b925050602083013567ffffffffffffffff81111561213d57600080fd5b61214985828601611d94565b9150509250929050565b60006020828403121561216557600080fd5b600061217384828501611dd3565b91505092915050565b60006020828403121561218e57600080fd5b600061219c84828501611de8565b91505092915050565b6000602082840312156121b757600080fd5b60006121c584828501611e51565b91505092915050565b600080604083850312156121e157600080fd5b60006121ef85828601611e51565b925050602083013567ffffffffffffffff81111561220c57600080fd5b61221885828601611e27565b9150509250929050565b600061222e83836125c2565b60208301905092915050565b61224381612b41565b82525050565b600061225482612a7f565b61225e8185612aad565b935061226983612a5a565b8060005b8381101561229a5781516122818882612222565b975061228c83612aa0565b92505060018101905061226d565b5085935050505092915050565b6122b081612b53565b82525050565b60006122c182612a8a565b6122cb8185612abe565b93506122db818560208601612bc4565b6122e481612d52565b840191505092915050565b60006122fa82612a95565b6123048185612acf565b9350612314818560208601612bc4565b61231d81612d52565b840191505092915050565b600061233382612a95565b61233d8185612ae0565b935061234d818560208601612bc4565b80840191505092915050565b6000815461236681612bf7565b6123708186612ae0565b9450600182166000811461238b576001811461239c576123cf565b60ff198316865281860193506123cf565b6123a585612a6a565b60005b838110156123c7578154818901526001820191506020810190506123a8565b838801955050505b50505092915050565b60006123e5603483612acf565b91506123f082612d70565b604082019050919050565b6000612408600983612acf565b915061241382612dbf565b602082019050919050565b600061242b602883612acf565b915061243682612de8565b604082019050919050565b600061244e602b83612acf565b915061245982612e37565b604082019050919050565b6000612471602983612acf565b915061247c82612e86565b604082019050919050565b6000612494600583612acf565b915061249f82612ed5565b602082019050919050565b60006124b7602583612acf565b91506124c282612efe565b604082019050919050565b60006124da603283612acf565b91506124e582612f4d565b604082019050919050565b60006124fd600983612acf565b915061250882612f9c565b602082019050919050565b6000612520602a83612acf565b915061252b82612fc5565b604082019050919050565b6000612543602983612acf565b915061254e82613014565b604082019050919050565b6000612566602983612acf565b915061257182613063565b604082019050919050565b6000612589602883612acf565b9150612594826130b2565b604082019050919050565b60006125ac602183612acf565b91506125b782613101565b604082019050919050565b6125cb81612bab565b82525050565b6125da81612bab565b82525050565b60006125ec8285612359565b91506125f88284612328565b91508190509392505050565b6000602082019050612619600083018461223a565b92915050565b600060a082019050612634600083018861223a565b612641602083018761223a565b81810360408301526126538186612249565b905081810360608301526126678185612249565b9050818103608083015261267b81846122b6565b90509695505050505050565b600060a08201905061269c600083018861223a565b6126a9602083018761223a565b6126b660408301866125d1565b6126c360608301856125d1565b81810360808301526126d581846122b6565b90509695505050505050565b600060208201905081810360008301526126fb8184612249565b905092915050565b6000604082019050818103600083015261271d8185612249565b905081810360208301526127318184612249565b90509392505050565b600060208201905061274f60008301846122a7565b92915050565b6000602082019050818103600083015261276f81846122ef565b905092915050565b60006020820190508181036000830152612790816123d8565b9050919050565b600060208201905081810360008301526127b0816123fb565b9050919050565b600060208201905081810360008301526127d08161241e565b9050919050565b600060208201905081810360008301526127f081612441565b9050919050565b6000602082019050818103600083015261281081612464565b9050919050565b6000602082019050818103600083015261283081612487565b9050919050565b60006020820190508181036000830152612850816124aa565b9050919050565b60006020820190508181036000830152612870816124cd565b9050919050565b60006020820190508181036000830152612890816124f0565b9050919050565b600060208201905081810360008301526128b081612513565b9050919050565b600060208201905081810360008301526128d081612536565b9050919050565b600060208201905081810360008301526128f081612559565b9050919050565b600060208201905081810360008301526129108161257c565b9050919050565b600060208201905081810360008301526129308161259f565b9050919050565b600060208201905061294c60008301846125d1565b92915050565b600060408201905061296760008301856125d1565b61297460208301846125d1565b9392505050565b6000612985612996565b90506129918282612c29565b919050565b6000604051905090565b600067ffffffffffffffff8211156129bb576129ba612d01565b5b602082029050602081019050919050565b600067ffffffffffffffff8211156129e7576129e6612d01565b5b602082029050602081019050919050565b600067ffffffffffffffff821115612a1357612a12612d01565b5b612a1c82612d52565b9050602081019050919050565b600067ffffffffffffffff821115612a4457612a43612d01565b5b612a4d82612d52565b9050602081019050919050565b6000819050602082019050919050565b60008190508160005260206000209050919050565b600081519050919050565b600081519050919050565b600081519050919050565b6000602082019050919050565b600082825260208201905092915050565b600082825260208201905092915050565b600082825260208201905092915050565b600081905092915050565b6000612af682612bab565b9150612b0183612bab565b9250827fffffffffffffffffffffffffffffffffffffffffffffffffffffffffffffffff03821115612b3657612b35612ca3565b5b828201905092915050565b6000612b4c82612b8b565b9050919050565b60008115159050919050565b60007fffffffff0000000000000000000000000000000000000000000000000000000082169050919050565b600073ffffffffffffffffffffffffffffffffffffffff82169050919050565b6000819050919050565b82818337600083830152505050565b60005b83811015612be2578082015181840152602081019050612bc7565b83811115612bf1576000848401525b50505050565b60006002820490506001821680612c0f57607f821691505b60208210811415612c2357612c22612cd2565b5b50919050565b612c3282612d52565b810181811067ffffffffffffffff82111715612c5157612c50612d01565b5b80604052505050565b6000612c6582612bab565b91507fffffffffffffffffffffffffffffffffffffffffffffffffffffffffffffffff821415612c9857612c97612ca3565b5b600182019050919050565b7f4e487b7100000000000000000000000000000000000000000000000000000000600052601160045260246000fd5b7f4e487b7100000000000000000000000000000000000000000000000000000000600052602260045260246000fd5b7f4e487b7100000000000000000000000000000000000000000000000000000000600052604160045260246000fd5b600060033d1115612d4f5760046000803e612d4c600051612d63565b90505b90565b6000601f19601f8301169050919050565b60008160e01c9050919050565b7f455243313135353a207472616e7366657220746f206e6f6e204552433131353560008201527f526563656976657220696d706c656d656e746572000000000000000000000000602082015250565b7f4552433131353530310000000000000000000000000000000000000000000000600082015250565b7f455243313135353a204552433131353552656365697665722072656a6563746560008201527f6420746f6b656e73000000000000000000000000000000000000000000000000602082015250565b7f455243313135353a2062616c616e636520717565727920666f7220746865207a60008201527f65726f2061646472657373000000000000000000000000000000000000000000602082015250565b7f455243313135353a2063616c6c6572206973206e6f74206f776e6572206e6f7260008201527f20617070726f7665640000000000000000000000000000000000000000000000602082015250565b7f49543a3030000000000000000000000000000000000000000000000000000000600082015250565b7f455243313135353a207472616e7366657220746f20746865207a65726f20616460008201527f6472657373000000000000000000000000000000000000000000000000000000602082015250565b7f455243313135353a207472616e736665722063616c6c6572206973206e6f742060008201527f6f776e6572206e6f7220617070726f7665640000000000000000000000000000602082015250565b7f4552433131353530300000000000000000000000000000000000000000000000600082015250565b7f455243313135353a20696e73756666696369656e742062616c616e636520666f60008201527f72207472616e7366657200000000000000000000000000000000000000000000602082015250565b7f455243313135353a2073657474696e6720617070726f76616c2073746174757360008201527f20666f722073656c660000000000000000000000000000000000000000000000602082015250565b7f455243313135353a206163636f756e747320616e6420696473206c656e67746860008201527f206d69736d617463680000000000000000000000000000000000000000000000602082015250565b7f455243313135353a2069647320616e6420616d6f756e7473206c656e6774682060008201527f6d69736d61746368000000000000000000000000000000000000000000000000602082015250565b7f455243313135353a206d696e7420746f20746865207a65726f2061646472657360008201527f7300000000000000000000000000000000000000000000000000000000000000602082015250565b600060443d1015613160576131e3565b613168612996565b60043d036004823e80513d602482011167ffffffffffffffff821117156131905750506131e3565b808201805167ffffffffffffffff8111156131ae57505050506131e3565b80602083010160043d0385018111156131cb5750505050506131e3565b6131da82602001850186612c29565b82955050505050505b90565b6131ef81612b41565b81146131fa57600080fd5b50565b61320681612b53565b811461321157600080fd5b50565b61321d81612b5f565b811461322857600080fd5b50565b61323481612bab565b811461323f57600080fd5b5056fea2646970667358221220bb11501039843c2882b3408b751671cd47994506e2a111c0d50a58bc642d97a864736f6c63430008040033",
  "linkReferences": {},
  "deployedLinkReferences": {}
}