{
  "_format": "hh-sol-artifact-1",
  "contractName": "ItemToken",
  "sourceName": "contracts/tokens/ItemToken.sol",
  "abi": [
    {
      "inputs": [
        {
          "internalType": "string",
          "name": "_baseURI",
          "type": "string"
        }
      ],
      "stateMutability": "nonpayable",
      "type": "constructor"
    },
    {
      "anonymous": false,
      "inputs": [
        {
          "indexed": true,
          "internalType": "address",
          "name": "account",
          "type": "address"
        },
        {
          "indexed": true,
          "internalType": "address",
          "name": "operator",
          "type": "address"
        },
        {
          "indexed": false,
          "internalType": "bool",
          "name": "approved",
          "type": "bool"
        }
      ],
      "name": "ApprovalForAll",
      "type": "event"
    },
    {
      "anonymous": false,
      "inputs": [
        {
          "indexed": true,
          "internalType": "address",
          "name": "operator",
          "type": "address"
        },
        {
          "indexed": true,
          "internalType": "address",
          "name": "from",
          "type": "address"
        },
        {
          "indexed": true,
          "internalType": "address",
          "name": "to",
          "type": "address"
        },
        {
          "indexed": false,
          "internalType": "uint256[]",
          "name": "ids",
          "type": "uint256[]"
        },
        {
          "indexed": false,
          "internalType": "uint256[]",
          "name": "values",
          "type": "uint256[]"
        }
      ],
      "name": "TransferBatch",
      "type": "event"
    },
    {
      "anonymous": false,
      "inputs": [
        {
          "indexed": true,
          "internalType": "address",
          "name": "operator",
          "type": "address"
        },
        {
          "indexed": true,
          "internalType": "address",
          "name": "from",
          "type": "address"
        },
        {
          "indexed": true,
          "internalType": "address",
          "name": "to",
          "type": "address"
        },
        {
          "indexed": false,
          "internalType": "uint256",
          "name": "id",
          "type": "uint256"
        },
        {
          "indexed": false,
          "internalType": "uint256",
          "name": "value",
          "type": "uint256"
        }
      ],
      "name": "TransferSingle",
      "type": "event"
    },
    {
      "anonymous": false,
      "inputs": [
        {
          "indexed": false,
          "internalType": "string",
          "name": "value",
          "type": "string"
        },
        {
          "indexed": true,
          "internalType": "uint256",
          "name": "id",
          "type": "uint256"
        }
      ],
      "name": "URI",
      "type": "event"
    },
    {
      "inputs": [
        {
          "internalType": "address",
          "name": "account",
          "type": "address"
        },
        {
          "internalType": "uint256",
          "name": "id",
          "type": "uint256"
        }
      ],
      "name": "balanceOf",
      "outputs": [
        {
          "internalType": "uint256",
          "name": "",
          "type": "uint256"
        }
      ],
      "stateMutability": "view",
      "type": "function"
    },
    {
      "inputs": [
        {
          "internalType": "address[]",
          "name": "accounts",
          "type": "address[]"
        },
        {
          "internalType": "uint256[]",
          "name": "ids",
          "type": "uint256[]"
        }
      ],
      "name": "balanceOfBatch",
      "outputs": [
        {
          "internalType": "uint256[]",
          "name": "",
          "type": "uint256[]"
        }
      ],
      "stateMutability": "view",
      "type": "function"
    },
    {
      "inputs": [
        {
          "internalType": "address",
          "name": "_to",
          "type": "address"
        },
        {
          "internalType": "uint256[]",
          "name": "_tokenIds",
          "type": "uint256[]"
        },
        {
          "internalType": "uint256[]",
          "name": "_amounts",
          "type": "uint256[]"
        }
      ],
      "name": "batchSale",
      "outputs": [],
      "stateMutability": "nonpayable",
      "type": "function"
    },
    {
      "inputs": [
        {
          "internalType": "uint256",
          "name": "_tokenId",
          "type": "uint256"
        },
        {
          "internalType": "string",
          "name": "_uri",
          "type": "string"
        }
      ],
      "name": "createItem",
      "outputs": [],
      "stateMutability": "nonpayable",
      "type": "function"
    },
    {
      "inputs": [
        {
          "internalType": "address",
          "name": "account",
          "type": "address"
        },
        {
          "internalType": "address",
          "name": "operator",
          "type": "address"
        }
      ],
      "name": "isApprovedForAll",
      "outputs": [
        {
          "internalType": "bool",
          "name": "",
          "type": "bool"
        }
      ],
      "stateMutability": "view",
      "type": "function"
    },
    {
      "inputs": [],
      "name": "owner",
      "outputs": [
        {
          "internalType": "address",
          "name": "",
          "type": "address"
        }
      ],
      "stateMutability": "view",
      "type": "function"
    },
    {
      "inputs": [
        {
          "internalType": "address",
          "name": "from",
          "type": "address"
        },
        {
          "internalType": "address",
          "name": "to",
          "type": "address"
        },
        {
          "internalType": "uint256[]",
          "name": "ids",
          "type": "uint256[]"
        },
        {
          "internalType": "uint256[]",
          "name": "amounts",
          "type": "uint256[]"
        },
        {
          "internalType": "bytes",
          "name": "data",
          "type": "bytes"
        }
      ],
      "name": "safeBatchTransferFrom",
      "outputs": [],
      "stateMutability": "nonpayable",
      "type": "function"
    },
    {
      "inputs": [
        {
          "internalType": "address",
          "name": "from",
          "type": "address"
        },
        {
          "internalType": "address",
          "name": "to",
          "type": "address"
        },
        {
          "internalType": "uint256",
          "name": "id",
          "type": "uint256"
        },
        {
          "internalType": "uint256",
          "name": "amount",
          "type": "uint256"
        },
        {
          "internalType": "bytes",
          "name": "data",
          "type": "bytes"
        }
      ],
      "name": "safeTransferFrom",
      "outputs": [],
      "stateMutability": "nonpayable",
      "type": "function"
    },
    {
      "inputs": [
        {
          "internalType": "address",
          "name": "operator",
          "type": "address"
        },
        {
          "internalType": "bool",
          "name": "approved",
          "type": "bool"
        }
      ],
      "name": "setApprovalForAll",
      "outputs": [],
      "stateMutability": "nonpayable",
      "type": "function"
    },
    {
      "inputs": [
        {
          "internalType": "bytes4",
          "name": "interfaceId",
          "type": "bytes4"
        }
      ],
      "name": "supportsInterface",
      "outputs": [
        {
          "internalType": "bool",
          "name": "",
          "type": "bool"
        }
      ],
      "stateMutability": "view",
      "type": "function"
    },
    {
      "inputs": [
        {
          "internalType": "uint256",
          "name": "tokenId",
          "type": "uint256"
        }
      ],
      "name": "uri",
      "outputs": [
        {
          "internalType": "string",
          "name": "",
          "type": "string"
        }
      ],
      "stateMutability": "view",
      "type": "function"
    }
  ],
  "bytecode": "0x608060405260405180602001604052806000815250600390805190602001906200002b929190620000d6565b503480156200003957600080fd5b506040516200344c3803806200344c83398181016040528101906200005f9190620001f8565b806200007181620000ba60201b60201c565b5033600560006101000a81548173ffffffffffffffffffffffffffffffffffffffff021916908373ffffffffffffffffffffffffffffffffffffffff16021790555050620003ad565b8060029080519060200190620000d2929190620000d6565b5050565b828054620000e490620002d2565b90600052602060002090601f01602090048101928262000108576000855562000154565b82601f106200012357805160ff191683800117855562000154565b8280016001018555821562000154579182015b828111156200015357825182559160200191906001019062000136565b5b50905062000163919062000167565b5090565b5b808211156200018257600081600090555060010162000168565b5090565b60006200019d620001978462000266565b6200023d565b905082815260208101848484011115620001b657600080fd5b620001c38482856200029c565b509392505050565b600082601f830112620001dd57600080fd5b8151620001ef84826020860162000186565b91505092915050565b6000602082840312156200020b57600080fd5b600082015167ffffffffffffffff8111156200022657600080fd5b6200023484828501620001cb565b91505092915050565b6000620002496200025c565b905062000257828262000308565b919050565b6000604051905090565b600067ffffffffffffffff8211156200028457620002836200036d565b5b6200028f826200039c565b9050602081019050919050565b60005b83811015620002bc5780820151818401526020810190506200029f565b83811115620002cc576000848401525b50505050565b60006002820490506001821680620002eb57607f821691505b602082108114156200030257620003016200033e565b5b50919050565b62000313826200039c565b810181811067ffffffffffffffff821117156200033557620003346200036d565b5b80604052505050565b7f4e487b7100000000000000000000000000000000000000000000000000000000600052602260045260246000fd5b7f4e487b7100000000000000000000000000000000000000000000000000000000600052604160045260246000fd5b6000601f19601f8301169050919050565b61308f80620003bd6000396000f3fe608060405234801561001057600080fd5b50600436106100a85760003560e01c80634e1273f4116100715780634e1273f4146101755780638da5cb5b146101a5578063a22cb465146101c3578063ba5a9414146101df578063e985e9c5146101fb578063f242432a1461022b576100a8565b8062fdd58e146100ad57806301ffc9a7146100dd5780630e89341c1461010d5780632eb2c2d61461013d5780634cfc8ed714610159575b600080fd5b6100c760048036038101906100c29190611f2e565b610247565b6040516100d49190612777565b60405180910390f35b6100f760048036038101906100f29190611fd6565b610310565b604051610104919061259a565b60405180910390f35b61012760048036038101906101229190612028565b6103f2565b60405161013491906125b5565b60405180910390f35b61015760048036038101906101529190611d25565b6104d7565b005b610173600480360381019061016e9190611e73565b610578565b005b61018f600480360381019061018a9190611f6a565b610682565b60405161019c9190612541565b60405180910390f35b6101ad610833565b6040516101ba9190612464565b60405180910390f35b6101dd60048036038101906101d89190611ef2565b610859565b005b6101f960048036038101906101f49190612051565b61086f565b005b61021560048036038101906102109190611ce9565b61094b565b604051610222919061259a565b60405180910390f35b61024560048036038101906102409190611de4565b6109df565b005b60008073ffffffffffffffffffffffffffffffffffffffff168373ffffffffffffffffffffffffffffffffffffffff1614156102b8576040517f08c379a00000000000000000000000000000000000000000000000000000000081526004016102af90612637565b60405180910390fd5b60008083815260200190815260200160002060008473ffffffffffffffffffffffffffffffffffffffff1673ffffffffffffffffffffffffffffffffffffffff16815260200190815260200160002054905092915050565b60007fd9b67a26000000000000000000000000000000000000000000000000000000007bffffffffffffffffffffffffffffffffffffffffffffffffffffffff1916827bffffffffffffffffffffffffffffffffffffffffffffffffffffffff191614806103db57507f0e89341c000000000000000000000000000000000000000000000000000000007bffffffffffffffffffffffffffffffffffffffffffffffffffffffff1916827bffffffffffffffffffffffffffffffffffffffffffffffffffffffff1916145b806103eb57506103ea82610a80565b5b9050919050565b6060600060046000848152602001908152602001600020805461041490612a37565b80601f016020809104026020016040519081016040528092919081815260200182805461044090612a37565b801561048d5780601f106104625761010080835404028352916020019161048d565b820191906000526020600020905b81548152906001019060200180831161047057829003601f168201915b5050505050905060008151116104ab576104a683610aea565b6104cf565b6003816040516020016104bf929190612440565b6040516020818303038152906040525b915050919050565b6104df610b7e565b73ffffffffffffffffffffffffffffffffffffffff168573ffffffffffffffffffffffffffffffffffffffff16148061052557506105248561051f610b7e565b61094b565b5b610564576040517f08c379a000000000000000000000000000000000000000000000000000000000815260040161055b90612697565b60405180910390fd5b6105718585858585610b86565b5050505050565b80518251146105bc576040517f08c379a00000000000000000000000000000000000000000000000000000000081526004016105b3906126b7565b60405180910390fd5b60008251905060005b8181101561067b576106688585838151811061060a577f4e487b7100000000000000000000000000000000000000000000000000000000600052603260045260246000fd5b602002602001015185848151811061064b577f4e487b7100000000000000000000000000000000000000000000000000000000600052603260045260246000fd5b602002602001015160405180602001604052806000815250610ef4565b808061067390612a9a565b9150506105c5565b5050505050565b606081518351146106c8576040517f08c379a00000000000000000000000000000000000000000000000000000000081526004016106bf90612717565b60405180910390fd5b6000835167ffffffffffffffff81111561070b577f4e487b7100000000000000000000000000000000000000000000000000000000600052604160045260246000fd5b6040519080825280602002602001820160405280156107395781602001602082028036833780820191505090505b50905060005b8451811015610828576107d2858281518110610784577f4e487b7100000000000000000000000000000000000000000000000000000000600052603260045260246000fd5b60200260200101518583815181106107c5577f4e487b7100000000000000000000000000000000000000000000000000000000600052603260045260246000fd5b6020026020010151610247565b82828151811061080b577f4e487b7100000000000000000000000000000000000000000000000000000000600052603260045260246000fd5b6020026020010181815250508061082190612a9a565b905061073f565b508091505092915050565b600560009054906101000a900473ffffffffffffffffffffffffffffffffffffffff1681565b61086b610864610b7e565b83836110a5565b5050565b600560009054906101000a900473ffffffffffffffffffffffffffffffffffffffff1673ffffffffffffffffffffffffffffffffffffffff163373ffffffffffffffffffffffffffffffffffffffff16146108ff576040517f08c379a00000000000000000000000000000000000000000000000000000000081526004016108f6906125f7565b60405180910390fd5b61093d600560009054906101000a900473ffffffffffffffffffffffffffffffffffffffff1683600160405180602001604052806000815250610ef4565b6109478282611212565b5050565b6000600160008473ffffffffffffffffffffffffffffffffffffffff1673ffffffffffffffffffffffffffffffffffffffff16815260200190815260200160002060008373ffffffffffffffffffffffffffffffffffffffff1673ffffffffffffffffffffffffffffffffffffffff16815260200190815260200160002060009054906101000a900460ff16905092915050565b6109e7610b7e565b73ffffffffffffffffffffffffffffffffffffffff168573ffffffffffffffffffffffffffffffffffffffff161480610a2d5750610a2c85610a27610b7e565b61094b565b5b610a6c576040517f08c379a0000000000000000000000000000000000000000000000000000000008152600401610a6390612657565b60405180910390fd5b610a79858585858561127e565b5050505050565b60007f01ffc9a7000000000000000000000000000000000000000000000000000000007bffffffffffffffffffffffffffffffffffffffffffffffffffffffff1916827bffffffffffffffffffffffffffffffffffffffffffffffffffffffff1916149050919050565b606060028054610af990612a37565b80601f0160208091040260200160405190810160405280929190818152602001828054610b2590612a37565b8015610b725780601f10610b4757610100808354040283529160200191610b72565b820191906000526020600020905b815481529060010190602001808311610b5557829003601f168201915b50505050509050919050565b600033905090565b8151835114610bca576040517f08c379a0000000000000000000000000000000000000000000000000000000008152600401610bc190612737565b60405180910390fd5b600073ffffffffffffffffffffffffffffffffffffffff168473ffffffffffffffffffffffffffffffffffffffff161415610c3a576040517f08c379a0000000000000000000000000000000000000000000000000000000008152600401610c3190612677565b60405180910390fd5b6000610c44610b7e565b9050610c5481878787878761151a565b60005b8451811015610e51576000858281518110610c9b577f4e487b7100000000000000000000000000000000000000000000000000000000600052603260045260246000fd5b602002602001015190506000858381518110610ce0577f4e487b7100000000000000000000000000000000000000000000000000000000600052603260045260246000fd5b60200260200101519050600080600084815260200190815260200160002060008b73ffffffffffffffffffffffffffffffffffffffff1673ffffffffffffffffffffffffffffffffffffffff16815260200190815260200160002054905081811015610d81576040517f08c379a0000000000000000000000000000000000000000000000000000000008152600401610d78906126d7565b60405180910390fd5b81810360008085815260200190815260200160002060008c73ffffffffffffffffffffffffffffffffffffffff1673ffffffffffffffffffffffffffffffffffffffff168152602001908152602001600020819055508160008085815260200190815260200160002060008b73ffffffffffffffffffffffffffffffffffffffff1673ffffffffffffffffffffffffffffffffffffffff1681526020019081526020016000206000828254610e36919061292b565b9250508190555050505080610e4a90612a9a565b9050610c57565b508473ffffffffffffffffffffffffffffffffffffffff168673ffffffffffffffffffffffffffffffffffffffff168273ffffffffffffffffffffffffffffffffffffffff167f4a39dc06d4c0dbc64b70af90fd698a233a518aa5d07e595d983b8c0526c8f7fb8787604051610ec8929190612563565b60405180910390a4610ede818787878787611522565b610eec81878787878761152a565b505050505050565b600073ffffffffffffffffffffffffffffffffffffffff168473ffffffffffffffffffffffffffffffffffffffff161415610f64576040517f08c379a0000000000000000000000000000000000000000000000000000000008152600401610f5b90612757565b60405180910390fd5b6000610f6e610b7e565b90506000610f7b85611711565b90506000610f8885611711565b9050610f998360008985858961151a565b8460008088815260200190815260200160002060008973ffffffffffffffffffffffffffffffffffffffff1673ffffffffffffffffffffffffffffffffffffffff1681526020019081526020016000206000828254610ff8919061292b565b925050819055508673ffffffffffffffffffffffffffffffffffffffff16600073ffffffffffffffffffffffffffffffffffffffff168473ffffffffffffffffffffffffffffffffffffffff167fc3d58168c5ae7397731d063d5bbf3d657854427343f4c083240f7aacaa2d0f628989604051611076929190612792565b60405180910390a461108d83600089858589611522565b61109c836000898989896117d7565b50505050505050565b8173ffffffffffffffffffffffffffffffffffffffff168373ffffffffffffffffffffffffffffffffffffffff161415611114576040517f08c379a000000000000000000000000000000000000000000000000000000000815260040161110b906126f7565b60405180910390fd5b80600160008573ffffffffffffffffffffffffffffffffffffffff1673ffffffffffffffffffffffffffffffffffffffff16815260200190815260200160002060008473ffffffffffffffffffffffffffffffffffffffff1673ffffffffffffffffffffffffffffffffffffffff16815260200190815260200160002060006101000a81548160ff0219169083151502179055508173ffffffffffffffffffffffffffffffffffffffff168373ffffffffffffffffffffffffffffffffffffffff167f17307eab39ab6107e8899845ad3d59bd9653f200f220920489ca2b5937696c3183604051611205919061259a565b60405180910390a3505050565b806004600084815260200190815260200160002090805190602001906112399291906119e1565b50817f6bb7ff708619ba0610cba295a58592e0451dee2622938c8755667688daf3529b611265846103f2565b60405161127291906125b5565b60405180910390a25050565b600073ffffffffffffffffffffffffffffffffffffffff168473ffffffffffffffffffffffffffffffffffffffff1614156112ee576040517f08c379a00000000000000000000000000000000000000000000000000000000081526004016112e590612677565b60405180910390fd5b60006112f8610b7e565b9050600061130585611711565b9050600061131285611711565b905061132283898985858961151a565b600080600088815260200190815260200160002060008a73ffffffffffffffffffffffffffffffffffffffff1673ffffffffffffffffffffffffffffffffffffffff168152602001908152602001600020549050858110156113b9576040517f08c379a00000000000000000000000000000000000000000000000000000000081526004016113b0906126d7565b60405180910390fd5b85810360008089815260200190815260200160002060008b73ffffffffffffffffffffffffffffffffffffffff1673ffffffffffffffffffffffffffffffffffffffff168152602001908152602001600020819055508560008089815260200190815260200160002060008a73ffffffffffffffffffffffffffffffffffffffff1673ffffffffffffffffffffffffffffffffffffffff168152602001908152602001600020600082825461146e919061292b565b925050819055508773ffffffffffffffffffffffffffffffffffffffff168973ffffffffffffffffffffffffffffffffffffffff168573ffffffffffffffffffffffffffffffffffffffff167fc3d58168c5ae7397731d063d5bbf3d657854427343f4c083240f7aacaa2d0f628a8a6040516114eb929190612792565b60405180910390a4611501848a8a86868a611522565b61150f848a8a8a8a8a6117d7565b505050505050505050565b505050505050565b505050505050565b6115498473ffffffffffffffffffffffffffffffffffffffff166119be565b15611709578373ffffffffffffffffffffffffffffffffffffffff1663bc197c8187878686866040518663ffffffff1660e01b815260040161158f95949392919061247f565b602060405180830381600087803b1580156115a957600080fd5b505af19250505080156115da57506040513d601f19601f820116820180604052508101906115d79190611fff565b60015b611680576115e6612b70565b806308c379a0141561164357506115fb612f67565b806116065750611645565b806040517f08c379a000000000000000000000000000000000000000000000000000000000815260040161163a91906125b5565b60405180910390fd5b505b6040517f08c379a0000000000000000000000000000000000000000000000000000000008152600401611677906125d7565b60405180910390fd5b63bc197c8160e01b7bffffffffffffffffffffffffffffffffffffffffffffffffffffffff1916817bffffffffffffffffffffffffffffffffffffffffffffffffffffffff191614611707576040517f08c379a00000000000000000000000000000000000000000000000000000000081526004016116fe90612617565b60405180910390fd5b505b505050505050565b60606000600167ffffffffffffffff811115611756577f4e487b7100000000000000000000000000000000000000000000000000000000600052604160045260246000fd5b6040519080825280602002602001820160405280156117845781602001602082028036833780820191505090505b50905082816000815181106117c2577f4e487b7100000000000000000000000000000000000000000000000000000000600052603260045260246000fd5b60200260200101818152505080915050919050565b6117f68473ffffffffffffffffffffffffffffffffffffffff166119be565b156119b6578373ffffffffffffffffffffffffffffffffffffffff1663f23a6e6187878686866040518663ffffffff1660e01b815260040161183c9594939291906124e7565b602060405180830381600087803b15801561185657600080fd5b505af192505050801561188757506040513d601f19601f820116820180604052508101906118849190611fff565b60015b61192d57611893612b70565b806308c379a014156118f057506118a8612f67565b806118b357506118f2565b806040517f08c379a00000000000000000000000000000000000000000000000000000000081526004016118e791906125b5565b60405180910390fd5b505b6040517f08c379a0000000000000000000000000000000000000000000000000000000008152600401611924906125d7565b60405180910390fd5b63f23a6e6160e01b7bffffffffffffffffffffffffffffffffffffffffffffffffffffffff1916817bffffffffffffffffffffffffffffffffffffffffffffffffffffffff1916146119b4576040517f08c379a00000000000000000000000000000000000000000000000000000000081526004016119ab90612617565b60405180910390fd5b505b505050505050565b6000808273ffffffffffffffffffffffffffffffffffffffff163b119050919050565b8280546119ed90612a37565b90600052602060002090601f016020900481019282611a0f5760008555611a56565b82601f10611a2857805160ff1916838001178555611a56565b82800160010185558215611a56579182015b82811115611a55578251825591602001919060010190611a3a565b5b509050611a639190611a67565b5090565b5b80821115611a80576000816000905550600101611a68565b5090565b6000611a97611a92846127e0565b6127bb565b90508083825260208201905082856020860282011115611ab657600080fd5b60005b85811015611ae65781611acc8882611bd8565b845260208401935060208301925050600181019050611ab9565b5050509392505050565b6000611b03611afe8461280c565b6127bb565b90508083825260208201905082856020860282011115611b2257600080fd5b60005b85811015611b525781611b388882611cd4565b845260208401935060208301925050600181019050611b25565b5050509392505050565b6000611b6f611b6a84612838565b6127bb565b905082815260208101848484011115611b8757600080fd5b611b928482856129f5565b509392505050565b6000611bad611ba884612869565b6127bb565b905082815260208101848484011115611bc557600080fd5b611bd08482856129f5565b509392505050565b600081359050611be781612ffd565b92915050565b600082601f830112611bfe57600080fd5b8135611c0e848260208601611a84565b91505092915050565b600082601f830112611c2857600080fd5b8135611c38848260208601611af0565b91505092915050565b600081359050611c5081613014565b92915050565b600081359050611c658161302b565b92915050565b600081519050611c7a8161302b565b92915050565b600082601f830112611c9157600080fd5b8135611ca1848260208601611b5c565b91505092915050565b600082601f830112611cbb57600080fd5b8135611ccb848260208601611b9a565b91505092915050565b600081359050611ce381613042565b92915050565b60008060408385031215611cfc57600080fd5b6000611d0a85828601611bd8565b9250506020611d1b85828601611bd8565b9150509250929050565b600080600080600060a08688031215611d3d57600080fd5b6000611d4b88828901611bd8565b9550506020611d5c88828901611bd8565b945050604086013567ffffffffffffffff811115611d7957600080fd5b611d8588828901611c17565b935050606086013567ffffffffffffffff811115611da257600080fd5b611dae88828901611c17565b925050608086013567ffffffffffffffff811115611dcb57600080fd5b611dd788828901611c80565b9150509295509295909350565b600080600080600060a08688031215611dfc57600080fd5b6000611e0a88828901611bd8565b9550506020611e1b88828901611bd8565b9450506040611e2c88828901611cd4565b9350506060611e3d88828901611cd4565b925050608086013567ffffffffffffffff811115611e5a57600080fd5b611e6688828901611c80565b9150509295509295909350565b600080600060608486031215611e8857600080fd5b6000611e9686828701611bd8565b935050602084013567ffffffffffffffff811115611eb357600080fd5b611ebf86828701611c17565b925050604084013567ffffffffffffffff811115611edc57600080fd5b611ee886828701611c17565b9150509250925092565b60008060408385031215611f0557600080fd5b6000611f1385828601611bd8565b9250506020611f2485828601611c41565b9150509250929050565b60008060408385031215611f4157600080fd5b6000611f4f85828601611bd8565b9250506020611f6085828601611cd4565b9150509250929050565b60008060408385031215611f7d57600080fd5b600083013567ffffffffffffffff811115611f9757600080fd5b611fa385828601611bed565b925050602083013567ffffffffffffffff811115611fc057600080fd5b611fcc85828601611c17565b9150509250929050565b600060208284031215611fe857600080fd5b6000611ff684828501611c56565b91505092915050565b60006020828403121561201157600080fd5b600061201f84828501611c6b565b91505092915050565b60006020828403121561203a57600080fd5b600061204884828501611cd4565b91505092915050565b6000806040838503121561206457600080fd5b600061207285828601611cd4565b925050602083013567ffffffffffffffff81111561208f57600080fd5b61209b85828601611caa565b9150509250929050565b60006120b18383612422565b60208301905092915050565b6120c681612981565b82525050565b60006120d7826128bf565b6120e181856128ed565b93506120ec8361289a565b8060005b8381101561211d57815161210488826120a5565b975061210f836128e0565b9250506001810190506120f0565b5085935050505092915050565b61213381612993565b82525050565b6000612144826128ca565b61214e81856128fe565b935061215e818560208601612a04565b61216781612b92565b840191505092915050565b600061217d826128d5565b612187818561290f565b9350612197818560208601612a04565b6121a081612b92565b840191505092915050565b60006121b6826128d5565b6121c08185612920565b93506121d0818560208601612a04565b80840191505092915050565b600081546121e981612a37565b6121f38186612920565b9450600182166000811461220e576001811461221f57612252565b60ff19831686528186019350612252565b612228856128aa565b60005b8381101561224a5781548189015260018201915060208101905061222b565b838801955050505b50505092915050565b600061226860348361290f565b915061227382612bb0565b604082019050919050565b600061228b60098361290f565b915061229682612bff565b602082019050919050565b60006122ae60288361290f565b91506122b982612c28565b604082019050919050565b60006122d1602b8361290f565b91506122dc82612c77565b604082019050919050565b60006122f460298361290f565b91506122ff82612cc6565b604082019050919050565b600061231760258361290f565b915061232282612d15565b604082019050919050565b600061233a60328361290f565b915061234582612d64565b604082019050919050565b600061235d60098361290f565b915061236882612db3565b602082019050919050565b6000612380602a8361290f565b915061238b82612ddc565b604082019050919050565b60006123a360298361290f565b91506123ae82612e2b565b604082019050919050565b60006123c660298361290f565b91506123d182612e7a565b604082019050919050565b60006123e960288361290f565b91506123f482612ec9565b604082019050919050565b600061240c60218361290f565b915061241782612f18565b604082019050919050565b61242b816129eb565b82525050565b61243a816129eb565b82525050565b600061244c82856121dc565b915061245882846121ab565b91508190509392505050565b600060208201905061247960008301846120bd565b92915050565b600060a08201905061249460008301886120bd565b6124a160208301876120bd565b81810360408301526124b381866120cc565b905081810360608301526124c781856120cc565b905081810360808301526124db8184612139565b90509695505050505050565b600060a0820190506124fc60008301886120bd565b61250960208301876120bd565b6125166040830186612431565b6125236060830185612431565b81810360808301526125358184612139565b90509695505050505050565b6000602082019050818103600083015261255b81846120cc565b905092915050565b6000604082019050818103600083015261257d81856120cc565b9050818103602083015261259181846120cc565b90509392505050565b60006020820190506125af600083018461212a565b92915050565b600060208201905081810360008301526125cf8184612172565b905092915050565b600060208201905081810360008301526125f08161225b565b9050919050565b600060208201905081810360008301526126108161227e565b9050919050565b60006020820190508181036000830152612630816122a1565b9050919050565b60006020820190508181036000830152612650816122c4565b9050919050565b60006020820190508181036000830152612670816122e7565b9050919050565b600060208201905081810360008301526126908161230a565b9050919050565b600060208201905081810360008301526126b08161232d565b9050919050565b600060208201905081810360008301526126d081612350565b9050919050565b600060208201905081810360008301526126f081612373565b9050919050565b6000602082019050818103600083015261271081612396565b9050919050565b60006020820190508181036000830152612730816123b9565b9050919050565b60006020820190508181036000830152612750816123dc565b9050919050565b60006020820190508181036000830152612770816123ff565b9050919050565b600060208201905061278c6000830184612431565b92915050565b60006040820190506127a76000830185612431565b6127b46020830184612431565b9392505050565b60006127c56127d6565b90506127d18282612a69565b919050565b6000604051905090565b600067ffffffffffffffff8211156127fb576127fa612b41565b5b602082029050602081019050919050565b600067ffffffffffffffff82111561282757612826612b41565b5b602082029050602081019050919050565b600067ffffffffffffffff82111561285357612852612b41565b5b61285c82612b92565b9050602081019050919050565b600067ffffffffffffffff82111561288457612883612b41565b5b61288d82612b92565b9050602081019050919050565b6000819050602082019050919050565b60008190508160005260206000209050919050565b600081519050919050565b600081519050919050565b600081519050919050565b6000602082019050919050565b600082825260208201905092915050565b600082825260208201905092915050565b600082825260208201905092915050565b600081905092915050565b6000612936826129eb565b9150612941836129eb565b9250827fffffffffffffffffffffffffffffffffffffffffffffffffffffffffffffffff0382111561297657612975612ae3565b5b828201905092915050565b600061298c826129cb565b9050919050565b60008115159050919050565b60007fffffffff0000000000000000000000000000000000000000000000000000000082169050919050565b600073ffffffffffffffffffffffffffffffffffffffff82169050919050565b6000819050919050565b82818337600083830152505050565b60005b83811015612a22578082015181840152602081019050612a07565b83811115612a31576000848401525b50505050565b60006002820490506001821680612a4f57607f821691505b60208210811415612a6357612a62612b12565b5b50919050565b612a7282612b92565b810181811067ffffffffffffffff82111715612a9157612a90612b41565b5b80604052505050565b6000612aa5826129eb565b91507fffffffffffffffffffffffffffffffffffffffffffffffffffffffffffffffff821415612ad857612ad7612ae3565b5b600182019050919050565b7f4e487b7100000000000000000000000000000000000000000000000000000000600052601160045260246000fd5b7f4e487b7100000000000000000000000000000000000000000000000000000000600052602260045260246000fd5b7f4e487b7100000000000000000000000000000000000000000000000000000000600052604160045260246000fd5b600060033d1115612b8f5760046000803e612b8c600051612ba3565b90505b90565b6000601f19601f8301169050919050565b60008160e01c9050919050565b7f455243313135353a207472616e7366657220746f206e6f6e204552433131353560008201527f526563656976657220696d706c656d656e746572000000000000000000000000602082015250565b7f4552433131353530310000000000000000000000000000000000000000000000600082015250565b7f455243313135353a204552433131353552656365697665722072656a6563746560008201527f6420746f6b656e73000000000000000000000000000000000000000000000000602082015250565b7f455243313135353a2062616c616e636520717565727920666f7220746865207a60008201527f65726f2061646472657373000000000000000000000000000000000000000000602082015250565b7f455243313135353a2063616c6c6572206973206e6f74206f776e6572206e6f7260008201527f20617070726f7665640000000000000000000000000000000000000000000000602082015250565b7f455243313135353a207472616e7366657220746f20746865207a65726f20616460008201527f6472657373000000000000000000000000000000000000000000000000000000602082015250565b7f455243313135353a207472616e736665722063616c6c6572206973206e6f742060008201527f6f776e6572206e6f7220617070726f7665640000000000000000000000000000602082015250565b7f4552433131353530300000000000000000000000000000000000000000000000600082015250565b7f455243313135353a20696e73756666696369656e742062616c616e636520666f60008201527f72207472616e7366657200000000000000000000000000000000000000000000602082015250565b7f455243313135353a2073657474696e6720617070726f76616c2073746174757360008201527f20666f722073656c660000000000000000000000000000000000000000000000602082015250565b7f455243313135353a206163636f756e747320616e6420696473206c656e67746860008201527f206d69736d617463680000000000000000000000000000000000000000000000602082015250565b7f455243313135353a2069647320616e6420616d6f756e7473206c656e6774682060008201527f6d69736d61746368000000000000000000000000000000000000000000000000602082015250565b7f455243313135353a206d696e7420746f20746865207a65726f2061646472657360008201527f7300000000000000000000000000000000000000000000000000000000000000602082015250565b600060443d1015612f7757612ffa565b612f7f6127d6565b60043d036004823e80513d602482011167ffffffffffffffff82111715612fa7575050612ffa565b808201805167ffffffffffffffff811115612fc55750505050612ffa565b80602083010160043d038501811115612fe2575050505050612ffa565b612ff182602001850186612a69565b82955050505050505b90565b61300681612981565b811461301157600080fd5b50565b61301d81612993565b811461302857600080fd5b50565b6130348161299f565b811461303f57600080fd5b50565b61304b816129eb565b811461305657600080fd5b5056fea2646970667358221220cc23bac2f2e807ff56111191ba4aa21c5906b11f6d04edf35ed9e21426ab0e5164736f6c63430008040033",
  "linkReferences": {},
  "deployedLinkReferences": {}
}