{
  "_format": "hh-sol-artifact-1",
  "contractName": "ItemToken",
  "sourceName": "contracts/tokens/ItemToken.sol",
  "abi": [
    {
      "inputs": [
        {
          "internalType": "string",
          "name": "_name",
          "type": "string"
        },
        {
          "internalType": "string",
          "name": "_symbol",
          "type": "string"
        }
      ],
      "stateMutability": "nonpayable",
      "type": "constructor"
    },
    {
      "anonymous": false,
      "inputs": [
        {
          "indexed": true,
          "internalType": "address",
          "name": "owner",
          "type": "address"
        },
        {
          "indexed": true,
          "internalType": "address",
          "name": "approved",
          "type": "address"
        },
        {
          "indexed": true,
          "internalType": "uint256",
          "name": "tokenId",
          "type": "uint256"
        }
      ],
      "name": "Approval",
      "type": "event"
    },
    {
      "anonymous": false,
      "inputs": [
        {
          "indexed": true,
          "internalType": "address",
          "name": "owner",
          "type": "address"
        },
        {
          "indexed": true,
          "internalType": "address",
          "name": "operator",
          "type": "address"
        },
        {
          "indexed": false,
          "internalType": "bool",
          "name": "approved",
          "type": "bool"
        }
      ],
      "name": "ApprovalForAll",
      "type": "event"
    },
    {
      "anonymous": false,
      "inputs": [
        {
          "indexed": true,
          "internalType": "address",
          "name": "from",
          "type": "address"
        },
        {
          "indexed": true,
          "internalType": "address",
          "name": "to",
          "type": "address"
        },
        {
          "indexed": true,
          "internalType": "uint256",
          "name": "tokenId",
          "type": "uint256"
        }
      ],
      "name": "Transfer",
      "type": "event"
    },
    {
      "inputs": [
        {
          "internalType": "address",
          "name": "to",
          "type": "address"
        },
        {
          "internalType": "uint256",
          "name": "tokenId",
          "type": "uint256"
        }
      ],
      "name": "approve",
      "outputs": [],
      "stateMutability": "nonpayable",
      "type": "function"
    },
    {
      "inputs": [
        {
          "internalType": "address",
          "name": "owner",
          "type": "address"
        }
      ],
      "name": "balanceOf",
      "outputs": [
        {
          "internalType": "uint256",
          "name": "",
          "type": "uint256"
        }
      ],
      "stateMutability": "view",
      "type": "function"
    },
    {
      "inputs": [
        {
          "internalType": "address",
          "name": "_to",
          "type": "address"
        },
        {
          "internalType": "uint256[]",
          "name": "_templateTokenIds",
          "type": "uint256[]"
        },
        {
          "internalType": "uint256[]",
          "name": "_amounts",
          "type": "uint256[]"
        }
      ],
      "name": "batchSale",
      "outputs": [],
      "stateMutability": "nonpayable",
      "type": "function"
    },
    {
      "inputs": [
        {
          "internalType": "string",
          "name": "_uri",
          "type": "string"
        }
      ],
      "name": "createItem",
      "outputs": [],
      "stateMutability": "nonpayable",
      "type": "function"
    },
    {
      "inputs": [
        {
          "internalType": "uint256",
          "name": "tokenId",
          "type": "uint256"
        }
      ],
      "name": "getApproved",
      "outputs": [
        {
          "internalType": "address",
          "name": "",
          "type": "address"
        }
      ],
      "stateMutability": "view",
      "type": "function"
    },
    {
      "inputs": [],
      "name": "getTemplateTokenIds",
      "outputs": [
        {
          "internalType": "uint256[]",
          "name": "",
          "type": "uint256[]"
        }
      ],
      "stateMutability": "view",
      "type": "function"
    },
    {
      "inputs": [],
      "name": "getTotal",
      "outputs": [
        {
          "internalType": "uint256",
          "name": "",
          "type": "uint256"
        }
      ],
      "stateMutability": "view",
      "type": "function"
    },
    {
      "inputs": [
        {
          "internalType": "address",
          "name": "_owner",
          "type": "address"
        },
        {
          "internalType": "address",
          "name": "_shop",
          "type": "address"
        },
        {
          "internalType": "string",
          "name": "name_",
          "type": "string"
        },
        {
          "internalType": "string",
          "name": "symbol_",
          "type": "string"
        }
      ],
      "name": "initialize",
      "outputs": [],
      "stateMutability": "nonpayable",
      "type": "function"
    },
    {
      "inputs": [
        {
          "internalType": "address",
          "name": "owner",
          "type": "address"
        },
        {
          "internalType": "address",
          "name": "operator",
          "type": "address"
        }
      ],
      "name": "isApprovedForAll",
      "outputs": [
        {
          "internalType": "bool",
          "name": "",
          "type": "bool"
        }
      ],
      "stateMutability": "view",
      "type": "function"
    },
    {
      "inputs": [],
      "name": "isPaused",
      "outputs": [
        {
          "internalType": "bool",
          "name": "",
          "type": "bool"
        }
      ],
      "stateMutability": "view",
      "type": "function"
    },
    {
      "inputs": [],
      "name": "name",
      "outputs": [
        {
          "internalType": "string",
          "name": "",
          "type": "string"
        }
      ],
      "stateMutability": "view",
      "type": "function"
    },
    {
      "inputs": [],
      "name": "owner",
      "outputs": [
        {
          "internalType": "address",
          "name": "",
          "type": "address"
        }
      ],
      "stateMutability": "view",
      "type": "function"
    },
    {
      "inputs": [
        {
          "internalType": "uint256",
          "name": "tokenId",
          "type": "uint256"
        }
      ],
      "name": "ownerOf",
      "outputs": [
        {
          "internalType": "address",
          "name": "",
          "type": "address"
        }
      ],
      "stateMutability": "view",
      "type": "function"
    },
    {
      "inputs": [
        {
          "internalType": "address",
          "name": "from",
          "type": "address"
        },
        {
          "internalType": "address",
          "name": "to",
          "type": "address"
        },
        {
          "internalType": "uint256",
          "name": "tokenId",
          "type": "uint256"
        }
      ],
      "name": "safeTransferFrom",
      "outputs": [],
      "stateMutability": "nonpayable",
      "type": "function"
    },
    {
      "inputs": [
        {
          "internalType": "address",
          "name": "from",
          "type": "address"
        },
        {
          "internalType": "address",
          "name": "to",
          "type": "address"
        },
        {
          "internalType": "uint256",
          "name": "tokenId",
          "type": "uint256"
        },
        {
          "internalType": "bytes",
          "name": "_data",
          "type": "bytes"
        }
      ],
      "name": "safeTransferFrom",
      "outputs": [],
      "stateMutability": "nonpayable",
      "type": "function"
    },
    {
      "inputs": [
        {
          "internalType": "address",
          "name": "operator",
          "type": "address"
        },
        {
          "internalType": "bool",
          "name": "approved",
          "type": "bool"
        }
      ],
      "name": "setApprovalForAll",
      "outputs": [],
      "stateMutability": "nonpayable",
      "type": "function"
    },
    {
      "inputs": [
        {
          "internalType": "uint256",
          "name": "tokenId",
          "type": "uint256"
        },
        {
          "internalType": "string",
          "name": "_uri",
          "type": "string"
        }
      ],
      "name": "setTokenURI",
      "outputs": [],
      "stateMutability": "nonpayable",
      "type": "function"
    },
    {
      "inputs": [],
      "name": "shop",
      "outputs": [
        {
          "internalType": "address",
          "name": "",
          "type": "address"
        }
      ],
      "stateMutability": "view",
      "type": "function"
    },
    {
      "inputs": [
        {
          "internalType": "bytes4",
          "name": "interfaceId",
          "type": "bytes4"
        }
      ],
      "name": "supportsInterface",
      "outputs": [
        {
          "internalType": "bool",
          "name": "",
          "type": "bool"
        }
      ],
      "stateMutability": "view",
      "type": "function"
    },
    {
      "inputs": [],
      "name": "symbol",
      "outputs": [
        {
          "internalType": "string",
          "name": "",
          "type": "string"
        }
      ],
      "stateMutability": "view",
      "type": "function"
    },
    {
      "inputs": [
        {
          "internalType": "uint256",
          "name": "",
          "type": "uint256"
        }
      ],
      "name": "templateTokenIds",
      "outputs": [
        {
          "internalType": "uint256",
          "name": "",
          "type": "uint256"
        }
      ],
      "stateMutability": "view",
      "type": "function"
    },
    {
      "inputs": [],
      "name": "togglePause",
      "outputs": [],
      "stateMutability": "nonpayable",
      "type": "function"
    },
    {
      "inputs": [
        {
          "internalType": "uint256",
          "name": "tokenId",
          "type": "uint256"
        }
      ],
      "name": "tokenURI",
      "outputs": [
        {
          "internalType": "string",
          "name": "",
          "type": "string"
        }
      ],
      "stateMutability": "view",
      "type": "function"
    },
    {
      "inputs": [
        {
          "internalType": "address",
          "name": "from",
          "type": "address"
        },
        {
          "internalType": "address",
          "name": "to",
          "type": "address"
        },
        {
          "internalType": "uint256",
          "name": "tokenId",
          "type": "uint256"
        }
      ],
      "name": "transferFrom",
      "outputs": [],
      "stateMutability": "nonpayable",
      "type": "function"
    }
  ],
  "bytecode": "0x60806040526000600960146101000a81548160ff0219169083151502179055506001600960156101000a81548160ff0219169083151502179055503480156200004757600080fd5b5060405162003cc438038062003cc483398181016040528101906200006d9190620001cd565b8181816000908051906020019062000087929190620000ab565b508060019080519060200190620000a0929190620000ab565b5050505050620003b0565b828054620000b990620002d5565b90600052602060002090601f016020900481019282620000dd576000855562000129565b82601f10620000f857805160ff191683800117855562000129565b8280016001018555821562000129579182015b82811115620001285782518255916020019190600101906200010b565b5b5090506200013891906200013c565b5090565b5b80821115620001575760008160009055506001016200013d565b5090565b6000620001726200016c8462000269565b62000240565b9050828152602081018484840111156200018b57600080fd5b620001988482856200029f565b509392505050565b600082601f830112620001b257600080fd5b8151620001c48482602086016200015b565b91505092915050565b60008060408385031215620001e157600080fd5b600083015167ffffffffffffffff811115620001fc57600080fd5b6200020a85828601620001a0565b925050602083015167ffffffffffffffff8111156200022857600080fd5b6200023685828601620001a0565b9150509250929050565b60006200024c6200025f565b90506200025a82826200030b565b919050565b6000604051905090565b600067ffffffffffffffff82111562000287576200028662000370565b5b62000292826200039f565b9050602081019050919050565b60005b83811015620002bf578082015181840152602081019050620002a2565b83811115620002cf576000848401525b50505050565b60006002820490506001821680620002ee57607f821691505b6020821081141562000305576200030462000341565b5b50919050565b62000316826200039f565b810181811067ffffffffffffffff8211171562000338576200033762000370565b5b80604052505050565b7f4e487b7100000000000000000000000000000000000000000000000000000000600052602260045260246000fd5b7f4e487b7100000000000000000000000000000000000000000000000000000000600052604160045260246000fd5b6000601f19601f8301169050919050565b61390480620003c06000396000f3fe608060405234801561001057600080fd5b50600436106101585760003560e01c80636352211e116100c3578063b187bd261161007c578063b187bd26146103b1578063b88d4fde146103cf578063c4ae3168146103eb578063c87b56dd146103f5578063e985e9c514610425578063ff3c36cf1461045557610158565b80636352211e146102db57806370a082311461030b578063775a25e31461033b5780638da5cb5b1461035957806395d89b4114610377578063a22cb4651461039557610158565b8063162094c411610115578063162094c4146102335780632016a0d21461024f57806323b872dd1461026b5780633d54eebb1461028757806342842e0e146102a35780634cfc8ed7146102bf57610158565b806301ffc9a71461015d57806306fdde031461018d578063081812fc146101ab5780630881fa0d146101db578063088b683f146101f9578063095ea7b314610217575b600080fd5b61017760048036038101906101729190612686565b610485565b6040516101849190612c54565b60405180910390f35b610195610567565b6040516101a29190612c6f565b60405180910390f35b6101c560048036038101906101c09190612719565b6105f9565b6040516101d29190612bcb565b60405180910390f35b6101e361067e565b6040516101f09190612bcb565b60405180910390f35b6102016106a4565b60405161020e9190612c32565b60405180910390f35b610231600480360381019061022c919061264a565b6106fc565b005b61024d60048036038101906102489190612742565b610814565b005b61026960048036038101906102649190612432565b6108b2565b005b610285600480360381019061028091906124c5565b6109f4565b005b6102a1600480360381019061029c91906126d8565b610a54565b005b6102bd60048036038101906102b891906124c5565b610b69565b005b6102d960048036038101906102d4919061258f565b610b89565b005b6102f560048036038101906102f09190612719565b610e72565b6040516103029190612bcb565b60405180910390f35b610325600480360381019061032091906123cd565b610f24565b6040516103329190612f11565b60405180910390f35b610343610fdc565b6040516103509190612f11565b60405180910390f35b610361610fed565b60405161036e9190612bcb565b60405180910390f35b61037f611013565b60405161038c9190612c6f565b60405180910390f35b6103af60048036038101906103aa919061260e565b6110a5565b005b6103b96110bb565b6040516103c69190612c54565b60405180910390f35b6103e960048036038101906103e49190612514565b6110ce565b005b6103f3611130565b005b61040f600480360381019061040a9190612719565b6111ec565b60405161041c9190612c6f565b60405180910390f35b61043f600480360381019061043a91906123f6565b61138b565b60405161044c9190612c54565b60405180910390f35b61046f600480360381019061046a9190612719565b61141f565b60405161047c9190612f11565b60405180910390f35b60007f80ac58cd000000000000000000000000000000000000000000000000000000007bffffffffffffffffffffffffffffffffffffffffffffffffffffffff1916827bffffffffffffffffffffffffffffffffffffffffffffffffffffffff1916148061055057507f5b5e139f000000000000000000000000000000000000000000000000000000007bffffffffffffffffffffffffffffffffffffffffffffffffffffffff1916827bffffffffffffffffffffffffffffffffffffffffffffffffffffffff1916145b80610560575061055f82611443565b5b9050919050565b606060008054610576906131cc565b80601f01602080910402602001604051908101604052809291908181526020018280546105a2906131cc565b80156105ef5780601f106105c4576101008083540402835291602001916105ef565b820191906000526020600020905b8154815290600101906020018083116105d257829003601f168201915b5050505050905090565b6000610604826114ad565b610643576040517f08c379a000000000000000000000000000000000000000000000000000000000815260040161063a90612e71565b60405180910390fd5b6004600083815260200190815260200160002060009054906101000a900473ffffffffffffffffffffffffffffffffffffffff169050919050565b600960009054906101000a900473ffffffffffffffffffffffffffffffffffffffff1681565b6060600a8054806020026020016040519081016040528092919081815260200182805480156106f257602002820191906000526020600020905b8154815260200190600101908083116106de575b5050505050905090565b600061070782610e72565b90508073ffffffffffffffffffffffffffffffffffffffff168373ffffffffffffffffffffffffffffffffffffffff161415610778576040517f08c379a000000000000000000000000000000000000000000000000000000000815260040161076f90612e91565b60405180910390fd5b8073ffffffffffffffffffffffffffffffffffffffff16610797611519565b73ffffffffffffffffffffffffffffffffffffffff1614806107c657506107c5816107c0611519565b61138b565b5b610805576040517f08c379a00000000000000000000000000000000000000000000000000000000081526004016107fc90612db1565b60405180910390fd5b61080f8383611521565b505050565b600860009054906101000a900473ffffffffffffffffffffffffffffffffffffffff1673ffffffffffffffffffffffffffffffffffffffff163373ffffffffffffffffffffffffffffffffffffffff16146108a4576040517f08c379a000000000000000000000000000000000000000000000000000000000815260040161089b90612ed1565b60405180910390fd5b6108ae82826115da565b5050565b60001515600960149054906101000a900460ff16151514610908576040517f08c379a00000000000000000000000000000000000000000000000000000000081526004016108ff90612cb1565b60405180910390fd5b6000600960156101000a81548160ff0219169083151502179055506001600960146101000a81548160ff02191690831515021790555083600860006101000a81548173ffffffffffffffffffffffffffffffffffffffff021916908373ffffffffffffffffffffffffffffffffffffffff16021790555082600960006101000a81548173ffffffffffffffffffffffffffffffffffffffff021916908373ffffffffffffffffffffffffffffffffffffffff16021790555081600090805190602001906109d692919061215b565b5080600190805190602001906109ed92919061215b565b5050505050565b610a056109ff611519565b8261164e565b610a44576040517f08c379a0000000000000000000000000000000000000000000000000000000008152600401610a3b90612eb1565b60405180910390fd5b610a4f83838361172c565b505050565b600960009054906101000a900473ffffffffffffffffffffffffffffffffffffffff1673ffffffffffffffffffffffffffffffffffffffff163373ffffffffffffffffffffffffffffffffffffffff1614610ae4576040517f08c379a0000000000000000000000000000000000000000000000000000000008152600401610adb90612d91565b60405180910390fd5b610aee6007611993565b6000610afa60076119a9565b9050610b28600960009054906101000a900473ffffffffffffffffffffffffffffffffffffffff16826119b7565b600a819080600181540180825580915050600190039060005260206000200160009091909190915055610b5b81836115da565b610b656007611993565b5050565b610b84838383604051806020016040528060008152506110ce565b505050565b600960009054906101000a900473ffffffffffffffffffffffffffffffffffffffff1673ffffffffffffffffffffffffffffffffffffffff163373ffffffffffffffffffffffffffffffffffffffff1614610c19576040517f08c379a0000000000000000000000000000000000000000000000000000000008152600401610c1090612d91565b60405180910390fd5b8051825114610c5d576040517f08c379a0000000000000000000000000000000000000000000000000000000008152600401610c5490612d11565b60405180910390fd5b60008251905060005b81811015610e6b576000838281518110610ca9577f4e487b7100000000000000000000000000000000000000000000000000000000600052603260045260246000fd5b602002602001015111610cf1576040517f08c379a0000000000000000000000000000000000000000000000000000000008152600401610ce890612ef1565b60405180910390fd5b60005b838281518110610d2d577f4e487b7100000000000000000000000000000000000000000000000000000000600052603260045260246000fd5b6020026020010151811015610e57576000610d4860076119a9565b9050610d5487826119b7565b610e398160066000898781518110610d95577f4e487b7100000000000000000000000000000000000000000000000000000000600052603260045260246000fd5b602002602001015181526020019081526020016000208054610db6906131cc565b80601f0160208091040260200160405190810160405280929190818152602001828054610de2906131cc565b8015610e2f5780601f10610e0457610100808354040283529160200191610e2f565b820191906000526020600020905b815481529060010190602001808311610e1257829003601f168201915b50505050506115da565b610e436007611993565b508080610e4f9061322f565b915050610cf4565b508080610e639061322f565b915050610c66565b5050505050565b6000806002600084815260200190815260200160002060009054906101000a900473ffffffffffffffffffffffffffffffffffffffff169050600073ffffffffffffffffffffffffffffffffffffffff168173ffffffffffffffffffffffffffffffffffffffff161415610f1b576040517f08c379a0000000000000000000000000000000000000000000000000000000008152600401610f1290612df1565b60405180910390fd5b80915050919050565b60008073ffffffffffffffffffffffffffffffffffffffff168273ffffffffffffffffffffffffffffffffffffffff161415610f95576040517f08c379a0000000000000000000000000000000000000000000000000000000008152600401610f8c90612dd1565b60405180910390fd5b600360008373ffffffffffffffffffffffffffffffffffffffff1673ffffffffffffffffffffffffffffffffffffffff168152602001908152602001600020549050919050565b6000610fe860076119a9565b905090565b600860009054906101000a900473ffffffffffffffffffffffffffffffffffffffff1681565b606060018054611022906131cc565b80601f016020809104026020016040519081016040528092919081815260200182805461104e906131cc565b801561109b5780601f106110705761010080835404028352916020019161109b565b820191906000526020600020905b81548152906001019060200180831161107e57829003601f168201915b5050505050905090565b6110b76110b0611519565b83836119d5565b5050565b600960159054906101000a900460ff1681565b6110df6110d9611519565b8361164e565b61111e576040517f08c379a000000000000000000000000000000000000000000000000000000000815260040161111590612eb1565b60405180910390fd5b61112a84848484611b42565b50505050565b600960009054906101000a900473ffffffffffffffffffffffffffffffffffffffff1673ffffffffffffffffffffffffffffffffffffffff163373ffffffffffffffffffffffffffffffffffffffff16146111c0576040517f08c379a00000000000000000000000000000000000000000000000000000000081526004016111b790612d91565b60405180910390fd5b600960159054906101000a900460ff1615600960156101000a81548160ff021916908315150217905550565b60606111f7826114ad565b611236576040517f08c379a000000000000000000000000000000000000000000000000000000000815260040161122d90612e51565b60405180910390fd5b6000600660008481526020019081526020016000208054611256906131cc565b80601f0160208091040260200160405190810160405280929190818152602001828054611282906131cc565b80156112cf5780601f106112a4576101008083540402835291602001916112cf565b820191906000526020600020905b8154815290600101906020018083116112b257829003601f168201915b5050505050905060006112e0611b9e565b90506000815114156112f6578192505050611386565b60008251111561132b578082604051602001611313929190612ba7565b60405160208183030381529060405292505050611386565b6000611335611b9e565b905060008151116113555760405180602001604052806000815250611380565b8061135f86611bb5565b604051602001611370929190612ba7565b6040516020818303038152906040525b93505050505b919050565b6000600560008473ffffffffffffffffffffffffffffffffffffffff1673ffffffffffffffffffffffffffffffffffffffff16815260200190815260200160002060008373ffffffffffffffffffffffffffffffffffffffff1673ffffffffffffffffffffffffffffffffffffffff16815260200190815260200160002060009054906101000a900460ff16905092915050565b600a818154811061142f57600080fd5b906000526020600020016000915090505481565b60007f01ffc9a7000000000000000000000000000000000000000000000000000000007bffffffffffffffffffffffffffffffffffffffffffffffffffffffff1916827bffffffffffffffffffffffffffffffffffffffffffffffffffffffff1916149050919050565b60008073ffffffffffffffffffffffffffffffffffffffff166002600084815260200190815260200160002060009054906101000a900473ffffffffffffffffffffffffffffffffffffffff1673ffffffffffffffffffffffffffffffffffffffff1614159050919050565b600033905090565b816004600083815260200190815260200160002060006101000a81548173ffffffffffffffffffffffffffffffffffffffff021916908373ffffffffffffffffffffffffffffffffffffffff160217905550808273ffffffffffffffffffffffffffffffffffffffff1661159483610e72565b73ffffffffffffffffffffffffffffffffffffffff167f8c5be1e5ebec7d5bd14f71427d1e84f3dd0314c0f7b2291e5b200ac8c7c3b92560405160405180910390a45050565b6115e3826114ad565b611622576040517f08c379a000000000000000000000000000000000000000000000000000000000815260040161161990612e11565b60405180910390fd5b8060066000848152602001908152602001600020908051906020019061164992919061215b565b505050565b6000611659826114ad565b611698576040517f08c379a000000000000000000000000000000000000000000000000000000000815260040161168f90612d71565b60405180910390fd5b60006116a383610e72565b90508073ffffffffffffffffffffffffffffffffffffffff168473ffffffffffffffffffffffffffffffffffffffff1614806116e557506116e4818561138b565b5b8061172357508373ffffffffffffffffffffffffffffffffffffffff1661170b846105f9565b73ffffffffffffffffffffffffffffffffffffffff16145b91505092915050565b8273ffffffffffffffffffffffffffffffffffffffff1661174c82610e72565b73ffffffffffffffffffffffffffffffffffffffff16146117a2576040517f08c379a000000000000000000000000000000000000000000000000000000000815260040161179990612cd1565b60405180910390fd5b600073ffffffffffffffffffffffffffffffffffffffff168273ffffffffffffffffffffffffffffffffffffffff161415611812576040517f08c379a000000000000000000000000000000000000000000000000000000000815260040161180990612d31565b60405180910390fd5b61181d838383611d62565b611828600082611521565b6001600360008573ffffffffffffffffffffffffffffffffffffffff1673ffffffffffffffffffffffffffffffffffffffff168152602001908152602001600020600082825461187891906130e2565b925050819055506001600360008473ffffffffffffffffffffffffffffffffffffffff1673ffffffffffffffffffffffffffffffffffffffff16815260200190815260200160002060008282546118cf919061305b565b92505081905550816002600083815260200190815260200160002060006101000a81548173ffffffffffffffffffffffffffffffffffffffff021916908373ffffffffffffffffffffffffffffffffffffffff160217905550808273ffffffffffffffffffffffffffffffffffffffff168473ffffffffffffffffffffffffffffffffffffffff167fddf252ad1be2c89b69c2b068fc378daa952ba7f163c4a11628f55a4df523b3ef60405160405180910390a461198e838383611d67565b505050565b6001816000016000828254019250508190555050565b600081600001549050919050565b6119d1828260405180602001604052806000815250611d6c565b5050565b8173ffffffffffffffffffffffffffffffffffffffff168373ffffffffffffffffffffffffffffffffffffffff161415611a44576040517f08c379a0000000000000000000000000000000000000000000000000000000008152600401611a3b90612d51565b60405180910390fd5b80600560008573ffffffffffffffffffffffffffffffffffffffff1673ffffffffffffffffffffffffffffffffffffffff16815260200190815260200160002060008473ffffffffffffffffffffffffffffffffffffffff1673ffffffffffffffffffffffffffffffffffffffff16815260200190815260200160002060006101000a81548160ff0219169083151502179055508173ffffffffffffffffffffffffffffffffffffffff168373ffffffffffffffffffffffffffffffffffffffff167f17307eab39ab6107e8899845ad3d59bd9653f200f220920489ca2b5937696c3183604051611b359190612c54565b60405180910390a3505050565b611b4d84848461172c565b611b5984848484611dc7565b611b98576040517f08c379a0000000000000000000000000000000000000000000000000000000008152600401611b8f90612c91565b60405180910390fd5b50505050565b606060405180602001604052806000815250905090565b60606000821415611bfd576040518060400160405280600181526020017f30000000000000000000000000000000000000000000000000000000000000008152509050611d5d565b600082905060005b60008214611c2f578080611c189061322f565b915050600a82611c2891906130b1565b9150611c05565b60008167ffffffffffffffff811115611c71577f4e487b7100000000000000000000000000000000000000000000000000000000600052604160045260246000fd5b6040519080825280601f01601f191660200182016040528015611ca35781602001600182028036833780820191505090505b5090505b60008514611d5657600182611cbc91906130e2565b9150600a85611ccb9190613278565b6030611cd7919061305b565b60f81b818381518110611d13577f4e487b7100000000000000000000000000000000000000000000000000000000600052603260045260246000fd5b60200101907effffffffffffffffffffffffffffffffffffffffffffffffffffffffffffff1916908160001a905350600a85611d4f91906130b1565b9450611ca7565b8093505050505b919050565b505050565b505050565b611d768383611f5e565b611d836000848484611dc7565b611dc2576040517f08c379a0000000000000000000000000000000000000000000000000000000008152600401611db990612c91565b60405180910390fd5b505050565b6000611de88473ffffffffffffffffffffffffffffffffffffffff16612138565b15611f51578373ffffffffffffffffffffffffffffffffffffffff1663150b7a02611e11611519565b8786866040518563ffffffff1660e01b8152600401611e339493929190612be6565b602060405180830381600087803b158015611e4d57600080fd5b505af1925050508015611e7e57506040513d601f19601f82011682018060405250810190611e7b91906126af565b60015b611f01573d8060008114611eae576040519150601f19603f3d011682016040523d82523d6000602084013e611eb3565b606091505b50600081511415611ef9576040517f08c379a0000000000000000000000000000000000000000000000000000000008152600401611ef090612c91565b60405180910390fd5b805181602001fd5b63150b7a0260e01b7bffffffffffffffffffffffffffffffffffffffffffffffffffffffff1916817bffffffffffffffffffffffffffffffffffffffffffffffffffffffff191614915050611f56565b600190505b949350505050565b600073ffffffffffffffffffffffffffffffffffffffff168273ffffffffffffffffffffffffffffffffffffffff161415611fce576040517f08c379a0000000000000000000000000000000000000000000000000000000008152600401611fc590612e31565b60405180910390fd5b611fd7816114ad565b15612017576040517f08c379a000000000000000000000000000000000000000000000000000000000815260040161200e90612cf1565b60405180910390fd5b61202360008383611d62565b6001600360008473ffffffffffffffffffffffffffffffffffffffff1673ffffffffffffffffffffffffffffffffffffffff1681526020019081526020016000206000828254612073919061305b565b92505081905550816002600083815260200190815260200160002060006101000a81548173ffffffffffffffffffffffffffffffffffffffff021916908373ffffffffffffffffffffffffffffffffffffffff160217905550808273ffffffffffffffffffffffffffffffffffffffff16600073ffffffffffffffffffffffffffffffffffffffff167fddf252ad1be2c89b69c2b068fc378daa952ba7f163c4a11628f55a4df523b3ef60405160405180910390a461213460008383611d67565b5050565b6000808273ffffffffffffffffffffffffffffffffffffffff163b119050919050565b828054612167906131cc565b90600052602060002090601f01602090048101928261218957600085556121d0565b82601f106121a257805160ff19168380011785556121d0565b828001600101855582156121d0579182015b828111156121cf5782518255916020019190600101906121b4565b5b5090506121dd91906121e1565b5090565b5b808211156121fa5760008160009055506001016121e2565b5090565b600061221161220c84612f51565b612f2c565b9050808382526020820190508285602086028201111561223057600080fd5b60005b85811015612260578161224688826123b8565b845260208401935060208301925050600181019050612233565b5050509392505050565b600061227d61227884612f7d565b612f2c565b90508281526020810184848401111561229557600080fd5b6122a084828561318a565b509392505050565b60006122bb6122b684612fae565b612f2c565b9050828152602081018484840111156122d357600080fd5b6122de84828561318a565b509392505050565b6000813590506122f581613872565b92915050565b600082601f83011261230c57600080fd5b813561231c8482602086016121fe565b91505092915050565b60008135905061233481613889565b92915050565b600081359050612349816138a0565b92915050565b60008151905061235e816138a0565b92915050565b600082601f83011261237557600080fd5b813561238584826020860161226a565b91505092915050565b600082601f83011261239f57600080fd5b81356123af8482602086016122a8565b91505092915050565b6000813590506123c7816138b7565b92915050565b6000602082840312156123df57600080fd5b60006123ed848285016122e6565b91505092915050565b6000806040838503121561240957600080fd5b6000612417858286016122e6565b9250506020612428858286016122e6565b9150509250929050565b6000806000806080858703121561244857600080fd5b6000612456878288016122e6565b9450506020612467878288016122e6565b935050604085013567ffffffffffffffff81111561248457600080fd5b6124908782880161238e565b925050606085013567ffffffffffffffff8111156124ad57600080fd5b6124b98782880161238e565b91505092959194509250565b6000806000606084860312156124da57600080fd5b60006124e8868287016122e6565b93505060206124f9868287016122e6565b925050604061250a868287016123b8565b9150509250925092565b6000806000806080858703121561252a57600080fd5b6000612538878288016122e6565b9450506020612549878288016122e6565b935050604061255a878288016123b8565b925050606085013567ffffffffffffffff81111561257757600080fd5b61258387828801612364565b91505092959194509250565b6000806000606084860312156125a457600080fd5b60006125b2868287016122e6565b935050602084013567ffffffffffffffff8111156125cf57600080fd5b6125db868287016122fb565b925050604084013567ffffffffffffffff8111156125f857600080fd5b612604868287016122fb565b9150509250925092565b6000806040838503121561262157600080fd5b600061262f858286016122e6565b925050602061264085828601612325565b9150509250929050565b6000806040838503121561265d57600080fd5b600061266b858286016122e6565b925050602061267c858286016123b8565b9150509250929050565b60006020828403121561269857600080fd5b60006126a68482850161233a565b91505092915050565b6000602082840312156126c157600080fd5b60006126cf8482850161234f565b91505092915050565b6000602082840312156126ea57600080fd5b600082013567ffffffffffffffff81111561270457600080fd5b6127108482850161238e565b91505092915050565b60006020828403121561272b57600080fd5b6000612739848285016123b8565b91505092915050565b6000806040838503121561275557600080fd5b6000612763858286016123b8565b925050602083013567ffffffffffffffff81111561278057600080fd5b61278c8582860161238e565b9150509250929050565b60006127a28383612b89565b60208301905092915050565b6127b781613116565b82525050565b60006127c882612fef565b6127d2818561301d565b93506127dd83612fdf565b8060005b8381101561280e5781516127f58882612796565b975061280083613010565b9250506001810190506127e1565b5085935050505092915050565b61282481613128565b82525050565b600061283582612ffa565b61283f818561302e565b935061284f818560208601613199565b61285881613365565b840191505092915050565b600061286e82613005565b612878818561303f565b9350612888818560208601613199565b61289181613365565b840191505092915050565b60006128a782613005565b6128b18185613050565b93506128c1818560208601613199565b80840191505092915050565b60006128da60328361303f565b91506128e582613376565b604082019050919050565b60006128fd60098361303f565b9150612908826133c5565b602082019050919050565b600061292060258361303f565b915061292b826133ee565b604082019050919050565b6000612943601c8361303f565b915061294e8261343d565b602082019050919050565b600061296660098361303f565b915061297182613466565b602082019050919050565b600061298960248361303f565b91506129948261348f565b604082019050919050565b60006129ac60198361303f565b91506129b7826134de565b602082019050919050565b60006129cf602c8361303f565b91506129da82613507565b604082019050919050565b60006129f260098361303f565b91506129fd82613556565b602082019050919050565b6000612a1560388361303f565b9150612a208261357f565b604082019050919050565b6000612a38602a8361303f565b9150612a43826135ce565b604082019050919050565b6000612a5b60298361303f565b9150612a668261361d565b604082019050919050565b6000612a7e602e8361303f565b9150612a898261366c565b604082019050919050565b6000612aa160208361303f565b9150612aac826136bb565b602082019050919050565b6000612ac460318361303f565b9150612acf826136e4565b604082019050919050565b6000612ae7602c8361303f565b9150612af282613733565b604082019050919050565b6000612b0a60218361303f565b9150612b1582613782565b604082019050919050565b6000612b2d60318361303f565b9150612b38826137d1565b604082019050919050565b6000612b5060098361303f565b9150612b5b82613820565b602082019050919050565b6000612b7360098361303f565b9150612b7e82613849565b602082019050919050565b612b9281613180565b82525050565b612ba181613180565b82525050565b6000612bb3828561289c565b9150612bbf828461289c565b91508190509392505050565b6000602082019050612be060008301846127ae565b92915050565b6000608082019050612bfb60008301876127ae565b612c0860208301866127ae565b612c156040830185612b98565b8181036060830152612c27818461282a565b905095945050505050565b60006020820190508181036000830152612c4c81846127bd565b905092915050565b6000602082019050612c69600083018461281b565b92915050565b60006020820190508181036000830152612c898184612863565b905092915050565b60006020820190508181036000830152612caa816128cd565b9050919050565b60006020820190508181036000830152612cca816128f0565b9050919050565b60006020820190508181036000830152612cea81612913565b9050919050565b60006020820190508181036000830152612d0a81612936565b9050919050565b60006020820190508181036000830152612d2a81612959565b9050919050565b60006020820190508181036000830152612d4a8161297c565b9050919050565b60006020820190508181036000830152612d6a8161299f565b9050919050565b60006020820190508181036000830152612d8a816129c2565b9050919050565b60006020820190508181036000830152612daa816129e5565b9050919050565b60006020820190508181036000830152612dca81612a08565b9050919050565b60006020820190508181036000830152612dea81612a2b565b9050919050565b60006020820190508181036000830152612e0a81612a4e565b9050919050565b60006020820190508181036000830152612e2a81612a71565b9050919050565b60006020820190508181036000830152612e4a81612a94565b9050919050565b60006020820190508181036000830152612e6a81612ab7565b9050919050565b60006020820190508181036000830152612e8a81612ada565b9050919050565b60006020820190508181036000830152612eaa81612afd565b9050919050565b60006020820190508181036000830152612eca81612b20565b9050919050565b60006020820190508181036000830152612eea81612b43565b9050919050565b60006020820190508181036000830152612f0a81612b66565b9050919050565b6000602082019050612f266000830184612b98565b92915050565b6000612f36612f47565b9050612f4282826131fe565b919050565b6000604051905090565b600067ffffffffffffffff821115612f6c57612f6b613336565b5b602082029050602081019050919050565b600067ffffffffffffffff821115612f9857612f97613336565b5b612fa182613365565b9050602081019050919050565b600067ffffffffffffffff821115612fc957612fc8613336565b5b612fd282613365565b9050602081019050919050565b6000819050602082019050919050565b600081519050919050565b600081519050919050565b600081519050919050565b6000602082019050919050565b600082825260208201905092915050565b600082825260208201905092915050565b600082825260208201905092915050565b600081905092915050565b600061306682613180565b915061307183613180565b9250827fffffffffffffffffffffffffffffffffffffffffffffffffffffffffffffffff038211156130a6576130a56132a9565b5b828201905092915050565b60006130bc82613180565b91506130c783613180565b9250826130d7576130d66132d8565b5b828204905092915050565b60006130ed82613180565b91506130f883613180565b92508282101561310b5761310a6132a9565b5b828203905092915050565b600061312182613160565b9050919050565b60008115159050919050565b60007fffffffff0000000000000000000000000000000000000000000000000000000082169050919050565b600073ffffffffffffffffffffffffffffffffffffffff82169050919050565b6000819050919050565b82818337600083830152505050565b60005b838110156131b757808201518184015260208101905061319c565b838111156131c6576000848401525b50505050565b600060028204905060018216806131e457607f821691505b602082108114156131f8576131f7613307565b5b50919050565b61320782613365565b810181811067ffffffffffffffff8211171561322657613225613336565b5b80604052505050565b600061323a82613180565b91507fffffffffffffffffffffffffffffffffffffffffffffffffffffffffffffffff82141561326d5761326c6132a9565b5b600182019050919050565b600061328382613180565b915061328e83613180565b92508261329e5761329d6132d8565b5b828206905092915050565b7f4e487b7100000000000000000000000000000000000000000000000000000000600052601160045260246000fd5b7f4e487b7100000000000000000000000000000000000000000000000000000000600052601260045260246000fd5b7f4e487b7100000000000000000000000000000000000000000000000000000000600052602260045260246000fd5b7f4e487b7100000000000000000000000000000000000000000000000000000000600052604160045260246000fd5b6000601f19601f8301169050919050565b7f4552433732313a207472616e7366657220746f206e6f6e20455243373231526560008201527f63656976657220696d706c656d656e7465720000000000000000000000000000602082015250565b7f4552433732313a30300000000000000000000000000000000000000000000000600082015250565b7f4552433732313a207472616e736665722066726f6d20696e636f72726563742060008201527f6f776e6572000000000000000000000000000000000000000000000000000000602082015250565b7f4552433732313a20746f6b656e20616c7265616479206d696e74656400000000600082015250565b7f4552433732313a30320000000000000000000000000000000000000000000000600082015250565b7f4552433732313a207472616e7366657220746f20746865207a65726f2061646460008201527f7265737300000000000000000000000000000000000000000000000000000000602082015250565b7f4552433732313a20617070726f766520746f2063616c6c657200000000000000600082015250565b7f4552433732313a206f70657261746f7220717565727920666f72206e6f6e657860008201527f697374656e7420746f6b656e0000000000000000000000000000000000000000602082015250565b7f4552433732313a30310000000000000000000000000000000000000000000000600082015250565b7f4552433732313a20617070726f76652063616c6c6572206973206e6f74206f7760008201527f6e6572206e6f7220617070726f76656420666f7220616c6c0000000000000000602082015250565b7f4552433732313a2062616c616e636520717565727920666f7220746865207a6560008201527f726f206164647265737300000000000000000000000000000000000000000000602082015250565b7f4552433732313a206f776e657220717565727920666f72206e6f6e657869737460008201527f656e7420746f6b656e0000000000000000000000000000000000000000000000602082015250565b7f45524337323155524953746f726167653a2055524920736574206f66206e6f6e60008201527f6578697374656e7420746f6b656e000000000000000000000000000000000000602082015250565b7f4552433732313a206d696e7420746f20746865207a65726f2061646472657373600082015250565b7f45524337323155524953746f726167653a2055524920717565727920666f722060008201527f6e6f6e6578697374656e7420746f6b656e000000000000000000000000000000602082015250565b7f4552433732313a20617070726f76656420717565727920666f72206e6f6e657860008201527f697374656e7420746f6b656e0000000000000000000000000000000000000000602082015250565b7f4552433732313a20617070726f76616c20746f2063757272656e74206f776e6560008201527f7200000000000000000000000000000000000000000000000000000000000000602082015250565b7f4552433732313a207472616e736665722063616c6c6572206973206e6f74206f60008201527f776e6572206e6f7220617070726f766564000000000000000000000000000000602082015250565b7f4552433732313a30340000000000000000000000000000000000000000000000600082015250565b7f4552433732313a30330000000000000000000000000000000000000000000000600082015250565b61387b81613116565b811461388657600080fd5b50565b61389281613128565b811461389d57600080fd5b50565b6138a981613134565b81146138b457600080fd5b50565b6138c081613180565b81146138cb57600080fd5b5056fea264697066735822122090f619ae22120cce10815f52a92ae30cbb4d121b716d59cab715ccaff348e39864736f6c63430008040033",
  "linkReferences": {},
  "deployedLinkReferences": {}
}