{
  "_format": "hh-sol-artifact-1",
  "contractName": "ShopFactory",
  "sourceName": "contracts/ShopFactory.sol",
  "abi": [
    {
      "inputs": [
        {
          "internalType": "address",
          "name": "_shopMakerAddr",
          "type": "address"
        }
      ],
      "stateMutability": "nonpayable",
      "type": "constructor"
    },
    {
      "anonymous": false,
      "inputs": [
        {
          "indexed": true,
          "internalType": "address",
          "name": "previousOwner",
          "type": "address"
        },
        {
          "indexed": true,
          "internalType": "address",
          "name": "newOwner",
          "type": "address"
        }
      ],
      "name": "OwnershipTransferred",
      "type": "event"
    },
    {
      "inputs": [
        {
          "internalType": "uint256",
          "name": "",
          "type": "uint256"
        }
      ],
      "name": "allShops",
      "outputs": [
        {
          "internalType": "address",
          "name": "",
          "type": "address"
        }
      ],
      "stateMutability": "view",
      "type": "function"
    },
    {
      "inputs": [
        {
          "internalType": "string",
          "name": "name",
          "type": "string"
        },
        {
          "internalType": "string",
          "name": "image",
          "type": "string"
        }
      ],
      "name": "createShop",
      "outputs": [
        {
          "internalType": "address",
          "name": "",
          "type": "address"
        }
      ],
      "stateMutability": "payable",
      "type": "function"
    },
    {
      "inputs": [
        {
          "internalType": "address",
          "name": "deleteAddr",
          "type": "address"
        }
      ],
      "name": "deleteShop",
      "outputs": [],
      "stateMutability": "nonpayable",
      "type": "function"
    },
    {
      "inputs": [],
      "name": "fetchAllShops",
      "outputs": [
        {
          "internalType": "address[]",
          "name": "",
          "type": "address[]"
        }
      ],
      "stateMutability": "view",
      "type": "function"
    },
    {
      "inputs": [],
      "name": "getBalance",
      "outputs": [
        {
          "internalType": "uint256",
          "name": "",
          "type": "uint256"
        }
      ],
      "stateMutability": "view",
      "type": "function"
    },
    {
      "inputs": [],
      "name": "owner",
      "outputs": [
        {
          "internalType": "address",
          "name": "",
          "type": "address"
        }
      ],
      "stateMutability": "view",
      "type": "function"
    },
    {
      "inputs": [],
      "name": "renounceOwnership",
      "outputs": [],
      "stateMutability": "nonpayable",
      "type": "function"
    },
    {
      "inputs": [],
      "name": "selfDestruct",
      "outputs": [],
      "stateMutability": "nonpayable",
      "type": "function"
    },
    {
      "inputs": [
        {
          "internalType": "uint256",
          "name": "_price",
          "type": "uint256"
        }
      ],
      "name": "setShopPrice",
      "outputs": [],
      "stateMutability": "nonpayable",
      "type": "function"
    },
    {
      "inputs": [],
      "name": "shopCount",
      "outputs": [
        {
          "internalType": "uint256",
          "name": "",
          "type": "uint256"
        }
      ],
      "stateMutability": "view",
      "type": "function"
    },
    {
      "inputs": [
        {
          "internalType": "address",
          "name": "newOwner",
          "type": "address"
        }
      ],
      "name": "transferOwnership",
      "outputs": [],
      "stateMutability": "nonpayable",
      "type": "function"
    },
    {
      "inputs": [],
      "name": "withdraw",
      "outputs": [],
      "stateMutability": "nonpayable",
      "type": "function"
    },
    {
      "stateMutability": "payable",
      "type": "receive"
    }
  ],
  "bytecode": "0x6080604052600060025560006004553480156200001b57600080fd5b506040516200161f3803806200161f83398181016040528101906200004191906200018c565b6200006162000055620000a960201b60201c565b620000b160201b60201c565b80600360006101000a81548173ffffffffffffffffffffffffffffffffffffffff021916908373ffffffffffffffffffffffffffffffffffffffff1602179055505062000206565b600033905090565b60008060009054906101000a900473ffffffffffffffffffffffffffffffffffffffff169050816000806101000a81548173ffffffffffffffffffffffffffffffffffffffff021916908373ffffffffffffffffffffffffffffffffffffffff1602179055508173ffffffffffffffffffffffffffffffffffffffff168173ffffffffffffffffffffffffffffffffffffffff167f8be0079c531659141344cd1fd0a4f28419497f9722a3daafe3b4186f6b6457e060405160405180910390a35050565b6000815190506200018681620001ec565b92915050565b6000602082840312156200019f57600080fd5b6000620001af8482850162000175565b91505092915050565b6000620001c582620001cc565b9050919050565b600073ffffffffffffffffffffffffffffffffffffffff82169050919050565b620001f781620001b8565b81146200020357600080fd5b50565b61140980620002166000396000f3fe6080604052600436106100ab5760003560e01c806396195dca1161006457806396195dca146101915780639cb8a26a146101ce578063abc47baa146101e5578063b4abc3811461020e578063e7bfea501461023e578063f2fde38b14610267576100b2565b80630a747ed5146100b757806312065fe0146100e25780633ccfd60b1461010d5780636f0571e114610124578063715018a61461014f5780638da5cb5b14610166576100b2565b366100b257005b600080fd5b3480156100c357600080fd5b506100cc610290565b6040516100d9919061104d565b60405180910390f35b3480156100ee57600080fd5b506100f7610296565b604051610104919061104d565b60405180910390f35b34801561011957600080fd5b5061012261029e565b005b34801561013057600080fd5b50610139610363565b6040516101469190610fcb565b60405180910390f35b34801561015b57600080fd5b506101646103f1565b005b34801561017257600080fd5b5061017b610479565b6040516101889190610f4f565b60405180910390f35b34801561019d57600080fd5b506101b860048036038101906101b39190610de1565b6104a2565b6040516101c59190610f4f565b60405180910390f35b3480156101da57600080fd5b506101e36104e1565b005b3480156101f157600080fd5b5061020c60048036038101906102079190610de1565b61057d565b005b61022860048036038101906102239190610d75565b610603565b6040516102359190610f4f565b60405180910390f35b34801561024a57600080fd5b5061026560048036038101906102609190610d23565b610790565b005b34801561027357600080fd5b5061028e60048036038101906102899190610d23565b61093f565b005b60045481565b600047905090565b6102a6610a37565b73ffffffffffffffffffffffffffffffffffffffff166102c4610479565b73ffffffffffffffffffffffffffffffffffffffff161461031a576040517f08c379a00000000000000000000000000000000000000000000000000000000081526004016103119061100d565b60405180910390fd5b3373ffffffffffffffffffffffffffffffffffffffff166108fc479081150290604051600060405180830381858888f19350505050158015610360573d6000803e3d6000fd5b50565b606060018054806020026020016040519081016040528092919081815260200182805480156103e757602002820191906000526020600020905b8160009054906101000a900473ffffffffffffffffffffffffffffffffffffffff1673ffffffffffffffffffffffffffffffffffffffff168152602001906001019080831161039d575b5050505050905090565b6103f9610a37565b73ffffffffffffffffffffffffffffffffffffffff16610417610479565b73ffffffffffffffffffffffffffffffffffffffff161461046d576040517f08c379a00000000000000000000000000000000000000000000000000000000081526004016104649061100d565b60405180910390fd5b6104776000610a3f565b565b60008060009054906101000a900473ffffffffffffffffffffffffffffffffffffffff16905090565b600181815481106104b257600080fd5b906000526020600020016000915054906101000a900473ffffffffffffffffffffffffffffffffffffffff1681565b6104e9610a37565b73ffffffffffffffffffffffffffffffffffffffff16610507610479565b73ffffffffffffffffffffffffffffffffffffffff161461055d576040517f08c379a00000000000000000000000000000000000000000000000000000000081526004016105549061100d565b60405180910390fd5b610565610479565b73ffffffffffffffffffffffffffffffffffffffff16ff5b610585610a37565b73ffffffffffffffffffffffffffffffffffffffff166105a3610479565b73ffffffffffffffffffffffffffffffffffffffff16146105f9576040517f08c379a00000000000000000000000000000000000000000000000000000000081526004016105f09061100d565b60405180910390fd5b8060028190555050565b600060025434101561064a576040517f08c379a00000000000000000000000000000000000000000000000000000000081526004016106419061102d565b60405180910390fd5b6000600360009054906101000a900473ffffffffffffffffffffffffffffffffffffffff16905060008173ffffffffffffffffffffffffffffffffffffffff16634cafbdad338787600454306040518663ffffffff1660e01b81526004016106b6959493929190610f6a565b602060405180830381600087803b1580156106d057600080fd5b505af11580156106e4573d6000803e3d6000fd5b505050506040513d601f19601f820116820180604052508101906107089190610d4c565b90506001819080600181540180825580915050600190039060005260206000200160009091909190916101000a81548173ffffffffffffffffffffffffffffffffffffffff021916908373ffffffffffffffffffffffffffffffffffffffff160217905550600460008154809291906107809061124c565b9190505550809250505092915050565b610798610a37565b73ffffffffffffffffffffffffffffffffffffffff166107b6610479565b73ffffffffffffffffffffffffffffffffffffffff161461080c576040517f08c379a00000000000000000000000000000000000000000000000000000000081526004016108039061100d565b60405180910390fd5b60008190508073ffffffffffffffffffffffffffffffffffffffff16639cb8a26a6040518163ffffffff1660e01b8152600401600060405180830381600087803b15801561085957600080fd5b505af115801561086d573d6000803e3d6000fd5b5050505060005b60018054905081101561093a578273ffffffffffffffffffffffffffffffffffffffff16600182815481106108d2577f4e487b7100000000000000000000000000000000000000000000000000000000600052603260045260246000fd5b9060005260206000200160009054906101000a900473ffffffffffffffffffffffffffffffffffffffff1673ffffffffffffffffffffffffffffffffffffffff1614156109275761092281610b03565b61093a565b80806109329061124c565b915050610874565b505050565b610947610a37565b73ffffffffffffffffffffffffffffffffffffffff16610965610479565b73ffffffffffffffffffffffffffffffffffffffff16146109bb576040517f08c379a00000000000000000000000000000000000000000000000000000000081526004016109b29061100d565b60405180910390fd5b600073ffffffffffffffffffffffffffffffffffffffff168173ffffffffffffffffffffffffffffffffffffffff161415610a2b576040517f08c379a0000000000000000000000000000000000000000000000000000000008152600401610a2290610fed565b60405180910390fd5b610a3481610a3f565b50565b600033905090565b60008060009054906101000a900473ffffffffffffffffffffffffffffffffffffffff169050816000806101000a81548173ffffffffffffffffffffffffffffffffffffffff021916908373ffffffffffffffffffffffffffffffffffffffff1602179055508173ffffffffffffffffffffffffffffffffffffffff168173ffffffffffffffffffffffffffffffffffffffff167f8be0079c531659141344cd1fd0a4f28419497f9722a3daafe3b4186f6b6457e060405160405180910390a35050565b60008190505b60018080549050610b1a9190611169565b811015610c0b5760018082610b2f9190611113565b81548110610b66577f4e487b7100000000000000000000000000000000000000000000000000000000600052603260045260246000fd5b9060005260206000200160009054906101000a900473ffffffffffffffffffffffffffffffffffffffff1673ffffffffffffffffffffffffffffffffffffffff1660018281548110610be1577f4e487b7100000000000000000000000000000000000000000000000000000000600052603260045260246000fd5b9060005260206000200160009054906101000a905050508080610c039061124c565b915050610b09565b506001805480610c44577f4e487b7100000000000000000000000000000000000000000000000000000000600052603160045260246000fd5b6001900381819060005260206000200160006101000a81549073ffffffffffffffffffffffffffffffffffffffff0219169055905550565b6000610c8f610c8a8461108d565b611068565b905082815260208101848484011115610ca757600080fd5b610cb28482856111d9565b509392505050565b600081359050610cc9816113a5565b92915050565b600081519050610cde816113a5565b92915050565b600082601f830112610cf557600080fd5b8135610d05848260208601610c7c565b91505092915050565b600081359050610d1d816113bc565b92915050565b600060208284031215610d3557600080fd5b6000610d4384828501610cba565b91505092915050565b600060208284031215610d5e57600080fd5b6000610d6c84828501610ccf565b91505092915050565b60008060408385031215610d8857600080fd5b600083013567ffffffffffffffff811115610da257600080fd5b610dae85828601610ce4565b925050602083013567ffffffffffffffff811115610dcb57600080fd5b610dd785828601610ce4565b9150509250929050565b600060208284031215610df357600080fd5b6000610e0184828501610d0e565b91505092915050565b6000610e168383610e22565b60208301905092915050565b610e2b8161119d565b82525050565b610e3a8161119d565b82525050565b6000610e4b826110ce565b610e5581856110f1565b9350610e60836110be565b8060005b83811015610e91578151610e788882610e0a565b9750610e83836110e4565b925050600181019050610e64565b5085935050505092915050565b6000610ea9826110d9565b610eb38185611102565b9350610ec38185602086016111e8565b610ecc816112f3565b840191505092915050565b6000610ee4602683611102565b9150610eef82611304565b604082019050919050565b6000610f07602083611102565b9150610f1282611353565b602082019050919050565b6000610f2a600383611102565b9150610f358261137c565b602082019050919050565b610f49816111cf565b82525050565b6000602082019050610f646000830184610e31565b92915050565b600060a082019050610f7f6000830188610e31565b8181036020830152610f918187610e9e565b90508181036040830152610fa58186610e9e565b9050610fb46060830185610f40565b610fc16080830184610e31565b9695505050505050565b60006020820190508181036000830152610fe58184610e40565b905092915050565b6000602082019050818103600083015261100681610ed7565b9050919050565b6000602082019050818103600083015261102681610efa565b9050919050565b6000602082019050818103600083015261104681610f1d565b9050919050565b60006020820190506110626000830184610f40565b92915050565b6000611072611083565b905061107e828261121b565b919050565b6000604051905090565b600067ffffffffffffffff8211156110a8576110a76112c4565b5b6110b1826112f3565b9050602081019050919050565b6000819050602082019050919050565b600081519050919050565b600081519050919050565b6000602082019050919050565b600082825260208201905092915050565b600082825260208201905092915050565b600061111e826111cf565b9150611129836111cf565b9250827fffffffffffffffffffffffffffffffffffffffffffffffffffffffffffffffff0382111561115e5761115d611295565b5b828201905092915050565b6000611174826111cf565b915061117f836111cf565b92508282101561119257611191611295565b5b828203905092915050565b60006111a8826111af565b9050919050565b600073ffffffffffffffffffffffffffffffffffffffff82169050919050565b6000819050919050565b82818337600083830152505050565b60005b838110156112065780820151818401526020810190506111eb565b83811115611215576000848401525b50505050565b611224826112f3565b810181811067ffffffffffffffff82111715611243576112426112c4565b5b80604052505050565b6000611257826111cf565b91507fffffffffffffffffffffffffffffffffffffffffffffffffffffffffffffffff82141561128a57611289611295565b5b600182019050919050565b7f4e487b7100000000000000000000000000000000000000000000000000000000600052601160045260246000fd5b7f4e487b7100000000000000000000000000000000000000000000000000000000600052604160045260246000fd5b6000601f19601f8301169050919050565b7f4f776e61626c653a206e6577206f776e657220697320746865207a65726f206160008201527f6464726573730000000000000000000000000000000000000000000000000000602082015250565b7f4f776e61626c653a2063616c6c6572206973206e6f7420746865206f776e6572600082015250565b7f4353300000000000000000000000000000000000000000000000000000000000600082015250565b6113ae8161119d565b81146113b957600080fd5b50565b6113c5816111cf565b81146113d057600080fd5b5056fea26469706673582212202995c05cdb675afea2d7d957195a008f8c02f2ade043bba047105060f87ef44e64736f6c63430008040033",
  "linkReferences": {},
  "deployedLinkReferences": {}
}