{
  "_format": "hh-sol-artifact-1",
  "contractName": "ShopFactory",
  "sourceName": "contracts/ShopFactory.sol",
  "abi": [
    {
      "inputs": [
        {
          "internalType": "address",
          "name": "_shopTemplate",
          "type": "address"
        },
        {
          "internalType": "address",
          "name": "_nftTemplate",
          "type": "address"
        }
      ],
      "stateMutability": "nonpayable",
      "type": "constructor"
    },
    {
      "anonymous": false,
      "inputs": [
        {
          "indexed": true,
          "internalType": "address",
          "name": "previousOwner",
          "type": "address"
        },
        {
          "indexed": true,
          "internalType": "address",
          "name": "newOwner",
          "type": "address"
        }
      ],
      "name": "OwnershipTransferred",
      "type": "event"
    },
    {
      "anonymous": false,
      "inputs": [
        {
          "indexed": true,
          "internalType": "address",
          "name": "shopAddress",
          "type": "address"
        },
        {
          "indexed": true,
          "internalType": "string",
          "name": "name",
          "type": "string"
        }
      ],
      "name": "ShopCreated",
      "type": "event"
    },
    {
      "inputs": [
        {
          "internalType": "uint256",
          "name": "",
          "type": "uint256"
        }
      ],
      "name": "allShops",
      "outputs": [
        {
          "internalType": "address",
          "name": "",
          "type": "address"
        }
      ],
      "stateMutability": "view",
      "type": "function"
    },
    {
      "inputs": [
        {
          "internalType": "string",
          "name": "_name",
          "type": "string"
        },
        {
          "internalType": "string",
          "name": "_image",
          "type": "string"
        }
      ],
      "name": "createShop",
      "outputs": [
        {
          "internalType": "address",
          "name": "",
          "type": "address"
        }
      ],
      "stateMutability": "payable",
      "type": "function"
    },
    {
      "inputs": [
        {
          "internalType": "address",
          "name": "deleteAddr",
          "type": "address"
        }
      ],
      "name": "deleteShop",
      "outputs": [],
      "stateMutability": "nonpayable",
      "type": "function"
    },
    {
      "inputs": [],
      "name": "fetchAllShops",
      "outputs": [
        {
          "internalType": "address[]",
          "name": "",
          "type": "address[]"
        }
      ],
      "stateMutability": "view",
      "type": "function"
    },
    {
      "inputs": [],
      "name": "getBalance",
      "outputs": [
        {
          "internalType": "uint256",
          "name": "",
          "type": "uint256"
        }
      ],
      "stateMutability": "view",
      "type": "function"
    },
    {
      "inputs": [],
      "name": "owner",
      "outputs": [
        {
          "internalType": "address",
          "name": "",
          "type": "address"
        }
      ],
      "stateMutability": "view",
      "type": "function"
    },
    {
      "inputs": [],
      "name": "renounceOwnership",
      "outputs": [],
      "stateMutability": "nonpayable",
      "type": "function"
    },
    {
      "inputs": [],
      "name": "selfDestruct",
      "outputs": [],
      "stateMutability": "nonpayable",
      "type": "function"
    },
    {
      "inputs": [
        {
          "internalType": "uint256",
          "name": "_price",
          "type": "uint256"
        }
      ],
      "name": "setShopPrice",
      "outputs": [],
      "stateMutability": "nonpayable",
      "type": "function"
    },
    {
      "inputs": [],
      "name": "shopCount",
      "outputs": [
        {
          "internalType": "uint256",
          "name": "",
          "type": "uint256"
        }
      ],
      "stateMutability": "view",
      "type": "function"
    },
    {
      "inputs": [
        {
          "internalType": "address",
          "name": "newOwner",
          "type": "address"
        }
      ],
      "name": "transferOwnership",
      "outputs": [],
      "stateMutability": "nonpayable",
      "type": "function"
    },
    {
      "inputs": [],
      "name": "withdraw",
      "outputs": [],
      "stateMutability": "nonpayable",
      "type": "function"
    },
    {
      "stateMutability": "payable",
      "type": "receive"
    }
  ],
  "bytecode": "0x6080604052600060025560006003553480156200001b57600080fd5b5060405162001771380380620017718339818101604052810190620000419190620001ce565b6200006162000055620000eb60201b60201c565b620000f360201b60201c565b81600460006101000a81548173ffffffffffffffffffffffffffffffffffffffff021916908373ffffffffffffffffffffffffffffffffffffffff16021790555080600560006101000a81548173ffffffffffffffffffffffffffffffffffffffff021916908373ffffffffffffffffffffffffffffffffffffffff16021790555050506200025d565b600033905090565b60008060009054906101000a900473ffffffffffffffffffffffffffffffffffffffff169050816000806101000a81548173ffffffffffffffffffffffffffffffffffffffff021916908373ffffffffffffffffffffffffffffffffffffffff1602179055508173ffffffffffffffffffffffffffffffffffffffff168173ffffffffffffffffffffffffffffffffffffffff167f8be0079c531659141344cd1fd0a4f28419497f9722a3daafe3b4186f6b6457e060405160405180910390a35050565b600081519050620001c88162000243565b92915050565b60008060408385031215620001e257600080fd5b6000620001f285828601620001b7565b92505060206200020585828601620001b7565b9150509250929050565b60006200021c8262000223565b9050919050565b600073ffffffffffffffffffffffffffffffffffffffff82169050919050565b6200024e816200020f565b81146200025a57600080fd5b50565b611504806200026d6000396000f3fe6080604052600436106100ab5760003560e01c806396195dca1161006457806396195dca146101915780639cb8a26a146101ce578063abc47baa146101e5578063b4abc3811461020e578063e7bfea501461023e578063f2fde38b14610267576100b2565b80630a747ed5146100b757806312065fe0146100e25780633ccfd60b1461010d5780636f0571e114610124578063715018a61461014f5780638da5cb5b14610166576100b2565b366100b257005b600080fd5b3480156100c357600080fd5b506100cc610290565b6040516100d9919061113d565b60405180910390f35b3480156100ee57600080fd5b506100f7610296565b604051610104919061113d565b60405180910390f35b34801561011957600080fd5b5061012261029e565b005b34801561013057600080fd5b50610139610363565b60405161014691906110bb565b60405180910390f35b34801561015b57600080fd5b506101646103f1565b005b34801561017257600080fd5b5061017b610479565b6040516101889190611031565b60405180910390f35b34801561019d57600080fd5b506101b860048036038101906101b39190610e7b565b6104a2565b6040516101c59190611031565b60405180910390f35b3480156101da57600080fd5b506101e36104e1565b005b3480156101f157600080fd5b5061020c60048036038101906102079190610e7b565b61057d565b005b61022860048036038101906102239190610e0f565b610603565b6040516102359190611031565b60405180910390f35b34801561024a57600080fd5b5061026560048036038101906102609190610de6565b6107fe565b005b34801561027357600080fd5b5061028e60048036038101906102899190610de6565b6109ad565b005b60035481565b600047905090565b6102a6610aa5565b73ffffffffffffffffffffffffffffffffffffffff166102c4610479565b73ffffffffffffffffffffffffffffffffffffffff161461031a576040517f08c379a0000000000000000000000000000000000000000000000000000000008152600401610311906110fd565b60405180910390fd5b3373ffffffffffffffffffffffffffffffffffffffff166108fc479081150290604051600060405180830381858888f19350505050158015610360573d6000803e3d6000fd5b50565b606060018054806020026020016040519081016040528092919081815260200182805480156103e757602002820191906000526020600020905b8160009054906101000a900473ffffffffffffffffffffffffffffffffffffffff1673ffffffffffffffffffffffffffffffffffffffff168152602001906001019080831161039d575b5050505050905090565b6103f9610aa5565b73ffffffffffffffffffffffffffffffffffffffff16610417610479565b73ffffffffffffffffffffffffffffffffffffffff161461046d576040517f08c379a0000000000000000000000000000000000000000000000000000000008152600401610464906110fd565b60405180910390fd5b6104776000610aad565b565b60008060009054906101000a900473ffffffffffffffffffffffffffffffffffffffff16905090565b600181815481106104b257600080fd5b906000526020600020016000915054906101000a900473ffffffffffffffffffffffffffffffffffffffff1681565b6104e9610aa5565b73ffffffffffffffffffffffffffffffffffffffff16610507610479565b73ffffffffffffffffffffffffffffffffffffffff161461055d576040517f08c379a0000000000000000000000000000000000000000000000000000000008152600401610554906110fd565b60405180910390fd5b610565610479565b73ffffffffffffffffffffffffffffffffffffffff16ff5b610585610aa5565b73ffffffffffffffffffffffffffffffffffffffff166105a3610479565b73ffffffffffffffffffffffffffffffffffffffff16146105f9576040517f08c379a00000000000000000000000000000000000000000000000000000000081526004016105f0906110fd565b60405180910390fd5b8060028190555050565b600060025434101561064a576040517f08c379a00000000000000000000000000000000000000000000000000000000081526004016106419061111d565b60405180910390fd5b6000610677600560009054906101000a900473ffffffffffffffffffffffffffffffffffffffff16610b71565b905060006106a6600460009054906101000a900473ffffffffffffffffffffffffffffffffffffffff16610b71565b90508073ffffffffffffffffffffffffffffffffffffffff166347b70db033878760035430886040518763ffffffff1660e01b81526004016106ed9695949392919061104c565b600060405180830381600087803b15801561070757600080fd5b505af115801561071b573d6000803e3d6000fd5b505050508460405161072d919061101a565b60405180910390208173ffffffffffffffffffffffffffffffffffffffff167f45277a23a38027df0b3b8ce31022d3988d3a5b8b8d753608ab96b7d20b40bab360405160405180910390a36001819080600181540180825580915050600190039060005260206000200160009091909190916101000a81548173ffffffffffffffffffffffffffffffffffffffff021916908373ffffffffffffffffffffffffffffffffffffffff160217905550600360008154809291906107ee90611347565b9190505550809250505092915050565b610806610aa5565b73ffffffffffffffffffffffffffffffffffffffff16610824610479565b73ffffffffffffffffffffffffffffffffffffffff161461087a576040517f08c379a0000000000000000000000000000000000000000000000000000000008152600401610871906110fd565b60405180910390fd5b60008190508073ffffffffffffffffffffffffffffffffffffffff16639cb8a26a6040518163ffffffff1660e01b8152600401600060405180830381600087803b1580156108c757600080fd5b505af11580156108db573d6000803e3d6000fd5b5050505060005b6001805490508110156109a8578273ffffffffffffffffffffffffffffffffffffffff1660018281548110610940577f4e487b7100000000000000000000000000000000000000000000000000000000600052603260045260246000fd5b9060005260206000200160009054906101000a900473ffffffffffffffffffffffffffffffffffffffff1673ffffffffffffffffffffffffffffffffffffffff1614156109955761099081610bdb565b6109a8565b80806109a090611347565b9150506108e2565b505050565b6109b5610aa5565b73ffffffffffffffffffffffffffffffffffffffff166109d3610479565b73ffffffffffffffffffffffffffffffffffffffff1614610a29576040517f08c379a0000000000000000000000000000000000000000000000000000000008152600401610a20906110fd565b60405180910390fd5b600073ffffffffffffffffffffffffffffffffffffffff168173ffffffffffffffffffffffffffffffffffffffff161415610a99576040517f08c379a0000000000000000000000000000000000000000000000000000000008152600401610a90906110dd565b60405180910390fd5b610aa281610aad565b50565b600033905090565b60008060009054906101000a900473ffffffffffffffffffffffffffffffffffffffff169050816000806101000a81548173ffffffffffffffffffffffffffffffffffffffff021916908373ffffffffffffffffffffffffffffffffffffffff1602179055508173ffffffffffffffffffffffffffffffffffffffff168173ffffffffffffffffffffffffffffffffffffffff167f8be0079c531659141344cd1fd0a4f28419497f9722a3daafe3b4186f6b6457e060405160405180910390a35050565b6000808260601b90506040517f3d602d80600a3d3981f3363d3d373d3d3d363d7300000000000000000000000081528160148201527f5af43d82803e903d91602b57fd5bf3000000000000000000000000000000000060288201526037816000f092505050919050565b60008190505b60018080549050610bf29190611264565b811015610ce35760018082610c07919061120e565b81548110610c3e577f4e487b7100000000000000000000000000000000000000000000000000000000600052603260045260246000fd5b9060005260206000200160009054906101000a900473ffffffffffffffffffffffffffffffffffffffff1673ffffffffffffffffffffffffffffffffffffffff1660018281548110610cb9577f4e487b7100000000000000000000000000000000000000000000000000000000600052603260045260246000fd5b9060005260206000200160009054906101000a905050508080610cdb90611347565b915050610be1565b506001805480610d1c577f4e487b7100000000000000000000000000000000000000000000000000000000600052603160045260246000fd5b6001900381819060005260206000200160006101000a81549073ffffffffffffffffffffffffffffffffffffffff0219169055905550565b6000610d67610d628461117d565b611158565b905082815260208101848484011115610d7f57600080fd5b610d8a8482856112d4565b509392505050565b600081359050610da1816114a0565b92915050565b600082601f830112610db857600080fd5b8135610dc8848260208601610d54565b91505092915050565b600081359050610de0816114b7565b92915050565b600060208284031215610df857600080fd5b6000610e0684828501610d92565b91505092915050565b60008060408385031215610e2257600080fd5b600083013567ffffffffffffffff811115610e3c57600080fd5b610e4885828601610da7565b925050602083013567ffffffffffffffff811115610e6557600080fd5b610e7185828601610da7565b9150509250929050565b600060208284031215610e8d57600080fd5b6000610e9b84828501610dd1565b91505092915050565b6000610eb08383610ebc565b60208301905092915050565b610ec581611298565b82525050565b610ed481611298565b82525050565b6000610ee5826111be565b610eef81856111e1565b9350610efa836111ae565b8060005b83811015610f2b578151610f128882610ea4565b9750610f1d836111d4565b925050600181019050610efe565b5085935050505092915050565b6000610f43826111c9565b610f4d81856111f2565b9350610f5d8185602086016112e3565b610f66816113ee565b840191505092915050565b6000610f7c826111c9565b610f868185611203565b9350610f968185602086016112e3565b80840191505092915050565b6000610faf6026836111f2565b9150610fba826113ff565b604082019050919050565b6000610fd26020836111f2565b9150610fdd8261144e565b602082019050919050565b6000610ff56003836111f2565b915061100082611477565b602082019050919050565b611014816112ca565b82525050565b60006110268284610f71565b915081905092915050565b60006020820190506110466000830184610ecb565b92915050565b600060c0820190506110616000830189610ecb565b81810360208301526110738188610f38565b905081810360408301526110878187610f38565b9050611096606083018661100b565b6110a36080830185610ecb565b6110b060a0830184610ecb565b979650505050505050565b600060208201905081810360008301526110d58184610eda565b905092915050565b600060208201905081810360008301526110f681610fa2565b9050919050565b6000602082019050818103600083015261111681610fc5565b9050919050565b6000602082019050818103600083015261113681610fe8565b9050919050565b6000602082019050611152600083018461100b565b92915050565b6000611162611173565b905061116e8282611316565b919050565b6000604051905090565b600067ffffffffffffffff821115611198576111976113bf565b5b6111a1826113ee565b9050602081019050919050565b6000819050602082019050919050565b600081519050919050565b600081519050919050565b6000602082019050919050565b600082825260208201905092915050565b600082825260208201905092915050565b600081905092915050565b6000611219826112ca565b9150611224836112ca565b9250827fffffffffffffffffffffffffffffffffffffffffffffffffffffffffffffffff0382111561125957611258611390565b5b828201905092915050565b600061126f826112ca565b915061127a836112ca565b92508282101561128d5761128c611390565b5b828203905092915050565b60006112a3826112aa565b9050919050565b600073ffffffffffffffffffffffffffffffffffffffff82169050919050565b6000819050919050565b82818337600083830152505050565b60005b838110156113015780820151818401526020810190506112e6565b83811115611310576000848401525b50505050565b61131f826113ee565b810181811067ffffffffffffffff8211171561133e5761133d6113bf565b5b80604052505050565b6000611352826112ca565b91507fffffffffffffffffffffffffffffffffffffffffffffffffffffffffffffffff82141561138557611384611390565b5b600182019050919050565b7f4e487b7100000000000000000000000000000000000000000000000000000000600052601160045260246000fd5b7f4e487b7100000000000000000000000000000000000000000000000000000000600052604160045260246000fd5b6000601f19601f8301169050919050565b7f4f776e61626c653a206e6577206f776e657220697320746865207a65726f206160008201527f6464726573730000000000000000000000000000000000000000000000000000602082015250565b7f4f776e61626c653a2063616c6c6572206973206e6f7420746865206f776e6572600082015250565b7f4353300000000000000000000000000000000000000000000000000000000000600082015250565b6114a981611298565b81146114b457600080fd5b50565b6114c0816112ca565b81146114cb57600080fd5b5056fea2646970667358221220c94e75bb0734274ad7f253020485f8efe49c5079eda50f11d2e8739b645a836464736f6c63430008040033",
  "linkReferences": {},
  "deployedLinkReferences": {}
}