{
  "_format": "hh-sol-artifact-1",
  "contractName": "ShopFactory",
  "sourceName": "contracts/ShopFactory.sol",
  "abi": [
    {
      "inputs": [
        {
          "internalType": "address",
          "name": "_shopMakerAddr",
          "type": "address"
        }
      ],
      "stateMutability": "nonpayable",
      "type": "constructor"
    },
    {
      "anonymous": false,
      "inputs": [
        {
          "indexed": true,
          "internalType": "address",
          "name": "previousOwner",
          "type": "address"
        },
        {
          "indexed": true,
          "internalType": "address",
          "name": "newOwner",
          "type": "address"
        }
      ],
      "name": "OwnershipTransferred",
      "type": "event"
    },
    {
      "inputs": [
        {
          "internalType": "uint256",
          "name": "",
          "type": "uint256"
        }
      ],
      "name": "allShops",
      "outputs": [
        {
          "internalType": "address",
          "name": "",
          "type": "address"
        }
      ],
      "stateMutability": "view",
      "type": "function"
    },
    {
      "inputs": [
        {
          "internalType": "string",
          "name": "name",
          "type": "string"
        },
        {
          "internalType": "string",
          "name": "description",
          "type": "string"
        },
        {
          "internalType": "string",
          "name": "location",
          "type": "string"
        },
        {
          "internalType": "string",
          "name": "phone",
          "type": "string"
        },
        {
          "internalType": "string",
          "name": "image",
          "type": "string"
        }
      ],
      "name": "createShop",
      "outputs": [
        {
          "internalType": "address",
          "name": "",
          "type": "address"
        }
      ],
      "stateMutability": "payable",
      "type": "function"
    },
    {
      "inputs": [
        {
          "internalType": "address",
          "name": "deleteAddr",
          "type": "address"
        }
      ],
      "name": "deleteShop",
      "outputs": [],
      "stateMutability": "nonpayable",
      "type": "function"
    },
    {
      "inputs": [],
      "name": "fetchAllShops",
      "outputs": [
        {
          "internalType": "address[]",
          "name": "",
          "type": "address[]"
        }
      ],
      "stateMutability": "view",
      "type": "function"
    },
    {
      "inputs": [],
      "name": "getBalance",
      "outputs": [
        {
          "internalType": "uint256",
          "name": "",
          "type": "uint256"
        }
      ],
      "stateMutability": "view",
      "type": "function"
    },
    {
      "inputs": [],
      "name": "owner",
      "outputs": [
        {
          "internalType": "address",
          "name": "",
          "type": "address"
        }
      ],
      "stateMutability": "view",
      "type": "function"
    },
    {
      "inputs": [],
      "name": "renounceOwnership",
      "outputs": [],
      "stateMutability": "nonpayable",
      "type": "function"
    },
    {
      "inputs": [],
      "name": "selfDestruct",
      "outputs": [],
      "stateMutability": "nonpayable",
      "type": "function"
    },
    {
      "inputs": [
        {
          "internalType": "uint256",
          "name": "_price",
          "type": "uint256"
        }
      ],
      "name": "setShopPrice",
      "outputs": [],
      "stateMutability": "nonpayable",
      "type": "function"
    },
    {
      "inputs": [
        {
          "internalType": "address",
          "name": "newOwner",
          "type": "address"
        }
      ],
      "name": "transferOwnership",
      "outputs": [],
      "stateMutability": "nonpayable",
      "type": "function"
    },
    {
      "inputs": [],
      "name": "withdraw",
      "outputs": [],
      "stateMutability": "nonpayable",
      "type": "function"
    },
    {
      "stateMutability": "payable",
      "type": "receive"
    }
  ],
  "bytecode": "0x608060405260006002553480156200001657600080fd5b506040516200167f3803806200167f83398181016040528101906200003c919062000187565b6200005c62000050620000a460201b60201c565b620000ac60201b60201c565b80600360006101000a81548173ffffffffffffffffffffffffffffffffffffffff021916908373ffffffffffffffffffffffffffffffffffffffff1602179055505062000201565b600033905090565b60008060009054906101000a900473ffffffffffffffffffffffffffffffffffffffff169050816000806101000a81548173ffffffffffffffffffffffffffffffffffffffff021916908373ffffffffffffffffffffffffffffffffffffffff1602179055508173ffffffffffffffffffffffffffffffffffffffff168173ffffffffffffffffffffffffffffffffffffffff167f8be0079c531659141344cd1fd0a4f28419497f9722a3daafe3b4186f6b6457e060405160405180910390a35050565b6000815190506200018181620001e7565b92915050565b6000602082840312156200019a57600080fd5b6000620001aa8482850162000170565b91505092915050565b6000620001c082620001c7565b9050919050565b600073ffffffffffffffffffffffffffffffffffffffff82169050919050565b620001f281620001b3565b8114620001fe57600080fd5b50565b61146e80620002116000396000f3fe6080604052600436106100a05760003560e01c806396195dca1161006457806396195dca1461015b5780639cb8a26a14610198578063abc47baa146101af578063b8fd33a7146101d8578063e7bfea5014610208578063f2fde38b14610231576100a7565b806312065fe0146100ac5780633ccfd60b146100d75780636f0571e1146100ee578063715018a6146101195780638da5cb5b14610130576100a7565b366100a757005b600080fd5b3480156100b857600080fd5b506100c161025a565b6040516100ce91906110b2565b60405180910390f35b3480156100e357600080fd5b506100ec610262565b005b3480156100fa57600080fd5b50610103610327565b6040516101109190611030565b60405180910390f35b34801561012557600080fd5b5061012e6103b5565b005b34801561013c57600080fd5b5061014561043d565b6040516101529190610f83565b60405180910390f35b34801561016757600080fd5b50610182600480360381019061017d9190610e15565b610466565b60405161018f9190610f83565b60405180910390f35b3480156101a457600080fd5b506101ad6104a5565b005b3480156101bb57600080fd5b506101d660048036038101906101d19190610e15565b610541565b005b6101f260048036038101906101ed9190610d26565b6105c7565b6040516101ff9190610f83565b60405180910390f35b34801561021457600080fd5b5061022f600480360381019061022a9190610cd4565b610741565b005b34801561023d57600080fd5b5061025860048036038101906102539190610cd4565b6108f0565b005b600047905090565b61026a6109e8565b73ffffffffffffffffffffffffffffffffffffffff1661028861043d565b73ffffffffffffffffffffffffffffffffffffffff16146102de576040517f08c379a00000000000000000000000000000000000000000000000000000000081526004016102d590611072565b60405180910390fd5b3373ffffffffffffffffffffffffffffffffffffffff166108fc479081150290604051600060405180830381858888f19350505050158015610324573d6000803e3d6000fd5b50565b606060018054806020026020016040519081016040528092919081815260200182805480156103ab57602002820191906000526020600020905b8160009054906101000a900473ffffffffffffffffffffffffffffffffffffffff1673ffffffffffffffffffffffffffffffffffffffff1681526020019060010190808311610361575b5050505050905090565b6103bd6109e8565b73ffffffffffffffffffffffffffffffffffffffff166103db61043d565b73ffffffffffffffffffffffffffffffffffffffff1614610431576040517f08c379a000000000000000000000000000000000000000000000000000000000815260040161042890611072565b60405180910390fd5b61043b60006109f0565b565b60008060009054906101000a900473ffffffffffffffffffffffffffffffffffffffff16905090565b6001818154811061047657600080fd5b906000526020600020016000915054906101000a900473ffffffffffffffffffffffffffffffffffffffff1681565b6104ad6109e8565b73ffffffffffffffffffffffffffffffffffffffff166104cb61043d565b73ffffffffffffffffffffffffffffffffffffffff1614610521576040517f08c379a000000000000000000000000000000000000000000000000000000000815260040161051890611072565b60405180910390fd5b61052961043d565b73ffffffffffffffffffffffffffffffffffffffff16ff5b6105496109e8565b73ffffffffffffffffffffffffffffffffffffffff1661056761043d565b73ffffffffffffffffffffffffffffffffffffffff16146105bd576040517f08c379a00000000000000000000000000000000000000000000000000000000081526004016105b490611072565b60405180910390fd5b8060028190555050565b600060025434101561060e576040517f08c379a000000000000000000000000000000000000000000000000000000000815260040161060590611092565b60405180910390fd5b6000600360009054906101000a900473ffffffffffffffffffffffffffffffffffffffff16905060008173ffffffffffffffffffffffffffffffffffffffff166319c1cb9e338a8a8a8a8a306040518863ffffffff1660e01b815260040161067c9796959493929190610f9e565b602060405180830381600087803b15801561069657600080fd5b505af11580156106aa573d6000803e3d6000fd5b505050506040513d601f19601f820116820180604052508101906106ce9190610cfd565b90506001819080600181540180825580915050600190039060005260206000200160009091909190916101000a81548173ffffffffffffffffffffffffffffffffffffffff021916908373ffffffffffffffffffffffffffffffffffffffff160217905550809250505095945050505050565b6107496109e8565b73ffffffffffffffffffffffffffffffffffffffff1661076761043d565b73ffffffffffffffffffffffffffffffffffffffff16146107bd576040517f08c379a00000000000000000000000000000000000000000000000000000000081526004016107b490611072565b60405180910390fd5b60008190508073ffffffffffffffffffffffffffffffffffffffff16639cb8a26a6040518163ffffffff1660e01b8152600401600060405180830381600087803b15801561080a57600080fd5b505af115801561081e573d6000803e3d6000fd5b5050505060005b6001805490508110156108eb578273ffffffffffffffffffffffffffffffffffffffff1660018281548110610883577f4e487b7100000000000000000000000000000000000000000000000000000000600052603260045260246000fd5b9060005260206000200160009054906101000a900473ffffffffffffffffffffffffffffffffffffffff1673ffffffffffffffffffffffffffffffffffffffff1614156108d8576108d381610ab4565b6108eb565b80806108e3906112b1565b915050610825565b505050565b6108f86109e8565b73ffffffffffffffffffffffffffffffffffffffff1661091661043d565b73ffffffffffffffffffffffffffffffffffffffff161461096c576040517f08c379a000000000000000000000000000000000000000000000000000000000815260040161096390611072565b60405180910390fd5b600073ffffffffffffffffffffffffffffffffffffffff168173ffffffffffffffffffffffffffffffffffffffff1614156109dc576040517f08c379a00000000000000000000000000000000000000000000000000000000081526004016109d390611052565b60405180910390fd5b6109e5816109f0565b50565b600033905090565b60008060009054906101000a900473ffffffffffffffffffffffffffffffffffffffff169050816000806101000a81548173ffffffffffffffffffffffffffffffffffffffff021916908373ffffffffffffffffffffffffffffffffffffffff1602179055508173ffffffffffffffffffffffffffffffffffffffff168173ffffffffffffffffffffffffffffffffffffffff167f8be0079c531659141344cd1fd0a4f28419497f9722a3daafe3b4186f6b6457e060405160405180910390a35050565b60008190505b60018080549050610acb91906111ce565b811015610bbc5760018082610ae09190611178565b81548110610b17577f4e487b7100000000000000000000000000000000000000000000000000000000600052603260045260246000fd5b9060005260206000200160009054906101000a900473ffffffffffffffffffffffffffffffffffffffff1673ffffffffffffffffffffffffffffffffffffffff1660018281548110610b92577f4e487b7100000000000000000000000000000000000000000000000000000000600052603260045260246000fd5b9060005260206000200160009054906101000a905050508080610bb4906112b1565b915050610aba565b506001805480610bf5577f4e487b7100000000000000000000000000000000000000000000000000000000600052603160045260246000fd5b6001900381819060005260206000200160006101000a81549073ffffffffffffffffffffffffffffffffffffffff0219169055905550565b6000610c40610c3b846110f2565b6110cd565b905082815260208101848484011115610c5857600080fd5b610c6384828561123e565b509392505050565b600081359050610c7a8161140a565b92915050565b600081519050610c8f8161140a565b92915050565b600082601f830112610ca657600080fd5b8135610cb6848260208601610c2d565b91505092915050565b600081359050610cce81611421565b92915050565b600060208284031215610ce657600080fd5b6000610cf484828501610c6b565b91505092915050565b600060208284031215610d0f57600080fd5b6000610d1d84828501610c80565b91505092915050565b600080600080600060a08688031215610d3e57600080fd5b600086013567ffffffffffffffff811115610d5857600080fd5b610d6488828901610c95565b955050602086013567ffffffffffffffff811115610d8157600080fd5b610d8d88828901610c95565b945050604086013567ffffffffffffffff811115610daa57600080fd5b610db688828901610c95565b935050606086013567ffffffffffffffff811115610dd357600080fd5b610ddf88828901610c95565b925050608086013567ffffffffffffffff811115610dfc57600080fd5b610e0888828901610c95565b9150509295509295909350565b600060208284031215610e2757600080fd5b6000610e3584828501610cbf565b91505092915050565b6000610e4a8383610e56565b60208301905092915050565b610e5f81611202565b82525050565b610e6e81611202565b82525050565b6000610e7f82611133565b610e898185611156565b9350610e9483611123565b8060005b83811015610ec5578151610eac8882610e3e565b9750610eb783611149565b925050600181019050610e98565b5085935050505092915050565b6000610edd8261113e565b610ee78185611167565b9350610ef781856020860161124d565b610f0081611358565b840191505092915050565b6000610f18602683611167565b9150610f2382611369565b604082019050919050565b6000610f3b602083611167565b9150610f46826113b8565b602082019050919050565b6000610f5e600383611167565b9150610f69826113e1565b602082019050919050565b610f7d81611234565b82525050565b6000602082019050610f986000830184610e65565b92915050565b600060e082019050610fb3600083018a610e65565b8181036020830152610fc58189610ed2565b90508181036040830152610fd98188610ed2565b90508181036060830152610fed8187610ed2565b905081810360808301526110018186610ed2565b905081810360a08301526110158185610ed2565b905061102460c0830184610e65565b98975050505050505050565b6000602082019050818103600083015261104a8184610e74565b905092915050565b6000602082019050818103600083015261106b81610f0b565b9050919050565b6000602082019050818103600083015261108b81610f2e565b9050919050565b600060208201905081810360008301526110ab81610f51565b9050919050565b60006020820190506110c76000830184610f74565b92915050565b60006110d76110e8565b90506110e38282611280565b919050565b6000604051905090565b600067ffffffffffffffff82111561110d5761110c611329565b5b61111682611358565b9050602081019050919050565b6000819050602082019050919050565b600081519050919050565b600081519050919050565b6000602082019050919050565b600082825260208201905092915050565b600082825260208201905092915050565b600061118382611234565b915061118e83611234565b9250827fffffffffffffffffffffffffffffffffffffffffffffffffffffffffffffffff038211156111c3576111c26112fa565b5b828201905092915050565b60006111d982611234565b91506111e483611234565b9250828210156111f7576111f66112fa565b5b828203905092915050565b600061120d82611214565b9050919050565b600073ffffffffffffffffffffffffffffffffffffffff82169050919050565b6000819050919050565b82818337600083830152505050565b60005b8381101561126b578082015181840152602081019050611250565b8381111561127a576000848401525b50505050565b61128982611358565b810181811067ffffffffffffffff821117156112a8576112a7611329565b5b80604052505050565b60006112bc82611234565b91507fffffffffffffffffffffffffffffffffffffffffffffffffffffffffffffffff8214156112ef576112ee6112fa565b5b600182019050919050565b7f4e487b7100000000000000000000000000000000000000000000000000000000600052601160045260246000fd5b7f4e487b7100000000000000000000000000000000000000000000000000000000600052604160045260246000fd5b6000601f19601f8301169050919050565b7f4f776e61626c653a206e6577206f776e657220697320746865207a65726f206160008201527f6464726573730000000000000000000000000000000000000000000000000000602082015250565b7f4f776e61626c653a2063616c6c6572206973206e6f7420746865206f776e6572600082015250565b7f4353300000000000000000000000000000000000000000000000000000000000600082015250565b61141381611202565b811461141e57600080fd5b50565b61142a81611234565b811461143557600080fd5b5056fea264697066735822122017fafe1e271067369997cf932682893072cef25b45d9135aabd14919585e7b7e64736f6c63430008040033",
  "linkReferences": {},
  "deployedLinkReferences": {}
}